{
    "contractName": "MillRole",
    "abi": [
        {
            "inputs": [],
            "stateMutability": "nonpayable",
            "type": "constructor"
        },
        {
            "anonymous": false,
            "inputs": [
                {
                    "indexed": true,
                    "internalType": "address",
                    "name": "account",
                    "type": "address"
                }
            ],
            "name": "MillAdded",
            "type": "event"
        },
        {
            "anonymous": false,
            "inputs": [
                {
                    "indexed": true,
                    "internalType": "address",
                    "name": "account",
                    "type": "address"
                }
            ],
            "name": "MillRemoved",
            "type": "event"
        },
        {
            "inputs": [
                {
                    "internalType": "address",
                    "name": "account",
                    "type": "address"
                }
            ],
            "name": "addMill",
            "outputs": [],
            "stateMutability": "nonpayable",
            "type": "function"
        },
        {
            "inputs": [
                {
                    "internalType": "address",
                    "name": "account",
                    "type": "address"
                }
            ],
            "name": "isMill",
            "outputs": [
                {
                    "internalType": "bool",
                    "name": "",
                    "type": "bool"
                }
            ],
            "stateMutability": "view",
            "type": "function"
        },
        {
            "inputs": [],
            "name": "renounceMill",
            "outputs": [],
            "stateMutability": "nonpayable",
            "type": "function"
        }
    ],
    "bytecode": "608060405234801561001057600080fd5b5061001a3361001f565b6100ee565b61003781600061006d60201b6100c51790919060201c565b6040516001600160a01b038216907ea0477dded24b6f3ca0efb56770e84d7af0117bde8073e93a34e2f0b67f629290600090a250565b6001600160a01b03811661008057600080fd5b61008a82826100b9565b1561009457600080fd5b6001600160a01b0316600090815260209190915260409020805460ff19166001179055565b60006001600160a01b0382166100ce57600080fd5b506001600160a01b03166000908152602091909152604090205460ff1690565b610277806100fd6000396000f3fe608060405234801561001057600080fd5b50600436106100415760003560e01c8063150e34651461004657806318b50d071461006d578063e77f6d0514610082575b600080fd5b610059610054366004610211565b61008a565b604051901515815260200160405180910390f35b61008061007b366004610211565b61009c565b005b6100806100ba565b60006100968183610111565b92915050565b6100a53361008a565b6100ae57600080fd5b6100b781610146565b50565b6100c333610187565b565b6001600160a01b0381166100d857600080fd5b6100e28282610111565b156100ec57600080fd5b6001600160a01b0316600090815260209190915260409020805460ff19166001179055565b60006001600160a01b03821661012657600080fd5b506001600160a01b03166000908152602091909152604090205460ff1690565b6101516000826100c5565b6040516001600160a01b038216907ea0477dded24b6f3ca0efb56770e84d7af0117bde8073e93a34e2f0b67f629290600090a250565b6101926000826101c9565b6040516001600160a01b038216907f83d8cce936a4bacce731675cb6d6de235957309cc48eb6a36aa7ae1811eb9fab90600090a250565b6001600160a01b0381166101dc57600080fd5b6101e68282610111565b6101ef57600080fd5b6001600160a01b0316600090815260209190915260409020805460ff19169055565b60006020828403121561022357600080fd5b81356001600160a01b038116811461023a57600080fd5b939250505056fea264697066735822122070bbef4300e6978510354341bd782f4dac3159919ed4de5fed6374371850f76f64736f6c63430008070033",
    "sourcePath": "c:/Users/ayoub/prog/WheatBc/contracts/WheatAcessControl/MillRole.sol",
    "compiler": {
        "name": "solc",
        "version": "0.8.7+commit.e28d00a7"
    },
    "functionHashes": {
        "addMill(address)": "18b50d07",
        "isMill(address)": "150e3465",
        "renounceMill()": "e77f6d05"
    },
    "gasEstimates": {
        "creation": {
            "codeDepositCost": "126200",
            "executionCost": "infinite",
            "totalCost": "infinite"
        },
        "external": {
            "addMill(address)": "infinite",
            "isMill(address)": "2581",
            "renounceMill()": "28020"
        },
        "internal": {
            "_addMill(address)": "27855",
            "_removeMill(address)": "27846"
        }
    }
}