{
    "contractName": "SiloRole",
    "abi": [
        {
            "inputs": [],
            "stateMutability": "nonpayable",
            "type": "constructor"
        },
        {
            "anonymous": false,
            "inputs": [
                {
                    "indexed": true,
                    "internalType": "address",
                    "name": "account",
                    "type": "address"
                }
            ],
            "name": "SiloAdded",
            "type": "event"
        },
        {
            "anonymous": false,
            "inputs": [
                {
                    "indexed": true,
                    "internalType": "address",
                    "name": "account",
                    "type": "address"
                }
            ],
            "name": "SiloRemoved",
            "type": "event"
        },
        {
            "inputs": [
                {
                    "internalType": "address",
                    "name": "account",
                    "type": "address"
                }
            ],
            "name": "addSilo",
            "outputs": [],
            "stateMutability": "nonpayable",
            "type": "function"
        },
        {
            "inputs": [
                {
                    "internalType": "address",
                    "name": "account",
                    "type": "address"
                }
            ],
            "name": "isSilo",
            "outputs": [
                {
                    "internalType": "bool",
                    "name": "",
                    "type": "bool"
                }
            ],
            "stateMutability": "view",
            "type": "function"
        },
        {
            "inputs": [],
            "name": "renounceSilo",
            "outputs": [],
            "stateMutability": "nonpayable",
            "type": "function"
        }
    ],
    "bytecode": "608060405234801561001057600080fd5b5061001a3361001f565b6100ef565b61003781600061006e60201b6100c51790919060201c565b6040516001600160a01b038216907f4c8efb2f42d55d7d831e421921a3b89a7806bb65fdc7c5ccc226f2706660318990600090a250565b6001600160a01b03811661008157600080fd5b61008b82826100ba565b1561009557600080fd5b6001600160a01b0316600090815260209190915260409020805460ff19166001179055565b60006001600160a01b0382166100cf57600080fd5b506001600160a01b03166000908152602091909152604090205460ff1690565b610278806100fe6000396000f3fe608060405234801561001057600080fd5b50600436106100415760003560e01c806312f0dcd8146100465780632e4a437b1461006d5780637e4704f314610077575b600080fd5b610059610054366004610212565b61008a565b604051901515815260200160405180910390f35b61007561009c565b005b610075610085366004610212565b6100a7565b60006100968183610111565b92915050565b6100a533610146565b565b6100b03361008a565b6100b957600080fd5b6100c281610188565b50565b6001600160a01b0381166100d857600080fd5b6100e28282610111565b156100ec57600080fd5b6001600160a01b0316600090815260209190915260409020805460ff19166001179055565b60006001600160a01b03821661012657600080fd5b506001600160a01b03166000908152602091909152604090205460ff1690565b6101516000826101ca565b6040516001600160a01b038216907f667f5da192ef185267b681a3ea60c6a496a92711141d3e9cd25b4be0048f30ff90600090a250565b6101936000826100c5565b6040516001600160a01b038216907f4c8efb2f42d55d7d831e421921a3b89a7806bb65fdc7c5ccc226f2706660318990600090a250565b6001600160a01b0381166101dd57600080fd5b6101e78282610111565b6101f057600080fd5b6001600160a01b0316600090815260209190915260409020805460ff19169055565b60006020828403121561022457600080fd5b81356001600160a01b038116811461023b57600080fd5b939250505056fea26469706673582212201506976756b973a13acf58e5837d23484f5bb3db3bf029657438fc202fdd789b64736f6c63430008070033",
    "sourcePath": "c:/Users/ayoub/prog/WheatBc/contracts/WheatAcessControl/SiloRole.sol",
    "compiler": {
        "name": "solc",
        "version": "0.8.7+commit.e28d00a7"
    },
    "functionHashes": {
        "addSilo(address)": "7e4704f3",
        "isSilo(address)": "12f0dcd8",
        "renounceSilo()": "2e4a437b"
    },
    "gasEstimates": {
        "creation": {
            "codeDepositCost": "126400",
            "executionCost": "infinite",
            "totalCost": "infinite"
        },
        "external": {
            "addSilo(address)": "infinite",
            "isSilo(address)": "2581",
            "renounceSilo()": "27998"
        },
        "internal": {
            "_addSilo(address)": "27855",
            "_removeSilo(address)": "27846"
        }
    }
}