{
    "contractName": "TransporterRole",
    "abi": [
        {
            "inputs": [],
            "stateMutability": "nonpayable",
            "type": "constructor"
        },
        {
            "anonymous": false,
            "inputs": [
                {
                    "indexed": true,
                    "internalType": "address",
                    "name": "account",
                    "type": "address"
                }
            ],
            "name": "TransporterAdded",
            "type": "event"
        },
        {
            "anonymous": false,
            "inputs": [
                {
                    "indexed": true,
                    "internalType": "address",
                    "name": "account",
                    "type": "address"
                }
            ],
            "name": "TransporterRemoved",
            "type": "event"
        },
        {
            "inputs": [
                {
                    "internalType": "address",
                    "name": "account",
                    "type": "address"
                }
            ],
            "name": "addTransporter",
            "outputs": [],
            "stateMutability": "nonpayable",
            "type": "function"
        },
        {
            "inputs": [
                {
                    "internalType": "address",
                    "name": "account",
                    "type": "address"
                }
            ],
            "name": "isTransporter",
            "outputs": [
                {
                    "internalType": "bool",
                    "name": "",
                    "type": "bool"
                }
            ],
            "stateMutability": "view",
            "type": "function"
        },
        {
            "inputs": [],
            "name": "renounceTransporter",
            "outputs": [],
            "stateMutability": "nonpayable",
            "type": "function"
        }
    ],
    "bytecode": "608060405234801561001057600080fd5b5061001a3361001f565b6100ef565b61003781600061006e60201b6100c51790919060201c565b6040516001600160a01b038216907f4d9645f2965973330140385c3b546ad4c04b7ee2ae3abb69562f5929d6b8320b90600090a250565b6001600160a01b03811661008157600080fd5b61008b82826100ba565b1561009557600080fd5b6001600160a01b0316600090815260209190915260409020805460ff19166001179055565b60006001600160a01b0382166100cf57600080fd5b506001600160a01b03166000908152602091909152604090205460ff1690565b610278806100fe6000396000f3fe608060405234801561001057600080fd5b50600436106100415760003560e01c80632b8109d5146100465780632ea17b271461006d578063b702204914610077575b600080fd5b610059610054366004610212565b61008a565b604051901515815260200160405180910390f35b61007561009c565b005b610075610085366004610212565b6100a7565b60006100968183610111565b92915050565b6100a533610146565b565b6100b03361008a565b6100b957600080fd5b6100c281610188565b50565b6001600160a01b0381166100d857600080fd5b6100e28282610111565b156100ec57600080fd5b6001600160a01b0316600090815260209190915260409020805460ff19166001179055565b60006001600160a01b03821661012657600080fd5b506001600160a01b03166000908152602091909152604090205460ff1690565b6101516000826101ca565b6040516001600160a01b038216907f71c0ec84b3f18f4b5ab128b9b8ffdebbe0ccf91b486a336a5ce99bf62842ddda90600090a250565b6101936000826100c5565b6040516001600160a01b038216907f4d9645f2965973330140385c3b546ad4c04b7ee2ae3abb69562f5929d6b8320b90600090a250565b6001600160a01b0381166101dd57600080fd5b6101e78282610111565b6101f057600080fd5b6001600160a01b0316600090815260209190915260409020805460ff19169055565b60006020828403121561022457600080fd5b81356001600160a01b038116811461023b57600080fd5b939250505056fea26469706673582212203f1b03db55c8a938c360bf722c1f64c11e2e0129e9c180b20f8db17c9858af5964736f6c63430008070033",
    "sourcePath": "c:/Users/ayoub/prog/WheatBc/contracts/WheatAcessControl/TransporterRole.sol",
    "compiler": {
        "name": "solc",
        "version": "0.8.7+commit.e28d00a7"
    },
    "functionHashes": {
        "addTransporter(address)": "b7022049",
        "isTransporter(address)": "2b8109d5",
        "renounceTransporter()": "2ea17b27"
    },
    "gasEstimates": {
        "creation": {
            "codeDepositCost": "126400",
            "executionCost": "infinite",
            "totalCost": "infinite"
        },
        "external": {
            "addTransporter(address)": "infinite",
            "isTransporter(address)": "2581",
            "renounceTransporter()": "27998"
        },
        "internal": {
            "_addTransporter(address)": "27855",
            "_removeTransporter(address)": "27846"
        }
    }
}