{
	"data": {
		"bytecode": {
			"linkReferences": {},
			"object": "60806040523480156200001157600080fd5b50600080546001600160a01b0319163390811782556040519091907f5c486528ec3e3f0ea91181cff8116f02bfa350e03b8b6f12e00765adbb5af85c908290a36200005c33620000c0565b620000673362000112565b620000723362000164565b6200007d33620001b6565b620000883362000207565b620000933362000259565b6200009e33620002ab565b600880546001600160a01b031916331790556001600a81905560095562000383565b620000db816001620002fd60201b6200829c1790919060201c565b6040516001600160a01b038216907f2e0ded4123377a3c2bc9a26f1717655a129e2f20752924d42e730ec89c83dbd090600090a250565b6200012d816002620002fd60201b6200829c1790919060201c565b6040516001600160a01b038216907f4c8efb2f42d55d7d831e421921a3b89a7806bb65fdc7c5ccc226f2706660318990600090a250565b6200017f816003620002fd60201b6200829c1790919060201c565b6040516001600160a01b038216907f4d9645f2965973330140385c3b546ad4c04b7ee2ae3abb69562f5929d6b8320b90600090a250565b620001d1816004620002fd60201b6200829c1790919060201c565b6040516001600160a01b038216907ea0477dded24b6f3ca0efb56770e84d7af0117bde8073e93a34e2f0b67f629290600090a250565b62000222816005620002fd60201b6200829c1790919060201c565b6040516001600160a01b038216907fddbf200aa634dc3fb81cfd68583dd1040d1c751d335e1d86b631bde3e977fea890600090a250565b62000274816006620002fd60201b6200829c1790919060201c565b6040516001600160a01b038216907f71ae26cad02663e3d92efd6ec56031a80d74a20c0ab4183faa8bf262261c9baa90600090a250565b620002c6816007620002fd60201b6200829c1790919060201c565b6040516001600160a01b038216907f28b26e7a3d20aedbc5f8f2ebf7da671c0491723a2b78f47a097b0e46dee0714290600090a250565b6001600160a01b0381166200031157600080fd5b6200031d82826200034d565b156200032857600080fd5b6001600160a01b0316600090815260209190915260409020805460ff19166001179055565b60006001600160a01b0382166200036357600080fd5b506001600160a01b03166000908152602091909152604090205460ff1690565b618f5480620003936000396000f3fe608060405234801561001057600080fd5b50600436106103995760003560e01c80637250e224116101e9578063b94290691161010f578063e26a6d69116100ad578063f7134b7b1161007c578063f7134b7b14610862578063f916bf6314610875578063fdc1fdea14610888578063ffcbcd441461089b57600080fd5b8063e26a6d6914610812578063e77f6d0514610825578063f2fde38b1461082d578063f45c31741461084057600080fd5b8063c927b792116100e9578063c927b792146107b2578063d18f838f146107c5578063db0e6a2f146107ef578063e02e64ea146107f757600080fd5b8063b942906914610779578063c8bcd8711461078c578063c8ec77071461079f57600080fd5b80638b278e45116101875780638f32d59b116101565780638f32d59b1461071d578063a57a8f8914610730578063b4fccdaa14610743578063b70220491461076657600080fd5b80638b278e45146106d15780638ec4f505146106e45780638f0c86fa146106f75780638f15c6301461070a57600080fd5b806380c3f96d116101c357806380c3f96d1461069057806380fc0ce4146106a3578063834ff739146106ab5780638a74853f146106be57600080fd5b80637250e224146106575780637bf7fbf71461066a5780637e4704f31461067d57600080fd5b80632e157608116102ce57806357a096a11161026c57806363c4178e1161023b57806363c4178e14610621578063644241db146106345780636719570b1461063c578063715018a61461064f57600080fd5b806357a096a1146105525780635da09b88146105f35780635de010c91461060657806361e6982d1461061957600080fd5b806337341533116102a857806337341533146105065780634250b25314610519578063453536ac1461052c578063492bf5241461053f57600080fd5b80632e157608146104e35780632e4a437b146104f65780632ea17b27146104fe57600080fd5b8063197a04791161033b5780631d48a5e4116103155780631d48a5e4146104865780631e5766e5146104aa5780632a861005146104bd5780632b8109d5146104d057600080fd5b8063197a04791461044d5780631b4531ef146104605780631b84ba421461047357600080fd5b806312f0dcd81161037757806312f0dcd8146103d9578063150e34651461040157806315837e7d1461041457806318b50d071461043a57600080fd5b806302ee9e4d1461039e57806303c0c015146103b3578063112940f9146103c6575b600080fd5b6103b16103ac366004618b2a565b6108c2565b005b6103b16103c1366004618a5d565b6109e8565b6103b16103d4366004618a2d565b610aa7565b6103ec6103e7366004618a2d565b610ac5565b60405190151581526020015b60405180910390f35b6103ec61040f366004618a2d565b610ad8565b610427610422366004618a5d565b610ae5565b6040516103f89796959493929190618c96565b6103b1610448366004618a2d565b611836565b6103b161045b366004618a76565b611851565b6103b161046e366004618a5d565b61194a565b6103b1610481366004618a76565b611a20565b610499610494366004618a5d565b611afc565b6040516103f8959493929190618d53565b6103b16104b8366004618a5d565b612834565b6103b16104cb366004618a5d565b6128ee565b6103ec6104de366004618a2d565b6129a0565b6104996104f1366004618a5d565b6129ad565b6103b16136e5565b6103b16136f0565b6103b1610514366004618a76565b6136f9565b6103b1610527366004618a5d565b6137c7565b6103b161053a366004618a76565b613888565b6103b161054d366004618a76565b613956565b6105c6610560366004618a5d565b6000908152600c6020908152604091829020825160c08101845281548082526001830154938201849052600283015494820185905260038301546060830181905260048401546080840181905260059094015460a0909301839052909593949390929190565b604080519687526020870195909552938501929092526060840152608083015260a082015260c0016103f8565b6103ec610601366004618a2d565b613a41565b6103b1610614366004618a5d565b613a4e565b6103b1613b04565b6103b161062f366004618a5d565b613b0d565b6103b1613bc3565b6103b161064a366004618a76565b613bcc565b6103b1613c98565b6103b1610665366004618a2d565b613cf9565b6103b1610678366004618a5d565b613d14565b6103b161068b366004618a2d565b613dca565b6103b161069e366004618a2d565b613de5565b6103b1613e00565b6103ec6106b9366004618a2d565b613e09565b6103b16106cc366004618a5d565b613e16565b6103b16106df366004618a5d565b613ed5565b6103b16106f2366004618a2d565b613f96565b6103ec610705366004618a2d565b613fb1565b6103b1610718366004618b2a565b613fbe565b6000546001600160a01b031633146103ec565b6103b161073e366004618abd565b6140ec565b610756610751366004618a5d565b6141f4565b6040516103f89493929190618d0b565b6103b1610774366004618a2d565b614f25565b6103ec610787366004618a2d565b614f40565b6103b161079a366004618a76565b614f4d565b6103b16107ad366004618a76565b61501b565b6103b16107c0366004618abd565b615101565b6107d86107d3366004618a5d565b6156fe565b6040516103f89b9a99989796959493929190618dd2565b6103b16164ad565b6000546040516001600160a01b0390911681526020016103f8565b6103b1610820366004618a5d565b6164b6565b6103b161656c565b6103b161083b366004618a2d565b616575565b61085361084e366004618a5d565b616595565b6040516103f893929190618d9e565b6103b1610870366004618a5d565b6172bc565b6103b1610883366004618a76565b61736e565b6103b1610896366004618a76565b617459565b6108ae6108a9366004618a5d565b61753d565b6040516103f8989796959493929190618c09565b6108cb33610ad8565b6108d457600080fd5b83600c6000828152600b60205260409020602b015460ff1660198111156108fd576108fd618ef2565b1461090757600080fd5b6000858152600b60205260409020546001600160a01b031633811461092b57600080fd5b6000868152600b60209081526040909120602b8101805460ff1916600d179055865161095f92601b9092019188019061876e565b506000868152600b60209081526040909120855161098592601a9092019187019061876e565b506000868152600b6020908152604090912084516109ab92601c9092019186019061876e565b506040518681527f080a89a48d661a348c1b359a36dd71b2e8ca13001acf4574ab498d52097fd91b906020015b60405180910390a1505050505050565b6109f133610ad8565b6109fa57600080fd5b80600d6000828152600b60205260409020602b015460ff166019811115610a2357610a23618ef2565b14610a2d57600080fd5b6000828152600b60205260409020546001600160a01b0316338114610a5157600080fd5b6000838152600b6020908152604091829020602b01805460ff1916600e17905590518481527f2fc8c17bb6fb086638c55fe51c88af62a57142ca45adbe0288d0c5f5ddd6cb5591015b60405180910390a1505050565b610ab033613e09565b610ab957600080fd5b610ac2816182e8565b50565b6000610ad260028361832a565b92915050565b6000610ad260048361832a565b6000818152600b6020908152604080832081516105808101835281546001600160a01b0390811682526001830154948201949094526002820154928101929092526003810154606083810191909152600482015490931660808301526005810180548493849384938893849384939092909160a084019190610b6690618e86565b80601f0160208091040260200160405190810160405280929190818152602001828054610b9290618e86565b8015610bdf5780601f10610bb457610100808354040283529160200191610bdf565b820191906000526020600020905b815481529060010190602001808311610bc257829003601f168201915b50505050508152602001600682018054610bf890618e86565b80601f0160208091040260200160405190810160405280929190818152602001828054610c2490618e86565b8015610c715780601f10610c4657610100808354040283529160200191610c71565b820191906000526020600020905b815481529060010190602001808311610c5457829003601f168201915b50505050508152602001600782018054610c8a90618e86565b80601f0160208091040260200160405190810160405280929190818152602001828054610cb690618e86565b8015610d035780601f10610cd857610100808354040283529160200191610d03565b820191906000526020600020905b815481529060010190602001808311610ce657829003601f168201915b50505050508152602001600882018054610d1c90618e86565b80601f0160208091040260200160405190810160405280929190818152602001828054610d4890618e86565b8015610d955780601f10610d6a57610100808354040283529160200191610d95565b820191906000526020600020905b815481529060010190602001808311610d7857829003601f168201915b505050918352505060098201546020820152600a8201546040820152600b8201546001600160a01b03166060820152600c82018054608090920191610dd990618e86565b80601f0160208091040260200160405190810160405280929190818152602001828054610e0590618e86565b8015610e525780601f10610e2757610100808354040283529160200191610e52565b820191906000526020600020905b815481529060010190602001808311610e3557829003601f168201915b50505050508152602001600d82018054610e6b90618e86565b80601f0160208091040260200160405190810160405280929190818152602001828054610e9790618e86565b8015610ee45780601f10610eb957610100808354040283529160200191610ee4565b820191906000526020600020905b815481529060010190602001808311610ec757829003601f168201915b50505050508152602001600e82018054610efd90618e86565b80601f0160208091040260200160405190810160405280929190818152602001828054610f2990618e86565b8015610f765780601f10610f4b57610100808354040283529160200191610f76565b820191906000526020600020905b815481529060010190602001808311610f5957829003601f168201915b50505050508152602001600f82018054610f8f90618e86565b80601f0160208091040260200160405190810160405280929190818152602001828054610fbb90618e86565b80156110085780601f10610fdd57610100808354040283529160200191611008565b820191906000526020600020905b815481529060010190602001808311610feb57829003601f168201915b5050509183525050601082015460208201526011820154604082015260128201546001600160a01b0316606082015260138201805460809092019161104c90618e86565b80601f016020809104026020016040519081016040528092919081815260200182805461107890618e86565b80156110c55780601f1061109a576101008083540402835291602001916110c5565b820191906000526020600020905b8154815290600101906020018083116110a857829003601f168201915b505050505081526020016014820180546110de90618e86565b80601f016020809104026020016040519081016040528092919081815260200182805461110a90618e86565b80156111575780601f1061112c57610100808354040283529160200191611157565b820191906000526020600020905b81548152906001019060200180831161113a57829003601f168201915b5050509183525050601582015460208201526016820154604082015260178201546001600160a01b0316606082015260188201805460809092019161119b90618e86565b80601f01602080910402602001604051908101604052809291908181526020018280546111c790618e86565b80156112145780601f106111e957610100808354040283529160200191611214565b820191906000526020600020905b8154815290600101906020018083116111f757829003601f168201915b5050505050815260200160198201805461122d90618e86565b80601f016020809104026020016040519081016040528092919081815260200182805461125990618e86565b80156112a65780601f1061127b576101008083540402835291602001916112a6565b820191906000526020600020905b81548152906001019060200180831161128957829003601f168201915b50505050508152602001601a820180546112bf90618e86565b80601f01602080910402602001604051908101604052809291908181526020018280546112eb90618e86565b80156113385780601f1061130d57610100808354040283529160200191611338565b820191906000526020600020905b81548152906001019060200180831161131b57829003601f168201915b50505050508152602001601b8201805461135190618e86565b80601f016020809104026020016040519081016040528092919081815260200182805461137d90618e86565b80156113ca5780601f1061139f576101008083540402835291602001916113ca565b820191906000526020600020905b8154815290600101906020018083116113ad57829003601f168201915b50505050508152602001601c820180546113e390618e86565b80601f016020809104026020016040519081016040528092919081815260200182805461140f90618e86565b801561145c5780601f106114315761010080835404028352916020019161145c565b820191906000526020600020905b81548152906001019060200180831161143f57829003601f168201915b5050509183525050601d820154602080830191909152601e8301546040830152601f8301546001600160a01b03166060830152820180546080909201916114a290618e86565b80601f01602080910402602001604051908101604052809291908181526020018280546114ce90618e86565b801561151b5780601f106114f05761010080835404028352916020019161151b565b820191906000526020600020905b8154815290600101906020018083116114fe57829003601f168201915b5050505050815260200160218201805461153490618e86565b80601f016020809104026020016040519081016040528092919081815260200182805461156090618e86565b80156115ad5780601f10611582576101008083540402835291602001916115ad565b820191906000526020600020905b81548152906001019060200180831161159057829003601f168201915b5050509183525050602282015460208201526023820154604082015260248201546001600160a01b031660608201526025820180546080909201916115f190618e86565b80601f016020809104026020016040519081016040528092919081815260200182805461161d90618e86565b801561166a5780601f1061163f5761010080835404028352916020019161166a565b820191906000526020600020905b81548152906001019060200180831161164d57829003601f168201915b5050505050815260200160268201805461168390618e86565b80601f01602080910402602001604051908101604052809291908181526020018280546116af90618e86565b80156116fc5780601f106116d1576101008083540402835291602001916116fc565b820191906000526020600020905b8154815290600101906020018083116116df57829003601f168201915b50505091835250506027820154602082015260288201546001600160a01b0316604082015260298201805460609092019161173690618e86565b80601f016020809104026020016040519081016040528092919081815260200182805461176290618e86565b80156117af5780601f10611784576101008083540402835291602001916117af565b820191906000526020600020905b81548152906001019060200180831161179257829003601f168201915b5050509183525050602a8201546020820152602b82015460409091019060ff1660198111156117e0576117e0618ef2565b60198111156117f1576117f1618ef2565b9052506101608101516101808201516101a08301516101c08401516101e085015161020086015161022090960151949f939e50919c509a509850919650945092505050565b61183f33610ad8565b61184857600080fd5b610ac28161835f565b61185a33613a41565b61186357600080fd5b8160156000828152600b60205260409020602b015460ff16601981111561188c5761188c618ef2565b1461189657600080fd5b6000838152600b60205260409020546001600160a01b03163381146118ba57600080fd5b6000848152600b60209081526040909120602b8101805460ff1916601617905542602782015584516118f49260259092019186019061876e565b506000848152600c60205260409081902043600490910155517f3ad7f6994ec57ddf2643d9c407dbebe50f61bce4866ff1c47e9ede1f4f35e4d39061193c9086815260200190565b60405180910390a150505050565b61195333610ac5565b61195c57600080fd5b8060086000828152600b60205260409020602b015460ff16601981111561198557611985618ef2565b1461198f57600080fd5b6000828152600b6020819052604090912001546001600160a01b03163381146119b757600080fd5b6000838152600b60208181526040808420602b8101805460ff19166009179055600c835293819020436001919091015591815242601190930192909255518481527fa8af7baeb697f9f6205da1b9373fc85791aa19aa2b21749d80ba8c8e9a64b7cf9101610a9a565b611a2933610ac5565b611a3257600080fd5b8160056000828152600b60205260409020602b015460ff166019811115611a5b57611a5b618ef2565b14611a6557600080fd5b6000838152600b60205260409020546001600160a01b0316338114611a8957600080fd5b6000848152600b602090815260409091208451611aae92600f9092019186019061876e565b506000848152600b6020908152604091829020602b01805460ff1916600617905590518581527f1b25471619210b4c254eb01319715c6579c3037a230f624154fe1551604ba11d910161193c565b6000818152600b6020908152604080832081516105808101835281546001600160a01b039081168252600183015494820194909452600282015492810192909252600381015460608381019190915260048201549093166080830152600581018054849386938493849360a084019190611b7590618e86565b80601f0160208091040260200160405190810160405280929190818152602001828054611ba190618e86565b8015611bee5780601f10611bc357610100808354040283529160200191611bee565b820191906000526020600020905b815481529060010190602001808311611bd157829003601f168201915b50505050508152602001600682018054611c0790618e86565b80601f0160208091040260200160405190810160405280929190818152602001828054611c3390618e86565b8015611c805780601f10611c5557610100808354040283529160200191611c80565b820191906000526020600020905b815481529060010190602001808311611c6357829003601f168201915b50505050508152602001600782018054611c9990618e86565b80601f0160208091040260200160405190810160405280929190818152602001828054611cc590618e86565b8015611d125780601f10611ce757610100808354040283529160200191611d12565b820191906000526020600020905b815481529060010190602001808311611cf557829003601f168201915b50505050508152602001600882018054611d2b90618e86565b80601f0160208091040260200160405190810160405280929190818152602001828054611d5790618e86565b8015611da45780601f10611d7957610100808354040283529160200191611da4565b820191906000526020600020905b815481529060010190602001808311611d8757829003601f168201915b505050918352505060098201546020820152600a8201546040820152600b8201546001600160a01b03166060820152600c82018054608090920191611de890618e86565b80601f0160208091040260200160405190810160405280929190818152602001828054611e1490618e86565b8015611e615780601f10611e3657610100808354040283529160200191611e61565b820191906000526020600020905b815481529060010190602001808311611e4457829003601f168201915b50505050508152602001600d82018054611e7a90618e86565b80601f0160208091040260200160405190810160405280929190818152602001828054611ea690618e86565b8015611ef35780601f10611ec857610100808354040283529160200191611ef3565b820191906000526020600020905b815481529060010190602001808311611ed657829003601f168201915b50505050508152602001600e82018054611f0c90618e86565b80601f0160208091040260200160405190810160405280929190818152602001828054611f3890618e86565b8015611f855780601f10611f5a57610100808354040283529160200191611f85565b820191906000526020600020905b815481529060010190602001808311611f6857829003601f168201915b50505050508152602001600f82018054611f9e90618e86565b80601f0160208091040260200160405190810160405280929190818152602001828054611fca90618e86565b80156120175780601f10611fec57610100808354040283529160200191612017565b820191906000526020600020905b815481529060010190602001808311611ffa57829003601f168201915b5050509183525050601082015460208201526011820154604082015260128201546001600160a01b0316606082015260138201805460809092019161205b90618e86565b80601f016020809104026020016040519081016040528092919081815260200182805461208790618e86565b80156120d45780601f106120a9576101008083540402835291602001916120d4565b820191906000526020600020905b8154815290600101906020018083116120b757829003601f168201915b505050505081526020016014820180546120ed90618e86565b80601f016020809104026020016040519081016040528092919081815260200182805461211990618e86565b80156121665780601f1061213b57610100808354040283529160200191612166565b820191906000526020600020905b81548152906001019060200180831161214957829003601f168201915b5050509183525050601582015460208201526016820154604082015260178201546001600160a01b031660608201526018820180546080909201916121aa90618e86565b80601f01602080910402602001604051908101604052809291908181526020018280546121d690618e86565b80156122235780601f106121f857610100808354040283529160200191612223565b820191906000526020600020905b81548152906001019060200180831161220657829003601f168201915b5050505050815260200160198201805461223c90618e86565b80601f016020809104026020016040519081016040528092919081815260200182805461226890618e86565b80156122b55780601f1061228a576101008083540402835291602001916122b5565b820191906000526020600020905b81548152906001019060200180831161229857829003601f168201915b50505050508152602001601a820180546122ce90618e86565b80601f01602080910402602001604051908101604052809291908181526020018280546122fa90618e86565b80156123475780601f1061231c57610100808354040283529160200191612347565b820191906000526020600020905b81548152906001019060200180831161232a57829003601f168201915b50505050508152602001601b8201805461236090618e86565b80601f016020809104026020016040519081016040528092919081815260200182805461238c90618e86565b80156123d95780601f106123ae576101008083540402835291602001916123d9565b820191906000526020600020905b8154815290600101906020018083116123bc57829003601f168201915b50505050508152602001601c820180546123f290618e86565b80601f016020809104026020016040519081016040528092919081815260200182805461241e90618e86565b801561246b5780601f106124405761010080835404028352916020019161246b565b820191906000526020600020905b81548152906001019060200180831161244e57829003601f168201915b5050509183525050601d820154602080830191909152601e8301546040830152601f8301546001600160a01b03166060830152820180546080909201916124b190618e86565b80601f01602080910402602001604051908101604052809291908181526020018280546124dd90618e86565b801561252a5780601f106124ff5761010080835404028352916020019161252a565b820191906000526020600020905b81548152906001019060200180831161250d57829003601f168201915b5050505050815260200160218201805461254390618e86565b80601f016020809104026020016040519081016040528092919081815260200182805461256f90618e86565b80156125bc5780601f10612591576101008083540402835291602001916125bc565b820191906000526020600020905b81548152906001019060200180831161259f57829003601f168201915b5050509183525050602282015460208201526023820154604082015260248201546001600160a01b0316606082015260258201805460809092019161260090618e86565b80601f016020809104026020016040519081016040528092919081815260200182805461262c90618e86565b80156126795780601f1061264e57610100808354040283529160200191612679565b820191906000526020600020905b81548152906001019060200180831161265c57829003601f168201915b5050505050815260200160268201805461269290618e86565b80601f01602080910402602001604051908101604052809291908181526020018280546126be90618e86565b801561270b5780601f106126e05761010080835404028352916020019161270b565b820191906000526020600020905b8154815290600101906020018083116126ee57829003601f168201915b50505091835250506027820154602082015260288201546001600160a01b0316604082015260298201805460609092019161274590618e86565b80601f016020809104026020016040519081016040528092919081815260200182805461277190618e86565b80156127be5780601f10612793576101008083540402835291602001916127be565b820191906000526020600020905b8154815290600101906020018083116127a157829003601f168201915b5050509183525050602a8201546020820152602b82015460409091019060ff1660198111156127ef576127ef618ef2565b601981111561280057612800618ef2565b9052506103e081015161040082015161042083015161044084015161046090940151929b919a509850919650945092505050565b61283d33613fb1565b61284657600080fd5b80600e6000828152600b60205260409020602b015460ff16601981111561286f5761286f618ef2565b1461287957600080fd5b6000828152600b602090815260409182902080546001600160a01b0319908116339081178355601f83018054909216179055602b01805460ff1916600f17905590518381527fb64a650bd16fdcc58820f555d97b554e91b54798dad96aa8edc7bfbe9485603a91015b60405180910390a15050565b6128f733610ad8565b61290057600080fd5b8060076000828152600b60205260409020602b015460ff16601981111561292957612929618ef2565b1461293357600080fd5b6000828152600b602090815260409182902080546001600160a01b0319908116339081178355601783018054909216179055602b01805460ff1916600817905590518381527f784d5d462b810ea2026b9e53c351191f8300eb50e1f674d21ed03ea527d881fd91016128e2565b6000610ad260038361832a565b6000818152600b6020908152604080832081516105808101835281546001600160a01b039081168252600183015494820194909452600282015492810192909252600381015460608381019190915260048201549093166080830152600581018054849386938493849360a084019190612a2690618e86565b80601f0160208091040260200160405190810160405280929190818152602001828054612a5290618e86565b8015612a9f5780601f10612a7457610100808354040283529160200191612a9f565b820191906000526020600020905b815481529060010190602001808311612a8257829003601f168201915b50505050508152602001600682018054612ab890618e86565b80601f0160208091040260200160405190810160405280929190818152602001828054612ae490618e86565b8015612b315780601f10612b0657610100808354040283529160200191612b31565b820191906000526020600020905b815481529060010190602001808311612b1457829003601f168201915b50505050508152602001600782018054612b4a90618e86565b80601f0160208091040260200160405190810160405280929190818152602001828054612b7690618e86565b8015612bc35780601f10612b9857610100808354040283529160200191612bc3565b820191906000526020600020905b815481529060010190602001808311612ba657829003601f168201915b50505050508152602001600882018054612bdc90618e86565b80601f0160208091040260200160405190810160405280929190818152602001828054612c0890618e86565b8015612c555780601f10612c2a57610100808354040283529160200191612c55565b820191906000526020600020905b815481529060010190602001808311612c3857829003601f168201915b505050918352505060098201546020820152600a8201546040820152600b8201546001600160a01b03166060820152600c82018054608090920191612c9990618e86565b80601f0160208091040260200160405190810160405280929190818152602001828054612cc590618e86565b8015612d125780601f10612ce757610100808354040283529160200191612d12565b820191906000526020600020905b815481529060010190602001808311612cf557829003601f168201915b50505050508152602001600d82018054612d2b90618e86565b80601f0160208091040260200160405190810160405280929190818152602001828054612d5790618e86565b8015612da45780601f10612d7957610100808354040283529160200191612da4565b820191906000526020600020905b815481529060010190602001808311612d8757829003601f168201915b50505050508152602001600e82018054612dbd90618e86565b80601f0160208091040260200160405190810160405280929190818152602001828054612de990618e86565b8015612e365780601f10612e0b57610100808354040283529160200191612e36565b820191906000526020600020905b815481529060010190602001808311612e1957829003601f168201915b50505050508152602001600f82018054612e4f90618e86565b80601f0160208091040260200160405190810160405280929190818152602001828054612e7b90618e86565b8015612ec85780601f10612e9d57610100808354040283529160200191612ec8565b820191906000526020600020905b815481529060010190602001808311612eab57829003601f168201915b5050509183525050601082015460208201526011820154604082015260128201546001600160a01b03166060820152601382018054608090920191612f0c90618e86565b80601f0160208091040260200160405190810160405280929190818152602001828054612f3890618e86565b8015612f855780601f10612f5a57610100808354040283529160200191612f85565b820191906000526020600020905b815481529060010190602001808311612f6857829003601f168201915b50505050508152602001601482018054612f9e90618e86565b80601f0160208091040260200160405190810160405280929190818152602001828054612fca90618e86565b80156130175780601f10612fec57610100808354040283529160200191613017565b820191906000526020600020905b815481529060010190602001808311612ffa57829003601f168201915b5050509183525050601582015460208201526016820154604082015260178201546001600160a01b0316606082015260188201805460809092019161305b90618e86565b80601f016020809104026020016040519081016040528092919081815260200182805461308790618e86565b80156130d45780601f106130a9576101008083540402835291602001916130d4565b820191906000526020600020905b8154815290600101906020018083116130b757829003601f168201915b505050505081526020016019820180546130ed90618e86565b80601f016020809104026020016040519081016040528092919081815260200182805461311990618e86565b80156131665780601f1061313b57610100808354040283529160200191613166565b820191906000526020600020905b81548152906001019060200180831161314957829003601f168201915b50505050508152602001601a8201805461317f90618e86565b80601f01602080910402602001604051908101604052809291908181526020018280546131ab90618e86565b80156131f85780601f106131cd576101008083540402835291602001916131f8565b820191906000526020600020905b8154815290600101906020018083116131db57829003601f168201915b50505050508152602001601b8201805461321190618e86565b80601f016020809104026020016040519081016040528092919081815260200182805461323d90618e86565b801561328a5780601f1061325f5761010080835404028352916020019161328a565b820191906000526020600020905b81548152906001019060200180831161326d57829003601f168201915b50505050508152602001601c820180546132a390618e86565b80601f01602080910402602001604051908101604052809291908181526020018280546132cf90618e86565b801561331c5780601f106132f15761010080835404028352916020019161331c565b820191906000526020600020905b8154815290600101906020018083116132ff57829003601f168201915b5050509183525050601d820154602080830191909152601e8301546040830152601f8301546001600160a01b031660608301528201805460809092019161336290618e86565b80601f016020809104026020016040519081016040528092919081815260200182805461338e90618e86565b80156133db5780601f106133b0576101008083540402835291602001916133db565b820191906000526020600020905b8154815290600101906020018083116133be57829003601f168201915b505050505081526020016021820180546133f490618e86565b80601f016020809104026020016040519081016040528092919081815260200182805461342090618e86565b801561346d5780601f106134425761010080835404028352916020019161346d565b820191906000526020600020905b81548152906001019060200180831161345057829003601f168201915b5050509183525050602282015460208201526023820154604082015260248201546001600160a01b031660608201526025820180546080909201916134b190618e86565b80601f01602080910402602001604051908101604052809291908181526020018280546134dd90618e86565b801561352a5780601f106134ff5761010080835404028352916020019161352a565b820191906000526020600020905b81548152906001019060200180831161350d57829003601f168201915b5050505050815260200160268201805461354390618e86565b80601f016020809104026020016040519081016040528092919081815260200182805461356f90618e86565b80156135bc5780601f10613591576101008083540402835291602001916135bc565b820191906000526020600020905b81548152906001019060200180831161359f57829003601f168201915b50505091835250506027820154602082015260288201546001600160a01b031660408201526029820180546060909201916135f690618e86565b80601f016020809104026020016040519081016040528092919081815260200182805461362290618e86565b801561366f5780601f106136445761010080835404028352916020019161366f565b820191906000526020600020905b81548152906001019060200180831161365257829003601f168201915b5050509183525050602a8201546020820152602b82015460409091019060ff1660198111156136a0576136a0618ef2565b60198111156136b1576136b1618ef2565b9052506102408101516102608201516102808301516102a08401516102c090940151929b919a509850919650945092505050565b6136ee336183a0565b565b6136ee336183e2565b61370233610ad8565b61370b57600080fd5b81600b6000828152600b60205260409020602b015460ff16601981111561373457613734618ef2565b1461373e57600080fd5b6000838152600b60205260409020546001600160a01b031633811461376257600080fd5b6000848152600b60209081526040909120602b8101805460ff1916600c17905584516137969260199092019186019061876e565b506040518481527f958b80388d309396ca845bf0d784abb7f42548d9aab59a8321d62c56fd2dc2f19060200161193c565b6137d033613fb1565b6137d957600080fd5b8060146000828152600b60205260409020602b015460ff16601981111561380257613802618ef2565b1461380c57600080fd5b6000828152600b60205260409020601f01546001600160a01b031633811461383357600080fd5b6000838152600b6020908152604091829020602b8101805460ff191660151790554260239091015590518481527fa8b0866b93c89ae2c85673d1b96e6466a54d79a672098832b03400cd0ba2baa09101610a9a565b61389133614f40565b61389a57600080fd5b8160016000828152600b60205260409020602b015460ff1660198111156138c3576138c3618ef2565b146138cd57600080fd5b6000838152600b60205260409020546001600160a01b03163381146138f157600080fd5b6000848152600b60209081526040909120602b8101805460ff1916600217905584516139259260079092019186019061876e565b506040518481527f8e2298ffc95713bb8acd959144050ab8cd87e6d8954f350a2d49449ed0f6ee339060200161193c565b61395f33613e09565b61396857600080fd5b8160186000828152600b60205260409020602b015460ff16601981111561399157613991618ef2565b1461399b57600080fd5b6000838152600b602090815260409091208054336001600160a01b03199182168117835560288301805490921617905542602a82015583516139e59260299092019185019061876e565b506000838152600b60209081526040808320602b01805460ff19166019179055600c8252918290204360059091015590518481527f4df39d1b00b9eb27227f5b2731af1a5c756969533540b415979caa2b1ed022069101610a9a565b6000610ad260068361832a565b613a5733610ac5565b613a6057600080fd5b8060066000828152600b60205260409020602b015460ff166019811115613a8957613a89618ef2565b14613a9357600080fd5b6000828152600b60205260409020546001600160a01b0316338114613ab757600080fd5b6000838152600b6020908152604091829020602b01805460ff1916600717905590518481527fb08aaff3f8c46416b680a72a3addd304f2e33c6d2438f4e91548520896cd038b9101610a9a565b6136ee33618424565b613b1633613a41565b613b1f57600080fd5b8060176000828152600b60205260409020602b015460ff166019811115613b4857613b48618ef2565b14613b5257600080fd5b6000828152600b60205260409020546001600160a01b0316338114613b7657600080fd5b6000838152600b6020908152604091829020602b01805460ff1916601817905590518481527f59e7ad085805e2b02ad4b0f8033bd75e7ee4c8cd43f996267463585e358962529101610a9a565b6136ee33618466565b613bd533613fb1565b613bde57600080fd5b8160116000828152600b60205260409020602b015460ff166019811115613c0757613c07618ef2565b14613c1157600080fd5b6000838152600b60205260409020546001600160a01b0316338114613c3557600080fd5b6000848152600b60209081526040909120602b8101805460ff191660121790558451613c67929182019186019061876e565b506040518481527f3ad20b3682ca16cc276eb05382b2460770786abab6f18305f8558c9f02cb84d59060200161193c565b6008546001600160a01b03163314613caf57600080fd5b600080546040516001600160a01b03909116907f5c486528ec3e3f0ea91181cff8116f02bfa350e03b8b6f12e00765adbb5af85c908390a3600080546001600160a01b0319169055565b613d0233613fb1565b613d0b57600080fd5b610ac2816184a8565b613d1d33613fb1565b613d2657600080fd5b8060126000828152600b60205260409020602b015460ff166019811115613d4f57613d4f618ef2565b14613d5957600080fd5b6000828152600b60205260409020546001600160a01b0316338114613d7d57600080fd5b6000838152600b6020908152604091829020602b01805460ff1916601317905590518481527f539b4a835a8a5d1bc5756a9f146e2bfeaa6bd6b1fa77a7631c0a5154c86cdd039101610a9a565b613dd333610ac5565b613ddc57600080fd5b610ac2816184ea565b613dee33614f40565b613df757600080fd5b610ac28161852c565b6136ee3361856e565b6000610ad260078361832a565b613e1f33610ac5565b613e2857600080fd5b8060036000828152600b60205260409020602b015460ff166019811115613e5157613e51618ef2565b14613e5b57600080fd5b6000828152600b6020818152604080842080546001600160a01b03199081163390811783559482018054909116909417909355602b909201805460ff19166004179055600c815291819020439055518381527f4dd7033ed3dcf232309d09d67ab4bb185cd9a35b4cc73c6767d09f26c3eecf5d91016128e2565b613ede33610ad8565b613ee757600080fd5b80600f6000828152600b60205260409020602b015460ff166019811115613f1057613f10618ef2565b14613f1a57600080fd5b6000828152600b60205260409020601701546001600160a01b0316338114613f4157600080fd5b6000838152600b6020908152604091829020602b8101805460ff1916601017905542601e9091015590518481527f472063b547a8d7724e029eaa0f6d0d287c855c575396b23432cafcdb5706d0589101610a9a565b613f9f33613a41565b613fa857600080fd5b610ac2816185b0565b6000610ad260058361832a565b613fc733610ac5565b613fd057600080fd5b8360046000828152600b60205260409020602b015460ff166019811115613ff957613ff9618ef2565b1461400357600080fd5b6000858152600b60205260409020546001600160a01b031633811461402757600080fd5b6000868152600b60209081526040909120426010820155865161405292600c9092019188019061876e565b506000868152600b60209081526040909120855161407892600d9092019187019061876e565b506000868152600b60209081526040909120845161409e92600e9092019186019061876e565b506000868152600b6020908152604091829020602b01805460ff1916600517905590518781527fd3234c79bb7fda55fddde9316e98a91b781126438795a393bad7a4100d6ac5f391016109d8565b6140f5336129a0565b6140fe57600080fd5b8260096000828152600b60205260409020602b015460ff16601981111561412757614127618ef2565b1461413157600080fd5b6000848152600b602090815260409091206012810180546001600160a01b03191633179055845161416a9260139092019186019061876e565b506000848152600b6020908152604090912083516141909260149092019185019061876e565b506000848152600b60209081526040808320602b8101805460ff1916600a17905542601690910155600c8252918290204360029091015590518581527f3929a8380599bf812215e48de344dd9919b69c4119c3b3b0b2da4054637be903910161193c565b6000818152600b6020908152604080832081516105808101835281546001600160a01b0390811682526001830154948201949094526002820154928101929092526003810154606083810191909152600482015490931660808301526005810180548493869384939192909160a084019161426e90618e86565b80601f016020809104026020016040519081016040528092919081815260200182805461429a90618e86565b80156142e75780601f106142bc576101008083540402835291602001916142e7565b820191906000526020600020905b8154815290600101906020018083116142ca57829003601f168201915b5050505050815260200160068201805461430090618e86565b80601f016020809104026020016040519081016040528092919081815260200182805461432c90618e86565b80156143795780601f1061434e57610100808354040283529160200191614379565b820191906000526020600020905b81548152906001019060200180831161435c57829003601f168201915b5050505050815260200160078201805461439290618e86565b80601f01602080910402602001604051908101604052809291908181526020018280546143be90618e86565b801561440b5780601f106143e05761010080835404028352916020019161440b565b820191906000526020600020905b8154815290600101906020018083116143ee57829003601f168201915b5050505050815260200160088201805461442490618e86565b80601f016020809104026020016040519081016040528092919081815260200182805461445090618e86565b801561449d5780601f106144725761010080835404028352916020019161449d565b820191906000526020600020905b81548152906001019060200180831161448057829003601f168201915b505050918352505060098201546020820152600a8201546040820152600b8201546001600160a01b03166060820152600c820180546080909201916144e190618e86565b80601f016020809104026020016040519081016040528092919081815260200182805461450d90618e86565b801561455a5780601f1061452f5761010080835404028352916020019161455a565b820191906000526020600020905b81548152906001019060200180831161453d57829003601f168201915b50505050508152602001600d8201805461457390618e86565b80601f016020809104026020016040519081016040528092919081815260200182805461459f90618e86565b80156145ec5780601f106145c1576101008083540402835291602001916145ec565b820191906000526020600020905b8154815290600101906020018083116145cf57829003601f168201915b50505050508152602001600e8201805461460590618e86565b80601f016020809104026020016040519081016040528092919081815260200182805461463190618e86565b801561467e5780601f106146535761010080835404028352916020019161467e565b820191906000526020600020905b81548152906001019060200180831161466157829003601f168201915b50505050508152602001600f8201805461469790618e86565b80601f01602080910402602001604051908101604052809291908181526020018280546146c390618e86565b80156147105780601f106146e557610100808354040283529160200191614710565b820191906000526020600020905b8154815290600101906020018083116146f357829003601f168201915b5050509183525050601082015460208201526011820154604082015260128201546001600160a01b0316606082015260138201805460809092019161475490618e86565b80601f016020809104026020016040519081016040528092919081815260200182805461478090618e86565b80156147cd5780601f106147a2576101008083540402835291602001916147cd565b820191906000526020600020905b8154815290600101906020018083116147b057829003601f168201915b505050505081526020016014820180546147e690618e86565b80601f016020809104026020016040519081016040528092919081815260200182805461481290618e86565b801561485f5780601f106148345761010080835404028352916020019161485f565b820191906000526020600020905b81548152906001019060200180831161484257829003601f168201915b5050509183525050601582015460208201526016820154604082015260178201546001600160a01b031660608201526018820180546080909201916148a390618e86565b80601f01602080910402602001604051908101604052809291908181526020018280546148cf90618e86565b801561491c5780601f106148f15761010080835404028352916020019161491c565b820191906000526020600020905b8154815290600101906020018083116148ff57829003601f168201915b5050505050815260200160198201805461493590618e86565b80601f016020809104026020016040519081016040528092919081815260200182805461496190618e86565b80156149ae5780601f10614983576101008083540402835291602001916149ae565b820191906000526020600020905b81548152906001019060200180831161499157829003601f168201915b50505050508152602001601a820180546149c790618e86565b80601f01602080910402602001604051908101604052809291908181526020018280546149f390618e86565b8015614a405780601f10614a1557610100808354040283529160200191614a40565b820191906000526020600020905b815481529060010190602001808311614a2357829003601f168201915b50505050508152602001601b82018054614a5990618e86565b80601f0160208091040260200160405190810160405280929190818152602001828054614a8590618e86565b8015614ad25780601f10614aa757610100808354040283529160200191614ad2565b820191906000526020600020905b815481529060010190602001808311614ab557829003601f168201915b50505050508152602001601c82018054614aeb90618e86565b80601f0160208091040260200160405190810160405280929190818152602001828054614b1790618e86565b8015614b645780601f10614b3957610100808354040283529160200191614b64565b820191906000526020600020905b815481529060010190602001808311614b4757829003601f168201915b5050509183525050601d820154602080830191909152601e8301546040830152601f8301546001600160a01b0316606083015282018054608090920191614baa90618e86565b80601f0160208091040260200160405190810160405280929190818152602001828054614bd690618e86565b8015614c235780601f10614bf857610100808354040283529160200191614c23565b820191906000526020600020905b815481529060010190602001808311614c0657829003601f168201915b50505050508152602001602182018054614c3c90618e86565b80601f0160208091040260200160405190810160405280929190818152602001828054614c6890618e86565b8015614cb55780601f10614c8a57610100808354040283529160200191614cb5565b820191906000526020600020905b815481529060010190602001808311614c9857829003601f168201915b5050509183525050602282015460208201526023820154604082015260248201546001600160a01b03166060820152602582018054608090920191614cf990618e86565b80601f0160208091040260200160405190810160405280929190818152602001828054614d2590618e86565b8015614d725780601f10614d4757610100808354040283529160200191614d72565b820191906000526020600020905b815481529060010190602001808311614d5557829003601f168201915b50505050508152602001602682018054614d8b90618e86565b80601f0160208091040260200160405190810160405280929190818152602001828054614db790618e86565b8015614e045780601f10614dd957610100808354040283529160200191614e04565b820191906000526020600020905b815481529060010190602001808311614de757829003601f168201915b50505091835250506027820154602082015260288201546001600160a01b03166040820152602982018054606090920191614e3e90618e86565b80601f0160208091040260200160405190810160405280929190818152602001828054614e6a90618e86565b8015614eb75780601f10614e8c57610100808354040283529160200191614eb7565b820191906000526020600020905b815481529060010190602001808311614e9a57829003601f168201915b5050509183525050602a8201546020820152602b82015460409091019060ff166019811115614ee857614ee8618ef2565b6019811115614ef957614ef9618ef2565b9052506104808101516104a08201516104c08301516104e0909301519199909850919650945092505050565b614f2e336129a0565b614f3757600080fd5b610ac2816185f2565b6000610ad260018361832a565b614f5633613a41565b614f5f57600080fd5b8160166000828152600b60205260409020602b015460ff166019811115614f8857614f88618ef2565b14614f9257600080fd5b6000838152600b60205260409020546001600160a01b0316338114614fb657600080fd5b6000848152600b60209081526040909120602b8101805460ff191660171790558451614fea9260269092019186019061876e565b506040518481527f4a7b51a1cda61ba200934873304b8985eaa822a11f67ec51831b4642398694649060200161193c565b61502433610ad8565b61502d57600080fd5b81600a6000828152600b60205260409020602b015460ff16601981111561505657615056618ef2565b1461506057600080fd5b6000838152600b60205260409020546001600160a01b031633811461508457600080fd5b6000848152600b60208181526040909220602b8101805460ff191690921790915584516150b99260189092019186019061876e565b506000848152600b60205260409081902042601d90910155517f2c7366ed54101cf0fbe92656f170d0cb7c41871e0665c5caefe80354045f3ae89061193c9086815260200190565b61510a33614f40565b61511357600080fd5b6000806000806000806151246187f2565b600a5460608201819052604082018b905233808352608083015260a082018a90526101008201899052615157908b618e6e565b602082810191825242610120840152600061056084018190526001600160a01b038a81166101608601528981166102408601528881166102e08601528781166103e08601528681166104808601528581166105008601528d8252600b8352604091829020855181546001600160a01b03199081169184169190911782559451600182015591850151600283015560608501516003830155608085015160048301805490951691161790925560a0830151805184939261521d92600585019291019061876e565b5060c0820151805161523991600684019160209091019061876e565b5060e0820151805161525591600784019160209091019061876e565b50610100820151805161527291600884019160209091019061876e565b506101208201516009820155610140820151600a820155610160820151600b820180546001600160a01b0319166001600160a01b0390921691909117905561018082015180516152cc91600c84019160209091019061876e565b506101a082015180516152e991600d84019160209091019061876e565b506101c0820151805161530691600e84019160209091019061876e565b506101e0820151805161532391600f84019160209091019061876e565b50610200820151601082015561022082015160118201556102408201516012820180546001600160a01b0319166001600160a01b03909216919091179055610260820151805161537d91601384019160209091019061876e565b50610280820151805161539a91601484019160209091019061876e565b506102a082015160158201556102c082015160168201556102e08201516017820180546001600160a01b0319166001600160a01b0390921691909117905561030082015180516153f491601884019160209091019061876e565b50610320820151805161541191601984019160209091019061876e565b50610340820151805161542e91601a84019160209091019061876e565b50610360820151805161544b91601b84019160209091019061876e565b50610380820151805161546891601c84019160209091019061876e565b506103a0820151601d8201556103c0820151601e8201556103e0820151601f820180546001600160a01b0319166001600160a01b0390921691909117905561040082015180516154c09160208085019291019061876e565b5061042082015180516154dd91602184019160209091019061876e565b50610440820151602282015561046082015160238201556104808201516024820180546001600160a01b0319166001600160a01b039092169190911790556104a0820151805161553791602584019160209091019061876e565b506104c0820151805161555491602684019160209091019061876e565b506104e082015160278201556105008201516028820180546001600160a01b0319166001600160a01b0390921691909117905561052082015180516155a391602984019160209091019061876e565b50610540820151602a820155610560820151602b8201805460ff191660018360198111156155d3576155d3618ef2565b021790555090505060006156166040518060c001604052806000815260200160008152602001600081526020016000815260200160008152602001600081525090565b8181600001818152505081816020018181525050818160400181815250508181606001818152505081816080018181525050818160a001818152505080600c60008e8152602001908152602001600020600082015181600001556020820151816001015560408201518160020155606082015181600301556080820151816004015560a08201518160050155905050600a60008154809291906156b890618ec1565b90915550506040518c81527fefe4736d527ba6c7c4480d599caf5e0df1b7208f32a2fa24b6847cd0b9ff3a929060200160405180910390a1505050505050505050505050565b60008060008060006060806060806000806000600b60008e8152602001908152602001600020604051806105800160405290816000820160009054906101000a90046001600160a01b03166001600160a01b03166001600160a01b031681526020016001820154815260200160028201548152602001600382015481526020016004820160009054906101000a90046001600160a01b03166001600160a01b03166001600160a01b031681526020016005820180546157bc90618e86565b80601f01602080910402602001604051908101604052809291908181526020018280546157e890618e86565b80156158355780601f1061580a57610100808354040283529160200191615835565b820191906000526020600020905b81548152906001019060200180831161581857829003601f168201915b5050505050815260200160068201805461584e90618e86565b80601f016020809104026020016040519081016040528092919081815260200182805461587a90618e86565b80156158c75780601f1061589c576101008083540402835291602001916158c7565b820191906000526020600020905b8154815290600101906020018083116158aa57829003601f168201915b505050505081526020016007820180546158e090618e86565b80601f016020809104026020016040519081016040528092919081815260200182805461590c90618e86565b80156159595780601f1061592e57610100808354040283529160200191615959565b820191906000526020600020905b81548152906001019060200180831161593c57829003601f168201915b5050505050815260200160088201805461597290618e86565b80601f016020809104026020016040519081016040528092919081815260200182805461599e90618e86565b80156159eb5780601f106159c0576101008083540402835291602001916159eb565b820191906000526020600020905b8154815290600101906020018083116159ce57829003601f168201915b505050918352505060098201546020820152600a8201546040820152600b8201546001600160a01b03166060820152600c82018054608090920191615a2f90618e86565b80601f0160208091040260200160405190810160405280929190818152602001828054615a5b90618e86565b8015615aa85780601f10615a7d57610100808354040283529160200191615aa8565b820191906000526020600020905b815481529060010190602001808311615a8b57829003601f168201915b50505050508152602001600d82018054615ac190618e86565b80601f0160208091040260200160405190810160405280929190818152602001828054615aed90618e86565b8015615b3a5780601f10615b0f57610100808354040283529160200191615b3a565b820191906000526020600020905b815481529060010190602001808311615b1d57829003601f168201915b50505050508152602001600e82018054615b5390618e86565b80601f0160208091040260200160405190810160405280929190818152602001828054615b7f90618e86565b8015615bcc5780601f10615ba157610100808354040283529160200191615bcc565b820191906000526020600020905b815481529060010190602001808311615baf57829003601f168201915b50505050508152602001600f82018054615be590618e86565b80601f0160208091040260200160405190810160405280929190818152602001828054615c1190618e86565b8015615c5e5780601f10615c3357610100808354040283529160200191615c5e565b820191906000526020600020905b815481529060010190602001808311615c4157829003601f168201915b5050509183525050601082015460208201526011820154604082015260128201546001600160a01b03166060820152601382018054608090920191615ca290618e86565b80601f0160208091040260200160405190810160405280929190818152602001828054615cce90618e86565b8015615d1b5780601f10615cf057610100808354040283529160200191615d1b565b820191906000526020600020905b815481529060010190602001808311615cfe57829003601f168201915b50505050508152602001601482018054615d3490618e86565b80601f0160208091040260200160405190810160405280929190818152602001828054615d6090618e86565b8015615dad5780601f10615d8257610100808354040283529160200191615dad565b820191906000526020600020905b815481529060010190602001808311615d9057829003601f168201915b5050509183525050601582015460208201526016820154604082015260178201546001600160a01b03166060820152601882018054608090920191615df190618e86565b80601f0160208091040260200160405190810160405280929190818152602001828054615e1d90618e86565b8015615e6a5780601f10615e3f57610100808354040283529160200191615e6a565b820191906000526020600020905b815481529060010190602001808311615e4d57829003601f168201915b50505050508152602001601982018054615e8390618e86565b80601f0160208091040260200160405190810160405280929190818152602001828054615eaf90618e86565b8015615efc5780601f10615ed157610100808354040283529160200191615efc565b820191906000526020600020905b815481529060010190602001808311615edf57829003601f168201915b50505050508152602001601a82018054615f1590618e86565b80601f0160208091040260200160405190810160405280929190818152602001828054615f4190618e86565b8015615f8e5780601f10615f6357610100808354040283529160200191615f8e565b820191906000526020600020905b815481529060010190602001808311615f7157829003601f168201915b50505050508152602001601b82018054615fa790618e86565b80601f0160208091040260200160405190810160405280929190818152602001828054615fd390618e86565b80156160205780601f10615ff557610100808354040283529160200191616020565b820191906000526020600020905b81548152906001019060200180831161600357829003601f168201915b50505050508152602001601c8201805461603990618e86565b80601f016020809104026020016040519081016040528092919081815260200182805461606590618e86565b80156160b25780601f10616087576101008083540402835291602001916160b2565b820191906000526020600020905b81548152906001019060200180831161609557829003601f168201915b5050509183525050601d820154602080830191909152601e8301546040830152601f8301546001600160a01b03166060830152820180546080909201916160f890618e86565b80601f016020809104026020016040519081016040528092919081815260200182805461612490618e86565b80156161715780601f1061614657610100808354040283529160200191616171565b820191906000526020600020905b81548152906001019060200180831161615457829003601f168201915b5050505050815260200160218201805461618a90618e86565b80601f01602080910402602001604051908101604052809291908181526020018280546161b690618e86565b80156162035780601f106161d857610100808354040283529160200191616203565b820191906000526020600020905b8154815290600101906020018083116161e657829003601f168201915b5050509183525050602282015460208201526023820154604082015260248201546001600160a01b0316606082015260258201805460809092019161624790618e86565b80601f016020809104026020016040519081016040528092919081815260200182805461627390618e86565b80156162c05780601f10616295576101008083540402835291602001916162c0565b820191906000526020600020905b8154815290600101906020018083116162a357829003601f168201915b505050505081526020016026820180546162d990618e86565b80601f016020809104026020016040519081016040528092919081815260200182805461630590618e86565b80156163525780601f1061632757610100808354040283529160200191616352565b820191906000526020600020905b81548152906001019060200180831161633557829003601f168201915b50505091835250506027820154602082015260288201546001600160a01b0316604082015260298201805460609092019161638c90618e86565b80601f01602080910402602001604051908101604052809291908181526020018280546163b890618e86565b80156164055780601f106163da57610100808354040283529160200191616405565b820191906000526020600020905b8154815290600101906020018083116163e857829003601f168201915b5050509183525050602a8201546020820152602b82015460409091019060ff16601981111561643657616436618ef2565b601981111561644757616447618ef2565b815250509050806000015181602001518260400151836060015184608001518560a001518660c001518760e001518861010001518961012001518a61014001519b509b509b509b509b509b509b509b509b509b509b505091939597999b90929496989a50565b6136ee33618634565b6164bf33614f40565b6164c857600080fd5b8060026000828152600b60205260409020602b015460ff1660198111156164f1576164f1618ef2565b146164fb57600080fd5b6000828152600b60205260409020546001600160a01b031633811461651f57600080fd5b6000838152600b6020908152604091829020602b01805460ff1916600317905590518481527f7a02b5a0b1f928cffcafd0e750f369a40f124f4f34f65801fe1f0d945b9a79159101610a9a565b6136ee33618676565b6008546001600160a01b0316331461658c57600080fd5b610ac2816186b8565b6000818152600b6020908152604080832081516105808101835281546001600160a01b039081168252600183015494820194909452600282015492810192909252600381015460608381019190915260048201549093166080830152600581018054859384939092909160a08401919061660e90618e86565b80601f016020809104026020016040519081016040528092919081815260200182805461663a90618e86565b80156166875780601f1061665c57610100808354040283529160200191616687565b820191906000526020600020905b81548152906001019060200180831161666a57829003601f168201915b505050505081526020016006820180546166a090618e86565b80601f01602080910402602001604051908101604052809291908181526020018280546166cc90618e86565b80156167195780601f106166ee57610100808354040283529160200191616719565b820191906000526020600020905b8154815290600101906020018083116166fc57829003601f168201915b5050505050815260200160078201805461673290618e86565b80601f016020809104026020016040519081016040528092919081815260200182805461675e90618e86565b80156167ab5780601f10616780576101008083540402835291602001916167ab565b820191906000526020600020905b81548152906001019060200180831161678e57829003601f168201915b505050505081526020016008820180546167c490618e86565b80601f01602080910402602001604051908101604052809291908181526020018280546167f090618e86565b801561683d5780601f106168125761010080835404028352916020019161683d565b820191906000526020600020905b81548152906001019060200180831161682057829003601f168201915b505050918352505060098201546020820152600a8201546040820152600b8201546001600160a01b03166060820152600c8201805460809092019161688190618e86565b80601f01602080910402602001604051908101604052809291908181526020018280546168ad90618e86565b80156168fa5780601f106168cf576101008083540402835291602001916168fa565b820191906000526020600020905b8154815290600101906020018083116168dd57829003601f168201915b50505050508152602001600d8201805461691390618e86565b80601f016020809104026020016040519081016040528092919081815260200182805461693f90618e86565b801561698c5780601f106169615761010080835404028352916020019161698c565b820191906000526020600020905b81548152906001019060200180831161696f57829003601f168201915b50505050508152602001600e820180546169a590618e86565b80601f01602080910402602001604051908101604052809291908181526020018280546169d190618e86565b8015616a1e5780601f106169f357610100808354040283529160200191616a1e565b820191906000526020600020905b815481529060010190602001808311616a0157829003601f168201915b50505050508152602001600f82018054616a3790618e86565b80601f0160208091040260200160405190810160405280929190818152602001828054616a6390618e86565b8015616ab05780601f10616a8557610100808354040283529160200191616ab0565b820191906000526020600020905b815481529060010190602001808311616a9357829003601f168201915b5050509183525050601082015460208201526011820154604082015260128201546001600160a01b03166060820152601382018054608090920191616af490618e86565b80601f0160208091040260200160405190810160405280929190818152602001828054616b2090618e86565b8015616b6d5780601f10616b4257610100808354040283529160200191616b6d565b820191906000526020600020905b815481529060010190602001808311616b5057829003601f168201915b50505050508152602001601482018054616b8690618e86565b80601f0160208091040260200160405190810160405280929190818152602001828054616bb290618e86565b8015616bff5780601f10616bd457610100808354040283529160200191616bff565b820191906000526020600020905b815481529060010190602001808311616be257829003601f168201915b5050509183525050601582015460208201526016820154604082015260178201546001600160a01b03166060820152601882018054608090920191616c4390618e86565b80601f0160208091040260200160405190810160405280929190818152602001828054616c6f90618e86565b8015616cbc5780601f10616c9157610100808354040283529160200191616cbc565b820191906000526020600020905b815481529060010190602001808311616c9f57829003601f168201915b50505050508152602001601982018054616cd590618e86565b80601f0160208091040260200160405190810160405280929190818152602001828054616d0190618e86565b8015616d4e5780601f10616d2357610100808354040283529160200191616d4e565b820191906000526020600020905b815481529060010190602001808311616d3157829003601f168201915b50505050508152602001601a82018054616d6790618e86565b80601f0160208091040260200160405190810160405280929190818152602001828054616d9390618e86565b8015616de05780601f10616db557610100808354040283529160200191616de0565b820191906000526020600020905b815481529060010190602001808311616dc357829003601f168201915b50505050508152602001601b82018054616df990618e86565b80601f0160208091040260200160405190810160405280929190818152602001828054616e2590618e86565b8015616e725780601f10616e4757610100808354040283529160200191616e72565b820191906000526020600020905b815481529060010190602001808311616e5557829003601f168201915b50505050508152602001601c82018054616e8b90618e86565b80601f0160208091040260200160405190810160405280929190818152602001828054616eb790618e86565b8015616f045780601f10616ed957610100808354040283529160200191616f04565b820191906000526020600020905b815481529060010190602001808311616ee757829003601f168201915b5050509183525050601d820154602080830191909152601e8301546040830152601f8301546001600160a01b0316606083015282018054608090920191616f4a90618e86565b80601f0160208091040260200160405190810160405280929190818152602001828054616f7690618e86565b8015616fc35780601f10616f9857610100808354040283529160200191616fc3565b820191906000526020600020905b815481529060010190602001808311616fa657829003601f168201915b50505050508152602001602182018054616fdc90618e86565b80601f016020809104026020016040519081016040528092919081815260200182805461700890618e86565b80156170555780601f1061702a57610100808354040283529160200191617055565b820191906000526020600020905b81548152906001019060200180831161703857829003601f168201915b5050509183525050602282015460208201526023820154604082015260248201546001600160a01b0316606082015260258201805460809092019161709990618e86565b80601f01602080910402602001604051908101604052809291908181526020018280546170c590618e86565b80156171125780601f106170e757610100808354040283529160200191617112565b820191906000526020600020905b8154815290600101906020018083116170f557829003601f168201915b5050505050815260200160268201805461712b90618e86565b80601f016020809104026020016040519081016040528092919081815260200182805461715790618e86565b80156171a45780601f10617179576101008083540402835291602001916171a4565b820191906000526020600020905b81548152906001019060200180831161718757829003601f168201915b50505091835250506027820154602082015260288201546001600160a01b031660408201526029820180546060909201916171de90618e86565b80601f016020809104026020016040519081016040528092919081815260200182805461720a90618e86565b80156172575780601f1061722c57610100808354040283529160200191617257565b820191906000526020600020905b81548152906001019060200180831161723a57829003601f168201915b5050509183525050602a8201546020820152602b82015460409091019060ff16601981111561728857617288618ef2565b601981111561729957617299618ef2565b905250610500810151610520820151610540909201519097919650945092505050565b6172c533613a41565b6172ce57600080fd5b8060136000828152600b60205260409020602b015460ff1660198111156172f7576172f7618ef2565b1461730157600080fd5b6000828152600b602090815260409182902080546001600160a01b0319908116339081178355602483018054909216179055602b01805460ff1916601417905590518381527f3874b7b1f05f41f05649193134ca5a46a483340fb2345d76d6bc0879322bb1db91016128e2565b61737733613fb1565b61738057600080fd5b8160106000828152600b60205260409020602b015460ff1660198111156173a9576173a9618ef2565b146173b357600080fd5b6000838152600b60205260409020546001600160a01b03163381146173d757600080fd5b6000848152600b60209081526040909120602b8101805460ff1916601117905542602282015584516174119260219092019186019061876e565b506000848152600c60205260409081902043600390910155517f323ef6697998935f1e0cbfa1e699243a8fa2d97ba49d0c0ff56e729e8165bb069061193c9086815260200190565b61746233614f40565b61746b57600080fd5b81600080828152600b60205260409020602b015460ff16601981111561749357617493618ef2565b1461749d57600080fd5b6000838152600b60205260409020546001600160a01b03163381146174c157600080fd5b6000848152600b60209081526040909120602b8101805460ff1916600117905584516174f59260069092019186019061876e565b506000848152600b60205260409081902042600a90910155517f749c1faf048fc07c9fd93e5f88c7a1fcb337b593061aab5c05b06885f6a77ccf9061193c9086815260200190565b6000818152600b6020908152604080832081516105808101835281546001600160a01b03908116825260018301549482019490945260028201549281019290925260038101546060838101919091526004820154909316608083015260058101805484938493849384938993849384939192909160a08401916175bf90618e86565b80601f01602080910402602001604051908101604052809291908181526020018280546175eb90618e86565b80156176385780601f1061760d57610100808354040283529160200191617638565b820191906000526020600020905b81548152906001019060200180831161761b57829003601f168201915b5050505050815260200160068201805461765190618e86565b80601f016020809104026020016040519081016040528092919081815260200182805461767d90618e86565b80156176ca5780601f1061769f576101008083540402835291602001916176ca565b820191906000526020600020905b8154815290600101906020018083116176ad57829003601f168201915b505050505081526020016007820180546176e390618e86565b80601f016020809104026020016040519081016040528092919081815260200182805461770f90618e86565b801561775c5780601f106177315761010080835404028352916020019161775c565b820191906000526020600020905b81548152906001019060200180831161773f57829003601f168201915b5050505050815260200160088201805461777590618e86565b80601f01602080910402602001604051908101604052809291908181526020018280546177a190618e86565b80156177ee5780601f106177c3576101008083540402835291602001916177ee565b820191906000526020600020905b8154815290600101906020018083116177d157829003601f168201915b505050918352505060098201546020820152600a8201546040820152600b8201546001600160a01b03166060820152600c8201805460809092019161783290618e86565b80601f016020809104026020016040519081016040528092919081815260200182805461785e90618e86565b80156178ab5780601f10617880576101008083540402835291602001916178ab565b820191906000526020600020905b81548152906001019060200180831161788e57829003601f168201915b50505050508152602001600d820180546178c490618e86565b80601f01602080910402602001604051908101604052809291908181526020018280546178f090618e86565b801561793d5780601f106179125761010080835404028352916020019161793d565b820191906000526020600020905b81548152906001019060200180831161792057829003601f168201915b50505050508152602001600e8201805461795690618e86565b80601f016020809104026020016040519081016040528092919081815260200182805461798290618e86565b80156179cf5780601f106179a4576101008083540402835291602001916179cf565b820191906000526020600020905b8154815290600101906020018083116179b257829003601f168201915b50505050508152602001600f820180546179e890618e86565b80601f0160208091040260200160405190810160405280929190818152602001828054617a1490618e86565b8015617a615780601f10617a3657610100808354040283529160200191617a61565b820191906000526020600020905b815481529060010190602001808311617a4457829003601f168201915b5050509183525050601082015460208201526011820154604082015260128201546001600160a01b03166060820152601382018054608090920191617aa590618e86565b80601f0160208091040260200160405190810160405280929190818152602001828054617ad190618e86565b8015617b1e5780601f10617af357610100808354040283529160200191617b1e565b820191906000526020600020905b815481529060010190602001808311617b0157829003601f168201915b50505050508152602001601482018054617b3790618e86565b80601f0160208091040260200160405190810160405280929190818152602001828054617b6390618e86565b8015617bb05780601f10617b8557610100808354040283529160200191617bb0565b820191906000526020600020905b815481529060010190602001808311617b9357829003601f168201915b5050509183525050601582015460208201526016820154604082015260178201546001600160a01b03166060820152601882018054608090920191617bf490618e86565b80601f0160208091040260200160405190810160405280929190818152602001828054617c2090618e86565b8015617c6d5780601f10617c4257610100808354040283529160200191617c6d565b820191906000526020600020905b815481529060010190602001808311617c5057829003601f168201915b50505050508152602001601982018054617c8690618e86565b80601f0160208091040260200160405190810160405280929190818152602001828054617cb290618e86565b8015617cff5780601f10617cd457610100808354040283529160200191617cff565b820191906000526020600020905b815481529060010190602001808311617ce257829003601f168201915b50505050508152602001601a82018054617d1890618e86565b80601f0160208091040260200160405190810160405280929190818152602001828054617d4490618e86565b8015617d915780601f10617d6657610100808354040283529160200191617d91565b820191906000526020600020905b815481529060010190602001808311617d7457829003601f168201915b50505050508152602001601b82018054617daa90618e86565b80601f0160208091040260200160405190810160405280929190818152602001828054617dd690618e86565b8015617e235780601f10617df857610100808354040283529160200191617e23565b820191906000526020600020905b815481529060010190602001808311617e0657829003601f168201915b50505050508152602001601c82018054617e3c90618e86565b80601f0160208091040260200160405190810160405280929190818152602001828054617e6890618e86565b8015617eb55780601f10617e8a57610100808354040283529160200191617eb5565b820191906000526020600020905b815481529060010190602001808311617e9857829003601f168201915b5050509183525050601d820154602080830191909152601e8301546040830152601f8301546001600160a01b0316606083015282018054608090920191617efb90618e86565b80601f0160208091040260200160405190810160405280929190818152602001828054617f2790618e86565b8015617f745780601f10617f4957610100808354040283529160200191617f74565b820191906000526020600020905b815481529060010190602001808311617f5757829003601f168201915b50505050508152602001602182018054617f8d90618e86565b80601f0160208091040260200160405190810160405280929190818152602001828054617fb990618e86565b80156180065780601f10617fdb57610100808354040283529160200191618006565b820191906000526020600020905b815481529060010190602001808311617fe957829003601f168201915b5050509183525050602282015460208201526023820154604082015260248201546001600160a01b0316606082015260258201805460809092019161804a90618e86565b80601f016020809104026020016040519081016040528092919081815260200182805461807690618e86565b80156180c35780601f10618098576101008083540402835291602001916180c3565b820191906000526020600020905b8154815290600101906020018083116180a657829003601f168201915b505050505081526020016026820180546180dc90618e86565b80601f016020809104026020016040519081016040528092919081815260200182805461810890618e86565b80156181555780601f1061812a57610100808354040283529160200191618155565b820191906000526020600020905b81548152906001019060200180831161813857829003601f168201915b50505091835250506027820154602082015260288201546001600160a01b0316604082015260298201805460609092019161818f90618e86565b80601f01602080910402602001604051908101604052809291908181526020018280546181bb90618e86565b80156182085780601f106181dd57610100808354040283529160200191618208565b820191906000526020600020905b8154815290600101906020018083116181eb57829003601f168201915b5050509183525050602a8201546020820152602b82015460409091019060ff16601981111561823957618239618ef2565b601981111561824a5761824a618ef2565b815250509050806102e00151816103000151826103200151836103400151846103600151856103800151866103a00151876103c001519850985098509850985098509850985050919395975091939597565b6001600160a01b0381166182af57600080fd5b6182b9828261832a565b156182c357600080fd5b6001600160a01b0316600090815260209190915260409020805460ff19166001179055565b6182f360078261829c565b6040516001600160a01b038216907f28b26e7a3d20aedbc5f8f2ebf7da671c0491723a2b78f47a097b0e46dee0714290600090a250565b60006001600160a01b03821661833f57600080fd5b506001600160a01b03166000908152602091909152604090205460ff1690565b61836a60048261829c565b6040516001600160a01b038216907ea0477dded24b6f3ca0efb56770e84d7af0117bde8073e93a34e2f0b67f629290600090a250565b6183ab600282618726565b6040516001600160a01b038216907f667f5da192ef185267b681a3ea60c6a496a92711141d3e9cd25b4be0048f30ff90600090a250565b6183ed600382618726565b6040516001600160a01b038216907f71c0ec84b3f18f4b5ab128b9b8ffdebbe0ccf91b486a336a5ce99bf62842ddda90600090a250565b61842f600782618726565b6040516001600160a01b038216907fe3f5ed5f263f1f01764a96edfc7d025f511ec5f7d180e8816908b78bcf74f09890600090a250565b618471600582618726565b6040516001600160a01b038216907f126174f6cf49c81cdb4a9214c6b8f037bef55b4ec31e4fc776cea2a1c8a88d5990600090a250565b6184b360058261829c565b6040516001600160a01b038216907fddbf200aa634dc3fb81cfd68583dd1040d1c751d335e1d86b631bde3e977fea890600090a250565b6184f560028261829c565b6040516001600160a01b038216907f4c8efb2f42d55d7d831e421921a3b89a7806bb65fdc7c5ccc226f2706660318990600090a250565b61853760018261829c565b6040516001600160a01b038216907f2e0ded4123377a3c2bc9a26f1717655a129e2f20752924d42e730ec89c83dbd090600090a250565b618579600182618726565b6040516001600160a01b038216907fa5e0f060af304ab17dd418c7927e3da3ae7868189bf387aee09ab179ccc572f290600090a250565b6185bb60068261829c565b6040516001600160a01b038216907f71ae26cad02663e3d92efd6ec56031a80d74a20c0ab4183faa8bf262261c9baa90600090a250565b6185fd60038261829c565b6040516001600160a01b038216907f4d9645f2965973330140385c3b546ad4c04b7ee2ae3abb69562f5929d6b8320b90600090a250565b61863f600682618726565b6040516001600160a01b038216907fdb7176e79cffef81cb01767dd0447a0b24bb72ca9778d4b245581086b2a7e6db90600090a250565b618681600482618726565b6040516001600160a01b038216907f83d8cce936a4bacce731675cb6d6de235957309cc48eb6a36aa7ae1811eb9fab90600090a250565b6001600160a01b0381166186cb57600080fd5b600080546040516001600160a01b03808516939216917f5c486528ec3e3f0ea91181cff8116f02bfa350e03b8b6f12e00765adbb5af85c91a3600080546001600160a01b0319166001600160a01b0392909216919091179055565b6001600160a01b03811661873957600080fd5b618743828261832a565b61874c57600080fd5b6001600160a01b0316600090815260209190915260409020805460ff19169055565b82805461877a90618e86565b90600052602060002090601f01602090048101928261879c57600085556187e2565b82601f106187b557805160ff19168380011785556187e2565b828001600101855582156187e2579182015b828111156187e25782518255916020019190600101906187c7565b506187ee92915061898b565b5090565b60405180610580016040528060006001600160a01b0316815260200160008152602001600081526020016000815260200160006001600160a01b0316815260200160608152602001606081526020016060815260200160608152602001600081526020016000815260200160006001600160a01b0316815260200160608152602001606081526020016060815260200160608152602001600081526020016000815260200160006001600160a01b031681526020016060815260200160608152602001600081526020016000815260200160006001600160a01b031681526020016060815260200160608152602001606081526020016060815260200160608152602001600081526020016000815260200160006001600160a01b031681526020016060815260200160608152602001600081526020016000815260200160006001600160a01b0316815260200160608152602001606081526020016000815260200160006001600160a01b0316815260200160608152602001600081526020016000601981111561898657618986618ef2565b905290565b5b808211156187ee576000815560010161898c565b600082601f8301126189b157600080fd5b813567ffffffffffffffff808211156189cc576189cc618f08565b604051601f8301601f19908116603f011681019082821181831017156189f4576189f4618f08565b81604052838152866020858801011115618a0d57600080fd5b836020870160208301376000602085830101528094505050505092915050565b600060208284031215618a3f57600080fd5b81356001600160a01b0381168114618a5657600080fd5b9392505050565b600060208284031215618a6f57600080fd5b5035919050565b60008060408385031215618a8957600080fd5b82359150602083013567ffffffffffffffff811115618aa757600080fd5b618ab3858286016189a0565b9150509250929050565b600080600060608486031215618ad257600080fd5b83359250602084013567ffffffffffffffff80821115618af157600080fd5b618afd878388016189a0565b93506040860135915080821115618b1357600080fd5b50618b20868287016189a0565b9150509250925092565b60008060008060808587031215618b4057600080fd5b84359350602085013567ffffffffffffffff80821115618b5f57600080fd5b618b6b888389016189a0565b94506040870135915080821115618b8157600080fd5b618b8d888389016189a0565b93506060870135915080821115618ba357600080fd5b50618bb0878288016189a0565b91505092959194509250565b6000815180845260005b81811015618be257602081850181015186830182015201618bc6565b81811115618bf4576000602083870101525b50601f01601f19169290920160200192915050565b6001600160a01b038916815261010060208201819052600090618c2e8382018b618bbc565b90508281036040840152618c42818a618bbc565b90508281036060840152618c568189618bbc565b90508281036080840152618c6a8188618bbc565b905082810360a0840152618c7e8187618bbc565b60c0840195909552505060e001529695505050505050565b6001600160a01b038816815260e060208201819052600090618cba90830189618bbc565b8281036040840152618ccc8189618bbc565b90508281036060840152618ce08188618bbc565b90508281036080840152618cf48187618bbc565b60a0840195909552505060c0015295945050505050565b6001600160a01b0385168152608060208201819052600090618d2f90830186618bbc565b8281036040840152618d418186618bbc565b91505082606083015295945050505050565b6001600160a01b038616815260a060208201819052600090618d7790830187618bbc565b8281036040840152618d898187618bbc565b60608401959095525050608001529392505050565b6001600160a01b0384168152606060208201819052600090618dc290830185618bbc565b9050826040830152949350505050565b6001600160a01b038c81168252602082018c9052604082018b9052606082018a90528816608082015261016060a08201819052600090618e148382018a618bbc565b905082810360c0840152618e288189618bbc565b905082810360e0840152618e3c8188618bbc565b9050828103610100840152618e518187618bbc565b610120840195909552505061014001529998505050505050505050565b60008219821115618e8157618e81618edc565b500190565b600181811c90821680618e9a57607f821691505b60208210811415618ebb57634e487b7160e01b600052602260045260246000fd5b50919050565b6000600019821415618ed557618ed5618edc565b5060010190565b634e487b7160e01b600052601160045260246000fd5b634e487b7160e01b600052602160045260246000fd5b634e487b7160e01b600052604160045260246000fdfea26469706673582212201827a11a54e3fc617e84fb05693a475195e7b30dfd09fd52a80fa03866107d1f64736f6c63430008070033",
			"opcodes": "PUSH1 0x80 PUSH1 0x40 MSTORE CALLVALUE DUP1 ISZERO PUSH3 0x11 JUMPI PUSH1 0x0 DUP1 REVERT JUMPDEST POP PUSH1 0x0 DUP1 SLOAD PUSH1 0x1 PUSH1 0x1 PUSH1 0xA0 SHL SUB NOT AND CALLER SWAP1 DUP2 OR DUP3 SSTORE PUSH1 0x40 MLOAD SWAP1 SWAP2 SWAP1 PUSH32 0x5C486528EC3E3F0EA91181CFF8116F02BFA350E03B8B6F12E00765ADBB5AF85C SWAP1 DUP3 SWAP1 LOG3 PUSH3 0x5C CALLER PUSH3 0xC0 JUMP JUMPDEST PUSH3 0x67 CALLER PUSH3 0x112 JUMP JUMPDEST PUSH3 0x72 CALLER PUSH3 0x164 JUMP JUMPDEST PUSH3 0x7D CALLER PUSH3 0x1B6 JUMP JUMPDEST PUSH3 0x88 CALLER PUSH3 0x207 JUMP JUMPDEST PUSH3 0x93 CALLER PUSH3 0x259 JUMP JUMPDEST PUSH3 0x9E CALLER PUSH3 0x2AB JUMP JUMPDEST PUSH1 0x8 DUP1 SLOAD PUSH1 0x1 PUSH1 0x1 PUSH1 0xA0 SHL SUB NOT AND CALLER OR SWAP1 SSTORE PUSH1 0x1 PUSH1 0xA DUP2 SWAP1 SSTORE PUSH1 0x9 SSTORE PUSH3 0x383 JUMP JUMPDEST PUSH3 0xDB DUP2 PUSH1 0x1 PUSH3 0x2FD PUSH1 0x20 SHL PUSH3 0x829C OR SWAP1 SWAP2 SWAP1 PUSH1 0x20 SHR JUMP JUMPDEST PUSH1 0x40 MLOAD PUSH1 0x1 PUSH1 0x1 PUSH1 0xA0 SHL SUB DUP3 AND SWAP1 PUSH32 0x2E0DED4123377A3C2BC9A26F1717655A129E2F20752924D42E730EC89C83DBD0 SWAP1 PUSH1 0x0 SWAP1 LOG2 POP JUMP JUMPDEST PUSH3 0x12D DUP2 PUSH1 0x2 PUSH3 0x2FD PUSH1 0x20 SHL PUSH3 0x829C OR SWAP1 SWAP2 SWAP1 PUSH1 0x20 SHR JUMP JUMPDEST PUSH1 0x40 MLOAD PUSH1 0x1 PUSH1 0x1 PUSH1 0xA0 SHL SUB DUP3 AND SWAP1 PUSH32 0x4C8EFB2F42D55D7D831E421921A3B89A7806BB65FDC7C5CCC226F27066603189 SWAP1 PUSH1 0x0 SWAP1 LOG2 POP JUMP JUMPDEST PUSH3 0x17F DUP2 PUSH1 0x3 PUSH3 0x2FD PUSH1 0x20 SHL PUSH3 0x829C OR SWAP1 SWAP2 SWAP1 PUSH1 0x20 SHR JUMP JUMPDEST PUSH1 0x40 MLOAD PUSH1 0x1 PUSH1 0x1 PUSH1 0xA0 SHL SUB DUP3 AND SWAP1 PUSH32 0x4D9645F2965973330140385C3B546AD4C04B7EE2AE3ABB69562F5929D6B8320B SWAP1 PUSH1 0x0 SWAP1 LOG2 POP JUMP JUMPDEST PUSH3 0x1D1 DUP2 PUSH1 0x4 PUSH3 0x2FD PUSH1 0x20 SHL PUSH3 0x829C OR SWAP1 SWAP2 SWAP1 PUSH1 0x20 SHR JUMP JUMPDEST PUSH1 0x40 MLOAD PUSH1 0x1 PUSH1 0x1 PUSH1 0xA0 SHL SUB DUP3 AND SWAP1 PUSH31 0xA0477DDED24B6F3CA0EFB56770E84D7AF0117BDE8073E93A34E2F0B67F6292 SWAP1 PUSH1 0x0 SWAP1 LOG2 POP JUMP JUMPDEST PUSH3 0x222 DUP2 PUSH1 0x5 PUSH3 0x2FD PUSH1 0x20 SHL PUSH3 0x829C OR SWAP1 SWAP2 SWAP1 PUSH1 0x20 SHR JUMP JUMPDEST PUSH1 0x40 MLOAD PUSH1 0x1 PUSH1 0x1 PUSH1 0xA0 SHL SUB DUP3 AND SWAP1 PUSH32 0xDDBF200AA634DC3FB81CFD68583DD1040D1C751D335E1D86B631BDE3E977FEA8 SWAP1 PUSH1 0x0 SWAP1 LOG2 POP JUMP JUMPDEST PUSH3 0x274 DUP2 PUSH1 0x6 PUSH3 0x2FD PUSH1 0x20 SHL PUSH3 0x829C OR SWAP1 SWAP2 SWAP1 PUSH1 0x20 SHR JUMP JUMPDEST PUSH1 0x40 MLOAD PUSH1 0x1 PUSH1 0x1 PUSH1 0xA0 SHL SUB DUP3 AND SWAP1 PUSH32 0x71AE26CAD02663E3D92EFD6EC56031A80D74A20C0AB4183FAA8BF262261C9BAA SWAP1 PUSH1 0x0 SWAP1 LOG2 POP JUMP JUMPDEST PUSH3 0x2C6 DUP2 PUSH1 0x7 PUSH3 0x2FD PUSH1 0x20 SHL PUSH3 0x829C OR SWAP1 SWAP2 SWAP1 PUSH1 0x20 SHR JUMP JUMPDEST PUSH1 0x40 MLOAD PUSH1 0x1 PUSH1 0x1 PUSH1 0xA0 SHL SUB DUP3 AND SWAP1 PUSH32 0x28B26E7A3D20AEDBC5F8F2EBF7DA671C0491723A2B78F47A097B0E46DEE07142 SWAP1 PUSH1 0x0 SWAP1 LOG2 POP JUMP JUMPDEST PUSH1 0x1 PUSH1 0x1 PUSH1 0xA0 SHL SUB DUP2 AND PUSH3 0x311 JUMPI PUSH1 0x0 DUP1 REVERT JUMPDEST PUSH3 0x31D DUP3 DUP3 PUSH3 0x34D JUMP JUMPDEST ISZERO PUSH3 0x328 JUMPI PUSH1 0x0 DUP1 REVERT JUMPDEST PUSH1 0x1 PUSH1 0x1 PUSH1 0xA0 SHL SUB AND PUSH1 0x0 SWAP1 DUP2 MSTORE PUSH1 0x20 SWAP2 SWAP1 SWAP2 MSTORE PUSH1 0x40 SWAP1 KECCAK256 DUP1 SLOAD PUSH1 0xFF NOT AND PUSH1 0x1 OR SWAP1 SSTORE JUMP JUMPDEST PUSH1 0x0 PUSH1 0x1 PUSH1 0x1 PUSH1 0xA0 SHL SUB DUP3 AND PUSH3 0x363 JUMPI PUSH1 0x0 DUP1 REVERT JUMPDEST POP PUSH1 0x1 PUSH1 0x1 PUSH1 0xA0 SHL SUB AND PUSH1 0x0 SWAP1 DUP2 MSTORE PUSH1 0x20 SWAP2 SWAP1 SWAP2 MSTORE PUSH1 0x40 SWAP1 KECCAK256 SLOAD PUSH1 0xFF AND SWAP1 JUMP JUMPDEST PUSH2 0x8F54 DUP1 PUSH3 0x393 PUSH1 0x0 CODECOPY PUSH1 0x0 RETURN INVALID PUSH1 0x80 PUSH1 0x40 MSTORE CALLVALUE DUP1 ISZERO PUSH2 0x10 JUMPI PUSH1 0x0 DUP1 REVERT JUMPDEST POP PUSH1 0x4 CALLDATASIZE LT PUSH2 0x399 JUMPI PUSH1 0x0 CALLDATALOAD PUSH1 0xE0 SHR DUP1 PUSH4 0x7250E224 GT PUSH2 0x1E9 JUMPI DUP1 PUSH4 0xB9429069 GT PUSH2 0x10F JUMPI DUP1 PUSH4 0xE26A6D69 GT PUSH2 0xAD JUMPI DUP1 PUSH4 0xF7134B7B GT PUSH2 0x7C JUMPI DUP1 PUSH4 0xF7134B7B EQ PUSH2 0x862 JUMPI DUP1 PUSH4 0xF916BF63 EQ PUSH2 0x875 JUMPI DUP1 PUSH4 0xFDC1FDEA EQ PUSH2 0x888 JUMPI DUP1 PUSH4 0xFFCBCD44 EQ PUSH2 0x89B JUMPI PUSH1 0x0 DUP1 REVERT JUMPDEST DUP1 PUSH4 0xE26A6D69 EQ PUSH2 0x812 JUMPI DUP1 PUSH4 0xE77F6D05 EQ PUSH2 0x825 JUMPI DUP1 PUSH4 0xF2FDE38B EQ PUSH2 0x82D JUMPI DUP1 PUSH4 0xF45C3174 EQ PUSH2 0x840 JUMPI PUSH1 0x0 DUP1 REVERT JUMPDEST DUP1 PUSH4 0xC927B792 GT PUSH2 0xE9 JUMPI DUP1 PUSH4 0xC927B792 EQ PUSH2 0x7B2 JUMPI DUP1 PUSH4 0xD18F838F EQ PUSH2 0x7C5 JUMPI DUP1 PUSH4 0xDB0E6A2F EQ PUSH2 0x7EF JUMPI DUP1 PUSH4 0xE02E64EA EQ PUSH2 0x7F7 JUMPI PUSH1 0x0 DUP1 REVERT JUMPDEST DUP1 PUSH4 0xB9429069 EQ PUSH2 0x779 JUMPI DUP1 PUSH4 0xC8BCD871 EQ PUSH2 0x78C JUMPI DUP1 PUSH4 0xC8EC7707 EQ PUSH2 0x79F JUMPI PUSH1 0x0 DUP1 REVERT JUMPDEST DUP1 PUSH4 0x8B278E45 GT PUSH2 0x187 JUMPI DUP1 PUSH4 0x8F32D59B GT PUSH2 0x156 JUMPI DUP1 PUSH4 0x8F32D59B EQ PUSH2 0x71D JUMPI DUP1 PUSH4 0xA57A8F89 EQ PUSH2 0x730 JUMPI DUP1 PUSH4 0xB4FCCDAA EQ PUSH2 0x743 JUMPI DUP1 PUSH4 0xB7022049 EQ PUSH2 0x766 JUMPI PUSH1 0x0 DUP1 REVERT JUMPDEST DUP1 PUSH4 0x8B278E45 EQ PUSH2 0x6D1 JUMPI DUP1 PUSH4 0x8EC4F505 EQ PUSH2 0x6E4 JUMPI DUP1 PUSH4 0x8F0C86FA EQ PUSH2 0x6F7 JUMPI DUP1 PUSH4 0x8F15C630 EQ PUSH2 0x70A JUMPI PUSH1 0x0 DUP1 REVERT JUMPDEST DUP1 PUSH4 0x80C3F96D GT PUSH2 0x1C3 JUMPI DUP1 PUSH4 0x80C3F96D EQ PUSH2 0x690 JUMPI DUP1 PUSH4 0x80FC0CE4 EQ PUSH2 0x6A3 JUMPI DUP1 PUSH4 0x834FF739 EQ PUSH2 0x6AB JUMPI DUP1 PUSH4 0x8A74853F EQ PUSH2 0x6BE JUMPI PUSH1 0x0 DUP1 REVERT JUMPDEST DUP1 PUSH4 0x7250E224 EQ PUSH2 0x657 JUMPI DUP1 PUSH4 0x7BF7FBF7 EQ PUSH2 0x66A JUMPI DUP1 PUSH4 0x7E4704F3 EQ PUSH2 0x67D JUMPI PUSH1 0x0 DUP1 REVERT JUMPDEST DUP1 PUSH4 0x2E157608 GT PUSH2 0x2CE JUMPI DUP1 PUSH4 0x57A096A1 GT PUSH2 0x26C JUMPI DUP1 PUSH4 0x63C4178E GT PUSH2 0x23B JUMPI DUP1 PUSH4 0x63C4178E EQ PUSH2 0x621 JUMPI DUP1 PUSH4 0x644241DB EQ PUSH2 0x634 JUMPI DUP1 PUSH4 0x6719570B EQ PUSH2 0x63C JUMPI DUP1 PUSH4 0x715018A6 EQ PUSH2 0x64F JUMPI PUSH1 0x0 DUP1 REVERT JUMPDEST DUP1 PUSH4 0x57A096A1 EQ PUSH2 0x552 JUMPI DUP1 PUSH4 0x5DA09B88 EQ PUSH2 0x5F3 JUMPI DUP1 PUSH4 0x5DE010C9 EQ PUSH2 0x606 JUMPI DUP1 PUSH4 0x61E6982D EQ PUSH2 0x619 JUMPI PUSH1 0x0 DUP1 REVERT JUMPDEST DUP1 PUSH4 0x37341533 GT PUSH2 0x2A8 JUMPI DUP1 PUSH4 0x37341533 EQ PUSH2 0x506 JUMPI DUP1 PUSH4 0x4250B253 EQ PUSH2 0x519 JUMPI DUP1 PUSH4 0x453536AC EQ PUSH2 0x52C JUMPI DUP1 PUSH4 0x492BF524 EQ PUSH2 0x53F JUMPI PUSH1 0x0 DUP1 REVERT JUMPDEST DUP1 PUSH4 0x2E157608 EQ PUSH2 0x4E3 JUMPI DUP1 PUSH4 0x2E4A437B EQ PUSH2 0x4F6 JUMPI DUP1 PUSH4 0x2EA17B27 EQ PUSH2 0x4FE JUMPI PUSH1 0x0 DUP1 REVERT JUMPDEST DUP1 PUSH4 0x197A0479 GT PUSH2 0x33B JUMPI DUP1 PUSH4 0x1D48A5E4 GT PUSH2 0x315 JUMPI DUP1 PUSH4 0x1D48A5E4 EQ PUSH2 0x486 JUMPI DUP1 PUSH4 0x1E5766E5 EQ PUSH2 0x4AA JUMPI DUP1 PUSH4 0x2A861005 EQ PUSH2 0x4BD JUMPI DUP1 PUSH4 0x2B8109D5 EQ PUSH2 0x4D0 JUMPI PUSH1 0x0 DUP1 REVERT JUMPDEST DUP1 PUSH4 0x197A0479 EQ PUSH2 0x44D JUMPI DUP1 PUSH4 0x1B4531EF EQ PUSH2 0x460 JUMPI DUP1 PUSH4 0x1B84BA42 EQ PUSH2 0x473 JUMPI PUSH1 0x0 DUP1 REVERT JUMPDEST DUP1 PUSH4 0x12F0DCD8 GT PUSH2 0x377 JUMPI DUP1 PUSH4 0x12F0DCD8 EQ PUSH2 0x3D9 JUMPI DUP1 PUSH4 0x150E3465 EQ PUSH2 0x401 JUMPI DUP1 PUSH4 0x15837E7D EQ PUSH2 0x414 JUMPI DUP1 PUSH4 0x18B50D07 EQ PUSH2 0x43A JUMPI PUSH1 0x0 DUP1 REVERT JUMPDEST DUP1 PUSH4 0x2EE9E4D EQ PUSH2 0x39E JUMPI DUP1 PUSH4 0x3C0C015 EQ PUSH2 0x3B3 JUMPI DUP1 PUSH4 0x112940F9 EQ PUSH2 0x3C6 JUMPI JUMPDEST PUSH1 0x0 DUP1 REVERT JUMPDEST PUSH2 0x3B1 PUSH2 0x3AC CALLDATASIZE PUSH1 0x4 PUSH2 0x8B2A JUMP JUMPDEST PUSH2 0x8C2 JUMP JUMPDEST STOP JUMPDEST PUSH2 0x3B1 PUSH2 0x3C1 CALLDATASIZE PUSH1 0x4 PUSH2 0x8A5D JUMP JUMPDEST PUSH2 0x9E8 JUMP JUMPDEST PUSH2 0x3B1 PUSH2 0x3D4 CALLDATASIZE PUSH1 0x4 PUSH2 0x8A2D JUMP JUMPDEST PUSH2 0xAA7 JUMP JUMPDEST PUSH2 0x3EC PUSH2 0x3E7 CALLDATASIZE PUSH1 0x4 PUSH2 0x8A2D JUMP JUMPDEST PUSH2 0xAC5 JUMP JUMPDEST PUSH1 0x40 MLOAD SWAP1 ISZERO ISZERO DUP2 MSTORE PUSH1 0x20 ADD JUMPDEST PUSH1 0x40 MLOAD DUP1 SWAP2 SUB SWAP1 RETURN JUMPDEST PUSH2 0x3EC PUSH2 0x40F CALLDATASIZE PUSH1 0x4 PUSH2 0x8A2D JUMP JUMPDEST PUSH2 0xAD8 JUMP JUMPDEST PUSH2 0x427 PUSH2 0x422 CALLDATASIZE PUSH1 0x4 PUSH2 0x8A5D JUMP JUMPDEST PUSH2 0xAE5 JUMP JUMPDEST PUSH1 0x40 MLOAD PUSH2 0x3F8 SWAP8 SWAP7 SWAP6 SWAP5 SWAP4 SWAP3 SWAP2 SWAP1 PUSH2 0x8C96 JUMP JUMPDEST PUSH2 0x3B1 PUSH2 0x448 CALLDATASIZE PUSH1 0x4 PUSH2 0x8A2D JUMP JUMPDEST PUSH2 0x1836 JUMP JUMPDEST PUSH2 0x3B1 PUSH2 0x45B CALLDATASIZE PUSH1 0x4 PUSH2 0x8A76 JUMP JUMPDEST PUSH2 0x1851 JUMP JUMPDEST PUSH2 0x3B1 PUSH2 0x46E CALLDATASIZE PUSH1 0x4 PUSH2 0x8A5D JUMP JUMPDEST PUSH2 0x194A JUMP JUMPDEST PUSH2 0x3B1 PUSH2 0x481 CALLDATASIZE PUSH1 0x4 PUSH2 0x8A76 JUMP JUMPDEST PUSH2 0x1A20 JUMP JUMPDEST PUSH2 0x499 PUSH2 0x494 CALLDATASIZE PUSH1 0x4 PUSH2 0x8A5D JUMP JUMPDEST PUSH2 0x1AFC JUMP JUMPDEST PUSH1 0x40 MLOAD PUSH2 0x3F8 SWAP6 SWAP5 SWAP4 SWAP3 SWAP2 SWAP1 PUSH2 0x8D53 JUMP JUMPDEST PUSH2 0x3B1 PUSH2 0x4B8 CALLDATASIZE PUSH1 0x4 PUSH2 0x8A5D JUMP JUMPDEST PUSH2 0x2834 JUMP JUMPDEST PUSH2 0x3B1 PUSH2 0x4CB CALLDATASIZE PUSH1 0x4 PUSH2 0x8A5D JUMP JUMPDEST PUSH2 0x28EE JUMP JUMPDEST PUSH2 0x3EC PUSH2 0x4DE CALLDATASIZE PUSH1 0x4 PUSH2 0x8A2D JUMP JUMPDEST PUSH2 0x29A0 JUMP JUMPDEST PUSH2 0x499 PUSH2 0x4F1 CALLDATASIZE PUSH1 0x4 PUSH2 0x8A5D JUMP JUMPDEST PUSH2 0x29AD JUMP JUMPDEST PUSH2 0x3B1 PUSH2 0x36E5 JUMP JUMPDEST PUSH2 0x3B1 PUSH2 0x36F0 JUMP JUMPDEST PUSH2 0x3B1 PUSH2 0x514 CALLDATASIZE PUSH1 0x4 PUSH2 0x8A76 JUMP JUMPDEST PUSH2 0x36F9 JUMP JUMPDEST PUSH2 0x3B1 PUSH2 0x527 CALLDATASIZE PUSH1 0x4 PUSH2 0x8A5D JUMP JUMPDEST PUSH2 0x37C7 JUMP JUMPDEST PUSH2 0x3B1 PUSH2 0x53A CALLDATASIZE PUSH1 0x4 PUSH2 0x8A76 JUMP JUMPDEST PUSH2 0x3888 JUMP JUMPDEST PUSH2 0x3B1 PUSH2 0x54D CALLDATASIZE PUSH1 0x4 PUSH2 0x8A76 JUMP JUMPDEST PUSH2 0x3956 JUMP JUMPDEST PUSH2 0x5C6 PUSH2 0x560 CALLDATASIZE PUSH1 0x4 PUSH2 0x8A5D JUMP JUMPDEST PUSH1 0x0 SWAP1 DUP2 MSTORE PUSH1 0xC PUSH1 0x20 SWAP1 DUP2 MSTORE PUSH1 0x40 SWAP2 DUP3 SWAP1 KECCAK256 DUP3 MLOAD PUSH1 0xC0 DUP2 ADD DUP5 MSTORE DUP2 SLOAD DUP1 DUP3 MSTORE PUSH1 0x1 DUP4 ADD SLOAD SWAP4 DUP3 ADD DUP5 SWAP1 MSTORE PUSH1 0x2 DUP4 ADD SLOAD SWAP5 DUP3 ADD DUP6 SWAP1 MSTORE PUSH1 0x3 DUP4 ADD SLOAD PUSH1 0x60 DUP4 ADD DUP2 SWAP1 MSTORE PUSH1 0x4 DUP5 ADD SLOAD PUSH1 0x80 DUP5 ADD DUP2 SWAP1 MSTORE PUSH1 0x5 SWAP1 SWAP5 ADD SLOAD PUSH1 0xA0 SWAP1 SWAP4 ADD DUP4 SWAP1 MSTORE SWAP1 SWAP6 SWAP4 SWAP5 SWAP4 SWAP1 SWAP3 SWAP2 SWAP1 JUMP JUMPDEST PUSH1 0x40 DUP1 MLOAD SWAP7 DUP8 MSTORE PUSH1 0x20 DUP8 ADD SWAP6 SWAP1 SWAP6 MSTORE SWAP4 DUP6 ADD SWAP3 SWAP1 SWAP3 MSTORE PUSH1 0x60 DUP5 ADD MSTORE PUSH1 0x80 DUP4 ADD MSTORE PUSH1 0xA0 DUP3 ADD MSTORE PUSH1 0xC0 ADD PUSH2 0x3F8 JUMP JUMPDEST PUSH2 0x3EC PUSH2 0x601 CALLDATASIZE PUSH1 0x4 PUSH2 0x8A2D JUMP JUMPDEST PUSH2 0x3A41 JUMP JUMPDEST PUSH2 0x3B1 PUSH2 0x614 CALLDATASIZE PUSH1 0x4 PUSH2 0x8A5D JUMP JUMPDEST PUSH2 0x3A4E JUMP JUMPDEST PUSH2 0x3B1 PUSH2 0x3B04 JUMP JUMPDEST PUSH2 0x3B1 PUSH2 0x62F CALLDATASIZE PUSH1 0x4 PUSH2 0x8A5D JUMP JUMPDEST PUSH2 0x3B0D JUMP JUMPDEST PUSH2 0x3B1 PUSH2 0x3BC3 JUMP JUMPDEST PUSH2 0x3B1 PUSH2 0x64A CALLDATASIZE PUSH1 0x4 PUSH2 0x8A76 JUMP JUMPDEST PUSH2 0x3BCC JUMP JUMPDEST PUSH2 0x3B1 PUSH2 0x3C98 JUMP JUMPDEST PUSH2 0x3B1 PUSH2 0x665 CALLDATASIZE PUSH1 0x4 PUSH2 0x8A2D JUMP JUMPDEST PUSH2 0x3CF9 JUMP JUMPDEST PUSH2 0x3B1 PUSH2 0x678 CALLDATASIZE PUSH1 0x4 PUSH2 0x8A5D JUMP JUMPDEST PUSH2 0x3D14 JUMP JUMPDEST PUSH2 0x3B1 PUSH2 0x68B CALLDATASIZE PUSH1 0x4 PUSH2 0x8A2D JUMP JUMPDEST PUSH2 0x3DCA JUMP JUMPDEST PUSH2 0x3B1 PUSH2 0x69E CALLDATASIZE PUSH1 0x4 PUSH2 0x8A2D JUMP JUMPDEST PUSH2 0x3DE5 JUMP JUMPDEST PUSH2 0x3B1 PUSH2 0x3E00 JUMP JUMPDEST PUSH2 0x3EC PUSH2 0x6B9 CALLDATASIZE PUSH1 0x4 PUSH2 0x8A2D JUMP JUMPDEST PUSH2 0x3E09 JUMP JUMPDEST PUSH2 0x3B1 PUSH2 0x6CC CALLDATASIZE PUSH1 0x4 PUSH2 0x8A5D JUMP JUMPDEST PUSH2 0x3E16 JUMP JUMPDEST PUSH2 0x3B1 PUSH2 0x6DF CALLDATASIZE PUSH1 0x4 PUSH2 0x8A5D JUMP JUMPDEST PUSH2 0x3ED5 JUMP JUMPDEST PUSH2 0x3B1 PUSH2 0x6F2 CALLDATASIZE PUSH1 0x4 PUSH2 0x8A2D JUMP JUMPDEST PUSH2 0x3F96 JUMP JUMPDEST PUSH2 0x3EC PUSH2 0x705 CALLDATASIZE PUSH1 0x4 PUSH2 0x8A2D JUMP JUMPDEST PUSH2 0x3FB1 JUMP JUMPDEST PUSH2 0x3B1 PUSH2 0x718 CALLDATASIZE PUSH1 0x4 PUSH2 0x8B2A JUMP JUMPDEST PUSH2 0x3FBE JUMP JUMPDEST PUSH1 0x0 SLOAD PUSH1 0x1 PUSH1 0x1 PUSH1 0xA0 SHL SUB AND CALLER EQ PUSH2 0x3EC JUMP JUMPDEST PUSH2 0x3B1 PUSH2 0x73E CALLDATASIZE PUSH1 0x4 PUSH2 0x8ABD JUMP JUMPDEST PUSH2 0x40EC JUMP JUMPDEST PUSH2 0x756 PUSH2 0x751 CALLDATASIZE PUSH1 0x4 PUSH2 0x8A5D JUMP JUMPDEST PUSH2 0x41F4 JUMP JUMPDEST PUSH1 0x40 MLOAD PUSH2 0x3F8 SWAP5 SWAP4 SWAP3 SWAP2 SWAP1 PUSH2 0x8D0B JUMP JUMPDEST PUSH2 0x3B1 PUSH2 0x774 CALLDATASIZE PUSH1 0x4 PUSH2 0x8A2D JUMP JUMPDEST PUSH2 0x4F25 JUMP JUMPDEST PUSH2 0x3EC PUSH2 0x787 CALLDATASIZE PUSH1 0x4 PUSH2 0x8A2D JUMP JUMPDEST PUSH2 0x4F40 JUMP JUMPDEST PUSH2 0x3B1 PUSH2 0x79A CALLDATASIZE PUSH1 0x4 PUSH2 0x8A76 JUMP JUMPDEST PUSH2 0x4F4D JUMP JUMPDEST PUSH2 0x3B1 PUSH2 0x7AD CALLDATASIZE PUSH1 0x4 PUSH2 0x8A76 JUMP JUMPDEST PUSH2 0x501B JUMP JUMPDEST PUSH2 0x3B1 PUSH2 0x7C0 CALLDATASIZE PUSH1 0x4 PUSH2 0x8ABD JUMP JUMPDEST PUSH2 0x5101 JUMP JUMPDEST PUSH2 0x7D8 PUSH2 0x7D3 CALLDATASIZE PUSH1 0x4 PUSH2 0x8A5D JUMP JUMPDEST PUSH2 0x56FE JUMP JUMPDEST PUSH1 0x40 MLOAD PUSH2 0x3F8 SWAP12 SWAP11 SWAP10 SWAP9 SWAP8 SWAP7 SWAP6 SWAP5 SWAP4 SWAP3 SWAP2 SWAP1 PUSH2 0x8DD2 JUMP JUMPDEST PUSH2 0x3B1 PUSH2 0x64AD JUMP JUMPDEST PUSH1 0x0 SLOAD PUSH1 0x40 MLOAD PUSH1 0x1 PUSH1 0x1 PUSH1 0xA0 SHL SUB SWAP1 SWAP2 AND DUP2 MSTORE PUSH1 0x20 ADD PUSH2 0x3F8 JUMP JUMPDEST PUSH2 0x3B1 PUSH2 0x820 CALLDATASIZE PUSH1 0x4 PUSH2 0x8A5D JUMP JUMPDEST PUSH2 0x64B6 JUMP JUMPDEST PUSH2 0x3B1 PUSH2 0x656C JUMP JUMPDEST PUSH2 0x3B1 PUSH2 0x83B CALLDATASIZE PUSH1 0x4 PUSH2 0x8A2D JUMP JUMPDEST PUSH2 0x6575 JUMP JUMPDEST PUSH2 0x853 PUSH2 0x84E CALLDATASIZE PUSH1 0x4 PUSH2 0x8A5D JUMP JUMPDEST PUSH2 0x6595 JUMP JUMPDEST PUSH1 0x40 MLOAD PUSH2 0x3F8 SWAP4 SWAP3 SWAP2 SWAP1 PUSH2 0x8D9E JUMP JUMPDEST PUSH2 0x3B1 PUSH2 0x870 CALLDATASIZE PUSH1 0x4 PUSH2 0x8A5D JUMP JUMPDEST PUSH2 0x72BC JUMP JUMPDEST PUSH2 0x3B1 PUSH2 0x883 CALLDATASIZE PUSH1 0x4 PUSH2 0x8A76 JUMP JUMPDEST PUSH2 0x736E JUMP JUMPDEST PUSH2 0x3B1 PUSH2 0x896 CALLDATASIZE PUSH1 0x4 PUSH2 0x8A76 JUMP JUMPDEST PUSH2 0x7459 JUMP JUMPDEST PUSH2 0x8AE PUSH2 0x8A9 CALLDATASIZE PUSH1 0x4 PUSH2 0x8A5D JUMP JUMPDEST PUSH2 0x753D JUMP JUMPDEST PUSH1 0x40 MLOAD PUSH2 0x3F8 SWAP9 SWAP8 SWAP7 SWAP6 SWAP5 SWAP4 SWAP3 SWAP2 SWAP1 PUSH2 0x8C09 JUMP JUMPDEST PUSH2 0x8CB CALLER PUSH2 0xAD8 JUMP JUMPDEST PUSH2 0x8D4 JUMPI PUSH1 0x0 DUP1 REVERT JUMPDEST DUP4 PUSH1 0xC PUSH1 0x0 DUP3 DUP2 MSTORE PUSH1 0xB PUSH1 0x20 MSTORE PUSH1 0x40 SWAP1 KECCAK256 PUSH1 0x2B ADD SLOAD PUSH1 0xFF AND PUSH1 0x19 DUP2 GT ISZERO PUSH2 0x8FD JUMPI PUSH2 0x8FD PUSH2 0x8EF2 JUMP JUMPDEST EQ PUSH2 0x907 JUMPI PUSH1 0x0 DUP1 REVERT JUMPDEST PUSH1 0x0 DUP6 DUP2 MSTORE PUSH1 0xB PUSH1 0x20 MSTORE PUSH1 0x40 SWAP1 KECCAK256 SLOAD PUSH1 0x1 PUSH1 0x1 PUSH1 0xA0 SHL SUB AND CALLER DUP2 EQ PUSH2 0x92B JUMPI PUSH1 0x0 DUP1 REVERT JUMPDEST PUSH1 0x0 DUP7 DUP2 MSTORE PUSH1 0xB PUSH1 0x20 SWAP1 DUP2 MSTORE PUSH1 0x40 SWAP1 SWAP2 KECCAK256 PUSH1 0x2B DUP2 ADD DUP1 SLOAD PUSH1 0xFF NOT AND PUSH1 0xD OR SWAP1 SSTORE DUP7 MLOAD PUSH2 0x95F SWAP3 PUSH1 0x1B SWAP1 SWAP3 ADD SWAP2 DUP9 ADD SWAP1 PUSH2 0x876E JUMP JUMPDEST POP PUSH1 0x0 DUP7 DUP2 MSTORE PUSH1 0xB PUSH1 0x20 SWAP1 DUP2 MSTORE PUSH1 0x40 SWAP1 SWAP2 KECCAK256 DUP6 MLOAD PUSH2 0x985 SWAP3 PUSH1 0x1A SWAP1 SWAP3 ADD SWAP2 DUP8 ADD SWAP1 PUSH2 0x876E JUMP JUMPDEST POP PUSH1 0x0 DUP7 DUP2 MSTORE PUSH1 0xB PUSH1 0x20 SWAP1 DUP2 MSTORE PUSH1 0x40 SWAP1 SWAP2 KECCAK256 DUP5 MLOAD PUSH2 0x9AB SWAP3 PUSH1 0x1C SWAP1 SWAP3 ADD SWAP2 DUP7 ADD SWAP1 PUSH2 0x876E JUMP JUMPDEST POP PUSH1 0x40 MLOAD DUP7 DUP2 MSTORE PUSH32 0x80A89A48D661A348C1B359A36DD71B2E8CA13001ACF4574AB498D52097FD91B SWAP1 PUSH1 0x20 ADD JUMPDEST PUSH1 0x40 MLOAD DUP1 SWAP2 SUB SWAP1 LOG1 POP POP POP POP POP POP JUMP JUMPDEST PUSH2 0x9F1 CALLER PUSH2 0xAD8 JUMP JUMPDEST PUSH2 0x9FA JUMPI PUSH1 0x0 DUP1 REVERT JUMPDEST DUP1 PUSH1 0xD PUSH1 0x0 DUP3 DUP2 MSTORE PUSH1 0xB PUSH1 0x20 MSTORE PUSH1 0x40 SWAP1 KECCAK256 PUSH1 0x2B ADD SLOAD PUSH1 0xFF AND PUSH1 0x19 DUP2 GT ISZERO PUSH2 0xA23 JUMPI PUSH2 0xA23 PUSH2 0x8EF2 JUMP JUMPDEST EQ PUSH2 0xA2D JUMPI PUSH1 0x0 DUP1 REVERT JUMPDEST PUSH1 0x0 DUP3 DUP2 MSTORE PUSH1 0xB PUSH1 0x20 MSTORE PUSH1 0x40 SWAP1 KECCAK256 SLOAD PUSH1 0x1 PUSH1 0x1 PUSH1 0xA0 SHL SUB AND CALLER DUP2 EQ PUSH2 0xA51 JUMPI PUSH1 0x0 DUP1 REVERT JUMPDEST PUSH1 0x0 DUP4 DUP2 MSTORE PUSH1 0xB PUSH1 0x20 SWAP1 DUP2 MSTORE PUSH1 0x40 SWAP2 DUP3 SWAP1 KECCAK256 PUSH1 0x2B ADD DUP1 SLOAD PUSH1 0xFF NOT AND PUSH1 0xE OR SWAP1 SSTORE SWAP1 MLOAD DUP5 DUP2 MSTORE PUSH32 0x2FC8C17BB6FB086638C55FE51C88AF62A57142CA45ADBE0288D0C5F5DDD6CB55 SWAP2 ADD JUMPDEST PUSH1 0x40 MLOAD DUP1 SWAP2 SUB SWAP1 LOG1 POP POP POP JUMP JUMPDEST PUSH2 0xAB0 CALLER PUSH2 0x3E09 JUMP JUMPDEST PUSH2 0xAB9 JUMPI PUSH1 0x0 DUP1 REVERT JUMPDEST PUSH2 0xAC2 DUP2 PUSH2 0x82E8 JUMP JUMPDEST POP JUMP JUMPDEST PUSH1 0x0 PUSH2 0xAD2 PUSH1 0x2 DUP4 PUSH2 0x832A JUMP JUMPDEST SWAP3 SWAP2 POP POP JUMP JUMPDEST PUSH1 0x0 PUSH2 0xAD2 PUSH1 0x4 DUP4 PUSH2 0x832A JUMP JUMPDEST PUSH1 0x0 DUP2 DUP2 MSTORE PUSH1 0xB PUSH1 0x20 SWAP1 DUP2 MSTORE PUSH1 0x40 DUP1 DUP4 KECCAK256 DUP2 MLOAD PUSH2 0x580 DUP2 ADD DUP4 MSTORE DUP2 SLOAD PUSH1 0x1 PUSH1 0x1 PUSH1 0xA0 SHL SUB SWAP1 DUP2 AND DUP3 MSTORE PUSH1 0x1 DUP4 ADD SLOAD SWAP5 DUP3 ADD SWAP5 SWAP1 SWAP5 MSTORE PUSH1 0x2 DUP3 ADD SLOAD SWAP3 DUP2 ADD SWAP3 SWAP1 SWAP3 MSTORE PUSH1 0x3 DUP2 ADD SLOAD PUSH1 0x60 DUP4 DUP2 ADD SWAP2 SWAP1 SWAP2 MSTORE PUSH1 0x4 DUP3 ADD SLOAD SWAP1 SWAP4 AND PUSH1 0x80 DUP4 ADD MSTORE PUSH1 0x5 DUP2 ADD DUP1 SLOAD DUP5 SWAP4 DUP5 SWAP4 DUP5 SWAP4 DUP9 SWAP4 DUP5 SWAP4 DUP5 SWAP4 SWAP1 SWAP3 SWAP1 SWAP2 PUSH1 0xA0 DUP5 ADD SWAP2 SWAP1 PUSH2 0xB66 SWAP1 PUSH2 0x8E86 JUMP JUMPDEST DUP1 PUSH1 0x1F ADD PUSH1 0x20 DUP1 SWAP2 DIV MUL PUSH1 0x20 ADD PUSH1 0x40 MLOAD SWAP1 DUP2 ADD PUSH1 0x40 MSTORE DUP1 SWAP3 SWAP2 SWAP1 DUP2 DUP2 MSTORE PUSH1 0x20 ADD DUP3 DUP1 SLOAD PUSH2 0xB92 SWAP1 PUSH2 0x8E86 JUMP JUMPDEST DUP1 ISZERO PUSH2 0xBDF JUMPI DUP1 PUSH1 0x1F LT PUSH2 0xBB4 JUMPI PUSH2 0x100 DUP1 DUP4 SLOAD DIV MUL DUP4 MSTORE SWAP2 PUSH1 0x20 ADD SWAP2 PUSH2 0xBDF JUMP JUMPDEST DUP3 ADD SWAP2 SWAP1 PUSH1 0x0 MSTORE PUSH1 0x20 PUSH1 0x0 KECCAK256 SWAP1 JUMPDEST DUP2 SLOAD DUP2 MSTORE SWAP1 PUSH1 0x1 ADD SWAP1 PUSH1 0x20 ADD DUP1 DUP4 GT PUSH2 0xBC2 JUMPI DUP3 SWAP1 SUB PUSH1 0x1F AND DUP3 ADD SWAP2 JUMPDEST POP POP POP POP POP DUP2 MSTORE PUSH1 0x20 ADD PUSH1 0x6 DUP3 ADD DUP1 SLOAD PUSH2 0xBF8 SWAP1 PUSH2 0x8E86 JUMP JUMPDEST DUP1 PUSH1 0x1F ADD PUSH1 0x20 DUP1 SWAP2 DIV MUL PUSH1 0x20 ADD PUSH1 0x40 MLOAD SWAP1 DUP2 ADD PUSH1 0x40 MSTORE DUP1 SWAP3 SWAP2 SWAP1 DUP2 DUP2 MSTORE PUSH1 0x20 ADD DUP3 DUP1 SLOAD PUSH2 0xC24 SWAP1 PUSH2 0x8E86 JUMP JUMPDEST DUP1 ISZERO PUSH2 0xC71 JUMPI DUP1 PUSH1 0x1F LT PUSH2 0xC46 JUMPI PUSH2 0x100 DUP1 DUP4 SLOAD DIV MUL DUP4 MSTORE SWAP2 PUSH1 0x20 ADD SWAP2 PUSH2 0xC71 JUMP JUMPDEST DUP3 ADD SWAP2 SWAP1 PUSH1 0x0 MSTORE PUSH1 0x20 PUSH1 0x0 KECCAK256 SWAP1 JUMPDEST DUP2 SLOAD DUP2 MSTORE SWAP1 PUSH1 0x1 ADD SWAP1 PUSH1 0x20 ADD DUP1 DUP4 GT PUSH2 0xC54 JUMPI DUP3 SWAP1 SUB PUSH1 0x1F AND DUP3 ADD SWAP2 JUMPDEST POP POP POP POP POP DUP2 MSTORE PUSH1 0x20 ADD PUSH1 0x7 DUP3 ADD DUP1 SLOAD PUSH2 0xC8A SWAP1 PUSH2 0x8E86 JUMP JUMPDEST DUP1 PUSH1 0x1F ADD PUSH1 0x20 DUP1 SWAP2 DIV MUL PUSH1 0x20 ADD PUSH1 0x40 MLOAD SWAP1 DUP2 ADD PUSH1 0x40 MSTORE DUP1 SWAP3 SWAP2 SWAP1 DUP2 DUP2 MSTORE PUSH1 0x20 ADD DUP3 DUP1 SLOAD PUSH2 0xCB6 SWAP1 PUSH2 0x8E86 JUMP JUMPDEST DUP1 ISZERO PUSH2 0xD03 JUMPI DUP1 PUSH1 0x1F LT PUSH2 0xCD8 JUMPI PUSH2 0x100 DUP1 DUP4 SLOAD DIV MUL DUP4 MSTORE SWAP2 PUSH1 0x20 ADD SWAP2 PUSH2 0xD03 JUMP JUMPDEST DUP3 ADD SWAP2 SWAP1 PUSH1 0x0 MSTORE PUSH1 0x20 PUSH1 0x0 KECCAK256 SWAP1 JUMPDEST DUP2 SLOAD DUP2 MSTORE SWAP1 PUSH1 0x1 ADD SWAP1 PUSH1 0x20 ADD DUP1 DUP4 GT PUSH2 0xCE6 JUMPI DUP3 SWAP1 SUB PUSH1 0x1F AND DUP3 ADD SWAP2 JUMPDEST POP POP POP POP POP DUP2 MSTORE PUSH1 0x20 ADD PUSH1 0x8 DUP3 ADD DUP1 SLOAD PUSH2 0xD1C SWAP1 PUSH2 0x8E86 JUMP JUMPDEST DUP1 PUSH1 0x1F ADD PUSH1 0x20 DUP1 SWAP2 DIV MUL PUSH1 0x20 ADD PUSH1 0x40 MLOAD SWAP1 DUP2 ADD PUSH1 0x40 MSTORE DUP1 SWAP3 SWAP2 SWAP1 DUP2 DUP2 MSTORE PUSH1 0x20 ADD DUP3 DUP1 SLOAD PUSH2 0xD48 SWAP1 PUSH2 0x8E86 JUMP JUMPDEST DUP1 ISZERO PUSH2 0xD95 JUMPI DUP1 PUSH1 0x1F LT PUSH2 0xD6A JUMPI PUSH2 0x100 DUP1 DUP4 SLOAD DIV MUL DUP4 MSTORE SWAP2 PUSH1 0x20 ADD SWAP2 PUSH2 0xD95 JUMP JUMPDEST DUP3 ADD SWAP2 SWAP1 PUSH1 0x0 MSTORE PUSH1 0x20 PUSH1 0x0 KECCAK256 SWAP1 JUMPDEST DUP2 SLOAD DUP2 MSTORE SWAP1 PUSH1 0x1 ADD SWAP1 PUSH1 0x20 ADD DUP1 DUP4 GT PUSH2 0xD78 JUMPI DUP3 SWAP1 SUB PUSH1 0x1F AND DUP3 ADD SWAP2 JUMPDEST POP POP POP SWAP2 DUP4 MSTORE POP POP PUSH1 0x9 DUP3 ADD SLOAD PUSH1 0x20 DUP3 ADD MSTORE PUSH1 0xA DUP3 ADD SLOAD PUSH1 0x40 DUP3 ADD MSTORE PUSH1 0xB DUP3 ADD SLOAD PUSH1 0x1 PUSH1 0x1 PUSH1 0xA0 SHL SUB AND PUSH1 0x60 DUP3 ADD MSTORE PUSH1 0xC DUP3 ADD DUP1 SLOAD PUSH1 0x80 SWAP1 SWAP3 ADD SWAP2 PUSH2 0xDD9 SWAP1 PUSH2 0x8E86 JUMP JUMPDEST DUP1 PUSH1 0x1F ADD PUSH1 0x20 DUP1 SWAP2 DIV MUL PUSH1 0x20 ADD PUSH1 0x40 MLOAD SWAP1 DUP2 ADD PUSH1 0x40 MSTORE DUP1 SWAP3 SWAP2 SWAP1 DUP2 DUP2 MSTORE PUSH1 0x20 ADD DUP3 DUP1 SLOAD PUSH2 0xE05 SWAP1 PUSH2 0x8E86 JUMP JUMPDEST DUP1 ISZERO PUSH2 0xE52 JUMPI DUP1 PUSH1 0x1F LT PUSH2 0xE27 JUMPI PUSH2 0x100 DUP1 DUP4 SLOAD DIV MUL DUP4 MSTORE SWAP2 PUSH1 0x20 ADD SWAP2 PUSH2 0xE52 JUMP JUMPDEST DUP3 ADD SWAP2 SWAP1 PUSH1 0x0 MSTORE PUSH1 0x20 PUSH1 0x0 KECCAK256 SWAP1 JUMPDEST DUP2 SLOAD DUP2 MSTORE SWAP1 PUSH1 0x1 ADD SWAP1 PUSH1 0x20 ADD DUP1 DUP4 GT PUSH2 0xE35 JUMPI DUP3 SWAP1 SUB PUSH1 0x1F AND DUP3 ADD SWAP2 JUMPDEST POP POP POP POP POP DUP2 MSTORE PUSH1 0x20 ADD PUSH1 0xD DUP3 ADD DUP1 SLOAD PUSH2 0xE6B SWAP1 PUSH2 0x8E86 JUMP JUMPDEST DUP1 PUSH1 0x1F ADD PUSH1 0x20 DUP1 SWAP2 DIV MUL PUSH1 0x20 ADD PUSH1 0x40 MLOAD SWAP1 DUP2 ADD PUSH1 0x40 MSTORE DUP1 SWAP3 SWAP2 SWAP1 DUP2 DUP2 MSTORE PUSH1 0x20 ADD DUP3 DUP1 SLOAD PUSH2 0xE97 SWAP1 PUSH2 0x8E86 JUMP JUMPDEST DUP1 ISZERO PUSH2 0xEE4 JUMPI DUP1 PUSH1 0x1F LT PUSH2 0xEB9 JUMPI PUSH2 0x100 DUP1 DUP4 SLOAD DIV MUL DUP4 MSTORE SWAP2 PUSH1 0x20 ADD SWAP2 PUSH2 0xEE4 JUMP JUMPDEST DUP3 ADD SWAP2 SWAP1 PUSH1 0x0 MSTORE PUSH1 0x20 PUSH1 0x0 KECCAK256 SWAP1 JUMPDEST DUP2 SLOAD DUP2 MSTORE SWAP1 PUSH1 0x1 ADD SWAP1 PUSH1 0x20 ADD DUP1 DUP4 GT PUSH2 0xEC7 JUMPI DUP3 SWAP1 SUB PUSH1 0x1F AND DUP3 ADD SWAP2 JUMPDEST POP POP POP POP POP DUP2 MSTORE PUSH1 0x20 ADD PUSH1 0xE DUP3 ADD DUP1 SLOAD PUSH2 0xEFD SWAP1 PUSH2 0x8E86 JUMP JUMPDEST DUP1 PUSH1 0x1F ADD PUSH1 0x20 DUP1 SWAP2 DIV MUL PUSH1 0x20 ADD PUSH1 0x40 MLOAD SWAP1 DUP2 ADD PUSH1 0x40 MSTORE DUP1 SWAP3 SWAP2 SWAP1 DUP2 DUP2 MSTORE PUSH1 0x20 ADD DUP3 DUP1 SLOAD PUSH2 0xF29 SWAP1 PUSH2 0x8E86 JUMP JUMPDEST DUP1 ISZERO PUSH2 0xF76 JUMPI DUP1 PUSH1 0x1F LT PUSH2 0xF4B JUMPI PUSH2 0x100 DUP1 DUP4 SLOAD DIV MUL DUP4 MSTORE SWAP2 PUSH1 0x20 ADD SWAP2 PUSH2 0xF76 JUMP JUMPDEST DUP3 ADD SWAP2 SWAP1 PUSH1 0x0 MSTORE PUSH1 0x20 PUSH1 0x0 KECCAK256 SWAP1 JUMPDEST DUP2 SLOAD DUP2 MSTORE SWAP1 PUSH1 0x1 ADD SWAP1 PUSH1 0x20 ADD DUP1 DUP4 GT PUSH2 0xF59 JUMPI DUP3 SWAP1 SUB PUSH1 0x1F AND DUP3 ADD SWAP2 JUMPDEST POP POP POP POP POP DUP2 MSTORE PUSH1 0x20 ADD PUSH1 0xF DUP3 ADD DUP1 SLOAD PUSH2 0xF8F SWAP1 PUSH2 0x8E86 JUMP JUMPDEST DUP1 PUSH1 0x1F ADD PUSH1 0x20 DUP1 SWAP2 DIV MUL PUSH1 0x20 ADD PUSH1 0x40 MLOAD SWAP1 DUP2 ADD PUSH1 0x40 MSTORE DUP1 SWAP3 SWAP2 SWAP1 DUP2 DUP2 MSTORE PUSH1 0x20 ADD DUP3 DUP1 SLOAD PUSH2 0xFBB SWAP1 PUSH2 0x8E86 JUMP JUMPDEST DUP1 ISZERO PUSH2 0x1008 JUMPI DUP1 PUSH1 0x1F LT PUSH2 0xFDD JUMPI PUSH2 0x100 DUP1 DUP4 SLOAD DIV MUL DUP4 MSTORE SWAP2 PUSH1 0x20 ADD SWAP2 PUSH2 0x1008 JUMP JUMPDEST DUP3 ADD SWAP2 SWAP1 PUSH1 0x0 MSTORE PUSH1 0x20 PUSH1 0x0 KECCAK256 SWAP1 JUMPDEST DUP2 SLOAD DUP2 MSTORE SWAP1 PUSH1 0x1 ADD SWAP1 PUSH1 0x20 ADD DUP1 DUP4 GT PUSH2 0xFEB JUMPI DUP3 SWAP1 SUB PUSH1 0x1F AND DUP3 ADD SWAP2 JUMPDEST POP POP POP SWAP2 DUP4 MSTORE POP POP PUSH1 0x10 DUP3 ADD SLOAD PUSH1 0x20 DUP3 ADD MSTORE PUSH1 0x11 DUP3 ADD SLOAD PUSH1 0x40 DUP3 ADD MSTORE PUSH1 0x12 DUP3 ADD SLOAD PUSH1 0x1 PUSH1 0x1 PUSH1 0xA0 SHL SUB AND PUSH1 0x60 DUP3 ADD MSTORE PUSH1 0x13 DUP3 ADD DUP1 SLOAD PUSH1 0x80 SWAP1 SWAP3 ADD SWAP2 PUSH2 0x104C SWAP1 PUSH2 0x8E86 JUMP JUMPDEST DUP1 PUSH1 0x1F ADD PUSH1 0x20 DUP1 SWAP2 DIV MUL PUSH1 0x20 ADD PUSH1 0x40 MLOAD SWAP1 DUP2 ADD PUSH1 0x40 MSTORE DUP1 SWAP3 SWAP2 SWAP1 DUP2 DUP2 MSTORE PUSH1 0x20 ADD DUP3 DUP1 SLOAD PUSH2 0x1078 SWAP1 PUSH2 0x8E86 JUMP JUMPDEST DUP1 ISZERO PUSH2 0x10C5 JUMPI DUP1 PUSH1 0x1F LT PUSH2 0x109A JUMPI PUSH2 0x100 DUP1 DUP4 SLOAD DIV MUL DUP4 MSTORE SWAP2 PUSH1 0x20 ADD SWAP2 PUSH2 0x10C5 JUMP JUMPDEST DUP3 ADD SWAP2 SWAP1 PUSH1 0x0 MSTORE PUSH1 0x20 PUSH1 0x0 KECCAK256 SWAP1 JUMPDEST DUP2 SLOAD DUP2 MSTORE SWAP1 PUSH1 0x1 ADD SWAP1 PUSH1 0x20 ADD DUP1 DUP4 GT PUSH2 0x10A8 JUMPI DUP3 SWAP1 SUB PUSH1 0x1F AND DUP3 ADD SWAP2 JUMPDEST POP POP POP POP POP DUP2 MSTORE PUSH1 0x20 ADD PUSH1 0x14 DUP3 ADD DUP1 SLOAD PUSH2 0x10DE SWAP1 PUSH2 0x8E86 JUMP JUMPDEST DUP1 PUSH1 0x1F ADD PUSH1 0x20 DUP1 SWAP2 DIV MUL PUSH1 0x20 ADD PUSH1 0x40 MLOAD SWAP1 DUP2 ADD PUSH1 0x40 MSTORE DUP1 SWAP3 SWAP2 SWAP1 DUP2 DUP2 MSTORE PUSH1 0x20 ADD DUP3 DUP1 SLOAD PUSH2 0x110A SWAP1 PUSH2 0x8E86 JUMP JUMPDEST DUP1 ISZERO PUSH2 0x1157 JUMPI DUP1 PUSH1 0x1F LT PUSH2 0x112C JUMPI PUSH2 0x100 DUP1 DUP4 SLOAD DIV MUL DUP4 MSTORE SWAP2 PUSH1 0x20 ADD SWAP2 PUSH2 0x1157 JUMP JUMPDEST DUP3 ADD SWAP2 SWAP1 PUSH1 0x0 MSTORE PUSH1 0x20 PUSH1 0x0 KECCAK256 SWAP1 JUMPDEST DUP2 SLOAD DUP2 MSTORE SWAP1 PUSH1 0x1 ADD SWAP1 PUSH1 0x20 ADD DUP1 DUP4 GT PUSH2 0x113A JUMPI DUP3 SWAP1 SUB PUSH1 0x1F AND DUP3 ADD SWAP2 JUMPDEST POP POP POP SWAP2 DUP4 MSTORE POP POP PUSH1 0x15 DUP3 ADD SLOAD PUSH1 0x20 DUP3 ADD MSTORE PUSH1 0x16 DUP3 ADD SLOAD PUSH1 0x40 DUP3 ADD MSTORE PUSH1 0x17 DUP3 ADD SLOAD PUSH1 0x1 PUSH1 0x1 PUSH1 0xA0 SHL SUB AND PUSH1 0x60 DUP3 ADD MSTORE PUSH1 0x18 DUP3 ADD DUP1 SLOAD PUSH1 0x80 SWAP1 SWAP3 ADD SWAP2 PUSH2 0x119B SWAP1 PUSH2 0x8E86 JUMP JUMPDEST DUP1 PUSH1 0x1F ADD PUSH1 0x20 DUP1 SWAP2 DIV MUL PUSH1 0x20 ADD PUSH1 0x40 MLOAD SWAP1 DUP2 ADD PUSH1 0x40 MSTORE DUP1 SWAP3 SWAP2 SWAP1 DUP2 DUP2 MSTORE PUSH1 0x20 ADD DUP3 DUP1 SLOAD PUSH2 0x11C7 SWAP1 PUSH2 0x8E86 JUMP JUMPDEST DUP1 ISZERO PUSH2 0x1214 JUMPI DUP1 PUSH1 0x1F LT PUSH2 0x11E9 JUMPI PUSH2 0x100 DUP1 DUP4 SLOAD DIV MUL DUP4 MSTORE SWAP2 PUSH1 0x20 ADD SWAP2 PUSH2 0x1214 JUMP JUMPDEST DUP3 ADD SWAP2 SWAP1 PUSH1 0x0 MSTORE PUSH1 0x20 PUSH1 0x0 KECCAK256 SWAP1 JUMPDEST DUP2 SLOAD DUP2 MSTORE SWAP1 PUSH1 0x1 ADD SWAP1 PUSH1 0x20 ADD DUP1 DUP4 GT PUSH2 0x11F7 JUMPI DUP3 SWAP1 SUB PUSH1 0x1F AND DUP3 ADD SWAP2 JUMPDEST POP POP POP POP POP DUP2 MSTORE PUSH1 0x20 ADD PUSH1 0x19 DUP3 ADD DUP1 SLOAD PUSH2 0x122D SWAP1 PUSH2 0x8E86 JUMP JUMPDEST DUP1 PUSH1 0x1F ADD PUSH1 0x20 DUP1 SWAP2 DIV MUL PUSH1 0x20 ADD PUSH1 0x40 MLOAD SWAP1 DUP2 ADD PUSH1 0x40 MSTORE DUP1 SWAP3 SWAP2 SWAP1 DUP2 DUP2 MSTORE PUSH1 0x20 ADD DUP3 DUP1 SLOAD PUSH2 0x1259 SWAP1 PUSH2 0x8E86 JUMP JUMPDEST DUP1 ISZERO PUSH2 0x12A6 JUMPI DUP1 PUSH1 0x1F LT PUSH2 0x127B JUMPI PUSH2 0x100 DUP1 DUP4 SLOAD DIV MUL DUP4 MSTORE SWAP2 PUSH1 0x20 ADD SWAP2 PUSH2 0x12A6 JUMP JUMPDEST DUP3 ADD SWAP2 SWAP1 PUSH1 0x0 MSTORE PUSH1 0x20 PUSH1 0x0 KECCAK256 SWAP1 JUMPDEST DUP2 SLOAD DUP2 MSTORE SWAP1 PUSH1 0x1 ADD SWAP1 PUSH1 0x20 ADD DUP1 DUP4 GT PUSH2 0x1289 JUMPI DUP3 SWAP1 SUB PUSH1 0x1F AND DUP3 ADD SWAP2 JUMPDEST POP POP POP POP POP DUP2 MSTORE PUSH1 0x20 ADD PUSH1 0x1A DUP3 ADD DUP1 SLOAD PUSH2 0x12BF SWAP1 PUSH2 0x8E86 JUMP JUMPDEST DUP1 PUSH1 0x1F ADD PUSH1 0x20 DUP1 SWAP2 DIV MUL PUSH1 0x20 ADD PUSH1 0x40 MLOAD SWAP1 DUP2 ADD PUSH1 0x40 MSTORE DUP1 SWAP3 SWAP2 SWAP1 DUP2 DUP2 MSTORE PUSH1 0x20 ADD DUP3 DUP1 SLOAD PUSH2 0x12EB SWAP1 PUSH2 0x8E86 JUMP JUMPDEST DUP1 ISZERO PUSH2 0x1338 JUMPI DUP1 PUSH1 0x1F LT PUSH2 0x130D JUMPI PUSH2 0x100 DUP1 DUP4 SLOAD DIV MUL DUP4 MSTORE SWAP2 PUSH1 0x20 ADD SWAP2 PUSH2 0x1338 JUMP JUMPDEST DUP3 ADD SWAP2 SWAP1 PUSH1 0x0 MSTORE PUSH1 0x20 PUSH1 0x0 KECCAK256 SWAP1 JUMPDEST DUP2 SLOAD DUP2 MSTORE SWAP1 PUSH1 0x1 ADD SWAP1 PUSH1 0x20 ADD DUP1 DUP4 GT PUSH2 0x131B JUMPI DUP3 SWAP1 SUB PUSH1 0x1F AND DUP3 ADD SWAP2 JUMPDEST POP POP POP POP POP DUP2 MSTORE PUSH1 0x20 ADD PUSH1 0x1B DUP3 ADD DUP1 SLOAD PUSH2 0x1351 SWAP1 PUSH2 0x8E86 JUMP JUMPDEST DUP1 PUSH1 0x1F ADD PUSH1 0x20 DUP1 SWAP2 DIV MUL PUSH1 0x20 ADD PUSH1 0x40 MLOAD SWAP1 DUP2 ADD PUSH1 0x40 MSTORE DUP1 SWAP3 SWAP2 SWAP1 DUP2 DUP2 MSTORE PUSH1 0x20 ADD DUP3 DUP1 SLOAD PUSH2 0x137D SWAP1 PUSH2 0x8E86 JUMP JUMPDEST DUP1 ISZERO PUSH2 0x13CA JUMPI DUP1 PUSH1 0x1F LT PUSH2 0x139F JUMPI PUSH2 0x100 DUP1 DUP4 SLOAD DIV MUL DUP4 MSTORE SWAP2 PUSH1 0x20 ADD SWAP2 PUSH2 0x13CA JUMP JUMPDEST DUP3 ADD SWAP2 SWAP1 PUSH1 0x0 MSTORE PUSH1 0x20 PUSH1 0x0 KECCAK256 SWAP1 JUMPDEST DUP2 SLOAD DUP2 MSTORE SWAP1 PUSH1 0x1 ADD SWAP1 PUSH1 0x20 ADD DUP1 DUP4 GT PUSH2 0x13AD JUMPI DUP3 SWAP1 SUB PUSH1 0x1F AND DUP3 ADD SWAP2 JUMPDEST POP POP POP POP POP DUP2 MSTORE PUSH1 0x20 ADD PUSH1 0x1C DUP3 ADD DUP1 SLOAD PUSH2 0x13E3 SWAP1 PUSH2 0x8E86 JUMP JUMPDEST DUP1 PUSH1 0x1F ADD PUSH1 0x20 DUP1 SWAP2 DIV MUL PUSH1 0x20 ADD PUSH1 0x40 MLOAD SWAP1 DUP2 ADD PUSH1 0x40 MSTORE DUP1 SWAP3 SWAP2 SWAP1 DUP2 DUP2 MSTORE PUSH1 0x20 ADD DUP3 DUP1 SLOAD PUSH2 0x140F SWAP1 PUSH2 0x8E86 JUMP JUMPDEST DUP1 ISZERO PUSH2 0x145C JUMPI DUP1 PUSH1 0x1F LT PUSH2 0x1431 JUMPI PUSH2 0x100 DUP1 DUP4 SLOAD DIV MUL DUP4 MSTORE SWAP2 PUSH1 0x20 ADD SWAP2 PUSH2 0x145C JUMP JUMPDEST DUP3 ADD SWAP2 SWAP1 PUSH1 0x0 MSTORE PUSH1 0x20 PUSH1 0x0 KECCAK256 SWAP1 JUMPDEST DUP2 SLOAD DUP2 MSTORE SWAP1 PUSH1 0x1 ADD SWAP1 PUSH1 0x20 ADD DUP1 DUP4 GT PUSH2 0x143F JUMPI DUP3 SWAP1 SUB PUSH1 0x1F AND DUP3 ADD SWAP2 JUMPDEST POP POP POP SWAP2 DUP4 MSTORE POP POP PUSH1 0x1D DUP3 ADD SLOAD PUSH1 0x20 DUP1 DUP4 ADD SWAP2 SWAP1 SWAP2 MSTORE PUSH1 0x1E DUP4 ADD SLOAD PUSH1 0x40 DUP4 ADD MSTORE PUSH1 0x1F DUP4 ADD SLOAD PUSH1 0x1 PUSH1 0x1 PUSH1 0xA0 SHL SUB AND PUSH1 0x60 DUP4 ADD MSTORE DUP3 ADD DUP1 SLOAD PUSH1 0x80 SWAP1 SWAP3 ADD SWAP2 PUSH2 0x14A2 SWAP1 PUSH2 0x8E86 JUMP JUMPDEST DUP1 PUSH1 0x1F ADD PUSH1 0x20 DUP1 SWAP2 DIV MUL PUSH1 0x20 ADD PUSH1 0x40 MLOAD SWAP1 DUP2 ADD PUSH1 0x40 MSTORE DUP1 SWAP3 SWAP2 SWAP1 DUP2 DUP2 MSTORE PUSH1 0x20 ADD DUP3 DUP1 SLOAD PUSH2 0x14CE SWAP1 PUSH2 0x8E86 JUMP JUMPDEST DUP1 ISZERO PUSH2 0x151B JUMPI DUP1 PUSH1 0x1F LT PUSH2 0x14F0 JUMPI PUSH2 0x100 DUP1 DUP4 SLOAD DIV MUL DUP4 MSTORE SWAP2 PUSH1 0x20 ADD SWAP2 PUSH2 0x151B JUMP JUMPDEST DUP3 ADD SWAP2 SWAP1 PUSH1 0x0 MSTORE PUSH1 0x20 PUSH1 0x0 KECCAK256 SWAP1 JUMPDEST DUP2 SLOAD DUP2 MSTORE SWAP1 PUSH1 0x1 ADD SWAP1 PUSH1 0x20 ADD DUP1 DUP4 GT PUSH2 0x14FE JUMPI DUP3 SWAP1 SUB PUSH1 0x1F AND DUP3 ADD SWAP2 JUMPDEST POP POP POP POP POP DUP2 MSTORE PUSH1 0x20 ADD PUSH1 0x21 DUP3 ADD DUP1 SLOAD PUSH2 0x1534 SWAP1 PUSH2 0x8E86 JUMP JUMPDEST DUP1 PUSH1 0x1F ADD PUSH1 0x20 DUP1 SWAP2 DIV MUL PUSH1 0x20 ADD PUSH1 0x40 MLOAD SWAP1 DUP2 ADD PUSH1 0x40 MSTORE DUP1 SWAP3 SWAP2 SWAP1 DUP2 DUP2 MSTORE PUSH1 0x20 ADD DUP3 DUP1 SLOAD PUSH2 0x1560 SWAP1 PUSH2 0x8E86 JUMP JUMPDEST DUP1 ISZERO PUSH2 0x15AD JUMPI DUP1 PUSH1 0x1F LT PUSH2 0x1582 JUMPI PUSH2 0x100 DUP1 DUP4 SLOAD DIV MUL DUP4 MSTORE SWAP2 PUSH1 0x20 ADD SWAP2 PUSH2 0x15AD JUMP JUMPDEST DUP3 ADD SWAP2 SWAP1 PUSH1 0x0 MSTORE PUSH1 0x20 PUSH1 0x0 KECCAK256 SWAP1 JUMPDEST DUP2 SLOAD DUP2 MSTORE SWAP1 PUSH1 0x1 ADD SWAP1 PUSH1 0x20 ADD DUP1 DUP4 GT PUSH2 0x1590 JUMPI DUP3 SWAP1 SUB PUSH1 0x1F AND DUP3 ADD SWAP2 JUMPDEST POP POP POP SWAP2 DUP4 MSTORE POP POP PUSH1 0x22 DUP3 ADD SLOAD PUSH1 0x20 DUP3 ADD MSTORE PUSH1 0x23 DUP3 ADD SLOAD PUSH1 0x40 DUP3 ADD MSTORE PUSH1 0x24 DUP3 ADD SLOAD PUSH1 0x1 PUSH1 0x1 PUSH1 0xA0 SHL SUB AND PUSH1 0x60 DUP3 ADD MSTORE PUSH1 0x25 DUP3 ADD DUP1 SLOAD PUSH1 0x80 SWAP1 SWAP3 ADD SWAP2 PUSH2 0x15F1 SWAP1 PUSH2 0x8E86 JUMP JUMPDEST DUP1 PUSH1 0x1F ADD PUSH1 0x20 DUP1 SWAP2 DIV MUL PUSH1 0x20 ADD PUSH1 0x40 MLOAD SWAP1 DUP2 ADD PUSH1 0x40 MSTORE DUP1 SWAP3 SWAP2 SWAP1 DUP2 DUP2 MSTORE PUSH1 0x20 ADD DUP3 DUP1 SLOAD PUSH2 0x161D SWAP1 PUSH2 0x8E86 JUMP JUMPDEST DUP1 ISZERO PUSH2 0x166A JUMPI DUP1 PUSH1 0x1F LT PUSH2 0x163F JUMPI PUSH2 0x100 DUP1 DUP4 SLOAD DIV MUL DUP4 MSTORE SWAP2 PUSH1 0x20 ADD SWAP2 PUSH2 0x166A JUMP JUMPDEST DUP3 ADD SWAP2 SWAP1 PUSH1 0x0 MSTORE PUSH1 0x20 PUSH1 0x0 KECCAK256 SWAP1 JUMPDEST DUP2 SLOAD DUP2 MSTORE SWAP1 PUSH1 0x1 ADD SWAP1 PUSH1 0x20 ADD DUP1 DUP4 GT PUSH2 0x164D JUMPI DUP3 SWAP1 SUB PUSH1 0x1F AND DUP3 ADD SWAP2 JUMPDEST POP POP POP POP POP DUP2 MSTORE PUSH1 0x20 ADD PUSH1 0x26 DUP3 ADD DUP1 SLOAD PUSH2 0x1683 SWAP1 PUSH2 0x8E86 JUMP JUMPDEST DUP1 PUSH1 0x1F ADD PUSH1 0x20 DUP1 SWAP2 DIV MUL PUSH1 0x20 ADD PUSH1 0x40 MLOAD SWAP1 DUP2 ADD PUSH1 0x40 MSTORE DUP1 SWAP3 SWAP2 SWAP1 DUP2 DUP2 MSTORE PUSH1 0x20 ADD DUP3 DUP1 SLOAD PUSH2 0x16AF SWAP1 PUSH2 0x8E86 JUMP JUMPDEST DUP1 ISZERO PUSH2 0x16FC JUMPI DUP1 PUSH1 0x1F LT PUSH2 0x16D1 JUMPI PUSH2 0x100 DUP1 DUP4 SLOAD DIV MUL DUP4 MSTORE SWAP2 PUSH1 0x20 ADD SWAP2 PUSH2 0x16FC JUMP JUMPDEST DUP3 ADD SWAP2 SWAP1 PUSH1 0x0 MSTORE PUSH1 0x20 PUSH1 0x0 KECCAK256 SWAP1 JUMPDEST DUP2 SLOAD DUP2 MSTORE SWAP1 PUSH1 0x1 ADD SWAP1 PUSH1 0x20 ADD DUP1 DUP4 GT PUSH2 0x16DF JUMPI DUP3 SWAP1 SUB PUSH1 0x1F AND DUP3 ADD SWAP2 JUMPDEST POP POP POP SWAP2 DUP4 MSTORE POP POP PUSH1 0x27 DUP3 ADD SLOAD PUSH1 0x20 DUP3 ADD MSTORE PUSH1 0x28 DUP3 ADD SLOAD PUSH1 0x1 PUSH1 0x1 PUSH1 0xA0 SHL SUB AND PUSH1 0x40 DUP3 ADD MSTORE PUSH1 0x29 DUP3 ADD DUP1 SLOAD PUSH1 0x60 SWAP1 SWAP3 ADD SWAP2 PUSH2 0x1736 SWAP1 PUSH2 0x8E86 JUMP JUMPDEST DUP1 PUSH1 0x1F ADD PUSH1 0x20 DUP1 SWAP2 DIV MUL PUSH1 0x20 ADD PUSH1 0x40 MLOAD SWAP1 DUP2 ADD PUSH1 0x40 MSTORE DUP1 SWAP3 SWAP2 SWAP1 DUP2 DUP2 MSTORE PUSH1 0x20 ADD DUP3 DUP1 SLOAD PUSH2 0x1762 SWAP1 PUSH2 0x8E86 JUMP JUMPDEST DUP1 ISZERO PUSH2 0x17AF JUMPI DUP1 PUSH1 0x1F LT PUSH2 0x1784 JUMPI PUSH2 0x100 DUP1 DUP4 SLOAD DIV MUL DUP4 MSTORE SWAP2 PUSH1 0x20 ADD SWAP2 PUSH2 0x17AF JUMP JUMPDEST DUP3 ADD SWAP2 SWAP1 PUSH1 0x0 MSTORE PUSH1 0x20 PUSH1 0x0 KECCAK256 SWAP1 JUMPDEST DUP2 SLOAD DUP2 MSTORE SWAP1 PUSH1 0x1 ADD SWAP1 PUSH1 0x20 ADD DUP1 DUP4 GT PUSH2 0x1792 JUMPI DUP3 SWAP1 SUB PUSH1 0x1F AND DUP3 ADD SWAP2 JUMPDEST POP POP POP SWAP2 DUP4 MSTORE POP POP PUSH1 0x2A DUP3 ADD SLOAD PUSH1 0x20 DUP3 ADD MSTORE PUSH1 0x2B DUP3 ADD SLOAD PUSH1 0x40 SWAP1 SWAP2 ADD SWAP1 PUSH1 0xFF AND PUSH1 0x19 DUP2 GT ISZERO PUSH2 0x17E0 JUMPI PUSH2 0x17E0 PUSH2 0x8EF2 JUMP JUMPDEST PUSH1 0x19 DUP2 GT ISZERO PUSH2 0x17F1 JUMPI PUSH2 0x17F1 PUSH2 0x8EF2 JUMP JUMPDEST SWAP1 MSTORE POP PUSH2 0x160 DUP2 ADD MLOAD PUSH2 0x180 DUP3 ADD MLOAD PUSH2 0x1A0 DUP4 ADD MLOAD PUSH2 0x1C0 DUP5 ADD MLOAD PUSH2 0x1E0 DUP6 ADD MLOAD PUSH2 0x200 DUP7 ADD MLOAD PUSH2 0x220 SWAP1 SWAP7 ADD MLOAD SWAP5 SWAP16 SWAP4 SWAP15 POP SWAP2 SWAP13 POP SWAP11 POP SWAP9 POP SWAP2 SWAP7 POP SWAP5 POP SWAP3 POP POP POP JUMP JUMPDEST PUSH2 0x183F CALLER PUSH2 0xAD8 JUMP JUMPDEST PUSH2 0x1848 JUMPI PUSH1 0x0 DUP1 REVERT JUMPDEST PUSH2 0xAC2 DUP2 PUSH2 0x835F JUMP JUMPDEST PUSH2 0x185A CALLER PUSH2 0x3A41 JUMP JUMPDEST PUSH2 0x1863 JUMPI PUSH1 0x0 DUP1 REVERT JUMPDEST DUP2 PUSH1 0x15 PUSH1 0x0 DUP3 DUP2 MSTORE PUSH1 0xB PUSH1 0x20 MSTORE PUSH1 0x40 SWAP1 KECCAK256 PUSH1 0x2B ADD SLOAD PUSH1 0xFF AND PUSH1 0x19 DUP2 GT ISZERO PUSH2 0x188C JUMPI PUSH2 0x188C PUSH2 0x8EF2 JUMP JUMPDEST EQ PUSH2 0x1896 JUMPI PUSH1 0x0 DUP1 REVERT JUMPDEST PUSH1 0x0 DUP4 DUP2 MSTORE PUSH1 0xB PUSH1 0x20 MSTORE PUSH1 0x40 SWAP1 KECCAK256 SLOAD PUSH1 0x1 PUSH1 0x1 PUSH1 0xA0 SHL SUB AND CALLER DUP2 EQ PUSH2 0x18BA JUMPI PUSH1 0x0 DUP1 REVERT JUMPDEST PUSH1 0x0 DUP5 DUP2 MSTORE PUSH1 0xB PUSH1 0x20 SWAP1 DUP2 MSTORE PUSH1 0x40 SWAP1 SWAP2 KECCAK256 PUSH1 0x2B DUP2 ADD DUP1 SLOAD PUSH1 0xFF NOT AND PUSH1 0x16 OR SWAP1 SSTORE TIMESTAMP PUSH1 0x27 DUP3 ADD SSTORE DUP5 MLOAD PUSH2 0x18F4 SWAP3 PUSH1 0x25 SWAP1 SWAP3 ADD SWAP2 DUP7 ADD SWAP1 PUSH2 0x876E JUMP JUMPDEST POP PUSH1 0x0 DUP5 DUP2 MSTORE PUSH1 0xC PUSH1 0x20 MSTORE PUSH1 0x40 SWAP1 DUP2 SWAP1 KECCAK256 NUMBER PUSH1 0x4 SWAP1 SWAP2 ADD SSTORE MLOAD PUSH32 0x3AD7F6994EC57DDF2643D9C407DBEBE50F61BCE4866FF1C47E9EDE1F4F35E4D3 SWAP1 PUSH2 0x193C SWAP1 DUP7 DUP2 MSTORE PUSH1 0x20 ADD SWAP1 JUMP JUMPDEST PUSH1 0x40 MLOAD DUP1 SWAP2 SUB SWAP1 LOG1 POP POP POP POP JUMP JUMPDEST PUSH2 0x1953 CALLER PUSH2 0xAC5 JUMP JUMPDEST PUSH2 0x195C JUMPI PUSH1 0x0 DUP1 REVERT JUMPDEST DUP1 PUSH1 0x8 PUSH1 0x0 DUP3 DUP2 MSTORE PUSH1 0xB PUSH1 0x20 MSTORE PUSH1 0x40 SWAP1 KECCAK256 PUSH1 0x2B ADD SLOAD PUSH1 0xFF AND PUSH1 0x19 DUP2 GT ISZERO PUSH2 0x1985 JUMPI PUSH2 0x1985 PUSH2 0x8EF2 JUMP JUMPDEST EQ PUSH2 0x198F JUMPI PUSH1 0x0 DUP1 REVERT JUMPDEST PUSH1 0x0 DUP3 DUP2 MSTORE PUSH1 0xB PUSH1 0x20 DUP2 SWAP1 MSTORE PUSH1 0x40 SWAP1 SWAP2 KECCAK256 ADD SLOAD PUSH1 0x1 PUSH1 0x1 PUSH1 0xA0 SHL SUB AND CALLER DUP2 EQ PUSH2 0x19B7 JUMPI PUSH1 0x0 DUP1 REVERT JUMPDEST PUSH1 0x0 DUP4 DUP2 MSTORE PUSH1 0xB PUSH1 0x20 DUP2 DUP2 MSTORE PUSH1 0x40 DUP1 DUP5 KECCAK256 PUSH1 0x2B DUP2 ADD DUP1 SLOAD PUSH1 0xFF NOT AND PUSH1 0x9 OR SWAP1 SSTORE PUSH1 0xC DUP4 MSTORE SWAP4 DUP2 SWAP1 KECCAK256 NUMBER PUSH1 0x1 SWAP2 SWAP1 SWAP2 ADD SSTORE SWAP2 DUP2 MSTORE TIMESTAMP PUSH1 0x11 SWAP1 SWAP4 ADD SWAP3 SWAP1 SWAP3 SSTORE MLOAD DUP5 DUP2 MSTORE PUSH32 0xA8AF7BAEB697F9F6205DA1B9373FC85791AA19AA2B21749D80BA8C8E9A64B7CF SWAP2 ADD PUSH2 0xA9A JUMP JUMPDEST PUSH2 0x1A29 CALLER PUSH2 0xAC5 JUMP JUMPDEST PUSH2 0x1A32 JUMPI PUSH1 0x0 DUP1 REVERT JUMPDEST DUP2 PUSH1 0x5 PUSH1 0x0 DUP3 DUP2 MSTORE PUSH1 0xB PUSH1 0x20 MSTORE PUSH1 0x40 SWAP1 KECCAK256 PUSH1 0x2B ADD SLOAD PUSH1 0xFF AND PUSH1 0x19 DUP2 GT ISZERO PUSH2 0x1A5B JUMPI PUSH2 0x1A5B PUSH2 0x8EF2 JUMP JUMPDEST EQ PUSH2 0x1A65 JUMPI PUSH1 0x0 DUP1 REVERT JUMPDEST PUSH1 0x0 DUP4 DUP2 MSTORE PUSH1 0xB PUSH1 0x20 MSTORE PUSH1 0x40 SWAP1 KECCAK256 SLOAD PUSH1 0x1 PUSH1 0x1 PUSH1 0xA0 SHL SUB AND CALLER DUP2 EQ PUSH2 0x1A89 JUMPI PUSH1 0x0 DUP1 REVERT JUMPDEST PUSH1 0x0 DUP5 DUP2 MSTORE PUSH1 0xB PUSH1 0x20 SWAP1 DUP2 MSTORE PUSH1 0x40 SWAP1 SWAP2 KECCAK256 DUP5 MLOAD PUSH2 0x1AAE SWAP3 PUSH1 0xF SWAP1 SWAP3 ADD SWAP2 DUP7 ADD SWAP1 PUSH2 0x876E JUMP JUMPDEST POP PUSH1 0x0 DUP5 DUP2 MSTORE PUSH1 0xB PUSH1 0x20 SWAP1 DUP2 MSTORE PUSH1 0x40 SWAP2 DUP3 SWAP1 KECCAK256 PUSH1 0x2B ADD DUP1 SLOAD PUSH1 0xFF NOT AND PUSH1 0x6 OR SWAP1 SSTORE SWAP1 MLOAD DUP6 DUP2 MSTORE PUSH32 0x1B25471619210B4C254EB01319715C6579C3037A230F624154FE1551604BA11D SWAP2 ADD PUSH2 0x193C JUMP JUMPDEST PUSH1 0x0 DUP2 DUP2 MSTORE PUSH1 0xB PUSH1 0x20 SWAP1 DUP2 MSTORE PUSH1 0x40 DUP1 DUP4 KECCAK256 DUP2 MLOAD PUSH2 0x580 DUP2 ADD DUP4 MSTORE DUP2 SLOAD PUSH1 0x1 PUSH1 0x1 PUSH1 0xA0 SHL SUB SWAP1 DUP2 AND DUP3 MSTORE PUSH1 0x1 DUP4 ADD SLOAD SWAP5 DUP3 ADD SWAP5 SWAP1 SWAP5 MSTORE PUSH1 0x2 DUP3 ADD SLOAD SWAP3 DUP2 ADD SWAP3 SWAP1 SWAP3 MSTORE PUSH1 0x3 DUP2 ADD SLOAD PUSH1 0x60 DUP4 DUP2 ADD SWAP2 SWAP1 SWAP2 MSTORE PUSH1 0x4 DUP3 ADD SLOAD SWAP1 SWAP4 AND PUSH1 0x80 DUP4 ADD MSTORE PUSH1 0x5 DUP2 ADD DUP1 SLOAD DUP5 SWAP4 DUP7 SWAP4 DUP5 SWAP4 DUP5 SWAP4 PUSH1 0xA0 DUP5 ADD SWAP2 SWAP1 PUSH2 0x1B75 SWAP1 PUSH2 0x8E86 JUMP JUMPDEST DUP1 PUSH1 0x1F ADD PUSH1 0x20 DUP1 SWAP2 DIV MUL PUSH1 0x20 ADD PUSH1 0x40 MLOAD SWAP1 DUP2 ADD PUSH1 0x40 MSTORE DUP1 SWAP3 SWAP2 SWAP1 DUP2 DUP2 MSTORE PUSH1 0x20 ADD DUP3 DUP1 SLOAD PUSH2 0x1BA1 SWAP1 PUSH2 0x8E86 JUMP JUMPDEST DUP1 ISZERO PUSH2 0x1BEE JUMPI DUP1 PUSH1 0x1F LT PUSH2 0x1BC3 JUMPI PUSH2 0x100 DUP1 DUP4 SLOAD DIV MUL DUP4 MSTORE SWAP2 PUSH1 0x20 ADD SWAP2 PUSH2 0x1BEE JUMP JUMPDEST DUP3 ADD SWAP2 SWAP1 PUSH1 0x0 MSTORE PUSH1 0x20 PUSH1 0x0 KECCAK256 SWAP1 JUMPDEST DUP2 SLOAD DUP2 MSTORE SWAP1 PUSH1 0x1 ADD SWAP1 PUSH1 0x20 ADD DUP1 DUP4 GT PUSH2 0x1BD1 JUMPI DUP3 SWAP1 SUB PUSH1 0x1F AND DUP3 ADD SWAP2 JUMPDEST POP POP POP POP POP DUP2 MSTORE PUSH1 0x20 ADD PUSH1 0x6 DUP3 ADD DUP1 SLOAD PUSH2 0x1C07 SWAP1 PUSH2 0x8E86 JUMP JUMPDEST DUP1 PUSH1 0x1F ADD PUSH1 0x20 DUP1 SWAP2 DIV MUL PUSH1 0x20 ADD PUSH1 0x40 MLOAD SWAP1 DUP2 ADD PUSH1 0x40 MSTORE DUP1 SWAP3 SWAP2 SWAP1 DUP2 DUP2 MSTORE PUSH1 0x20 ADD DUP3 DUP1 SLOAD PUSH2 0x1C33 SWAP1 PUSH2 0x8E86 JUMP JUMPDEST DUP1 ISZERO PUSH2 0x1C80 JUMPI DUP1 PUSH1 0x1F LT PUSH2 0x1C55 JUMPI PUSH2 0x100 DUP1 DUP4 SLOAD DIV MUL DUP4 MSTORE SWAP2 PUSH1 0x20 ADD SWAP2 PUSH2 0x1C80 JUMP JUMPDEST DUP3 ADD SWAP2 SWAP1 PUSH1 0x0 MSTORE PUSH1 0x20 PUSH1 0x0 KECCAK256 SWAP1 JUMPDEST DUP2 SLOAD DUP2 MSTORE SWAP1 PUSH1 0x1 ADD SWAP1 PUSH1 0x20 ADD DUP1 DUP4 GT PUSH2 0x1C63 JUMPI DUP3 SWAP1 SUB PUSH1 0x1F AND DUP3 ADD SWAP2 JUMPDEST POP POP POP POP POP DUP2 MSTORE PUSH1 0x20 ADD PUSH1 0x7 DUP3 ADD DUP1 SLOAD PUSH2 0x1C99 SWAP1 PUSH2 0x8E86 JUMP JUMPDEST DUP1 PUSH1 0x1F ADD PUSH1 0x20 DUP1 SWAP2 DIV MUL PUSH1 0x20 ADD PUSH1 0x40 MLOAD SWAP1 DUP2 ADD PUSH1 0x40 MSTORE DUP1 SWAP3 SWAP2 SWAP1 DUP2 DUP2 MSTORE PUSH1 0x20 ADD DUP3 DUP1 SLOAD PUSH2 0x1CC5 SWAP1 PUSH2 0x8E86 JUMP JUMPDEST DUP1 ISZERO PUSH2 0x1D12 JUMPI DUP1 PUSH1 0x1F LT PUSH2 0x1CE7 JUMPI PUSH2 0x100 DUP1 DUP4 SLOAD DIV MUL DUP4 MSTORE SWAP2 PUSH1 0x20 ADD SWAP2 PUSH2 0x1D12 JUMP JUMPDEST DUP3 ADD SWAP2 SWAP1 PUSH1 0x0 MSTORE PUSH1 0x20 PUSH1 0x0 KECCAK256 SWAP1 JUMPDEST DUP2 SLOAD DUP2 MSTORE SWAP1 PUSH1 0x1 ADD SWAP1 PUSH1 0x20 ADD DUP1 DUP4 GT PUSH2 0x1CF5 JUMPI DUP3 SWAP1 SUB PUSH1 0x1F AND DUP3 ADD SWAP2 JUMPDEST POP POP POP POP POP DUP2 MSTORE PUSH1 0x20 ADD PUSH1 0x8 DUP3 ADD DUP1 SLOAD PUSH2 0x1D2B SWAP1 PUSH2 0x8E86 JUMP JUMPDEST DUP1 PUSH1 0x1F ADD PUSH1 0x20 DUP1 SWAP2 DIV MUL PUSH1 0x20 ADD PUSH1 0x40 MLOAD SWAP1 DUP2 ADD PUSH1 0x40 MSTORE DUP1 SWAP3 SWAP2 SWAP1 DUP2 DUP2 MSTORE PUSH1 0x20 ADD DUP3 DUP1 SLOAD PUSH2 0x1D57 SWAP1 PUSH2 0x8E86 JUMP JUMPDEST DUP1 ISZERO PUSH2 0x1DA4 JUMPI DUP1 PUSH1 0x1F LT PUSH2 0x1D79 JUMPI PUSH2 0x100 DUP1 DUP4 SLOAD DIV MUL DUP4 MSTORE SWAP2 PUSH1 0x20 ADD SWAP2 PUSH2 0x1DA4 JUMP JUMPDEST DUP3 ADD SWAP2 SWAP1 PUSH1 0x0 MSTORE PUSH1 0x20 PUSH1 0x0 KECCAK256 SWAP1 JUMPDEST DUP2 SLOAD DUP2 MSTORE SWAP1 PUSH1 0x1 ADD SWAP1 PUSH1 0x20 ADD DUP1 DUP4 GT PUSH2 0x1D87 JUMPI DUP3 SWAP1 SUB PUSH1 0x1F AND DUP3 ADD SWAP2 JUMPDEST POP POP POP SWAP2 DUP4 MSTORE POP POP PUSH1 0x9 DUP3 ADD SLOAD PUSH1 0x20 DUP3 ADD MSTORE PUSH1 0xA DUP3 ADD SLOAD PUSH1 0x40 DUP3 ADD MSTORE PUSH1 0xB DUP3 ADD SLOAD PUSH1 0x1 PUSH1 0x1 PUSH1 0xA0 SHL SUB AND PUSH1 0x60 DUP3 ADD MSTORE PUSH1 0xC DUP3 ADD DUP1 SLOAD PUSH1 0x80 SWAP1 SWAP3 ADD SWAP2 PUSH2 0x1DE8 SWAP1 PUSH2 0x8E86 JUMP JUMPDEST DUP1 PUSH1 0x1F ADD PUSH1 0x20 DUP1 SWAP2 DIV MUL PUSH1 0x20 ADD PUSH1 0x40 MLOAD SWAP1 DUP2 ADD PUSH1 0x40 MSTORE DUP1 SWAP3 SWAP2 SWAP1 DUP2 DUP2 MSTORE PUSH1 0x20 ADD DUP3 DUP1 SLOAD PUSH2 0x1E14 SWAP1 PUSH2 0x8E86 JUMP JUMPDEST DUP1 ISZERO PUSH2 0x1E61 JUMPI DUP1 PUSH1 0x1F LT PUSH2 0x1E36 JUMPI PUSH2 0x100 DUP1 DUP4 SLOAD DIV MUL DUP4 MSTORE SWAP2 PUSH1 0x20 ADD SWAP2 PUSH2 0x1E61 JUMP JUMPDEST DUP3 ADD SWAP2 SWAP1 PUSH1 0x0 MSTORE PUSH1 0x20 PUSH1 0x0 KECCAK256 SWAP1 JUMPDEST DUP2 SLOAD DUP2 MSTORE SWAP1 PUSH1 0x1 ADD SWAP1 PUSH1 0x20 ADD DUP1 DUP4 GT PUSH2 0x1E44 JUMPI DUP3 SWAP1 SUB PUSH1 0x1F AND DUP3 ADD SWAP2 JUMPDEST POP POP POP POP POP DUP2 MSTORE PUSH1 0x20 ADD PUSH1 0xD DUP3 ADD DUP1 SLOAD PUSH2 0x1E7A SWAP1 PUSH2 0x8E86 JUMP JUMPDEST DUP1 PUSH1 0x1F ADD PUSH1 0x20 DUP1 SWAP2 DIV MUL PUSH1 0x20 ADD PUSH1 0x40 MLOAD SWAP1 DUP2 ADD PUSH1 0x40 MSTORE DUP1 SWAP3 SWAP2 SWAP1 DUP2 DUP2 MSTORE PUSH1 0x20 ADD DUP3 DUP1 SLOAD PUSH2 0x1EA6 SWAP1 PUSH2 0x8E86 JUMP JUMPDEST DUP1 ISZERO PUSH2 0x1EF3 JUMPI DUP1 PUSH1 0x1F LT PUSH2 0x1EC8 JUMPI PUSH2 0x100 DUP1 DUP4 SLOAD DIV MUL DUP4 MSTORE SWAP2 PUSH1 0x20 ADD SWAP2 PUSH2 0x1EF3 JUMP JUMPDEST DUP3 ADD SWAP2 SWAP1 PUSH1 0x0 MSTORE PUSH1 0x20 PUSH1 0x0 KECCAK256 SWAP1 JUMPDEST DUP2 SLOAD DUP2 MSTORE SWAP1 PUSH1 0x1 ADD SWAP1 PUSH1 0x20 ADD DUP1 DUP4 GT PUSH2 0x1ED6 JUMPI DUP3 SWAP1 SUB PUSH1 0x1F AND DUP3 ADD SWAP2 JUMPDEST POP POP POP POP POP DUP2 MSTORE PUSH1 0x20 ADD PUSH1 0xE DUP3 ADD DUP1 SLOAD PUSH2 0x1F0C SWAP1 PUSH2 0x8E86 JUMP JUMPDEST DUP1 PUSH1 0x1F ADD PUSH1 0x20 DUP1 SWAP2 DIV MUL PUSH1 0x20 ADD PUSH1 0x40 MLOAD SWAP1 DUP2 ADD PUSH1 0x40 MSTORE DUP1 SWAP3 SWAP2 SWAP1 DUP2 DUP2 MSTORE PUSH1 0x20 ADD DUP3 DUP1 SLOAD PUSH2 0x1F38 SWAP1 PUSH2 0x8E86 JUMP JUMPDEST DUP1 ISZERO PUSH2 0x1F85 JUMPI DUP1 PUSH1 0x1F LT PUSH2 0x1F5A JUMPI PUSH2 0x100 DUP1 DUP4 SLOAD DIV MUL DUP4 MSTORE SWAP2 PUSH1 0x20 ADD SWAP2 PUSH2 0x1F85 JUMP JUMPDEST DUP3 ADD SWAP2 SWAP1 PUSH1 0x0 MSTORE PUSH1 0x20 PUSH1 0x0 KECCAK256 SWAP1 JUMPDEST DUP2 SLOAD DUP2 MSTORE SWAP1 PUSH1 0x1 ADD SWAP1 PUSH1 0x20 ADD DUP1 DUP4 GT PUSH2 0x1F68 JUMPI DUP3 SWAP1 SUB PUSH1 0x1F AND DUP3 ADD SWAP2 JUMPDEST POP POP POP POP POP DUP2 MSTORE PUSH1 0x20 ADD PUSH1 0xF DUP3 ADD DUP1 SLOAD PUSH2 0x1F9E SWAP1 PUSH2 0x8E86 JUMP JUMPDEST DUP1 PUSH1 0x1F ADD PUSH1 0x20 DUP1 SWAP2 DIV MUL PUSH1 0x20 ADD PUSH1 0x40 MLOAD SWAP1 DUP2 ADD PUSH1 0x40 MSTORE DUP1 SWAP3 SWAP2 SWAP1 DUP2 DUP2 MSTORE PUSH1 0x20 ADD DUP3 DUP1 SLOAD PUSH2 0x1FCA SWAP1 PUSH2 0x8E86 JUMP JUMPDEST DUP1 ISZERO PUSH2 0x2017 JUMPI DUP1 PUSH1 0x1F LT PUSH2 0x1FEC JUMPI PUSH2 0x100 DUP1 DUP4 SLOAD DIV MUL DUP4 MSTORE SWAP2 PUSH1 0x20 ADD SWAP2 PUSH2 0x2017 JUMP JUMPDEST DUP3 ADD SWAP2 SWAP1 PUSH1 0x0 MSTORE PUSH1 0x20 PUSH1 0x0 KECCAK256 SWAP1 JUMPDEST DUP2 SLOAD DUP2 MSTORE SWAP1 PUSH1 0x1 ADD SWAP1 PUSH1 0x20 ADD DUP1 DUP4 GT PUSH2 0x1FFA JUMPI DUP3 SWAP1 SUB PUSH1 0x1F AND DUP3 ADD SWAP2 JUMPDEST POP POP POP SWAP2 DUP4 MSTORE POP POP PUSH1 0x10 DUP3 ADD SLOAD PUSH1 0x20 DUP3 ADD MSTORE PUSH1 0x11 DUP3 ADD SLOAD PUSH1 0x40 DUP3 ADD MSTORE PUSH1 0x12 DUP3 ADD SLOAD PUSH1 0x1 PUSH1 0x1 PUSH1 0xA0 SHL SUB AND PUSH1 0x60 DUP3 ADD MSTORE PUSH1 0x13 DUP3 ADD DUP1 SLOAD PUSH1 0x80 SWAP1 SWAP3 ADD SWAP2 PUSH2 0x205B SWAP1 PUSH2 0x8E86 JUMP JUMPDEST DUP1 PUSH1 0x1F ADD PUSH1 0x20 DUP1 SWAP2 DIV MUL PUSH1 0x20 ADD PUSH1 0x40 MLOAD SWAP1 DUP2 ADD PUSH1 0x40 MSTORE DUP1 SWAP3 SWAP2 SWAP1 DUP2 DUP2 MSTORE PUSH1 0x20 ADD DUP3 DUP1 SLOAD PUSH2 0x2087 SWAP1 PUSH2 0x8E86 JUMP JUMPDEST DUP1 ISZERO PUSH2 0x20D4 JUMPI DUP1 PUSH1 0x1F LT PUSH2 0x20A9 JUMPI PUSH2 0x100 DUP1 DUP4 SLOAD DIV MUL DUP4 MSTORE SWAP2 PUSH1 0x20 ADD SWAP2 PUSH2 0x20D4 JUMP JUMPDEST DUP3 ADD SWAP2 SWAP1 PUSH1 0x0 MSTORE PUSH1 0x20 PUSH1 0x0 KECCAK256 SWAP1 JUMPDEST DUP2 SLOAD DUP2 MSTORE SWAP1 PUSH1 0x1 ADD SWAP1 PUSH1 0x20 ADD DUP1 DUP4 GT PUSH2 0x20B7 JUMPI DUP3 SWAP1 SUB PUSH1 0x1F AND DUP3 ADD SWAP2 JUMPDEST POP POP POP POP POP DUP2 MSTORE PUSH1 0x20 ADD PUSH1 0x14 DUP3 ADD DUP1 SLOAD PUSH2 0x20ED SWAP1 PUSH2 0x8E86 JUMP JUMPDEST DUP1 PUSH1 0x1F ADD PUSH1 0x20 DUP1 SWAP2 DIV MUL PUSH1 0x20 ADD PUSH1 0x40 MLOAD SWAP1 DUP2 ADD PUSH1 0x40 MSTORE DUP1 SWAP3 SWAP2 SWAP1 DUP2 DUP2 MSTORE PUSH1 0x20 ADD DUP3 DUP1 SLOAD PUSH2 0x2119 SWAP1 PUSH2 0x8E86 JUMP JUMPDEST DUP1 ISZERO PUSH2 0x2166 JUMPI DUP1 PUSH1 0x1F LT PUSH2 0x213B JUMPI PUSH2 0x100 DUP1 DUP4 SLOAD DIV MUL DUP4 MSTORE SWAP2 PUSH1 0x20 ADD SWAP2 PUSH2 0x2166 JUMP JUMPDEST DUP3 ADD SWAP2 SWAP1 PUSH1 0x0 MSTORE PUSH1 0x20 PUSH1 0x0 KECCAK256 SWAP1 JUMPDEST DUP2 SLOAD DUP2 MSTORE SWAP1 PUSH1 0x1 ADD SWAP1 PUSH1 0x20 ADD DUP1 DUP4 GT PUSH2 0x2149 JUMPI DUP3 SWAP1 SUB PUSH1 0x1F AND DUP3 ADD SWAP2 JUMPDEST POP POP POP SWAP2 DUP4 MSTORE POP POP PUSH1 0x15 DUP3 ADD SLOAD PUSH1 0x20 DUP3 ADD MSTORE PUSH1 0x16 DUP3 ADD SLOAD PUSH1 0x40 DUP3 ADD MSTORE PUSH1 0x17 DUP3 ADD SLOAD PUSH1 0x1 PUSH1 0x1 PUSH1 0xA0 SHL SUB AND PUSH1 0x60 DUP3 ADD MSTORE PUSH1 0x18 DUP3 ADD DUP1 SLOAD PUSH1 0x80 SWAP1 SWAP3 ADD SWAP2 PUSH2 0x21AA SWAP1 PUSH2 0x8E86 JUMP JUMPDEST DUP1 PUSH1 0x1F ADD PUSH1 0x20 DUP1 SWAP2 DIV MUL PUSH1 0x20 ADD PUSH1 0x40 MLOAD SWAP1 DUP2 ADD PUSH1 0x40 MSTORE DUP1 SWAP3 SWAP2 SWAP1 DUP2 DUP2 MSTORE PUSH1 0x20 ADD DUP3 DUP1 SLOAD PUSH2 0x21D6 SWAP1 PUSH2 0x8E86 JUMP JUMPDEST DUP1 ISZERO PUSH2 0x2223 JUMPI DUP1 PUSH1 0x1F LT PUSH2 0x21F8 JUMPI PUSH2 0x100 DUP1 DUP4 SLOAD DIV MUL DUP4 MSTORE SWAP2 PUSH1 0x20 ADD SWAP2 PUSH2 0x2223 JUMP JUMPDEST DUP3 ADD SWAP2 SWAP1 PUSH1 0x0 MSTORE PUSH1 0x20 PUSH1 0x0 KECCAK256 SWAP1 JUMPDEST DUP2 SLOAD DUP2 MSTORE SWAP1 PUSH1 0x1 ADD SWAP1 PUSH1 0x20 ADD DUP1 DUP4 GT PUSH2 0x2206 JUMPI DUP3 SWAP1 SUB PUSH1 0x1F AND DUP3 ADD SWAP2 JUMPDEST POP POP POP POP POP DUP2 MSTORE PUSH1 0x20 ADD PUSH1 0x19 DUP3 ADD DUP1 SLOAD PUSH2 0x223C SWAP1 PUSH2 0x8E86 JUMP JUMPDEST DUP1 PUSH1 0x1F ADD PUSH1 0x20 DUP1 SWAP2 DIV MUL PUSH1 0x20 ADD PUSH1 0x40 MLOAD SWAP1 DUP2 ADD PUSH1 0x40 MSTORE DUP1 SWAP3 SWAP2 SWAP1 DUP2 DUP2 MSTORE PUSH1 0x20 ADD DUP3 DUP1 SLOAD PUSH2 0x2268 SWAP1 PUSH2 0x8E86 JUMP JUMPDEST DUP1 ISZERO PUSH2 0x22B5 JUMPI DUP1 PUSH1 0x1F LT PUSH2 0x228A JUMPI PUSH2 0x100 DUP1 DUP4 SLOAD DIV MUL DUP4 MSTORE SWAP2 PUSH1 0x20 ADD SWAP2 PUSH2 0x22B5 JUMP JUMPDEST DUP3 ADD SWAP2 SWAP1 PUSH1 0x0 MSTORE PUSH1 0x20 PUSH1 0x0 KECCAK256 SWAP1 JUMPDEST DUP2 SLOAD DUP2 MSTORE SWAP1 PUSH1 0x1 ADD SWAP1 PUSH1 0x20 ADD DUP1 DUP4 GT PUSH2 0x2298 JUMPI DUP3 SWAP1 SUB PUSH1 0x1F AND DUP3 ADD SWAP2 JUMPDEST POP POP POP POP POP DUP2 MSTORE PUSH1 0x20 ADD PUSH1 0x1A DUP3 ADD DUP1 SLOAD PUSH2 0x22CE SWAP1 PUSH2 0x8E86 JUMP JUMPDEST DUP1 PUSH1 0x1F ADD PUSH1 0x20 DUP1 SWAP2 DIV MUL PUSH1 0x20 ADD PUSH1 0x40 MLOAD SWAP1 DUP2 ADD PUSH1 0x40 MSTORE DUP1 SWAP3 SWAP2 SWAP1 DUP2 DUP2 MSTORE PUSH1 0x20 ADD DUP3 DUP1 SLOAD PUSH2 0x22FA SWAP1 PUSH2 0x8E86 JUMP JUMPDEST DUP1 ISZERO PUSH2 0x2347 JUMPI DUP1 PUSH1 0x1F LT PUSH2 0x231C JUMPI PUSH2 0x100 DUP1 DUP4 SLOAD DIV MUL DUP4 MSTORE SWAP2 PUSH1 0x20 ADD SWAP2 PUSH2 0x2347 JUMP JUMPDEST DUP3 ADD SWAP2 SWAP1 PUSH1 0x0 MSTORE PUSH1 0x20 PUSH1 0x0 KECCAK256 SWAP1 JUMPDEST DUP2 SLOAD DUP2 MSTORE SWAP1 PUSH1 0x1 ADD SWAP1 PUSH1 0x20 ADD DUP1 DUP4 GT PUSH2 0x232A JUMPI DUP3 SWAP1 SUB PUSH1 0x1F AND DUP3 ADD SWAP2 JUMPDEST POP POP POP POP POP DUP2 MSTORE PUSH1 0x20 ADD PUSH1 0x1B DUP3 ADD DUP1 SLOAD PUSH2 0x2360 SWAP1 PUSH2 0x8E86 JUMP JUMPDEST DUP1 PUSH1 0x1F ADD PUSH1 0x20 DUP1 SWAP2 DIV MUL PUSH1 0x20 ADD PUSH1 0x40 MLOAD SWAP1 DUP2 ADD PUSH1 0x40 MSTORE DUP1 SWAP3 SWAP2 SWAP1 DUP2 DUP2 MSTORE PUSH1 0x20 ADD DUP3 DUP1 SLOAD PUSH2 0x238C SWAP1 PUSH2 0x8E86 JUMP JUMPDEST DUP1 ISZERO PUSH2 0x23D9 JUMPI DUP1 PUSH1 0x1F LT PUSH2 0x23AE JUMPI PUSH2 0x100 DUP1 DUP4 SLOAD DIV MUL DUP4 MSTORE SWAP2 PUSH1 0x20 ADD SWAP2 PUSH2 0x23D9 JUMP JUMPDEST DUP3 ADD SWAP2 SWAP1 PUSH1 0x0 MSTORE PUSH1 0x20 PUSH1 0x0 KECCAK256 SWAP1 JUMPDEST DUP2 SLOAD DUP2 MSTORE SWAP1 PUSH1 0x1 ADD SWAP1 PUSH1 0x20 ADD DUP1 DUP4 GT PUSH2 0x23BC JUMPI DUP3 SWAP1 SUB PUSH1 0x1F AND DUP3 ADD SWAP2 JUMPDEST POP POP POP POP POP DUP2 MSTORE PUSH1 0x20 ADD PUSH1 0x1C DUP3 ADD DUP1 SLOAD PUSH2 0x23F2 SWAP1 PUSH2 0x8E86 JUMP JUMPDEST DUP1 PUSH1 0x1F ADD PUSH1 0x20 DUP1 SWAP2 DIV MUL PUSH1 0x20 ADD PUSH1 0x40 MLOAD SWAP1 DUP2 ADD PUSH1 0x40 MSTORE DUP1 SWAP3 SWAP2 SWAP1 DUP2 DUP2 MSTORE PUSH1 0x20 ADD DUP3 DUP1 SLOAD PUSH2 0x241E SWAP1 PUSH2 0x8E86 JUMP JUMPDEST DUP1 ISZERO PUSH2 0x246B JUMPI DUP1 PUSH1 0x1F LT PUSH2 0x2440 JUMPI PUSH2 0x100 DUP1 DUP4 SLOAD DIV MUL DUP4 MSTORE SWAP2 PUSH1 0x20 ADD SWAP2 PUSH2 0x246B JUMP JUMPDEST DUP3 ADD SWAP2 SWAP1 PUSH1 0x0 MSTORE PUSH1 0x20 PUSH1 0x0 KECCAK256 SWAP1 JUMPDEST DUP2 SLOAD DUP2 MSTORE SWAP1 PUSH1 0x1 ADD SWAP1 PUSH1 0x20 ADD DUP1 DUP4 GT PUSH2 0x244E JUMPI DUP3 SWAP1 SUB PUSH1 0x1F AND DUP3 ADD SWAP2 JUMPDEST POP POP POP SWAP2 DUP4 MSTORE POP POP PUSH1 0x1D DUP3 ADD SLOAD PUSH1 0x20 DUP1 DUP4 ADD SWAP2 SWAP1 SWAP2 MSTORE PUSH1 0x1E DUP4 ADD SLOAD PUSH1 0x40 DUP4 ADD MSTORE PUSH1 0x1F DUP4 ADD SLOAD PUSH1 0x1 PUSH1 0x1 PUSH1 0xA0 SHL SUB AND PUSH1 0x60 DUP4 ADD MSTORE DUP3 ADD DUP1 SLOAD PUSH1 0x80 SWAP1 SWAP3 ADD SWAP2 PUSH2 0x24B1 SWAP1 PUSH2 0x8E86 JUMP JUMPDEST DUP1 PUSH1 0x1F ADD PUSH1 0x20 DUP1 SWAP2 DIV MUL PUSH1 0x20 ADD PUSH1 0x40 MLOAD SWAP1 DUP2 ADD PUSH1 0x40 MSTORE DUP1 SWAP3 SWAP2 SWAP1 DUP2 DUP2 MSTORE PUSH1 0x20 ADD DUP3 DUP1 SLOAD PUSH2 0x24DD SWAP1 PUSH2 0x8E86 JUMP JUMPDEST DUP1 ISZERO PUSH2 0x252A JUMPI DUP1 PUSH1 0x1F LT PUSH2 0x24FF JUMPI PUSH2 0x100 DUP1 DUP4 SLOAD DIV MUL DUP4 MSTORE SWAP2 PUSH1 0x20 ADD SWAP2 PUSH2 0x252A JUMP JUMPDEST DUP3 ADD SWAP2 SWAP1 PUSH1 0x0 MSTORE PUSH1 0x20 PUSH1 0x0 KECCAK256 SWAP1 JUMPDEST DUP2 SLOAD DUP2 MSTORE SWAP1 PUSH1 0x1 ADD SWAP1 PUSH1 0x20 ADD DUP1 DUP4 GT PUSH2 0x250D JUMPI DUP3 SWAP1 SUB PUSH1 0x1F AND DUP3 ADD SWAP2 JUMPDEST POP POP POP POP POP DUP2 MSTORE PUSH1 0x20 ADD PUSH1 0x21 DUP3 ADD DUP1 SLOAD PUSH2 0x2543 SWAP1 PUSH2 0x8E86 JUMP JUMPDEST DUP1 PUSH1 0x1F ADD PUSH1 0x20 DUP1 SWAP2 DIV MUL PUSH1 0x20 ADD PUSH1 0x40 MLOAD SWAP1 DUP2 ADD PUSH1 0x40 MSTORE DUP1 SWAP3 SWAP2 SWAP1 DUP2 DUP2 MSTORE PUSH1 0x20 ADD DUP3 DUP1 SLOAD PUSH2 0x256F SWAP1 PUSH2 0x8E86 JUMP JUMPDEST DUP1 ISZERO PUSH2 0x25BC JUMPI DUP1 PUSH1 0x1F LT PUSH2 0x2591 JUMPI PUSH2 0x100 DUP1 DUP4 SLOAD DIV MUL DUP4 MSTORE SWAP2 PUSH1 0x20 ADD SWAP2 PUSH2 0x25BC JUMP JUMPDEST DUP3 ADD SWAP2 SWAP1 PUSH1 0x0 MSTORE PUSH1 0x20 PUSH1 0x0 KECCAK256 SWAP1 JUMPDEST DUP2 SLOAD DUP2 MSTORE SWAP1 PUSH1 0x1 ADD SWAP1 PUSH1 0x20 ADD DUP1 DUP4 GT PUSH2 0x259F JUMPI DUP3 SWAP1 SUB PUSH1 0x1F AND DUP3 ADD SWAP2 JUMPDEST POP POP POP SWAP2 DUP4 MSTORE POP POP PUSH1 0x22 DUP3 ADD SLOAD PUSH1 0x20 DUP3 ADD MSTORE PUSH1 0x23 DUP3 ADD SLOAD PUSH1 0x40 DUP3 ADD MSTORE PUSH1 0x24 DUP3 ADD SLOAD PUSH1 0x1 PUSH1 0x1 PUSH1 0xA0 SHL SUB AND PUSH1 0x60 DUP3 ADD MSTORE PUSH1 0x25 DUP3 ADD DUP1 SLOAD PUSH1 0x80 SWAP1 SWAP3 ADD SWAP2 PUSH2 0x2600 SWAP1 PUSH2 0x8E86 JUMP JUMPDEST DUP1 PUSH1 0x1F ADD PUSH1 0x20 DUP1 SWAP2 DIV MUL PUSH1 0x20 ADD PUSH1 0x40 MLOAD SWAP1 DUP2 ADD PUSH1 0x40 MSTORE DUP1 SWAP3 SWAP2 SWAP1 DUP2 DUP2 MSTORE PUSH1 0x20 ADD DUP3 DUP1 SLOAD PUSH2 0x262C SWAP1 PUSH2 0x8E86 JUMP JUMPDEST DUP1 ISZERO PUSH2 0x2679 JUMPI DUP1 PUSH1 0x1F LT PUSH2 0x264E JUMPI PUSH2 0x100 DUP1 DUP4 SLOAD DIV MUL DUP4 MSTORE SWAP2 PUSH1 0x20 ADD SWAP2 PUSH2 0x2679 JUMP JUMPDEST DUP3 ADD SWAP2 SWAP1 PUSH1 0x0 MSTORE PUSH1 0x20 PUSH1 0x0 KECCAK256 SWAP1 JUMPDEST DUP2 SLOAD DUP2 MSTORE SWAP1 PUSH1 0x1 ADD SWAP1 PUSH1 0x20 ADD DUP1 DUP4 GT PUSH2 0x265C JUMPI DUP3 SWAP1 SUB PUSH1 0x1F AND DUP3 ADD SWAP2 JUMPDEST POP POP POP POP POP DUP2 MSTORE PUSH1 0x20 ADD PUSH1 0x26 DUP3 ADD DUP1 SLOAD PUSH2 0x2692 SWAP1 PUSH2 0x8E86 JUMP JUMPDEST DUP1 PUSH1 0x1F ADD PUSH1 0x20 DUP1 SWAP2 DIV MUL PUSH1 0x20 ADD PUSH1 0x40 MLOAD SWAP1 DUP2 ADD PUSH1 0x40 MSTORE DUP1 SWAP3 SWAP2 SWAP1 DUP2 DUP2 MSTORE PUSH1 0x20 ADD DUP3 DUP1 SLOAD PUSH2 0x26BE SWAP1 PUSH2 0x8E86 JUMP JUMPDEST DUP1 ISZERO PUSH2 0x270B JUMPI DUP1 PUSH1 0x1F LT PUSH2 0x26E0 JUMPI PUSH2 0x100 DUP1 DUP4 SLOAD DIV MUL DUP4 MSTORE SWAP2 PUSH1 0x20 ADD SWAP2 PUSH2 0x270B JUMP JUMPDEST DUP3 ADD SWAP2 SWAP1 PUSH1 0x0 MSTORE PUSH1 0x20 PUSH1 0x0 KECCAK256 SWAP1 JUMPDEST DUP2 SLOAD DUP2 MSTORE SWAP1 PUSH1 0x1 ADD SWAP1 PUSH1 0x20 ADD DUP1 DUP4 GT PUSH2 0x26EE JUMPI DUP3 SWAP1 SUB PUSH1 0x1F AND DUP3 ADD SWAP2 JUMPDEST POP POP POP SWAP2 DUP4 MSTORE POP POP PUSH1 0x27 DUP3 ADD SLOAD PUSH1 0x20 DUP3 ADD MSTORE PUSH1 0x28 DUP3 ADD SLOAD PUSH1 0x1 PUSH1 0x1 PUSH1 0xA0 SHL SUB AND PUSH1 0x40 DUP3 ADD MSTORE PUSH1 0x29 DUP3 ADD DUP1 SLOAD PUSH1 0x60 SWAP1 SWAP3 ADD SWAP2 PUSH2 0x2745 SWAP1 PUSH2 0x8E86 JUMP JUMPDEST DUP1 PUSH1 0x1F ADD PUSH1 0x20 DUP1 SWAP2 DIV MUL PUSH1 0x20 ADD PUSH1 0x40 MLOAD SWAP1 DUP2 ADD PUSH1 0x40 MSTORE DUP1 SWAP3 SWAP2 SWAP1 DUP2 DUP2 MSTORE PUSH1 0x20 ADD DUP3 DUP1 SLOAD PUSH2 0x2771 SWAP1 PUSH2 0x8E86 JUMP JUMPDEST DUP1 ISZERO PUSH2 0x27BE JUMPI DUP1 PUSH1 0x1F LT PUSH2 0x2793 JUMPI PUSH2 0x100 DUP1 DUP4 SLOAD DIV MUL DUP4 MSTORE SWAP2 PUSH1 0x20 ADD SWAP2 PUSH2 0x27BE JUMP JUMPDEST DUP3 ADD SWAP2 SWAP1 PUSH1 0x0 MSTORE PUSH1 0x20 PUSH1 0x0 KECCAK256 SWAP1 JUMPDEST DUP2 SLOAD DUP2 MSTORE SWAP1 PUSH1 0x1 ADD SWAP1 PUSH1 0x20 ADD DUP1 DUP4 GT PUSH2 0x27A1 JUMPI DUP3 SWAP1 SUB PUSH1 0x1F AND DUP3 ADD SWAP2 JUMPDEST POP POP POP SWAP2 DUP4 MSTORE POP POP PUSH1 0x2A DUP3 ADD SLOAD PUSH1 0x20 DUP3 ADD MSTORE PUSH1 0x2B DUP3 ADD SLOAD PUSH1 0x40 SWAP1 SWAP2 ADD SWAP1 PUSH1 0xFF AND PUSH1 0x19 DUP2 GT ISZERO PUSH2 0x27EF JUMPI PUSH2 0x27EF PUSH2 0x8EF2 JUMP JUMPDEST PUSH1 0x19 DUP2 GT ISZERO PUSH2 0x2800 JUMPI PUSH2 0x2800 PUSH2 0x8EF2 JUMP JUMPDEST SWAP1 MSTORE POP PUSH2 0x3E0 DUP2 ADD MLOAD PUSH2 0x400 DUP3 ADD MLOAD PUSH2 0x420 DUP4 ADD MLOAD PUSH2 0x440 DUP5 ADD MLOAD PUSH2 0x460 SWAP1 SWAP5 ADD MLOAD SWAP3 SWAP12 SWAP2 SWAP11 POP SWAP9 POP SWAP2 SWAP7 POP SWAP5 POP SWAP3 POP POP POP JUMP JUMPDEST PUSH2 0x283D CALLER PUSH2 0x3FB1 JUMP JUMPDEST PUSH2 0x2846 JUMPI PUSH1 0x0 DUP1 REVERT JUMPDEST DUP1 PUSH1 0xE PUSH1 0x0 DUP3 DUP2 MSTORE PUSH1 0xB PUSH1 0x20 MSTORE PUSH1 0x40 SWAP1 KECCAK256 PUSH1 0x2B ADD SLOAD PUSH1 0xFF AND PUSH1 0x19 DUP2 GT ISZERO PUSH2 0x286F JUMPI PUSH2 0x286F PUSH2 0x8EF2 JUMP JUMPDEST EQ PUSH2 0x2879 JUMPI PUSH1 0x0 DUP1 REVERT JUMPDEST PUSH1 0x0 DUP3 DUP2 MSTORE PUSH1 0xB PUSH1 0x20 SWAP1 DUP2 MSTORE PUSH1 0x40 SWAP2 DUP3 SWAP1 KECCAK256 DUP1 SLOAD PUSH1 0x1 PUSH1 0x1 PUSH1 0xA0 SHL SUB NOT SWAP1 DUP2 AND CALLER SWAP1 DUP2 OR DUP4 SSTORE PUSH1 0x1F DUP4 ADD DUP1 SLOAD SWAP1 SWAP3 AND OR SWAP1 SSTORE PUSH1 0x2B ADD DUP1 SLOAD PUSH1 0xFF NOT AND PUSH1 0xF OR SWAP1 SSTORE SWAP1 MLOAD DUP4 DUP2 MSTORE PUSH32 0xB64A650BD16FDCC58820F555D97B554E91B54798DAD96AA8EDC7BFBE9485603A SWAP2 ADD JUMPDEST PUSH1 0x40 MLOAD DUP1 SWAP2 SUB SWAP1 LOG1 POP POP JUMP JUMPDEST PUSH2 0x28F7 CALLER PUSH2 0xAD8 JUMP JUMPDEST PUSH2 0x2900 JUMPI PUSH1 0x0 DUP1 REVERT JUMPDEST DUP1 PUSH1 0x7 PUSH1 0x0 DUP3 DUP2 MSTORE PUSH1 0xB PUSH1 0x20 MSTORE PUSH1 0x40 SWAP1 KECCAK256 PUSH1 0x2B ADD SLOAD PUSH1 0xFF AND PUSH1 0x19 DUP2 GT ISZERO PUSH2 0x2929 JUMPI PUSH2 0x2929 PUSH2 0x8EF2 JUMP JUMPDEST EQ PUSH2 0x2933 JUMPI PUSH1 0x0 DUP1 REVERT JUMPDEST PUSH1 0x0 DUP3 DUP2 MSTORE PUSH1 0xB PUSH1 0x20 SWAP1 DUP2 MSTORE PUSH1 0x40 SWAP2 DUP3 SWAP1 KECCAK256 DUP1 SLOAD PUSH1 0x1 PUSH1 0x1 PUSH1 0xA0 SHL SUB NOT SWAP1 DUP2 AND CALLER SWAP1 DUP2 OR DUP4 SSTORE PUSH1 0x17 DUP4 ADD DUP1 SLOAD SWAP1 SWAP3 AND OR SWAP1 SSTORE PUSH1 0x2B ADD DUP1 SLOAD PUSH1 0xFF NOT AND PUSH1 0x8 OR SWAP1 SSTORE SWAP1 MLOAD DUP4 DUP2 MSTORE PUSH32 0x784D5D462B810EA2026B9E53C351191F8300EB50E1F674D21ED03EA527D881FD SWAP2 ADD PUSH2 0x28E2 JUMP JUMPDEST PUSH1 0x0 PUSH2 0xAD2 PUSH1 0x3 DUP4 PUSH2 0x832A JUMP JUMPDEST PUSH1 0x0 DUP2 DUP2 MSTORE PUSH1 0xB PUSH1 0x20 SWAP1 DUP2 MSTORE PUSH1 0x40 DUP1 DUP4 KECCAK256 DUP2 MLOAD PUSH2 0x580 DUP2 ADD DUP4 MSTORE DUP2 SLOAD PUSH1 0x1 PUSH1 0x1 PUSH1 0xA0 SHL SUB SWAP1 DUP2 AND DUP3 MSTORE PUSH1 0x1 DUP4 ADD SLOAD SWAP5 DUP3 ADD SWAP5 SWAP1 SWAP5 MSTORE PUSH1 0x2 DUP3 ADD SLOAD SWAP3 DUP2 ADD SWAP3 SWAP1 SWAP3 MSTORE PUSH1 0x3 DUP2 ADD SLOAD PUSH1 0x60 DUP4 DUP2 ADD SWAP2 SWAP1 SWAP2 MSTORE PUSH1 0x4 DUP3 ADD SLOAD SWAP1 SWAP4 AND PUSH1 0x80 DUP4 ADD MSTORE PUSH1 0x5 DUP2 ADD DUP1 SLOAD DUP5 SWAP4 DUP7 SWAP4 DUP5 SWAP4 DUP5 SWAP4 PUSH1 0xA0 DUP5 ADD SWAP2 SWAP1 PUSH2 0x2A26 SWAP1 PUSH2 0x8E86 JUMP JUMPDEST DUP1 PUSH1 0x1F ADD PUSH1 0x20 DUP1 SWAP2 DIV MUL PUSH1 0x20 ADD PUSH1 0x40 MLOAD SWAP1 DUP2 ADD PUSH1 0x40 MSTORE DUP1 SWAP3 SWAP2 SWAP1 DUP2 DUP2 MSTORE PUSH1 0x20 ADD DUP3 DUP1 SLOAD PUSH2 0x2A52 SWAP1 PUSH2 0x8E86 JUMP JUMPDEST DUP1 ISZERO PUSH2 0x2A9F JUMPI DUP1 PUSH1 0x1F LT PUSH2 0x2A74 JUMPI PUSH2 0x100 DUP1 DUP4 SLOAD DIV MUL DUP4 MSTORE SWAP2 PUSH1 0x20 ADD SWAP2 PUSH2 0x2A9F JUMP JUMPDEST DUP3 ADD SWAP2 SWAP1 PUSH1 0x0 MSTORE PUSH1 0x20 PUSH1 0x0 KECCAK256 SWAP1 JUMPDEST DUP2 SLOAD DUP2 MSTORE SWAP1 PUSH1 0x1 ADD SWAP1 PUSH1 0x20 ADD DUP1 DUP4 GT PUSH2 0x2A82 JUMPI DUP3 SWAP1 SUB PUSH1 0x1F AND DUP3 ADD SWAP2 JUMPDEST POP POP POP POP POP DUP2 MSTORE PUSH1 0x20 ADD PUSH1 0x6 DUP3 ADD DUP1 SLOAD PUSH2 0x2AB8 SWAP1 PUSH2 0x8E86 JUMP JUMPDEST DUP1 PUSH1 0x1F ADD PUSH1 0x20 DUP1 SWAP2 DIV MUL PUSH1 0x20 ADD PUSH1 0x40 MLOAD SWAP1 DUP2 ADD PUSH1 0x40 MSTORE DUP1 SWAP3 SWAP2 SWAP1 DUP2 DUP2 MSTORE PUSH1 0x20 ADD DUP3 DUP1 SLOAD PUSH2 0x2AE4 SWAP1 PUSH2 0x8E86 JUMP JUMPDEST DUP1 ISZERO PUSH2 0x2B31 JUMPI DUP1 PUSH1 0x1F LT PUSH2 0x2B06 JUMPI PUSH2 0x100 DUP1 DUP4 SLOAD DIV MUL DUP4 MSTORE SWAP2 PUSH1 0x20 ADD SWAP2 PUSH2 0x2B31 JUMP JUMPDEST DUP3 ADD SWAP2 SWAP1 PUSH1 0x0 MSTORE PUSH1 0x20 PUSH1 0x0 KECCAK256 SWAP1 JUMPDEST DUP2 SLOAD DUP2 MSTORE SWAP1 PUSH1 0x1 ADD SWAP1 PUSH1 0x20 ADD DUP1 DUP4 GT PUSH2 0x2B14 JUMPI DUP3 SWAP1 SUB PUSH1 0x1F AND DUP3 ADD SWAP2 JUMPDEST POP POP POP POP POP DUP2 MSTORE PUSH1 0x20 ADD PUSH1 0x7 DUP3 ADD DUP1 SLOAD PUSH2 0x2B4A SWAP1 PUSH2 0x8E86 JUMP JUMPDEST DUP1 PUSH1 0x1F ADD PUSH1 0x20 DUP1 SWAP2 DIV MUL PUSH1 0x20 ADD PUSH1 0x40 MLOAD SWAP1 DUP2 ADD PUSH1 0x40 MSTORE DUP1 SWAP3 SWAP2 SWAP1 DUP2 DUP2 MSTORE PUSH1 0x20 ADD DUP3 DUP1 SLOAD PUSH2 0x2B76 SWAP1 PUSH2 0x8E86 JUMP JUMPDEST DUP1 ISZERO PUSH2 0x2BC3 JUMPI DUP1 PUSH1 0x1F LT PUSH2 0x2B98 JUMPI PUSH2 0x100 DUP1 DUP4 SLOAD DIV MUL DUP4 MSTORE SWAP2 PUSH1 0x20 ADD SWAP2 PUSH2 0x2BC3 JUMP JUMPDEST DUP3 ADD SWAP2 SWAP1 PUSH1 0x0 MSTORE PUSH1 0x20 PUSH1 0x0 KECCAK256 SWAP1 JUMPDEST DUP2 SLOAD DUP2 MSTORE SWAP1 PUSH1 0x1 ADD SWAP1 PUSH1 0x20 ADD DUP1 DUP4 GT PUSH2 0x2BA6 JUMPI DUP3 SWAP1 SUB PUSH1 0x1F AND DUP3 ADD SWAP2 JUMPDEST POP POP POP POP POP DUP2 MSTORE PUSH1 0x20 ADD PUSH1 0x8 DUP3 ADD DUP1 SLOAD PUSH2 0x2BDC SWAP1 PUSH2 0x8E86 JUMP JUMPDEST DUP1 PUSH1 0x1F ADD PUSH1 0x20 DUP1 SWAP2 DIV MUL PUSH1 0x20 ADD PUSH1 0x40 MLOAD SWAP1 DUP2 ADD PUSH1 0x40 MSTORE DUP1 SWAP3 SWAP2 SWAP1 DUP2 DUP2 MSTORE PUSH1 0x20 ADD DUP3 DUP1 SLOAD PUSH2 0x2C08 SWAP1 PUSH2 0x8E86 JUMP JUMPDEST DUP1 ISZERO PUSH2 0x2C55 JUMPI DUP1 PUSH1 0x1F LT PUSH2 0x2C2A JUMPI PUSH2 0x100 DUP1 DUP4 SLOAD DIV MUL DUP4 MSTORE SWAP2 PUSH1 0x20 ADD SWAP2 PUSH2 0x2C55 JUMP JUMPDEST DUP3 ADD SWAP2 SWAP1 PUSH1 0x0 MSTORE PUSH1 0x20 PUSH1 0x0 KECCAK256 SWAP1 JUMPDEST DUP2 SLOAD DUP2 MSTORE SWAP1 PUSH1 0x1 ADD SWAP1 PUSH1 0x20 ADD DUP1 DUP4 GT PUSH2 0x2C38 JUMPI DUP3 SWAP1 SUB PUSH1 0x1F AND DUP3 ADD SWAP2 JUMPDEST POP POP POP SWAP2 DUP4 MSTORE POP POP PUSH1 0x9 DUP3 ADD SLOAD PUSH1 0x20 DUP3 ADD MSTORE PUSH1 0xA DUP3 ADD SLOAD PUSH1 0x40 DUP3 ADD MSTORE PUSH1 0xB DUP3 ADD SLOAD PUSH1 0x1 PUSH1 0x1 PUSH1 0xA0 SHL SUB AND PUSH1 0x60 DUP3 ADD MSTORE PUSH1 0xC DUP3 ADD DUP1 SLOAD PUSH1 0x80 SWAP1 SWAP3 ADD SWAP2 PUSH2 0x2C99 SWAP1 PUSH2 0x8E86 JUMP JUMPDEST DUP1 PUSH1 0x1F ADD PUSH1 0x20 DUP1 SWAP2 DIV MUL PUSH1 0x20 ADD PUSH1 0x40 MLOAD SWAP1 DUP2 ADD PUSH1 0x40 MSTORE DUP1 SWAP3 SWAP2 SWAP1 DUP2 DUP2 MSTORE PUSH1 0x20 ADD DUP3 DUP1 SLOAD PUSH2 0x2CC5 SWAP1 PUSH2 0x8E86 JUMP JUMPDEST DUP1 ISZERO PUSH2 0x2D12 JUMPI DUP1 PUSH1 0x1F LT PUSH2 0x2CE7 JUMPI PUSH2 0x100 DUP1 DUP4 SLOAD DIV MUL DUP4 MSTORE SWAP2 PUSH1 0x20 ADD SWAP2 PUSH2 0x2D12 JUMP JUMPDEST DUP3 ADD SWAP2 SWAP1 PUSH1 0x0 MSTORE PUSH1 0x20 PUSH1 0x0 KECCAK256 SWAP1 JUMPDEST DUP2 SLOAD DUP2 MSTORE SWAP1 PUSH1 0x1 ADD SWAP1 PUSH1 0x20 ADD DUP1 DUP4 GT PUSH2 0x2CF5 JUMPI DUP3 SWAP1 SUB PUSH1 0x1F AND DUP3 ADD SWAP2 JUMPDEST POP POP POP POP POP DUP2 MSTORE PUSH1 0x20 ADD PUSH1 0xD DUP3 ADD DUP1 SLOAD PUSH2 0x2D2B SWAP1 PUSH2 0x8E86 JUMP JUMPDEST DUP1 PUSH1 0x1F ADD PUSH1 0x20 DUP1 SWAP2 DIV MUL PUSH1 0x20 ADD PUSH1 0x40 MLOAD SWAP1 DUP2 ADD PUSH1 0x40 MSTORE DUP1 SWAP3 SWAP2 SWAP1 DUP2 DUP2 MSTORE PUSH1 0x20 ADD DUP3 DUP1 SLOAD PUSH2 0x2D57 SWAP1 PUSH2 0x8E86 JUMP JUMPDEST DUP1 ISZERO PUSH2 0x2DA4 JUMPI DUP1 PUSH1 0x1F LT PUSH2 0x2D79 JUMPI PUSH2 0x100 DUP1 DUP4 SLOAD DIV MUL DUP4 MSTORE SWAP2 PUSH1 0x20 ADD SWAP2 PUSH2 0x2DA4 JUMP JUMPDEST DUP3 ADD SWAP2 SWAP1 PUSH1 0x0 MSTORE PUSH1 0x20 PUSH1 0x0 KECCAK256 SWAP1 JUMPDEST DUP2 SLOAD DUP2 MSTORE SWAP1 PUSH1 0x1 ADD SWAP1 PUSH1 0x20 ADD DUP1 DUP4 GT PUSH2 0x2D87 JUMPI DUP3 SWAP1 SUB PUSH1 0x1F AND DUP3 ADD SWAP2 JUMPDEST POP POP POP POP POP DUP2 MSTORE PUSH1 0x20 ADD PUSH1 0xE DUP3 ADD DUP1 SLOAD PUSH2 0x2DBD SWAP1 PUSH2 0x8E86 JUMP JUMPDEST DUP1 PUSH1 0x1F ADD PUSH1 0x20 DUP1 SWAP2 DIV MUL PUSH1 0x20 ADD PUSH1 0x40 MLOAD SWAP1 DUP2 ADD PUSH1 0x40 MSTORE DUP1 SWAP3 SWAP2 SWAP1 DUP2 DUP2 MSTORE PUSH1 0x20 ADD DUP3 DUP1 SLOAD PUSH2 0x2DE9 SWAP1 PUSH2 0x8E86 JUMP JUMPDEST DUP1 ISZERO PUSH2 0x2E36 JUMPI DUP1 PUSH1 0x1F LT PUSH2 0x2E0B JUMPI PUSH2 0x100 DUP1 DUP4 SLOAD DIV MUL DUP4 MSTORE SWAP2 PUSH1 0x20 ADD SWAP2 PUSH2 0x2E36 JUMP JUMPDEST DUP3 ADD SWAP2 SWAP1 PUSH1 0x0 MSTORE PUSH1 0x20 PUSH1 0x0 KECCAK256 SWAP1 JUMPDEST DUP2 SLOAD DUP2 MSTORE SWAP1 PUSH1 0x1 ADD SWAP1 PUSH1 0x20 ADD DUP1 DUP4 GT PUSH2 0x2E19 JUMPI DUP3 SWAP1 SUB PUSH1 0x1F AND DUP3 ADD SWAP2 JUMPDEST POP POP POP POP POP DUP2 MSTORE PUSH1 0x20 ADD PUSH1 0xF DUP3 ADD DUP1 SLOAD PUSH2 0x2E4F SWAP1 PUSH2 0x8E86 JUMP JUMPDEST DUP1 PUSH1 0x1F ADD PUSH1 0x20 DUP1 SWAP2 DIV MUL PUSH1 0x20 ADD PUSH1 0x40 MLOAD SWAP1 DUP2 ADD PUSH1 0x40 MSTORE DUP1 SWAP3 SWAP2 SWAP1 DUP2 DUP2 MSTORE PUSH1 0x20 ADD DUP3 DUP1 SLOAD PUSH2 0x2E7B SWAP1 PUSH2 0x8E86 JUMP JUMPDEST DUP1 ISZERO PUSH2 0x2EC8 JUMPI DUP1 PUSH1 0x1F LT PUSH2 0x2E9D JUMPI PUSH2 0x100 DUP1 DUP4 SLOAD DIV MUL DUP4 MSTORE SWAP2 PUSH1 0x20 ADD SWAP2 PUSH2 0x2EC8 JUMP JUMPDEST DUP3 ADD SWAP2 SWAP1 PUSH1 0x0 MSTORE PUSH1 0x20 PUSH1 0x0 KECCAK256 SWAP1 JUMPDEST DUP2 SLOAD DUP2 MSTORE SWAP1 PUSH1 0x1 ADD SWAP1 PUSH1 0x20 ADD DUP1 DUP4 GT PUSH2 0x2EAB JUMPI DUP3 SWAP1 SUB PUSH1 0x1F AND DUP3 ADD SWAP2 JUMPDEST POP POP POP SWAP2 DUP4 MSTORE POP POP PUSH1 0x10 DUP3 ADD SLOAD PUSH1 0x20 DUP3 ADD MSTORE PUSH1 0x11 DUP3 ADD SLOAD PUSH1 0x40 DUP3 ADD MSTORE PUSH1 0x12 DUP3 ADD SLOAD PUSH1 0x1 PUSH1 0x1 PUSH1 0xA0 SHL SUB AND PUSH1 0x60 DUP3 ADD MSTORE PUSH1 0x13 DUP3 ADD DUP1 SLOAD PUSH1 0x80 SWAP1 SWAP3 ADD SWAP2 PUSH2 0x2F0C SWAP1 PUSH2 0x8E86 JUMP JUMPDEST DUP1 PUSH1 0x1F ADD PUSH1 0x20 DUP1 SWAP2 DIV MUL PUSH1 0x20 ADD PUSH1 0x40 MLOAD SWAP1 DUP2 ADD PUSH1 0x40 MSTORE DUP1 SWAP3 SWAP2 SWAP1 DUP2 DUP2 MSTORE PUSH1 0x20 ADD DUP3 DUP1 SLOAD PUSH2 0x2F38 SWAP1 PUSH2 0x8E86 JUMP JUMPDEST DUP1 ISZERO PUSH2 0x2F85 JUMPI DUP1 PUSH1 0x1F LT PUSH2 0x2F5A JUMPI PUSH2 0x100 DUP1 DUP4 SLOAD DIV MUL DUP4 MSTORE SWAP2 PUSH1 0x20 ADD SWAP2 PUSH2 0x2F85 JUMP JUMPDEST DUP3 ADD SWAP2 SWAP1 PUSH1 0x0 MSTORE PUSH1 0x20 PUSH1 0x0 KECCAK256 SWAP1 JUMPDEST DUP2 SLOAD DUP2 MSTORE SWAP1 PUSH1 0x1 ADD SWAP1 PUSH1 0x20 ADD DUP1 DUP4 GT PUSH2 0x2F68 JUMPI DUP3 SWAP1 SUB PUSH1 0x1F AND DUP3 ADD SWAP2 JUMPDEST POP POP POP POP POP DUP2 MSTORE PUSH1 0x20 ADD PUSH1 0x14 DUP3 ADD DUP1 SLOAD PUSH2 0x2F9E SWAP1 PUSH2 0x8E86 JUMP JUMPDEST DUP1 PUSH1 0x1F ADD PUSH1 0x20 DUP1 SWAP2 DIV MUL PUSH1 0x20 ADD PUSH1 0x40 MLOAD SWAP1 DUP2 ADD PUSH1 0x40 MSTORE DUP1 SWAP3 SWAP2 SWAP1 DUP2 DUP2 MSTORE PUSH1 0x20 ADD DUP3 DUP1 SLOAD PUSH2 0x2FCA SWAP1 PUSH2 0x8E86 JUMP JUMPDEST DUP1 ISZERO PUSH2 0x3017 JUMPI DUP1 PUSH1 0x1F LT PUSH2 0x2FEC JUMPI PUSH2 0x100 DUP1 DUP4 SLOAD DIV MUL DUP4 MSTORE SWAP2 PUSH1 0x20 ADD SWAP2 PUSH2 0x3017 JUMP JUMPDEST DUP3 ADD SWAP2 SWAP1 PUSH1 0x0 MSTORE PUSH1 0x20 PUSH1 0x0 KECCAK256 SWAP1 JUMPDEST DUP2 SLOAD DUP2 MSTORE SWAP1 PUSH1 0x1 ADD SWAP1 PUSH1 0x20 ADD DUP1 DUP4 GT PUSH2 0x2FFA JUMPI DUP3 SWAP1 SUB PUSH1 0x1F AND DUP3 ADD SWAP2 JUMPDEST POP POP POP SWAP2 DUP4 MSTORE POP POP PUSH1 0x15 DUP3 ADD SLOAD PUSH1 0x20 DUP3 ADD MSTORE PUSH1 0x16 DUP3 ADD SLOAD PUSH1 0x40 DUP3 ADD MSTORE PUSH1 0x17 DUP3 ADD SLOAD PUSH1 0x1 PUSH1 0x1 PUSH1 0xA0 SHL SUB AND PUSH1 0x60 DUP3 ADD MSTORE PUSH1 0x18 DUP3 ADD DUP1 SLOAD PUSH1 0x80 SWAP1 SWAP3 ADD SWAP2 PUSH2 0x305B SWAP1 PUSH2 0x8E86 JUMP JUMPDEST DUP1 PUSH1 0x1F ADD PUSH1 0x20 DUP1 SWAP2 DIV MUL PUSH1 0x20 ADD PUSH1 0x40 MLOAD SWAP1 DUP2 ADD PUSH1 0x40 MSTORE DUP1 SWAP3 SWAP2 SWAP1 DUP2 DUP2 MSTORE PUSH1 0x20 ADD DUP3 DUP1 SLOAD PUSH2 0x3087 SWAP1 PUSH2 0x8E86 JUMP JUMPDEST DUP1 ISZERO PUSH2 0x30D4 JUMPI DUP1 PUSH1 0x1F LT PUSH2 0x30A9 JUMPI PUSH2 0x100 DUP1 DUP4 SLOAD DIV MUL DUP4 MSTORE SWAP2 PUSH1 0x20 ADD SWAP2 PUSH2 0x30D4 JUMP JUMPDEST DUP3 ADD SWAP2 SWAP1 PUSH1 0x0 MSTORE PUSH1 0x20 PUSH1 0x0 KECCAK256 SWAP1 JUMPDEST DUP2 SLOAD DUP2 MSTORE SWAP1 PUSH1 0x1 ADD SWAP1 PUSH1 0x20 ADD DUP1 DUP4 GT PUSH2 0x30B7 JUMPI DUP3 SWAP1 SUB PUSH1 0x1F AND DUP3 ADD SWAP2 JUMPDEST POP POP POP POP POP DUP2 MSTORE PUSH1 0x20 ADD PUSH1 0x19 DUP3 ADD DUP1 SLOAD PUSH2 0x30ED SWAP1 PUSH2 0x8E86 JUMP JUMPDEST DUP1 PUSH1 0x1F ADD PUSH1 0x20 DUP1 SWAP2 DIV MUL PUSH1 0x20 ADD PUSH1 0x40 MLOAD SWAP1 DUP2 ADD PUSH1 0x40 MSTORE DUP1 SWAP3 SWAP2 SWAP1 DUP2 DUP2 MSTORE PUSH1 0x20 ADD DUP3 DUP1 SLOAD PUSH2 0x3119 SWAP1 PUSH2 0x8E86 JUMP JUMPDEST DUP1 ISZERO PUSH2 0x3166 JUMPI DUP1 PUSH1 0x1F LT PUSH2 0x313B JUMPI PUSH2 0x100 DUP1 DUP4 SLOAD DIV MUL DUP4 MSTORE SWAP2 PUSH1 0x20 ADD SWAP2 PUSH2 0x3166 JUMP JUMPDEST DUP3 ADD SWAP2 SWAP1 PUSH1 0x0 MSTORE PUSH1 0x20 PUSH1 0x0 KECCAK256 SWAP1 JUMPDEST DUP2 SLOAD DUP2 MSTORE SWAP1 PUSH1 0x1 ADD SWAP1 PUSH1 0x20 ADD DUP1 DUP4 GT PUSH2 0x3149 JUMPI DUP3 SWAP1 SUB PUSH1 0x1F AND DUP3 ADD SWAP2 JUMPDEST POP POP POP POP POP DUP2 MSTORE PUSH1 0x20 ADD PUSH1 0x1A DUP3 ADD DUP1 SLOAD PUSH2 0x317F SWAP1 PUSH2 0x8E86 JUMP JUMPDEST DUP1 PUSH1 0x1F ADD PUSH1 0x20 DUP1 SWAP2 DIV MUL PUSH1 0x20 ADD PUSH1 0x40 MLOAD SWAP1 DUP2 ADD PUSH1 0x40 MSTORE DUP1 SWAP3 SWAP2 SWAP1 DUP2 DUP2 MSTORE PUSH1 0x20 ADD DUP3 DUP1 SLOAD PUSH2 0x31AB SWAP1 PUSH2 0x8E86 JUMP JUMPDEST DUP1 ISZERO PUSH2 0x31F8 JUMPI DUP1 PUSH1 0x1F LT PUSH2 0x31CD JUMPI PUSH2 0x100 DUP1 DUP4 SLOAD DIV MUL DUP4 MSTORE SWAP2 PUSH1 0x20 ADD SWAP2 PUSH2 0x31F8 JUMP JUMPDEST DUP3 ADD SWAP2 SWAP1 PUSH1 0x0 MSTORE PUSH1 0x20 PUSH1 0x0 KECCAK256 SWAP1 JUMPDEST DUP2 SLOAD DUP2 MSTORE SWAP1 PUSH1 0x1 ADD SWAP1 PUSH1 0x20 ADD DUP1 DUP4 GT PUSH2 0x31DB JUMPI DUP3 SWAP1 SUB PUSH1 0x1F AND DUP3 ADD SWAP2 JUMPDEST POP POP POP POP POP DUP2 MSTORE PUSH1 0x20 ADD PUSH1 0x1B DUP3 ADD DUP1 SLOAD PUSH2 0x3211 SWAP1 PUSH2 0x8E86 JUMP JUMPDEST DUP1 PUSH1 0x1F ADD PUSH1 0x20 DUP1 SWAP2 DIV MUL PUSH1 0x20 ADD PUSH1 0x40 MLOAD SWAP1 DUP2 ADD PUSH1 0x40 MSTORE DUP1 SWAP3 SWAP2 SWAP1 DUP2 DUP2 MSTORE PUSH1 0x20 ADD DUP3 DUP1 SLOAD PUSH2 0x323D SWAP1 PUSH2 0x8E86 JUMP JUMPDEST DUP1 ISZERO PUSH2 0x328A JUMPI DUP1 PUSH1 0x1F LT PUSH2 0x325F JUMPI PUSH2 0x100 DUP1 DUP4 SLOAD DIV MUL DUP4 MSTORE SWAP2 PUSH1 0x20 ADD SWAP2 PUSH2 0x328A JUMP JUMPDEST DUP3 ADD SWAP2 SWAP1 PUSH1 0x0 MSTORE PUSH1 0x20 PUSH1 0x0 KECCAK256 SWAP1 JUMPDEST DUP2 SLOAD DUP2 MSTORE SWAP1 PUSH1 0x1 ADD SWAP1 PUSH1 0x20 ADD DUP1 DUP4 GT PUSH2 0x326D JUMPI DUP3 SWAP1 SUB PUSH1 0x1F AND DUP3 ADD SWAP2 JUMPDEST POP POP POP POP POP DUP2 MSTORE PUSH1 0x20 ADD PUSH1 0x1C DUP3 ADD DUP1 SLOAD PUSH2 0x32A3 SWAP1 PUSH2 0x8E86 JUMP JUMPDEST DUP1 PUSH1 0x1F ADD PUSH1 0x20 DUP1 SWAP2 DIV MUL PUSH1 0x20 ADD PUSH1 0x40 MLOAD SWAP1 DUP2 ADD PUSH1 0x40 MSTORE DUP1 SWAP3 SWAP2 SWAP1 DUP2 DUP2 MSTORE PUSH1 0x20 ADD DUP3 DUP1 SLOAD PUSH2 0x32CF SWAP1 PUSH2 0x8E86 JUMP JUMPDEST DUP1 ISZERO PUSH2 0x331C JUMPI DUP1 PUSH1 0x1F LT PUSH2 0x32F1 JUMPI PUSH2 0x100 DUP1 DUP4 SLOAD DIV MUL DUP4 MSTORE SWAP2 PUSH1 0x20 ADD SWAP2 PUSH2 0x331C JUMP JUMPDEST DUP3 ADD SWAP2 SWAP1 PUSH1 0x0 MSTORE PUSH1 0x20 PUSH1 0x0 KECCAK256 SWAP1 JUMPDEST DUP2 SLOAD DUP2 MSTORE SWAP1 PUSH1 0x1 ADD SWAP1 PUSH1 0x20 ADD DUP1 DUP4 GT PUSH2 0x32FF JUMPI DUP3 SWAP1 SUB PUSH1 0x1F AND DUP3 ADD SWAP2 JUMPDEST POP POP POP SWAP2 DUP4 MSTORE POP POP PUSH1 0x1D DUP3 ADD SLOAD PUSH1 0x20 DUP1 DUP4 ADD SWAP2 SWAP1 SWAP2 MSTORE PUSH1 0x1E DUP4 ADD SLOAD PUSH1 0x40 DUP4 ADD MSTORE PUSH1 0x1F DUP4 ADD SLOAD PUSH1 0x1 PUSH1 0x1 PUSH1 0xA0 SHL SUB AND PUSH1 0x60 DUP4 ADD MSTORE DUP3 ADD DUP1 SLOAD PUSH1 0x80 SWAP1 SWAP3 ADD SWAP2 PUSH2 0x3362 SWAP1 PUSH2 0x8E86 JUMP JUMPDEST DUP1 PUSH1 0x1F ADD PUSH1 0x20 DUP1 SWAP2 DIV MUL PUSH1 0x20 ADD PUSH1 0x40 MLOAD SWAP1 DUP2 ADD PUSH1 0x40 MSTORE DUP1 SWAP3 SWAP2 SWAP1 DUP2 DUP2 MSTORE PUSH1 0x20 ADD DUP3 DUP1 SLOAD PUSH2 0x338E SWAP1 PUSH2 0x8E86 JUMP JUMPDEST DUP1 ISZERO PUSH2 0x33DB JUMPI DUP1 PUSH1 0x1F LT PUSH2 0x33B0 JUMPI PUSH2 0x100 DUP1 DUP4 SLOAD DIV MUL DUP4 MSTORE SWAP2 PUSH1 0x20 ADD SWAP2 PUSH2 0x33DB JUMP JUMPDEST DUP3 ADD SWAP2 SWAP1 PUSH1 0x0 MSTORE PUSH1 0x20 PUSH1 0x0 KECCAK256 SWAP1 JUMPDEST DUP2 SLOAD DUP2 MSTORE SWAP1 PUSH1 0x1 ADD SWAP1 PUSH1 0x20 ADD DUP1 DUP4 GT PUSH2 0x33BE JUMPI DUP3 SWAP1 SUB PUSH1 0x1F AND DUP3 ADD SWAP2 JUMPDEST POP POP POP POP POP DUP2 MSTORE PUSH1 0x20 ADD PUSH1 0x21 DUP3 ADD DUP1 SLOAD PUSH2 0x33F4 SWAP1 PUSH2 0x8E86 JUMP JUMPDEST DUP1 PUSH1 0x1F ADD PUSH1 0x20 DUP1 SWAP2 DIV MUL PUSH1 0x20 ADD PUSH1 0x40 MLOAD SWAP1 DUP2 ADD PUSH1 0x40 MSTORE DUP1 SWAP3 SWAP2 SWAP1 DUP2 DUP2 MSTORE PUSH1 0x20 ADD DUP3 DUP1 SLOAD PUSH2 0x3420 SWAP1 PUSH2 0x8E86 JUMP JUMPDEST DUP1 ISZERO PUSH2 0x346D JUMPI DUP1 PUSH1 0x1F LT PUSH2 0x3442 JUMPI PUSH2 0x100 DUP1 DUP4 SLOAD DIV MUL DUP4 MSTORE SWAP2 PUSH1 0x20 ADD SWAP2 PUSH2 0x346D JUMP JUMPDEST DUP3 ADD SWAP2 SWAP1 PUSH1 0x0 MSTORE PUSH1 0x20 PUSH1 0x0 KECCAK256 SWAP1 JUMPDEST DUP2 SLOAD DUP2 MSTORE SWAP1 PUSH1 0x1 ADD SWAP1 PUSH1 0x20 ADD DUP1 DUP4 GT PUSH2 0x3450 JUMPI DUP3 SWAP1 SUB PUSH1 0x1F AND DUP3 ADD SWAP2 JUMPDEST POP POP POP SWAP2 DUP4 MSTORE POP POP PUSH1 0x22 DUP3 ADD SLOAD PUSH1 0x20 DUP3 ADD MSTORE PUSH1 0x23 DUP3 ADD SLOAD PUSH1 0x40 DUP3 ADD MSTORE PUSH1 0x24 DUP3 ADD SLOAD PUSH1 0x1 PUSH1 0x1 PUSH1 0xA0 SHL SUB AND PUSH1 0x60 DUP3 ADD MSTORE PUSH1 0x25 DUP3 ADD DUP1 SLOAD PUSH1 0x80 SWAP1 SWAP3 ADD SWAP2 PUSH2 0x34B1 SWAP1 PUSH2 0x8E86 JUMP JUMPDEST DUP1 PUSH1 0x1F ADD PUSH1 0x20 DUP1 SWAP2 DIV MUL PUSH1 0x20 ADD PUSH1 0x40 MLOAD SWAP1 DUP2 ADD PUSH1 0x40 MSTORE DUP1 SWAP3 SWAP2 SWAP1 DUP2 DUP2 MSTORE PUSH1 0x20 ADD DUP3 DUP1 SLOAD PUSH2 0x34DD SWAP1 PUSH2 0x8E86 JUMP JUMPDEST DUP1 ISZERO PUSH2 0x352A JUMPI DUP1 PUSH1 0x1F LT PUSH2 0x34FF JUMPI PUSH2 0x100 DUP1 DUP4 SLOAD DIV MUL DUP4 MSTORE SWAP2 PUSH1 0x20 ADD SWAP2 PUSH2 0x352A JUMP JUMPDEST DUP3 ADD SWAP2 SWAP1 PUSH1 0x0 MSTORE PUSH1 0x20 PUSH1 0x0 KECCAK256 SWAP1 JUMPDEST DUP2 SLOAD DUP2 MSTORE SWAP1 PUSH1 0x1 ADD SWAP1 PUSH1 0x20 ADD DUP1 DUP4 GT PUSH2 0x350D JUMPI DUP3 SWAP1 SUB PUSH1 0x1F AND DUP3 ADD SWAP2 JUMPDEST POP POP POP POP POP DUP2 MSTORE PUSH1 0x20 ADD PUSH1 0x26 DUP3 ADD DUP1 SLOAD PUSH2 0x3543 SWAP1 PUSH2 0x8E86 JUMP JUMPDEST DUP1 PUSH1 0x1F ADD PUSH1 0x20 DUP1 SWAP2 DIV MUL PUSH1 0x20 ADD PUSH1 0x40 MLOAD SWAP1 DUP2 ADD PUSH1 0x40 MSTORE DUP1 SWAP3 SWAP2 SWAP1 DUP2 DUP2 MSTORE PUSH1 0x20 ADD DUP3 DUP1 SLOAD PUSH2 0x356F SWAP1 PUSH2 0x8E86 JUMP JUMPDEST DUP1 ISZERO PUSH2 0x35BC JUMPI DUP1 PUSH1 0x1F LT PUSH2 0x3591 JUMPI PUSH2 0x100 DUP1 DUP4 SLOAD DIV MUL DUP4 MSTORE SWAP2 PUSH1 0x20 ADD SWAP2 PUSH2 0x35BC JUMP JUMPDEST DUP3 ADD SWAP2 SWAP1 PUSH1 0x0 MSTORE PUSH1 0x20 PUSH1 0x0 KECCAK256 SWAP1 JUMPDEST DUP2 SLOAD DUP2 MSTORE SWAP1 PUSH1 0x1 ADD SWAP1 PUSH1 0x20 ADD DUP1 DUP4 GT PUSH2 0x359F JUMPI DUP3 SWAP1 SUB PUSH1 0x1F AND DUP3 ADD SWAP2 JUMPDEST POP POP POP SWAP2 DUP4 MSTORE POP POP PUSH1 0x27 DUP3 ADD SLOAD PUSH1 0x20 DUP3 ADD MSTORE PUSH1 0x28 DUP3 ADD SLOAD PUSH1 0x1 PUSH1 0x1 PUSH1 0xA0 SHL SUB AND PUSH1 0x40 DUP3 ADD MSTORE PUSH1 0x29 DUP3 ADD DUP1 SLOAD PUSH1 0x60 SWAP1 SWAP3 ADD SWAP2 PUSH2 0x35F6 SWAP1 PUSH2 0x8E86 JUMP JUMPDEST DUP1 PUSH1 0x1F ADD PUSH1 0x20 DUP1 SWAP2 DIV MUL PUSH1 0x20 ADD PUSH1 0x40 MLOAD SWAP1 DUP2 ADD PUSH1 0x40 MSTORE DUP1 SWAP3 SWAP2 SWAP1 DUP2 DUP2 MSTORE PUSH1 0x20 ADD DUP3 DUP1 SLOAD PUSH2 0x3622 SWAP1 PUSH2 0x8E86 JUMP JUMPDEST DUP1 ISZERO PUSH2 0x366F JUMPI DUP1 PUSH1 0x1F LT PUSH2 0x3644 JUMPI PUSH2 0x100 DUP1 DUP4 SLOAD DIV MUL DUP4 MSTORE SWAP2 PUSH1 0x20 ADD SWAP2 PUSH2 0x366F JUMP JUMPDEST DUP3 ADD SWAP2 SWAP1 PUSH1 0x0 MSTORE PUSH1 0x20 PUSH1 0x0 KECCAK256 SWAP1 JUMPDEST DUP2 SLOAD DUP2 MSTORE SWAP1 PUSH1 0x1 ADD SWAP1 PUSH1 0x20 ADD DUP1 DUP4 GT PUSH2 0x3652 JUMPI DUP3 SWAP1 SUB PUSH1 0x1F AND DUP3 ADD SWAP2 JUMPDEST POP POP POP SWAP2 DUP4 MSTORE POP POP PUSH1 0x2A DUP3 ADD SLOAD PUSH1 0x20 DUP3 ADD MSTORE PUSH1 0x2B DUP3 ADD SLOAD PUSH1 0x40 SWAP1 SWAP2 ADD SWAP1 PUSH1 0xFF AND PUSH1 0x19 DUP2 GT ISZERO PUSH2 0x36A0 JUMPI PUSH2 0x36A0 PUSH2 0x8EF2 JUMP JUMPDEST PUSH1 0x19 DUP2 GT ISZERO PUSH2 0x36B1 JUMPI PUSH2 0x36B1 PUSH2 0x8EF2 JUMP JUMPDEST SWAP1 MSTORE POP PUSH2 0x240 DUP2 ADD MLOAD PUSH2 0x260 DUP3 ADD MLOAD PUSH2 0x280 DUP4 ADD MLOAD PUSH2 0x2A0 DUP5 ADD MLOAD PUSH2 0x2C0 SWAP1 SWAP5 ADD MLOAD SWAP3 SWAP12 SWAP2 SWAP11 POP SWAP9 POP SWAP2 SWAP7 POP SWAP5 POP SWAP3 POP POP POP JUMP JUMPDEST PUSH2 0x36EE CALLER PUSH2 0x83A0 JUMP JUMPDEST JUMP JUMPDEST PUSH2 0x36EE CALLER PUSH2 0x83E2 JUMP JUMPDEST PUSH2 0x3702 CALLER PUSH2 0xAD8 JUMP JUMPDEST PUSH2 0x370B JUMPI PUSH1 0x0 DUP1 REVERT JUMPDEST DUP2 PUSH1 0xB PUSH1 0x0 DUP3 DUP2 MSTORE PUSH1 0xB PUSH1 0x20 MSTORE PUSH1 0x40 SWAP1 KECCAK256 PUSH1 0x2B ADD SLOAD PUSH1 0xFF AND PUSH1 0x19 DUP2 GT ISZERO PUSH2 0x3734 JUMPI PUSH2 0x3734 PUSH2 0x8EF2 JUMP JUMPDEST EQ PUSH2 0x373E JUMPI PUSH1 0x0 DUP1 REVERT JUMPDEST PUSH1 0x0 DUP4 DUP2 MSTORE PUSH1 0xB PUSH1 0x20 MSTORE PUSH1 0x40 SWAP1 KECCAK256 SLOAD PUSH1 0x1 PUSH1 0x1 PUSH1 0xA0 SHL SUB AND CALLER DUP2 EQ PUSH2 0x3762 JUMPI PUSH1 0x0 DUP1 REVERT JUMPDEST PUSH1 0x0 DUP5 DUP2 MSTORE PUSH1 0xB PUSH1 0x20 SWAP1 DUP2 MSTORE PUSH1 0x40 SWAP1 SWAP2 KECCAK256 PUSH1 0x2B DUP2 ADD DUP1 SLOAD PUSH1 0xFF NOT AND PUSH1 0xC OR SWAP1 SSTORE DUP5 MLOAD PUSH2 0x3796 SWAP3 PUSH1 0x19 SWAP1 SWAP3 ADD SWAP2 DUP7 ADD SWAP1 PUSH2 0x876E JUMP JUMPDEST POP PUSH1 0x40 MLOAD DUP5 DUP2 MSTORE PUSH32 0x958B80388D309396CA845BF0D784ABB7F42548D9AAB59A8321D62C56FD2DC2F1 SWAP1 PUSH1 0x20 ADD PUSH2 0x193C JUMP JUMPDEST PUSH2 0x37D0 CALLER PUSH2 0x3FB1 JUMP JUMPDEST PUSH2 0x37D9 JUMPI PUSH1 0x0 DUP1 REVERT JUMPDEST DUP1 PUSH1 0x14 PUSH1 0x0 DUP3 DUP2 MSTORE PUSH1 0xB PUSH1 0x20 MSTORE PUSH1 0x40 SWAP1 KECCAK256 PUSH1 0x2B ADD SLOAD PUSH1 0xFF AND PUSH1 0x19 DUP2 GT ISZERO PUSH2 0x3802 JUMPI PUSH2 0x3802 PUSH2 0x8EF2 JUMP JUMPDEST EQ PUSH2 0x380C JUMPI PUSH1 0x0 DUP1 REVERT JUMPDEST PUSH1 0x0 DUP3 DUP2 MSTORE PUSH1 0xB PUSH1 0x20 MSTORE PUSH1 0x40 SWAP1 KECCAK256 PUSH1 0x1F ADD SLOAD PUSH1 0x1 PUSH1 0x1 PUSH1 0xA0 SHL SUB AND CALLER DUP2 EQ PUSH2 0x3833 JUMPI PUSH1 0x0 DUP1 REVERT JUMPDEST PUSH1 0x0 DUP4 DUP2 MSTORE PUSH1 0xB PUSH1 0x20 SWAP1 DUP2 MSTORE PUSH1 0x40 SWAP2 DUP3 SWAP1 KECCAK256 PUSH1 0x2B DUP2 ADD DUP1 SLOAD PUSH1 0xFF NOT AND PUSH1 0x15 OR SWAP1 SSTORE TIMESTAMP PUSH1 0x23 SWAP1 SWAP2 ADD SSTORE SWAP1 MLOAD DUP5 DUP2 MSTORE PUSH32 0xA8B0866B93C89AE2C85673D1B96E6466A54D79A672098832B03400CD0BA2BAA0 SWAP2 ADD PUSH2 0xA9A JUMP JUMPDEST PUSH2 0x3891 CALLER PUSH2 0x4F40 JUMP JUMPDEST PUSH2 0x389A JUMPI PUSH1 0x0 DUP1 REVERT JUMPDEST DUP2 PUSH1 0x1 PUSH1 0x0 DUP3 DUP2 MSTORE PUSH1 0xB PUSH1 0x20 MSTORE PUSH1 0x40 SWAP1 KECCAK256 PUSH1 0x2B ADD SLOAD PUSH1 0xFF AND PUSH1 0x19 DUP2 GT ISZERO PUSH2 0x38C3 JUMPI PUSH2 0x38C3 PUSH2 0x8EF2 JUMP JUMPDEST EQ PUSH2 0x38CD JUMPI PUSH1 0x0 DUP1 REVERT JUMPDEST PUSH1 0x0 DUP4 DUP2 MSTORE PUSH1 0xB PUSH1 0x20 MSTORE PUSH1 0x40 SWAP1 KECCAK256 SLOAD PUSH1 0x1 PUSH1 0x1 PUSH1 0xA0 SHL SUB AND CALLER DUP2 EQ PUSH2 0x38F1 JUMPI PUSH1 0x0 DUP1 REVERT JUMPDEST PUSH1 0x0 DUP5 DUP2 MSTORE PUSH1 0xB PUSH1 0x20 SWAP1 DUP2 MSTORE PUSH1 0x40 SWAP1 SWAP2 KECCAK256 PUSH1 0x2B DUP2 ADD DUP1 SLOAD PUSH1 0xFF NOT AND PUSH1 0x2 OR SWAP1 SSTORE DUP5 MLOAD PUSH2 0x3925 SWAP3 PUSH1 0x7 SWAP1 SWAP3 ADD SWAP2 DUP7 ADD SWAP1 PUSH2 0x876E JUMP JUMPDEST POP PUSH1 0x40 MLOAD DUP5 DUP2 MSTORE PUSH32 0x8E2298FFC95713BB8ACD959144050AB8CD87E6D8954F350A2D49449ED0F6EE33 SWAP1 PUSH1 0x20 ADD PUSH2 0x193C JUMP JUMPDEST PUSH2 0x395F CALLER PUSH2 0x3E09 JUMP JUMPDEST PUSH2 0x3968 JUMPI PUSH1 0x0 DUP1 REVERT JUMPDEST DUP2 PUSH1 0x18 PUSH1 0x0 DUP3 DUP2 MSTORE PUSH1 0xB PUSH1 0x20 MSTORE PUSH1 0x40 SWAP1 KECCAK256 PUSH1 0x2B ADD SLOAD PUSH1 0xFF AND PUSH1 0x19 DUP2 GT ISZERO PUSH2 0x3991 JUMPI PUSH2 0x3991 PUSH2 0x8EF2 JUMP JUMPDEST EQ PUSH2 0x399B JUMPI PUSH1 0x0 DUP1 REVERT JUMPDEST PUSH1 0x0 DUP4 DUP2 MSTORE PUSH1 0xB PUSH1 0x20 SWAP1 DUP2 MSTORE PUSH1 0x40 SWAP1 SWAP2 KECCAK256 DUP1 SLOAD CALLER PUSH1 0x1 PUSH1 0x1 PUSH1 0xA0 SHL SUB NOT SWAP2 DUP3 AND DUP2 OR DUP4 SSTORE PUSH1 0x28 DUP4 ADD DUP1 SLOAD SWAP1 SWAP3 AND OR SWAP1 SSTORE TIMESTAMP PUSH1 0x2A DUP3 ADD SSTORE DUP4 MLOAD PUSH2 0x39E5 SWAP3 PUSH1 0x29 SWAP1 SWAP3 ADD SWAP2 DUP6 ADD SWAP1 PUSH2 0x876E JUMP JUMPDEST POP PUSH1 0x0 DUP4 DUP2 MSTORE PUSH1 0xB PUSH1 0x20 SWAP1 DUP2 MSTORE PUSH1 0x40 DUP1 DUP4 KECCAK256 PUSH1 0x2B ADD DUP1 SLOAD PUSH1 0xFF NOT AND PUSH1 0x19 OR SWAP1 SSTORE PUSH1 0xC DUP3 MSTORE SWAP2 DUP3 SWAP1 KECCAK256 NUMBER PUSH1 0x5 SWAP1 SWAP2 ADD SSTORE SWAP1 MLOAD DUP5 DUP2 MSTORE PUSH32 0x4DF39D1B00B9EB27227F5B2731AF1A5C756969533540B415979CAA2B1ED02206 SWAP2 ADD PUSH2 0xA9A JUMP JUMPDEST PUSH1 0x0 PUSH2 0xAD2 PUSH1 0x6 DUP4 PUSH2 0x832A JUMP JUMPDEST PUSH2 0x3A57 CALLER PUSH2 0xAC5 JUMP JUMPDEST PUSH2 0x3A60 JUMPI PUSH1 0x0 DUP1 REVERT JUMPDEST DUP1 PUSH1 0x6 PUSH1 0x0 DUP3 DUP2 MSTORE PUSH1 0xB PUSH1 0x20 MSTORE PUSH1 0x40 SWAP1 KECCAK256 PUSH1 0x2B ADD SLOAD PUSH1 0xFF AND PUSH1 0x19 DUP2 GT ISZERO PUSH2 0x3A89 JUMPI PUSH2 0x3A89 PUSH2 0x8EF2 JUMP JUMPDEST EQ PUSH2 0x3A93 JUMPI PUSH1 0x0 DUP1 REVERT JUMPDEST PUSH1 0x0 DUP3 DUP2 MSTORE PUSH1 0xB PUSH1 0x20 MSTORE PUSH1 0x40 SWAP1 KECCAK256 SLOAD PUSH1 0x1 PUSH1 0x1 PUSH1 0xA0 SHL SUB AND CALLER DUP2 EQ PUSH2 0x3AB7 JUMPI PUSH1 0x0 DUP1 REVERT JUMPDEST PUSH1 0x0 DUP4 DUP2 MSTORE PUSH1 0xB PUSH1 0x20 SWAP1 DUP2 MSTORE PUSH1 0x40 SWAP2 DUP3 SWAP1 KECCAK256 PUSH1 0x2B ADD DUP1 SLOAD PUSH1 0xFF NOT AND PUSH1 0x7 OR SWAP1 SSTORE SWAP1 MLOAD DUP5 DUP2 MSTORE PUSH32 0xB08AAFF3F8C46416B680A72A3ADDD304F2E33C6D2438F4E91548520896CD038B SWAP2 ADD PUSH2 0xA9A JUMP JUMPDEST PUSH2 0x36EE CALLER PUSH2 0x8424 JUMP JUMPDEST PUSH2 0x3B16 CALLER PUSH2 0x3A41 JUMP JUMPDEST PUSH2 0x3B1F JUMPI PUSH1 0x0 DUP1 REVERT JUMPDEST DUP1 PUSH1 0x17 PUSH1 0x0 DUP3 DUP2 MSTORE PUSH1 0xB PUSH1 0x20 MSTORE PUSH1 0x40 SWAP1 KECCAK256 PUSH1 0x2B ADD SLOAD PUSH1 0xFF AND PUSH1 0x19 DUP2 GT ISZERO PUSH2 0x3B48 JUMPI PUSH2 0x3B48 PUSH2 0x8EF2 JUMP JUMPDEST EQ PUSH2 0x3B52 JUMPI PUSH1 0x0 DUP1 REVERT JUMPDEST PUSH1 0x0 DUP3 DUP2 MSTORE PUSH1 0xB PUSH1 0x20 MSTORE PUSH1 0x40 SWAP1 KECCAK256 SLOAD PUSH1 0x1 PUSH1 0x1 PUSH1 0xA0 SHL SUB AND CALLER DUP2 EQ PUSH2 0x3B76 JUMPI PUSH1 0x0 DUP1 REVERT JUMPDEST PUSH1 0x0 DUP4 DUP2 MSTORE PUSH1 0xB PUSH1 0x20 SWAP1 DUP2 MSTORE PUSH1 0x40 SWAP2 DUP3 SWAP1 KECCAK256 PUSH1 0x2B ADD DUP1 SLOAD PUSH1 0xFF NOT AND PUSH1 0x18 OR SWAP1 SSTORE SWAP1 MLOAD DUP5 DUP2 MSTORE PUSH32 0x59E7AD085805E2B02AD4B0F8033BD75E7EE4C8CD43F996267463585E35896252 SWAP2 ADD PUSH2 0xA9A JUMP JUMPDEST PUSH2 0x36EE CALLER PUSH2 0x8466 JUMP JUMPDEST PUSH2 0x3BD5 CALLER PUSH2 0x3FB1 JUMP JUMPDEST PUSH2 0x3BDE JUMPI PUSH1 0x0 DUP1 REVERT JUMPDEST DUP2 PUSH1 0x11 PUSH1 0x0 DUP3 DUP2 MSTORE PUSH1 0xB PUSH1 0x20 MSTORE PUSH1 0x40 SWAP1 KECCAK256 PUSH1 0x2B ADD SLOAD PUSH1 0xFF AND PUSH1 0x19 DUP2 GT ISZERO PUSH2 0x3C07 JUMPI PUSH2 0x3C07 PUSH2 0x8EF2 JUMP JUMPDEST EQ PUSH2 0x3C11 JUMPI PUSH1 0x0 DUP1 REVERT JUMPDEST PUSH1 0x0 DUP4 DUP2 MSTORE PUSH1 0xB PUSH1 0x20 MSTORE PUSH1 0x40 SWAP1 KECCAK256 SLOAD PUSH1 0x1 PUSH1 0x1 PUSH1 0xA0 SHL SUB AND CALLER DUP2 EQ PUSH2 0x3C35 JUMPI PUSH1 0x0 DUP1 REVERT JUMPDEST PUSH1 0x0 DUP5 DUP2 MSTORE PUSH1 0xB PUSH1 0x20 SWAP1 DUP2 MSTORE PUSH1 0x40 SWAP1 SWAP2 KECCAK256 PUSH1 0x2B DUP2 ADD DUP1 SLOAD PUSH1 0xFF NOT AND PUSH1 0x12 OR SWAP1 SSTORE DUP5 MLOAD PUSH2 0x3C67 SWAP3 SWAP2 DUP3 ADD SWAP2 DUP7 ADD SWAP1 PUSH2 0x876E JUMP JUMPDEST POP PUSH1 0x40 MLOAD DUP5 DUP2 MSTORE PUSH32 0x3AD20B3682CA16CC276EB05382B2460770786ABAB6F18305F8558C9F02CB84D5 SWAP1 PUSH1 0x20 ADD PUSH2 0x193C JUMP JUMPDEST PUSH1 0x8 SLOAD PUSH1 0x1 PUSH1 0x1 PUSH1 0xA0 SHL SUB AND CALLER EQ PUSH2 0x3CAF JUMPI PUSH1 0x0 DUP1 REVERT JUMPDEST PUSH1 0x0 DUP1 SLOAD PUSH1 0x40 MLOAD PUSH1 0x1 PUSH1 0x1 PUSH1 0xA0 SHL SUB SWAP1 SWAP2 AND SWAP1 PUSH32 0x5C486528EC3E3F0EA91181CFF8116F02BFA350E03B8B6F12E00765ADBB5AF85C SWAP1 DUP4 SWAP1 LOG3 PUSH1 0x0 DUP1 SLOAD PUSH1 0x1 PUSH1 0x1 PUSH1 0xA0 SHL SUB NOT AND SWAP1 SSTORE JUMP JUMPDEST PUSH2 0x3D02 CALLER PUSH2 0x3FB1 JUMP JUMPDEST PUSH2 0x3D0B JUMPI PUSH1 0x0 DUP1 REVERT JUMPDEST PUSH2 0xAC2 DUP2 PUSH2 0x84A8 JUMP JUMPDEST PUSH2 0x3D1D CALLER PUSH2 0x3FB1 JUMP JUMPDEST PUSH2 0x3D26 JUMPI PUSH1 0x0 DUP1 REVERT JUMPDEST DUP1 PUSH1 0x12 PUSH1 0x0 DUP3 DUP2 MSTORE PUSH1 0xB PUSH1 0x20 MSTORE PUSH1 0x40 SWAP1 KECCAK256 PUSH1 0x2B ADD SLOAD PUSH1 0xFF AND PUSH1 0x19 DUP2 GT ISZERO PUSH2 0x3D4F JUMPI PUSH2 0x3D4F PUSH2 0x8EF2 JUMP JUMPDEST EQ PUSH2 0x3D59 JUMPI PUSH1 0x0 DUP1 REVERT JUMPDEST PUSH1 0x0 DUP3 DUP2 MSTORE PUSH1 0xB PUSH1 0x20 MSTORE PUSH1 0x40 SWAP1 KECCAK256 SLOAD PUSH1 0x1 PUSH1 0x1 PUSH1 0xA0 SHL SUB AND CALLER DUP2 EQ PUSH2 0x3D7D JUMPI PUSH1 0x0 DUP1 REVERT JUMPDEST PUSH1 0x0 DUP4 DUP2 MSTORE PUSH1 0xB PUSH1 0x20 SWAP1 DUP2 MSTORE PUSH1 0x40 SWAP2 DUP3 SWAP1 KECCAK256 PUSH1 0x2B ADD DUP1 SLOAD PUSH1 0xFF NOT AND PUSH1 0x13 OR SWAP1 SSTORE SWAP1 MLOAD DUP5 DUP2 MSTORE PUSH32 0x539B4A835A8A5D1BC5756A9F146E2BFEAA6BD6B1FA77A7631C0A5154C86CDD03 SWAP2 ADD PUSH2 0xA9A JUMP JUMPDEST PUSH2 0x3DD3 CALLER PUSH2 0xAC5 JUMP JUMPDEST PUSH2 0x3DDC JUMPI PUSH1 0x0 DUP1 REVERT JUMPDEST PUSH2 0xAC2 DUP2 PUSH2 0x84EA JUMP JUMPDEST PUSH2 0x3DEE CALLER PUSH2 0x4F40 JUMP JUMPDEST PUSH2 0x3DF7 JUMPI PUSH1 0x0 DUP1 REVERT JUMPDEST PUSH2 0xAC2 DUP2 PUSH2 0x852C JUMP JUMPDEST PUSH2 0x36EE CALLER PUSH2 0x856E JUMP JUMPDEST PUSH1 0x0 PUSH2 0xAD2 PUSH1 0x7 DUP4 PUSH2 0x832A JUMP JUMPDEST PUSH2 0x3E1F CALLER PUSH2 0xAC5 JUMP JUMPDEST PUSH2 0x3E28 JUMPI PUSH1 0x0 DUP1 REVERT JUMPDEST DUP1 PUSH1 0x3 PUSH1 0x0 DUP3 DUP2 MSTORE PUSH1 0xB PUSH1 0x20 MSTORE PUSH1 0x40 SWAP1 KECCAK256 PUSH1 0x2B ADD SLOAD PUSH1 0xFF AND PUSH1 0x19 DUP2 GT ISZERO PUSH2 0x3E51 JUMPI PUSH2 0x3E51 PUSH2 0x8EF2 JUMP JUMPDEST EQ PUSH2 0x3E5B JUMPI PUSH1 0x0 DUP1 REVERT JUMPDEST PUSH1 0x0 DUP3 DUP2 MSTORE PUSH1 0xB PUSH1 0x20 DUP2 DUP2 MSTORE PUSH1 0x40 DUP1 DUP5 KECCAK256 DUP1 SLOAD PUSH1 0x1 PUSH1 0x1 PUSH1 0xA0 SHL SUB NOT SWAP1 DUP2 AND CALLER SWAP1 DUP2 OR DUP4 SSTORE SWAP5 DUP3 ADD DUP1 SLOAD SWAP1 SWAP2 AND SWAP1 SWAP5 OR SWAP1 SWAP4 SSTORE PUSH1 0x2B SWAP1 SWAP3 ADD DUP1 SLOAD PUSH1 0xFF NOT AND PUSH1 0x4 OR SWAP1 SSTORE PUSH1 0xC DUP2 MSTORE SWAP2 DUP2 SWAP1 KECCAK256 NUMBER SWAP1 SSTORE MLOAD DUP4 DUP2 MSTORE PUSH32 0x4DD7033ED3DCF232309D09D67AB4BB185CD9A35B4CC73C6767D09F26C3EECF5D SWAP2 ADD PUSH2 0x28E2 JUMP JUMPDEST PUSH2 0x3EDE CALLER PUSH2 0xAD8 JUMP JUMPDEST PUSH2 0x3EE7 JUMPI PUSH1 0x0 DUP1 REVERT JUMPDEST DUP1 PUSH1 0xF PUSH1 0x0 DUP3 DUP2 MSTORE PUSH1 0xB PUSH1 0x20 MSTORE PUSH1 0x40 SWAP1 KECCAK256 PUSH1 0x2B ADD SLOAD PUSH1 0xFF AND PUSH1 0x19 DUP2 GT ISZERO PUSH2 0x3F10 JUMPI PUSH2 0x3F10 PUSH2 0x8EF2 JUMP JUMPDEST EQ PUSH2 0x3F1A JUMPI PUSH1 0x0 DUP1 REVERT JUMPDEST PUSH1 0x0 DUP3 DUP2 MSTORE PUSH1 0xB PUSH1 0x20 MSTORE PUSH1 0x40 SWAP1 KECCAK256 PUSH1 0x17 ADD SLOAD PUSH1 0x1 PUSH1 0x1 PUSH1 0xA0 SHL SUB AND CALLER DUP2 EQ PUSH2 0x3F41 JUMPI PUSH1 0x0 DUP1 REVERT JUMPDEST PUSH1 0x0 DUP4 DUP2 MSTORE PUSH1 0xB PUSH1 0x20 SWAP1 DUP2 MSTORE PUSH1 0x40 SWAP2 DUP3 SWAP1 KECCAK256 PUSH1 0x2B DUP2 ADD DUP1 SLOAD PUSH1 0xFF NOT AND PUSH1 0x10 OR SWAP1 SSTORE TIMESTAMP PUSH1 0x1E SWAP1 SWAP2 ADD SSTORE SWAP1 MLOAD DUP5 DUP2 MSTORE PUSH32 0x472063B547A8D7724E029EAA0F6D0D287C855C575396B23432CAFCDB5706D058 SWAP2 ADD PUSH2 0xA9A JUMP JUMPDEST PUSH2 0x3F9F CALLER PUSH2 0x3A41 JUMP JUMPDEST PUSH2 0x3FA8 JUMPI PUSH1 0x0 DUP1 REVERT JUMPDEST PUSH2 0xAC2 DUP2 PUSH2 0x85B0 JUMP JUMPDEST PUSH1 0x0 PUSH2 0xAD2 PUSH1 0x5 DUP4 PUSH2 0x832A JUMP JUMPDEST PUSH2 0x3FC7 CALLER PUSH2 0xAC5 JUMP JUMPDEST PUSH2 0x3FD0 JUMPI PUSH1 0x0 DUP1 REVERT JUMPDEST DUP4 PUSH1 0x4 PUSH1 0x0 DUP3 DUP2 MSTORE PUSH1 0xB PUSH1 0x20 MSTORE PUSH1 0x40 SWAP1 KECCAK256 PUSH1 0x2B ADD SLOAD PUSH1 0xFF AND PUSH1 0x19 DUP2 GT ISZERO PUSH2 0x3FF9 JUMPI PUSH2 0x3FF9 PUSH2 0x8EF2 JUMP JUMPDEST EQ PUSH2 0x4003 JUMPI PUSH1 0x0 DUP1 REVERT JUMPDEST PUSH1 0x0 DUP6 DUP2 MSTORE PUSH1 0xB PUSH1 0x20 MSTORE PUSH1 0x40 SWAP1 KECCAK256 SLOAD PUSH1 0x1 PUSH1 0x1 PUSH1 0xA0 SHL SUB AND CALLER DUP2 EQ PUSH2 0x4027 JUMPI PUSH1 0x0 DUP1 REVERT JUMPDEST PUSH1 0x0 DUP7 DUP2 MSTORE PUSH1 0xB PUSH1 0x20 SWAP1 DUP2 MSTORE PUSH1 0x40 SWAP1 SWAP2 KECCAK256 TIMESTAMP PUSH1 0x10 DUP3 ADD SSTORE DUP7 MLOAD PUSH2 0x4052 SWAP3 PUSH1 0xC SWAP1 SWAP3 ADD SWAP2 DUP9 ADD SWAP1 PUSH2 0x876E JUMP JUMPDEST POP PUSH1 0x0 DUP7 DUP2 MSTORE PUSH1 0xB PUSH1 0x20 SWAP1 DUP2 MSTORE PUSH1 0x40 SWAP1 SWAP2 KECCAK256 DUP6 MLOAD PUSH2 0x4078 SWAP3 PUSH1 0xD SWAP1 SWAP3 ADD SWAP2 DUP8 ADD SWAP1 PUSH2 0x876E JUMP JUMPDEST POP PUSH1 0x0 DUP7 DUP2 MSTORE PUSH1 0xB PUSH1 0x20 SWAP1 DUP2 MSTORE PUSH1 0x40 SWAP1 SWAP2 KECCAK256 DUP5 MLOAD PUSH2 0x409E SWAP3 PUSH1 0xE SWAP1 SWAP3 ADD SWAP2 DUP7 ADD SWAP1 PUSH2 0x876E JUMP JUMPDEST POP PUSH1 0x0 DUP7 DUP2 MSTORE PUSH1 0xB PUSH1 0x20 SWAP1 DUP2 MSTORE PUSH1 0x40 SWAP2 DUP3 SWAP1 KECCAK256 PUSH1 0x2B ADD DUP1 SLOAD PUSH1 0xFF NOT AND PUSH1 0x5 OR SWAP1 SSTORE SWAP1 MLOAD DUP8 DUP2 MSTORE PUSH32 0xD3234C79BB7FDA55FDDDE9316E98A91B781126438795A393BAD7A4100D6AC5F3 SWAP2 ADD PUSH2 0x9D8 JUMP JUMPDEST PUSH2 0x40F5 CALLER PUSH2 0x29A0 JUMP JUMPDEST PUSH2 0x40FE JUMPI PUSH1 0x0 DUP1 REVERT JUMPDEST DUP3 PUSH1 0x9 PUSH1 0x0 DUP3 DUP2 MSTORE PUSH1 0xB PUSH1 0x20 MSTORE PUSH1 0x40 SWAP1 KECCAK256 PUSH1 0x2B ADD SLOAD PUSH1 0xFF AND PUSH1 0x19 DUP2 GT ISZERO PUSH2 0x4127 JUMPI PUSH2 0x4127 PUSH2 0x8EF2 JUMP JUMPDEST EQ PUSH2 0x4131 JUMPI PUSH1 0x0 DUP1 REVERT JUMPDEST PUSH1 0x0 DUP5 DUP2 MSTORE PUSH1 0xB PUSH1 0x20 SWAP1 DUP2 MSTORE PUSH1 0x40 SWAP1 SWAP2 KECCAK256 PUSH1 0x12 DUP2 ADD DUP1 SLOAD PUSH1 0x1 PUSH1 0x1 PUSH1 0xA0 SHL SUB NOT AND CALLER OR SWAP1 SSTORE DUP5 MLOAD PUSH2 0x416A SWAP3 PUSH1 0x13 SWAP1 SWAP3 ADD SWAP2 DUP7 ADD SWAP1 PUSH2 0x876E JUMP JUMPDEST POP PUSH1 0x0 DUP5 DUP2 MSTORE PUSH1 0xB PUSH1 0x20 SWAP1 DUP2 MSTORE PUSH1 0x40 SWAP1 SWAP2 KECCAK256 DUP4 MLOAD PUSH2 0x4190 SWAP3 PUSH1 0x14 SWAP1 SWAP3 ADD SWAP2 DUP6 ADD SWAP1 PUSH2 0x876E JUMP JUMPDEST POP PUSH1 0x0 DUP5 DUP2 MSTORE PUSH1 0xB PUSH1 0x20 SWAP1 DUP2 MSTORE PUSH1 0x40 DUP1 DUP4 KECCAK256 PUSH1 0x2B DUP2 ADD DUP1 SLOAD PUSH1 0xFF NOT AND PUSH1 0xA OR SWAP1 SSTORE TIMESTAMP PUSH1 0x16 SWAP1 SWAP2 ADD SSTORE PUSH1 0xC DUP3 MSTORE SWAP2 DUP3 SWAP1 KECCAK256 NUMBER PUSH1 0x2 SWAP1 SWAP2 ADD SSTORE SWAP1 MLOAD DUP6 DUP2 MSTORE PUSH32 0x3929A8380599BF812215E48DE344DD9919B69C4119C3B3B0B2DA4054637BE903 SWAP2 ADD PUSH2 0x193C JUMP JUMPDEST PUSH1 0x0 DUP2 DUP2 MSTORE PUSH1 0xB PUSH1 0x20 SWAP1 DUP2 MSTORE PUSH1 0x40 DUP1 DUP4 KECCAK256 DUP2 MLOAD PUSH2 0x580 DUP2 ADD DUP4 MSTORE DUP2 SLOAD PUSH1 0x1 PUSH1 0x1 PUSH1 0xA0 SHL SUB SWAP1 DUP2 AND DUP3 MSTORE PUSH1 0x1 DUP4 ADD SLOAD SWAP5 DUP3 ADD SWAP5 SWAP1 SWAP5 MSTORE PUSH1 0x2 DUP3 ADD SLOAD SWAP3 DUP2 ADD SWAP3 SWAP1 SWAP3 MSTORE PUSH1 0x3 DUP2 ADD SLOAD PUSH1 0x60 DUP4 DUP2 ADD SWAP2 SWAP1 SWAP2 MSTORE PUSH1 0x4 DUP3 ADD SLOAD SWAP1 SWAP4 AND PUSH1 0x80 DUP4 ADD MSTORE PUSH1 0x5 DUP2 ADD DUP1 SLOAD DUP5 SWAP4 DUP7 SWAP4 DUP5 SWAP4 SWAP2 SWAP3 SWAP1 SWAP2 PUSH1 0xA0 DUP5 ADD SWAP2 PUSH2 0x426E SWAP1 PUSH2 0x8E86 JUMP JUMPDEST DUP1 PUSH1 0x1F ADD PUSH1 0x20 DUP1 SWAP2 DIV MUL PUSH1 0x20 ADD PUSH1 0x40 MLOAD SWAP1 DUP2 ADD PUSH1 0x40 MSTORE DUP1 SWAP3 SWAP2 SWAP1 DUP2 DUP2 MSTORE PUSH1 0x20 ADD DUP3 DUP1 SLOAD PUSH2 0x429A SWAP1 PUSH2 0x8E86 JUMP JUMPDEST DUP1 ISZERO PUSH2 0x42E7 JUMPI DUP1 PUSH1 0x1F LT PUSH2 0x42BC JUMPI PUSH2 0x100 DUP1 DUP4 SLOAD DIV MUL DUP4 MSTORE SWAP2 PUSH1 0x20 ADD SWAP2 PUSH2 0x42E7 JUMP JUMPDEST DUP3 ADD SWAP2 SWAP1 PUSH1 0x0 MSTORE PUSH1 0x20 PUSH1 0x0 KECCAK256 SWAP1 JUMPDEST DUP2 SLOAD DUP2 MSTORE SWAP1 PUSH1 0x1 ADD SWAP1 PUSH1 0x20 ADD DUP1 DUP4 GT PUSH2 0x42CA JUMPI DUP3 SWAP1 SUB PUSH1 0x1F AND DUP3 ADD SWAP2 JUMPDEST POP POP POP POP POP DUP2 MSTORE PUSH1 0x20 ADD PUSH1 0x6 DUP3 ADD DUP1 SLOAD PUSH2 0x4300 SWAP1 PUSH2 0x8E86 JUMP JUMPDEST DUP1 PUSH1 0x1F ADD PUSH1 0x20 DUP1 SWAP2 DIV MUL PUSH1 0x20 ADD PUSH1 0x40 MLOAD SWAP1 DUP2 ADD PUSH1 0x40 MSTORE DUP1 SWAP3 SWAP2 SWAP1 DUP2 DUP2 MSTORE PUSH1 0x20 ADD DUP3 DUP1 SLOAD PUSH2 0x432C SWAP1 PUSH2 0x8E86 JUMP JUMPDEST DUP1 ISZERO PUSH2 0x4379 JUMPI DUP1 PUSH1 0x1F LT PUSH2 0x434E JUMPI PUSH2 0x100 DUP1 DUP4 SLOAD DIV MUL DUP4 MSTORE SWAP2 PUSH1 0x20 ADD SWAP2 PUSH2 0x4379 JUMP JUMPDEST DUP3 ADD SWAP2 SWAP1 PUSH1 0x0 MSTORE PUSH1 0x20 PUSH1 0x0 KECCAK256 SWAP1 JUMPDEST DUP2 SLOAD DUP2 MSTORE SWAP1 PUSH1 0x1 ADD SWAP1 PUSH1 0x20 ADD DUP1 DUP4 GT PUSH2 0x435C JUMPI DUP3 SWAP1 SUB PUSH1 0x1F AND DUP3 ADD SWAP2 JUMPDEST POP POP POP POP POP DUP2 MSTORE PUSH1 0x20 ADD PUSH1 0x7 DUP3 ADD DUP1 SLOAD PUSH2 0x4392 SWAP1 PUSH2 0x8E86 JUMP JUMPDEST DUP1 PUSH1 0x1F ADD PUSH1 0x20 DUP1 SWAP2 DIV MUL PUSH1 0x20 ADD PUSH1 0x40 MLOAD SWAP1 DUP2 ADD PUSH1 0x40 MSTORE DUP1 SWAP3 SWAP2 SWAP1 DUP2 DUP2 MSTORE PUSH1 0x20 ADD DUP3 DUP1 SLOAD PUSH2 0x43BE SWAP1 PUSH2 0x8E86 JUMP JUMPDEST DUP1 ISZERO PUSH2 0x440B JUMPI DUP1 PUSH1 0x1F LT PUSH2 0x43E0 JUMPI PUSH2 0x100 DUP1 DUP4 SLOAD DIV MUL DUP4 MSTORE SWAP2 PUSH1 0x20 ADD SWAP2 PUSH2 0x440B JUMP JUMPDEST DUP3 ADD SWAP2 SWAP1 PUSH1 0x0 MSTORE PUSH1 0x20 PUSH1 0x0 KECCAK256 SWAP1 JUMPDEST DUP2 SLOAD DUP2 MSTORE SWAP1 PUSH1 0x1 ADD SWAP1 PUSH1 0x20 ADD DUP1 DUP4 GT PUSH2 0x43EE JUMPI DUP3 SWAP1 SUB PUSH1 0x1F AND DUP3 ADD SWAP2 JUMPDEST POP POP POP POP POP DUP2 MSTORE PUSH1 0x20 ADD PUSH1 0x8 DUP3 ADD DUP1 SLOAD PUSH2 0x4424 SWAP1 PUSH2 0x8E86 JUMP JUMPDEST DUP1 PUSH1 0x1F ADD PUSH1 0x20 DUP1 SWAP2 DIV MUL PUSH1 0x20 ADD PUSH1 0x40 MLOAD SWAP1 DUP2 ADD PUSH1 0x40 MSTORE DUP1 SWAP3 SWAP2 SWAP1 DUP2 DUP2 MSTORE PUSH1 0x20 ADD DUP3 DUP1 SLOAD PUSH2 0x4450 SWAP1 PUSH2 0x8E86 JUMP JUMPDEST DUP1 ISZERO PUSH2 0x449D JUMPI DUP1 PUSH1 0x1F LT PUSH2 0x4472 JUMPI PUSH2 0x100 DUP1 DUP4 SLOAD DIV MUL DUP4 MSTORE SWAP2 PUSH1 0x20 ADD SWAP2 PUSH2 0x449D JUMP JUMPDEST DUP3 ADD SWAP2 SWAP1 PUSH1 0x0 MSTORE PUSH1 0x20 PUSH1 0x0 KECCAK256 SWAP1 JUMPDEST DUP2 SLOAD DUP2 MSTORE SWAP1 PUSH1 0x1 ADD SWAP1 PUSH1 0x20 ADD DUP1 DUP4 GT PUSH2 0x4480 JUMPI DUP3 SWAP1 SUB PUSH1 0x1F AND DUP3 ADD SWAP2 JUMPDEST POP POP POP SWAP2 DUP4 MSTORE POP POP PUSH1 0x9 DUP3 ADD SLOAD PUSH1 0x20 DUP3 ADD MSTORE PUSH1 0xA DUP3 ADD SLOAD PUSH1 0x40 DUP3 ADD MSTORE PUSH1 0xB DUP3 ADD SLOAD PUSH1 0x1 PUSH1 0x1 PUSH1 0xA0 SHL SUB AND PUSH1 0x60 DUP3 ADD MSTORE PUSH1 0xC DUP3 ADD DUP1 SLOAD PUSH1 0x80 SWAP1 SWAP3 ADD SWAP2 PUSH2 0x44E1 SWAP1 PUSH2 0x8E86 JUMP JUMPDEST DUP1 PUSH1 0x1F ADD PUSH1 0x20 DUP1 SWAP2 DIV MUL PUSH1 0x20 ADD PUSH1 0x40 MLOAD SWAP1 DUP2 ADD PUSH1 0x40 MSTORE DUP1 SWAP3 SWAP2 SWAP1 DUP2 DUP2 MSTORE PUSH1 0x20 ADD DUP3 DUP1 SLOAD PUSH2 0x450D SWAP1 PUSH2 0x8E86 JUMP JUMPDEST DUP1 ISZERO PUSH2 0x455A JUMPI DUP1 PUSH1 0x1F LT PUSH2 0x452F JUMPI PUSH2 0x100 DUP1 DUP4 SLOAD DIV MUL DUP4 MSTORE SWAP2 PUSH1 0x20 ADD SWAP2 PUSH2 0x455A JUMP JUMPDEST DUP3 ADD SWAP2 SWAP1 PUSH1 0x0 MSTORE PUSH1 0x20 PUSH1 0x0 KECCAK256 SWAP1 JUMPDEST DUP2 SLOAD DUP2 MSTORE SWAP1 PUSH1 0x1 ADD SWAP1 PUSH1 0x20 ADD DUP1 DUP4 GT PUSH2 0x453D JUMPI DUP3 SWAP1 SUB PUSH1 0x1F AND DUP3 ADD SWAP2 JUMPDEST POP POP POP POP POP DUP2 MSTORE PUSH1 0x20 ADD PUSH1 0xD DUP3 ADD DUP1 SLOAD PUSH2 0x4573 SWAP1 PUSH2 0x8E86 JUMP JUMPDEST DUP1 PUSH1 0x1F ADD PUSH1 0x20 DUP1 SWAP2 DIV MUL PUSH1 0x20 ADD PUSH1 0x40 MLOAD SWAP1 DUP2 ADD PUSH1 0x40 MSTORE DUP1 SWAP3 SWAP2 SWAP1 DUP2 DUP2 MSTORE PUSH1 0x20 ADD DUP3 DUP1 SLOAD PUSH2 0x459F SWAP1 PUSH2 0x8E86 JUMP JUMPDEST DUP1 ISZERO PUSH2 0x45EC JUMPI DUP1 PUSH1 0x1F LT PUSH2 0x45C1 JUMPI PUSH2 0x100 DUP1 DUP4 SLOAD DIV MUL DUP4 MSTORE SWAP2 PUSH1 0x20 ADD SWAP2 PUSH2 0x45EC JUMP JUMPDEST DUP3 ADD SWAP2 SWAP1 PUSH1 0x0 MSTORE PUSH1 0x20 PUSH1 0x0 KECCAK256 SWAP1 JUMPDEST DUP2 SLOAD DUP2 MSTORE SWAP1 PUSH1 0x1 ADD SWAP1 PUSH1 0x20 ADD DUP1 DUP4 GT PUSH2 0x45CF JUMPI DUP3 SWAP1 SUB PUSH1 0x1F AND DUP3 ADD SWAP2 JUMPDEST POP POP POP POP POP DUP2 MSTORE PUSH1 0x20 ADD PUSH1 0xE DUP3 ADD DUP1 SLOAD PUSH2 0x4605 SWAP1 PUSH2 0x8E86 JUMP JUMPDEST DUP1 PUSH1 0x1F ADD PUSH1 0x20 DUP1 SWAP2 DIV MUL PUSH1 0x20 ADD PUSH1 0x40 MLOAD SWAP1 DUP2 ADD PUSH1 0x40 MSTORE DUP1 SWAP3 SWAP2 SWAP1 DUP2 DUP2 MSTORE PUSH1 0x20 ADD DUP3 DUP1 SLOAD PUSH2 0x4631 SWAP1 PUSH2 0x8E86 JUMP JUMPDEST DUP1 ISZERO PUSH2 0x467E JUMPI DUP1 PUSH1 0x1F LT PUSH2 0x4653 JUMPI PUSH2 0x100 DUP1 DUP4 SLOAD DIV MUL DUP4 MSTORE SWAP2 PUSH1 0x20 ADD SWAP2 PUSH2 0x467E JUMP JUMPDEST DUP3 ADD SWAP2 SWAP1 PUSH1 0x0 MSTORE PUSH1 0x20 PUSH1 0x0 KECCAK256 SWAP1 JUMPDEST DUP2 SLOAD DUP2 MSTORE SWAP1 PUSH1 0x1 ADD SWAP1 PUSH1 0x20 ADD DUP1 DUP4 GT PUSH2 0x4661 JUMPI DUP3 SWAP1 SUB PUSH1 0x1F AND DUP3 ADD SWAP2 JUMPDEST POP POP POP POP POP DUP2 MSTORE PUSH1 0x20 ADD PUSH1 0xF DUP3 ADD DUP1 SLOAD PUSH2 0x4697 SWAP1 PUSH2 0x8E86 JUMP JUMPDEST DUP1 PUSH1 0x1F ADD PUSH1 0x20 DUP1 SWAP2 DIV MUL PUSH1 0x20 ADD PUSH1 0x40 MLOAD SWAP1 DUP2 ADD PUSH1 0x40 MSTORE DUP1 SWAP3 SWAP2 SWAP1 DUP2 DUP2 MSTORE PUSH1 0x20 ADD DUP3 DUP1 SLOAD PUSH2 0x46C3 SWAP1 PUSH2 0x8E86 JUMP JUMPDEST DUP1 ISZERO PUSH2 0x4710 JUMPI DUP1 PUSH1 0x1F LT PUSH2 0x46E5 JUMPI PUSH2 0x100 DUP1 DUP4 SLOAD DIV MUL DUP4 MSTORE SWAP2 PUSH1 0x20 ADD SWAP2 PUSH2 0x4710 JUMP JUMPDEST DUP3 ADD SWAP2 SWAP1 PUSH1 0x0 MSTORE PUSH1 0x20 PUSH1 0x0 KECCAK256 SWAP1 JUMPDEST DUP2 SLOAD DUP2 MSTORE SWAP1 PUSH1 0x1 ADD SWAP1 PUSH1 0x20 ADD DUP1 DUP4 GT PUSH2 0x46F3 JUMPI DUP3 SWAP1 SUB PUSH1 0x1F AND DUP3 ADD SWAP2 JUMPDEST POP POP POP SWAP2 DUP4 MSTORE POP POP PUSH1 0x10 DUP3 ADD SLOAD PUSH1 0x20 DUP3 ADD MSTORE PUSH1 0x11 DUP3 ADD SLOAD PUSH1 0x40 DUP3 ADD MSTORE PUSH1 0x12 DUP3 ADD SLOAD PUSH1 0x1 PUSH1 0x1 PUSH1 0xA0 SHL SUB AND PUSH1 0x60 DUP3 ADD MSTORE PUSH1 0x13 DUP3 ADD DUP1 SLOAD PUSH1 0x80 SWAP1 SWAP3 ADD SWAP2 PUSH2 0x4754 SWAP1 PUSH2 0x8E86 JUMP JUMPDEST DUP1 PUSH1 0x1F ADD PUSH1 0x20 DUP1 SWAP2 DIV MUL PUSH1 0x20 ADD PUSH1 0x40 MLOAD SWAP1 DUP2 ADD PUSH1 0x40 MSTORE DUP1 SWAP3 SWAP2 SWAP1 DUP2 DUP2 MSTORE PUSH1 0x20 ADD DUP3 DUP1 SLOAD PUSH2 0x4780 SWAP1 PUSH2 0x8E86 JUMP JUMPDEST DUP1 ISZERO PUSH2 0x47CD JUMPI DUP1 PUSH1 0x1F LT PUSH2 0x47A2 JUMPI PUSH2 0x100 DUP1 DUP4 SLOAD DIV MUL DUP4 MSTORE SWAP2 PUSH1 0x20 ADD SWAP2 PUSH2 0x47CD JUMP JUMPDEST DUP3 ADD SWAP2 SWAP1 PUSH1 0x0 MSTORE PUSH1 0x20 PUSH1 0x0 KECCAK256 SWAP1 JUMPDEST DUP2 SLOAD DUP2 MSTORE SWAP1 PUSH1 0x1 ADD SWAP1 PUSH1 0x20 ADD DUP1 DUP4 GT PUSH2 0x47B0 JUMPI DUP3 SWAP1 SUB PUSH1 0x1F AND DUP3 ADD SWAP2 JUMPDEST POP POP POP POP POP DUP2 MSTORE PUSH1 0x20 ADD PUSH1 0x14 DUP3 ADD DUP1 SLOAD PUSH2 0x47E6 SWAP1 PUSH2 0x8E86 JUMP JUMPDEST DUP1 PUSH1 0x1F ADD PUSH1 0x20 DUP1 SWAP2 DIV MUL PUSH1 0x20 ADD PUSH1 0x40 MLOAD SWAP1 DUP2 ADD PUSH1 0x40 MSTORE DUP1 SWAP3 SWAP2 SWAP1 DUP2 DUP2 MSTORE PUSH1 0x20 ADD DUP3 DUP1 SLOAD PUSH2 0x4812 SWAP1 PUSH2 0x8E86 JUMP JUMPDEST DUP1 ISZERO PUSH2 0x485F JUMPI DUP1 PUSH1 0x1F LT PUSH2 0x4834 JUMPI PUSH2 0x100 DUP1 DUP4 SLOAD DIV MUL DUP4 MSTORE SWAP2 PUSH1 0x20 ADD SWAP2 PUSH2 0x485F JUMP JUMPDEST DUP3 ADD SWAP2 SWAP1 PUSH1 0x0 MSTORE PUSH1 0x20 PUSH1 0x0 KECCAK256 SWAP1 JUMPDEST DUP2 SLOAD DUP2 MSTORE SWAP1 PUSH1 0x1 ADD SWAP1 PUSH1 0x20 ADD DUP1 DUP4 GT PUSH2 0x4842 JUMPI DUP3 SWAP1 SUB PUSH1 0x1F AND DUP3 ADD SWAP2 JUMPDEST POP POP POP SWAP2 DUP4 MSTORE POP POP PUSH1 0x15 DUP3 ADD SLOAD PUSH1 0x20 DUP3 ADD MSTORE PUSH1 0x16 DUP3 ADD SLOAD PUSH1 0x40 DUP3 ADD MSTORE PUSH1 0x17 DUP3 ADD SLOAD PUSH1 0x1 PUSH1 0x1 PUSH1 0xA0 SHL SUB AND PUSH1 0x60 DUP3 ADD MSTORE PUSH1 0x18 DUP3 ADD DUP1 SLOAD PUSH1 0x80 SWAP1 SWAP3 ADD SWAP2 PUSH2 0x48A3 SWAP1 PUSH2 0x8E86 JUMP JUMPDEST DUP1 PUSH1 0x1F ADD PUSH1 0x20 DUP1 SWAP2 DIV MUL PUSH1 0x20 ADD PUSH1 0x40 MLOAD SWAP1 DUP2 ADD PUSH1 0x40 MSTORE DUP1 SWAP3 SWAP2 SWAP1 DUP2 DUP2 MSTORE PUSH1 0x20 ADD DUP3 DUP1 SLOAD PUSH2 0x48CF SWAP1 PUSH2 0x8E86 JUMP JUMPDEST DUP1 ISZERO PUSH2 0x491C JUMPI DUP1 PUSH1 0x1F LT PUSH2 0x48F1 JUMPI PUSH2 0x100 DUP1 DUP4 SLOAD DIV MUL DUP4 MSTORE SWAP2 PUSH1 0x20 ADD SWAP2 PUSH2 0x491C JUMP JUMPDEST DUP3 ADD SWAP2 SWAP1 PUSH1 0x0 MSTORE PUSH1 0x20 PUSH1 0x0 KECCAK256 SWAP1 JUMPDEST DUP2 SLOAD DUP2 MSTORE SWAP1 PUSH1 0x1 ADD SWAP1 PUSH1 0x20 ADD DUP1 DUP4 GT PUSH2 0x48FF JUMPI DUP3 SWAP1 SUB PUSH1 0x1F AND DUP3 ADD SWAP2 JUMPDEST POP POP POP POP POP DUP2 MSTORE PUSH1 0x20 ADD PUSH1 0x19 DUP3 ADD DUP1 SLOAD PUSH2 0x4935 SWAP1 PUSH2 0x8E86 JUMP JUMPDEST DUP1 PUSH1 0x1F ADD PUSH1 0x20 DUP1 SWAP2 DIV MUL PUSH1 0x20 ADD PUSH1 0x40 MLOAD SWAP1 DUP2 ADD PUSH1 0x40 MSTORE DUP1 SWAP3 SWAP2 SWAP1 DUP2 DUP2 MSTORE PUSH1 0x20 ADD DUP3 DUP1 SLOAD PUSH2 0x4961 SWAP1 PUSH2 0x8E86 JUMP JUMPDEST DUP1 ISZERO PUSH2 0x49AE JUMPI DUP1 PUSH1 0x1F LT PUSH2 0x4983 JUMPI PUSH2 0x100 DUP1 DUP4 SLOAD DIV MUL DUP4 MSTORE SWAP2 PUSH1 0x20 ADD SWAP2 PUSH2 0x49AE JUMP JUMPDEST DUP3 ADD SWAP2 SWAP1 PUSH1 0x0 MSTORE PUSH1 0x20 PUSH1 0x0 KECCAK256 SWAP1 JUMPDEST DUP2 SLOAD DUP2 MSTORE SWAP1 PUSH1 0x1 ADD SWAP1 PUSH1 0x20 ADD DUP1 DUP4 GT PUSH2 0x4991 JUMPI DUP3 SWAP1 SUB PUSH1 0x1F AND DUP3 ADD SWAP2 JUMPDEST POP POP POP POP POP DUP2 MSTORE PUSH1 0x20 ADD PUSH1 0x1A DUP3 ADD DUP1 SLOAD PUSH2 0x49C7 SWAP1 PUSH2 0x8E86 JUMP JUMPDEST DUP1 PUSH1 0x1F ADD PUSH1 0x20 DUP1 SWAP2 DIV MUL PUSH1 0x20 ADD PUSH1 0x40 MLOAD SWAP1 DUP2 ADD PUSH1 0x40 MSTORE DUP1 SWAP3 SWAP2 SWAP1 DUP2 DUP2 MSTORE PUSH1 0x20 ADD DUP3 DUP1 SLOAD PUSH2 0x49F3 SWAP1 PUSH2 0x8E86 JUMP JUMPDEST DUP1 ISZERO PUSH2 0x4A40 JUMPI DUP1 PUSH1 0x1F LT PUSH2 0x4A15 JUMPI PUSH2 0x100 DUP1 DUP4 SLOAD DIV MUL DUP4 MSTORE SWAP2 PUSH1 0x20 ADD SWAP2 PUSH2 0x4A40 JUMP JUMPDEST DUP3 ADD SWAP2 SWAP1 PUSH1 0x0 MSTORE PUSH1 0x20 PUSH1 0x0 KECCAK256 SWAP1 JUMPDEST DUP2 SLOAD DUP2 MSTORE SWAP1 PUSH1 0x1 ADD SWAP1 PUSH1 0x20 ADD DUP1 DUP4 GT PUSH2 0x4A23 JUMPI DUP3 SWAP1 SUB PUSH1 0x1F AND DUP3 ADD SWAP2 JUMPDEST POP POP POP POP POP DUP2 MSTORE PUSH1 0x20 ADD PUSH1 0x1B DUP3 ADD DUP1 SLOAD PUSH2 0x4A59 SWAP1 PUSH2 0x8E86 JUMP JUMPDEST DUP1 PUSH1 0x1F ADD PUSH1 0x20 DUP1 SWAP2 DIV MUL PUSH1 0x20 ADD PUSH1 0x40 MLOAD SWAP1 DUP2 ADD PUSH1 0x40 MSTORE DUP1 SWAP3 SWAP2 SWAP1 DUP2 DUP2 MSTORE PUSH1 0x20 ADD DUP3 DUP1 SLOAD PUSH2 0x4A85 SWAP1 PUSH2 0x8E86 JUMP JUMPDEST DUP1 ISZERO PUSH2 0x4AD2 JUMPI DUP1 PUSH1 0x1F LT PUSH2 0x4AA7 JUMPI PUSH2 0x100 DUP1 DUP4 SLOAD DIV MUL DUP4 MSTORE SWAP2 PUSH1 0x20 ADD SWAP2 PUSH2 0x4AD2 JUMP JUMPDEST DUP3 ADD SWAP2 SWAP1 PUSH1 0x0 MSTORE PUSH1 0x20 PUSH1 0x0 KECCAK256 SWAP1 JUMPDEST DUP2 SLOAD DUP2 MSTORE SWAP1 PUSH1 0x1 ADD SWAP1 PUSH1 0x20 ADD DUP1 DUP4 GT PUSH2 0x4AB5 JUMPI DUP3 SWAP1 SUB PUSH1 0x1F AND DUP3 ADD SWAP2 JUMPDEST POP POP POP POP POP DUP2 MSTORE PUSH1 0x20 ADD PUSH1 0x1C DUP3 ADD DUP1 SLOAD PUSH2 0x4AEB SWAP1 PUSH2 0x8E86 JUMP JUMPDEST DUP1 PUSH1 0x1F ADD PUSH1 0x20 DUP1 SWAP2 DIV MUL PUSH1 0x20 ADD PUSH1 0x40 MLOAD SWAP1 DUP2 ADD PUSH1 0x40 MSTORE DUP1 SWAP3 SWAP2 SWAP1 DUP2 DUP2 MSTORE PUSH1 0x20 ADD DUP3 DUP1 SLOAD PUSH2 0x4B17 SWAP1 PUSH2 0x8E86 JUMP JUMPDEST DUP1 ISZERO PUSH2 0x4B64 JUMPI DUP1 PUSH1 0x1F LT PUSH2 0x4B39 JUMPI PUSH2 0x100 DUP1 DUP4 SLOAD DIV MUL DUP4 MSTORE SWAP2 PUSH1 0x20 ADD SWAP2 PUSH2 0x4B64 JUMP JUMPDEST DUP3 ADD SWAP2 SWAP1 PUSH1 0x0 MSTORE PUSH1 0x20 PUSH1 0x0 KECCAK256 SWAP1 JUMPDEST DUP2 SLOAD DUP2 MSTORE SWAP1 PUSH1 0x1 ADD SWAP1 PUSH1 0x20 ADD DUP1 DUP4 GT PUSH2 0x4B47 JUMPI DUP3 SWAP1 SUB PUSH1 0x1F AND DUP3 ADD SWAP2 JUMPDEST POP POP POP SWAP2 DUP4 MSTORE POP POP PUSH1 0x1D DUP3 ADD SLOAD PUSH1 0x20 DUP1 DUP4 ADD SWAP2 SWAP1 SWAP2 MSTORE PUSH1 0x1E DUP4 ADD SLOAD PUSH1 0x40 DUP4 ADD MSTORE PUSH1 0x1F DUP4 ADD SLOAD PUSH1 0x1 PUSH1 0x1 PUSH1 0xA0 SHL SUB AND PUSH1 0x60 DUP4 ADD MSTORE DUP3 ADD DUP1 SLOAD PUSH1 0x80 SWAP1 SWAP3 ADD SWAP2 PUSH2 0x4BAA SWAP1 PUSH2 0x8E86 JUMP JUMPDEST DUP1 PUSH1 0x1F ADD PUSH1 0x20 DUP1 SWAP2 DIV MUL PUSH1 0x20 ADD PUSH1 0x40 MLOAD SWAP1 DUP2 ADD PUSH1 0x40 MSTORE DUP1 SWAP3 SWAP2 SWAP1 DUP2 DUP2 MSTORE PUSH1 0x20 ADD DUP3 DUP1 SLOAD PUSH2 0x4BD6 SWAP1 PUSH2 0x8E86 JUMP JUMPDEST DUP1 ISZERO PUSH2 0x4C23 JUMPI DUP1 PUSH1 0x1F LT PUSH2 0x4BF8 JUMPI PUSH2 0x100 DUP1 DUP4 SLOAD DIV MUL DUP4 MSTORE SWAP2 PUSH1 0x20 ADD SWAP2 PUSH2 0x4C23 JUMP JUMPDEST DUP3 ADD SWAP2 SWAP1 PUSH1 0x0 MSTORE PUSH1 0x20 PUSH1 0x0 KECCAK256 SWAP1 JUMPDEST DUP2 SLOAD DUP2 MSTORE SWAP1 PUSH1 0x1 ADD SWAP1 PUSH1 0x20 ADD DUP1 DUP4 GT PUSH2 0x4C06 JUMPI DUP3 SWAP1 SUB PUSH1 0x1F AND DUP3 ADD SWAP2 JUMPDEST POP POP POP POP POP DUP2 MSTORE PUSH1 0x20 ADD PUSH1 0x21 DUP3 ADD DUP1 SLOAD PUSH2 0x4C3C SWAP1 PUSH2 0x8E86 JUMP JUMPDEST DUP1 PUSH1 0x1F ADD PUSH1 0x20 DUP1 SWAP2 DIV MUL PUSH1 0x20 ADD PUSH1 0x40 MLOAD SWAP1 DUP2 ADD PUSH1 0x40 MSTORE DUP1 SWAP3 SWAP2 SWAP1 DUP2 DUP2 MSTORE PUSH1 0x20 ADD DUP3 DUP1 SLOAD PUSH2 0x4C68 SWAP1 PUSH2 0x8E86 JUMP JUMPDEST DUP1 ISZERO PUSH2 0x4CB5 JUMPI DUP1 PUSH1 0x1F LT PUSH2 0x4C8A JUMPI PUSH2 0x100 DUP1 DUP4 SLOAD DIV MUL DUP4 MSTORE SWAP2 PUSH1 0x20 ADD SWAP2 PUSH2 0x4CB5 JUMP JUMPDEST DUP3 ADD SWAP2 SWAP1 PUSH1 0x0 MSTORE PUSH1 0x20 PUSH1 0x0 KECCAK256 SWAP1 JUMPDEST DUP2 SLOAD DUP2 MSTORE SWAP1 PUSH1 0x1 ADD SWAP1 PUSH1 0x20 ADD DUP1 DUP4 GT PUSH2 0x4C98 JUMPI DUP3 SWAP1 SUB PUSH1 0x1F AND DUP3 ADD SWAP2 JUMPDEST POP POP POP SWAP2 DUP4 MSTORE POP POP PUSH1 0x22 DUP3 ADD SLOAD PUSH1 0x20 DUP3 ADD MSTORE PUSH1 0x23 DUP3 ADD SLOAD PUSH1 0x40 DUP3 ADD MSTORE PUSH1 0x24 DUP3 ADD SLOAD PUSH1 0x1 PUSH1 0x1 PUSH1 0xA0 SHL SUB AND PUSH1 0x60 DUP3 ADD MSTORE PUSH1 0x25 DUP3 ADD DUP1 SLOAD PUSH1 0x80 SWAP1 SWAP3 ADD SWAP2 PUSH2 0x4CF9 SWAP1 PUSH2 0x8E86 JUMP JUMPDEST DUP1 PUSH1 0x1F ADD PUSH1 0x20 DUP1 SWAP2 DIV MUL PUSH1 0x20 ADD PUSH1 0x40 MLOAD SWAP1 DUP2 ADD PUSH1 0x40 MSTORE DUP1 SWAP3 SWAP2 SWAP1 DUP2 DUP2 MSTORE PUSH1 0x20 ADD DUP3 DUP1 SLOAD PUSH2 0x4D25 SWAP1 PUSH2 0x8E86 JUMP JUMPDEST DUP1 ISZERO PUSH2 0x4D72 JUMPI DUP1 PUSH1 0x1F LT PUSH2 0x4D47 JUMPI PUSH2 0x100 DUP1 DUP4 SLOAD DIV MUL DUP4 MSTORE SWAP2 PUSH1 0x20 ADD SWAP2 PUSH2 0x4D72 JUMP JUMPDEST DUP3 ADD SWAP2 SWAP1 PUSH1 0x0 MSTORE PUSH1 0x20 PUSH1 0x0 KECCAK256 SWAP1 JUMPDEST DUP2 SLOAD DUP2 MSTORE SWAP1 PUSH1 0x1 ADD SWAP1 PUSH1 0x20 ADD DUP1 DUP4 GT PUSH2 0x4D55 JUMPI DUP3 SWAP1 SUB PUSH1 0x1F AND DUP3 ADD SWAP2 JUMPDEST POP POP POP POP POP DUP2 MSTORE PUSH1 0x20 ADD PUSH1 0x26 DUP3 ADD DUP1 SLOAD PUSH2 0x4D8B SWAP1 PUSH2 0x8E86 JUMP JUMPDEST DUP1 PUSH1 0x1F ADD PUSH1 0x20 DUP1 SWAP2 DIV MUL PUSH1 0x20 ADD PUSH1 0x40 MLOAD SWAP1 DUP2 ADD PUSH1 0x40 MSTORE DUP1 SWAP3 SWAP2 SWAP1 DUP2 DUP2 MSTORE PUSH1 0x20 ADD DUP3 DUP1 SLOAD PUSH2 0x4DB7 SWAP1 PUSH2 0x8E86 JUMP JUMPDEST DUP1 ISZERO PUSH2 0x4E04 JUMPI DUP1 PUSH1 0x1F LT PUSH2 0x4DD9 JUMPI PUSH2 0x100 DUP1 DUP4 SLOAD DIV MUL DUP4 MSTORE SWAP2 PUSH1 0x20 ADD SWAP2 PUSH2 0x4E04 JUMP JUMPDEST DUP3 ADD SWAP2 SWAP1 PUSH1 0x0 MSTORE PUSH1 0x20 PUSH1 0x0 KECCAK256 SWAP1 JUMPDEST DUP2 SLOAD DUP2 MSTORE SWAP1 PUSH1 0x1 ADD SWAP1 PUSH1 0x20 ADD DUP1 DUP4 GT PUSH2 0x4DE7 JUMPI DUP3 SWAP1 SUB PUSH1 0x1F AND DUP3 ADD SWAP2 JUMPDEST POP POP POP SWAP2 DUP4 MSTORE POP POP PUSH1 0x27 DUP3 ADD SLOAD PUSH1 0x20 DUP3 ADD MSTORE PUSH1 0x28 DUP3 ADD SLOAD PUSH1 0x1 PUSH1 0x1 PUSH1 0xA0 SHL SUB AND PUSH1 0x40 DUP3 ADD MSTORE PUSH1 0x29 DUP3 ADD DUP1 SLOAD PUSH1 0x60 SWAP1 SWAP3 ADD SWAP2 PUSH2 0x4E3E SWAP1 PUSH2 0x8E86 JUMP JUMPDEST DUP1 PUSH1 0x1F ADD PUSH1 0x20 DUP1 SWAP2 DIV MUL PUSH1 0x20 ADD PUSH1 0x40 MLOAD SWAP1 DUP2 ADD PUSH1 0x40 MSTORE DUP1 SWAP3 SWAP2 SWAP1 DUP2 DUP2 MSTORE PUSH1 0x20 ADD DUP3 DUP1 SLOAD PUSH2 0x4E6A SWAP1 PUSH2 0x8E86 JUMP JUMPDEST DUP1 ISZERO PUSH2 0x4EB7 JUMPI DUP1 PUSH1 0x1F LT PUSH2 0x4E8C JUMPI PUSH2 0x100 DUP1 DUP4 SLOAD DIV MUL DUP4 MSTORE SWAP2 PUSH1 0x20 ADD SWAP2 PUSH2 0x4EB7 JUMP JUMPDEST DUP3 ADD SWAP2 SWAP1 PUSH1 0x0 MSTORE PUSH1 0x20 PUSH1 0x0 KECCAK256 SWAP1 JUMPDEST DUP2 SLOAD DUP2 MSTORE SWAP1 PUSH1 0x1 ADD SWAP1 PUSH1 0x20 ADD DUP1 DUP4 GT PUSH2 0x4E9A JUMPI DUP3 SWAP1 SUB PUSH1 0x1F AND DUP3 ADD SWAP2 JUMPDEST POP POP POP SWAP2 DUP4 MSTORE POP POP PUSH1 0x2A DUP3 ADD SLOAD PUSH1 0x20 DUP3 ADD MSTORE PUSH1 0x2B DUP3 ADD SLOAD PUSH1 0x40 SWAP1 SWAP2 ADD SWAP1 PUSH1 0xFF AND PUSH1 0x19 DUP2 GT ISZERO PUSH2 0x4EE8 JUMPI PUSH2 0x4EE8 PUSH2 0x8EF2 JUMP JUMPDEST PUSH1 0x19 DUP2 GT ISZERO PUSH2 0x4EF9 JUMPI PUSH2 0x4EF9 PUSH2 0x8EF2 JUMP JUMPDEST SWAP1 MSTORE POP PUSH2 0x480 DUP2 ADD MLOAD PUSH2 0x4A0 DUP3 ADD MLOAD PUSH2 0x4C0 DUP4 ADD MLOAD PUSH2 0x4E0 SWAP1 SWAP4 ADD MLOAD SWAP2 SWAP10 SWAP1 SWAP9 POP SWAP2 SWAP7 POP SWAP5 POP SWAP3 POP POP POP JUMP JUMPDEST PUSH2 0x4F2E CALLER PUSH2 0x29A0 JUMP JUMPDEST PUSH2 0x4F37 JUMPI PUSH1 0x0 DUP1 REVERT JUMPDEST PUSH2 0xAC2 DUP2 PUSH2 0x85F2 JUMP JUMPDEST PUSH1 0x0 PUSH2 0xAD2 PUSH1 0x1 DUP4 PUSH2 0x832A JUMP JUMPDEST PUSH2 0x4F56 CALLER PUSH2 0x3A41 JUMP JUMPDEST PUSH2 0x4F5F JUMPI PUSH1 0x0 DUP1 REVERT JUMPDEST DUP2 PUSH1 0x16 PUSH1 0x0 DUP3 DUP2 MSTORE PUSH1 0xB PUSH1 0x20 MSTORE PUSH1 0x40 SWAP1 KECCAK256 PUSH1 0x2B ADD SLOAD PUSH1 0xFF AND PUSH1 0x19 DUP2 GT ISZERO PUSH2 0x4F88 JUMPI PUSH2 0x4F88 PUSH2 0x8EF2 JUMP JUMPDEST EQ PUSH2 0x4F92 JUMPI PUSH1 0x0 DUP1 REVERT JUMPDEST PUSH1 0x0 DUP4 DUP2 MSTORE PUSH1 0xB PUSH1 0x20 MSTORE PUSH1 0x40 SWAP1 KECCAK256 SLOAD PUSH1 0x1 PUSH1 0x1 PUSH1 0xA0 SHL SUB AND CALLER DUP2 EQ PUSH2 0x4FB6 JUMPI PUSH1 0x0 DUP1 REVERT JUMPDEST PUSH1 0x0 DUP5 DUP2 MSTORE PUSH1 0xB PUSH1 0x20 SWAP1 DUP2 MSTORE PUSH1 0x40 SWAP1 SWAP2 KECCAK256 PUSH1 0x2B DUP2 ADD DUP1 SLOAD PUSH1 0xFF NOT AND PUSH1 0x17 OR SWAP1 SSTORE DUP5 MLOAD PUSH2 0x4FEA SWAP3 PUSH1 0x26 SWAP1 SWAP3 ADD SWAP2 DUP7 ADD SWAP1 PUSH2 0x876E JUMP JUMPDEST POP PUSH1 0x40 MLOAD DUP5 DUP2 MSTORE PUSH32 0x4A7B51A1CDA61BA200934873304B8985EAA822A11F67EC51831B464239869464 SWAP1 PUSH1 0x20 ADD PUSH2 0x193C JUMP JUMPDEST PUSH2 0x5024 CALLER PUSH2 0xAD8 JUMP JUMPDEST PUSH2 0x502D JUMPI PUSH1 0x0 DUP1 REVERT JUMPDEST DUP2 PUSH1 0xA PUSH1 0x0 DUP3 DUP2 MSTORE PUSH1 0xB PUSH1 0x20 MSTORE PUSH1 0x40 SWAP1 KECCAK256 PUSH1 0x2B ADD SLOAD PUSH1 0xFF AND PUSH1 0x19 DUP2 GT ISZERO PUSH2 0x5056 JUMPI PUSH2 0x5056 PUSH2 0x8EF2 JUMP JUMPDEST EQ PUSH2 0x5060 JUMPI PUSH1 0x0 DUP1 REVERT JUMPDEST PUSH1 0x0 DUP4 DUP2 MSTORE PUSH1 0xB PUSH1 0x20 MSTORE PUSH1 0x40 SWAP1 KECCAK256 SLOAD PUSH1 0x1 PUSH1 0x1 PUSH1 0xA0 SHL SUB AND CALLER DUP2 EQ PUSH2 0x5084 JUMPI PUSH1 0x0 DUP1 REVERT JUMPDEST PUSH1 0x0 DUP5 DUP2 MSTORE PUSH1 0xB PUSH1 0x20 DUP2 DUP2 MSTORE PUSH1 0x40 SWAP1 SWAP3 KECCAK256 PUSH1 0x2B DUP2 ADD DUP1 SLOAD PUSH1 0xFF NOT AND SWAP1 SWAP3 OR SWAP1 SWAP2 SSTORE DUP5 MLOAD PUSH2 0x50B9 SWAP3 PUSH1 0x18 SWAP1 SWAP3 ADD SWAP2 DUP7 ADD SWAP1 PUSH2 0x876E JUMP JUMPDEST POP PUSH1 0x0 DUP5 DUP2 MSTORE PUSH1 0xB PUSH1 0x20 MSTORE PUSH1 0x40 SWAP1 DUP2 SWAP1 KECCAK256 TIMESTAMP PUSH1 0x1D SWAP1 SWAP2 ADD SSTORE MLOAD PUSH32 0x2C7366ED54101CF0FBE92656F170D0CB7C41871E0665C5CAEFE80354045F3AE8 SWAP1 PUSH2 0x193C SWAP1 DUP7 DUP2 MSTORE PUSH1 0x20 ADD SWAP1 JUMP JUMPDEST PUSH2 0x510A CALLER PUSH2 0x4F40 JUMP JUMPDEST PUSH2 0x5113 JUMPI PUSH1 0x0 DUP1 REVERT JUMPDEST PUSH1 0x0 DUP1 PUSH1 0x0 DUP1 PUSH1 0x0 DUP1 PUSH2 0x5124 PUSH2 0x87F2 JUMP JUMPDEST PUSH1 0xA SLOAD PUSH1 0x60 DUP3 ADD DUP2 SWAP1 MSTORE PUSH1 0x40 DUP3 ADD DUP12 SWAP1 MSTORE CALLER DUP1 DUP4 MSTORE PUSH1 0x80 DUP4 ADD MSTORE PUSH1 0xA0 DUP3 ADD DUP11 SWAP1 MSTORE PUSH2 0x100 DUP3 ADD DUP10 SWAP1 MSTORE PUSH2 0x5157 SWAP1 DUP12 PUSH2 0x8E6E JUMP JUMPDEST PUSH1 0x20 DUP3 DUP2 ADD SWAP2 DUP3 MSTORE TIMESTAMP PUSH2 0x120 DUP5 ADD MSTORE PUSH1 0x0 PUSH2 0x560 DUP5 ADD DUP2 SWAP1 MSTORE PUSH1 0x1 PUSH1 0x1 PUSH1 0xA0 SHL SUB DUP11 DUP2 AND PUSH2 0x160 DUP7 ADD MSTORE DUP10 DUP2 AND PUSH2 0x240 DUP7 ADD MSTORE DUP9 DUP2 AND PUSH2 0x2E0 DUP7 ADD MSTORE DUP8 DUP2 AND PUSH2 0x3E0 DUP7 ADD MSTORE DUP7 DUP2 AND PUSH2 0x480 DUP7 ADD MSTORE DUP6 DUP2 AND PUSH2 0x500 DUP7 ADD MSTORE DUP14 DUP3 MSTORE PUSH1 0xB DUP4 MSTORE PUSH1 0x40 SWAP2 DUP3 SWAP1 KECCAK256 DUP6 MLOAD DUP2 SLOAD PUSH1 0x1 PUSH1 0x1 PUSH1 0xA0 SHL SUB NOT SWAP1 DUP2 AND SWAP2 DUP5 AND SWAP2 SWAP1 SWAP2 OR DUP3 SSTORE SWAP5 MLOAD PUSH1 0x1 DUP3 ADD SSTORE SWAP2 DUP6 ADD MLOAD PUSH1 0x2 DUP4 ADD SSTORE PUSH1 0x60 DUP6 ADD MLOAD PUSH1 0x3 DUP4 ADD SSTORE PUSH1 0x80 DUP6 ADD MLOAD PUSH1 0x4 DUP4 ADD DUP1 SLOAD SWAP1 SWAP6 AND SWAP2 AND OR SWAP1 SWAP3 SSTORE PUSH1 0xA0 DUP4 ADD MLOAD DUP1 MLOAD DUP5 SWAP4 SWAP3 PUSH2 0x521D SWAP3 PUSH1 0x5 DUP6 ADD SWAP3 SWAP2 ADD SWAP1 PUSH2 0x876E JUMP JUMPDEST POP PUSH1 0xC0 DUP3 ADD MLOAD DUP1 MLOAD PUSH2 0x5239 SWAP2 PUSH1 0x6 DUP5 ADD SWAP2 PUSH1 0x20 SWAP1 SWAP2 ADD SWAP1 PUSH2 0x876E JUMP JUMPDEST POP PUSH1 0xE0 DUP3 ADD MLOAD DUP1 MLOAD PUSH2 0x5255 SWAP2 PUSH1 0x7 DUP5 ADD SWAP2 PUSH1 0x20 SWAP1 SWAP2 ADD SWAP1 PUSH2 0x876E JUMP JUMPDEST POP PUSH2 0x100 DUP3 ADD MLOAD DUP1 MLOAD PUSH2 0x5272 SWAP2 PUSH1 0x8 DUP5 ADD SWAP2 PUSH1 0x20 SWAP1 SWAP2 ADD SWAP1 PUSH2 0x876E JUMP JUMPDEST POP PUSH2 0x120 DUP3 ADD MLOAD PUSH1 0x9 DUP3 ADD SSTORE PUSH2 0x140 DUP3 ADD MLOAD PUSH1 0xA DUP3 ADD SSTORE PUSH2 0x160 DUP3 ADD MLOAD PUSH1 0xB DUP3 ADD DUP1 SLOAD PUSH1 0x1 PUSH1 0x1 PUSH1 0xA0 SHL SUB NOT AND PUSH1 0x1 PUSH1 0x1 PUSH1 0xA0 SHL SUB SWAP1 SWAP3 AND SWAP2 SWAP1 SWAP2 OR SWAP1 SSTORE PUSH2 0x180 DUP3 ADD MLOAD DUP1 MLOAD PUSH2 0x52CC SWAP2 PUSH1 0xC DUP5 ADD SWAP2 PUSH1 0x20 SWAP1 SWAP2 ADD SWAP1 PUSH2 0x876E JUMP JUMPDEST POP PUSH2 0x1A0 DUP3 ADD MLOAD DUP1 MLOAD PUSH2 0x52E9 SWAP2 PUSH1 0xD DUP5 ADD SWAP2 PUSH1 0x20 SWAP1 SWAP2 ADD SWAP1 PUSH2 0x876E JUMP JUMPDEST POP PUSH2 0x1C0 DUP3 ADD MLOAD DUP1 MLOAD PUSH2 0x5306 SWAP2 PUSH1 0xE DUP5 ADD SWAP2 PUSH1 0x20 SWAP1 SWAP2 ADD SWAP1 PUSH2 0x876E JUMP JUMPDEST POP PUSH2 0x1E0 DUP3 ADD MLOAD DUP1 MLOAD PUSH2 0x5323 SWAP2 PUSH1 0xF DUP5 ADD SWAP2 PUSH1 0x20 SWAP1 SWAP2 ADD SWAP1 PUSH2 0x876E JUMP JUMPDEST POP PUSH2 0x200 DUP3 ADD MLOAD PUSH1 0x10 DUP3 ADD SSTORE PUSH2 0x220 DUP3 ADD MLOAD PUSH1 0x11 DUP3 ADD SSTORE PUSH2 0x240 DUP3 ADD MLOAD PUSH1 0x12 DUP3 ADD DUP1 SLOAD PUSH1 0x1 PUSH1 0x1 PUSH1 0xA0 SHL SUB NOT AND PUSH1 0x1 PUSH1 0x1 PUSH1 0xA0 SHL SUB SWAP1 SWAP3 AND SWAP2 SWAP1 SWAP2 OR SWAP1 SSTORE PUSH2 0x260 DUP3 ADD MLOAD DUP1 MLOAD PUSH2 0x537D SWAP2 PUSH1 0x13 DUP5 ADD SWAP2 PUSH1 0x20 SWAP1 SWAP2 ADD SWAP1 PUSH2 0x876E JUMP JUMPDEST POP PUSH2 0x280 DUP3 ADD MLOAD DUP1 MLOAD PUSH2 0x539A SWAP2 PUSH1 0x14 DUP5 ADD SWAP2 PUSH1 0x20 SWAP1 SWAP2 ADD SWAP1 PUSH2 0x876E JUMP JUMPDEST POP PUSH2 0x2A0 DUP3 ADD MLOAD PUSH1 0x15 DUP3 ADD SSTORE PUSH2 0x2C0 DUP3 ADD MLOAD PUSH1 0x16 DUP3 ADD SSTORE PUSH2 0x2E0 DUP3 ADD MLOAD PUSH1 0x17 DUP3 ADD DUP1 SLOAD PUSH1 0x1 PUSH1 0x1 PUSH1 0xA0 SHL SUB NOT AND PUSH1 0x1 PUSH1 0x1 PUSH1 0xA0 SHL SUB SWAP1 SWAP3 AND SWAP2 SWAP1 SWAP2 OR SWAP1 SSTORE PUSH2 0x300 DUP3 ADD MLOAD DUP1 MLOAD PUSH2 0x53F4 SWAP2 PUSH1 0x18 DUP5 ADD SWAP2 PUSH1 0x20 SWAP1 SWAP2 ADD SWAP1 PUSH2 0x876E JUMP JUMPDEST POP PUSH2 0x320 DUP3 ADD MLOAD DUP1 MLOAD PUSH2 0x5411 SWAP2 PUSH1 0x19 DUP5 ADD SWAP2 PUSH1 0x20 SWAP1 SWAP2 ADD SWAP1 PUSH2 0x876E JUMP JUMPDEST POP PUSH2 0x340 DUP3 ADD MLOAD DUP1 MLOAD PUSH2 0x542E SWAP2 PUSH1 0x1A DUP5 ADD SWAP2 PUSH1 0x20 SWAP1 SWAP2 ADD SWAP1 PUSH2 0x876E JUMP JUMPDEST POP PUSH2 0x360 DUP3 ADD MLOAD DUP1 MLOAD PUSH2 0x544B SWAP2 PUSH1 0x1B DUP5 ADD SWAP2 PUSH1 0x20 SWAP1 SWAP2 ADD SWAP1 PUSH2 0x876E JUMP JUMPDEST POP PUSH2 0x380 DUP3 ADD MLOAD DUP1 MLOAD PUSH2 0x5468 SWAP2 PUSH1 0x1C DUP5 ADD SWAP2 PUSH1 0x20 SWAP1 SWAP2 ADD SWAP1 PUSH2 0x876E JUMP JUMPDEST POP PUSH2 0x3A0 DUP3 ADD MLOAD PUSH1 0x1D DUP3 ADD SSTORE PUSH2 0x3C0 DUP3 ADD MLOAD PUSH1 0x1E DUP3 ADD SSTORE PUSH2 0x3E0 DUP3 ADD MLOAD PUSH1 0x1F DUP3 ADD DUP1 SLOAD PUSH1 0x1 PUSH1 0x1 PUSH1 0xA0 SHL SUB NOT AND PUSH1 0x1 PUSH1 0x1 PUSH1 0xA0 SHL SUB SWAP1 SWAP3 AND SWAP2 SWAP1 SWAP2 OR SWAP1 SSTORE PUSH2 0x400 DUP3 ADD MLOAD DUP1 MLOAD PUSH2 0x54C0 SWAP2 PUSH1 0x20 DUP1 DUP6 ADD SWAP3 SWAP2 ADD SWAP1 PUSH2 0x876E JUMP JUMPDEST POP PUSH2 0x420 DUP3 ADD MLOAD DUP1 MLOAD PUSH2 0x54DD SWAP2 PUSH1 0x21 DUP5 ADD SWAP2 PUSH1 0x20 SWAP1 SWAP2 ADD SWAP1 PUSH2 0x876E JUMP JUMPDEST POP PUSH2 0x440 DUP3 ADD MLOAD PUSH1 0x22 DUP3 ADD SSTORE PUSH2 0x460 DUP3 ADD MLOAD PUSH1 0x23 DUP3 ADD SSTORE PUSH2 0x480 DUP3 ADD MLOAD PUSH1 0x24 DUP3 ADD DUP1 SLOAD PUSH1 0x1 PUSH1 0x1 PUSH1 0xA0 SHL SUB NOT AND PUSH1 0x1 PUSH1 0x1 PUSH1 0xA0 SHL SUB SWAP1 SWAP3 AND SWAP2 SWAP1 SWAP2 OR SWAP1 SSTORE PUSH2 0x4A0 DUP3 ADD MLOAD DUP1 MLOAD PUSH2 0x5537 SWAP2 PUSH1 0x25 DUP5 ADD SWAP2 PUSH1 0x20 SWAP1 SWAP2 ADD SWAP1 PUSH2 0x876E JUMP JUMPDEST POP PUSH2 0x4C0 DUP3 ADD MLOAD DUP1 MLOAD PUSH2 0x5554 SWAP2 PUSH1 0x26 DUP5 ADD SWAP2 PUSH1 0x20 SWAP1 SWAP2 ADD SWAP1 PUSH2 0x876E JUMP JUMPDEST POP PUSH2 0x4E0 DUP3 ADD MLOAD PUSH1 0x27 DUP3 ADD SSTORE PUSH2 0x500 DUP3 ADD MLOAD PUSH1 0x28 DUP3 ADD DUP1 SLOAD PUSH1 0x1 PUSH1 0x1 PUSH1 0xA0 SHL SUB NOT AND PUSH1 0x1 PUSH1 0x1 PUSH1 0xA0 SHL SUB SWAP1 SWAP3 AND SWAP2 SWAP1 SWAP2 OR SWAP1 SSTORE PUSH2 0x520 DUP3 ADD MLOAD DUP1 MLOAD PUSH2 0x55A3 SWAP2 PUSH1 0x29 DUP5 ADD SWAP2 PUSH1 0x20 SWAP1 SWAP2 ADD SWAP1 PUSH2 0x876E JUMP JUMPDEST POP PUSH2 0x540 DUP3 ADD MLOAD PUSH1 0x2A DUP3 ADD SSTORE PUSH2 0x560 DUP3 ADD MLOAD PUSH1 0x2B DUP3 ADD DUP1 SLOAD PUSH1 0xFF NOT AND PUSH1 0x1 DUP4 PUSH1 0x19 DUP2 GT ISZERO PUSH2 0x55D3 JUMPI PUSH2 0x55D3 PUSH2 0x8EF2 JUMP JUMPDEST MUL OR SWAP1 SSTORE POP SWAP1 POP POP PUSH1 0x0 PUSH2 0x5616 PUSH1 0x40 MLOAD DUP1 PUSH1 0xC0 ADD PUSH1 0x40 MSTORE DUP1 PUSH1 0x0 DUP2 MSTORE PUSH1 0x20 ADD PUSH1 0x0 DUP2 MSTORE PUSH1 0x20 ADD PUSH1 0x0 DUP2 MSTORE PUSH1 0x20 ADD PUSH1 0x0 DUP2 MSTORE PUSH1 0x20 ADD PUSH1 0x0 DUP2 MSTORE PUSH1 0x20 ADD PUSH1 0x0 DUP2 MSTORE POP SWAP1 JUMP JUMPDEST DUP2 DUP2 PUSH1 0x0 ADD DUP2 DUP2 MSTORE POP POP DUP2 DUP2 PUSH1 0x20 ADD DUP2 DUP2 MSTORE POP POP DUP2 DUP2 PUSH1 0x40 ADD DUP2 DUP2 MSTORE POP POP DUP2 DUP2 PUSH1 0x60 ADD DUP2 DUP2 MSTORE POP POP DUP2 DUP2 PUSH1 0x80 ADD DUP2 DUP2 MSTORE POP POP DUP2 DUP2 PUSH1 0xA0 ADD DUP2 DUP2 MSTORE POP POP DUP1 PUSH1 0xC PUSH1 0x0 DUP15 DUP2 MSTORE PUSH1 0x20 ADD SWAP1 DUP2 MSTORE PUSH1 0x20 ADD PUSH1 0x0 KECCAK256 PUSH1 0x0 DUP3 ADD MLOAD DUP2 PUSH1 0x0 ADD SSTORE PUSH1 0x20 DUP3 ADD MLOAD DUP2 PUSH1 0x1 ADD SSTORE PUSH1 0x40 DUP3 ADD MLOAD DUP2 PUSH1 0x2 ADD SSTORE PUSH1 0x60 DUP3 ADD MLOAD DUP2 PUSH1 0x3 ADD SSTORE PUSH1 0x80 DUP3 ADD MLOAD DUP2 PUSH1 0x4 ADD SSTORE PUSH1 0xA0 DUP3 ADD MLOAD DUP2 PUSH1 0x5 ADD SSTORE SWAP1 POP POP PUSH1 0xA PUSH1 0x0 DUP2 SLOAD DUP1 SWAP3 SWAP2 SWAP1 PUSH2 0x56B8 SWAP1 PUSH2 0x8EC1 JUMP JUMPDEST SWAP1 SWAP2 SSTORE POP POP PUSH1 0x40 MLOAD DUP13 DUP2 MSTORE PUSH32 0xEFE4736D527BA6C7C4480D599CAF5E0DF1B7208F32A2FA24B6847CD0B9FF3A92 SWAP1 PUSH1 0x20 ADD PUSH1 0x40 MLOAD DUP1 SWAP2 SUB SWAP1 LOG1 POP POP POP POP POP POP POP POP POP POP POP POP JUMP JUMPDEST PUSH1 0x0 DUP1 PUSH1 0x0 DUP1 PUSH1 0x0 PUSH1 0x60 DUP1 PUSH1 0x60 DUP1 PUSH1 0x0 DUP1 PUSH1 0x0 PUSH1 0xB PUSH1 0x0 DUP15 DUP2 MSTORE PUSH1 0x20 ADD SWAP1 DUP2 MSTORE PUSH1 0x20 ADD PUSH1 0x0 KECCAK256 PUSH1 0x40 MLOAD DUP1 PUSH2 0x580 ADD PUSH1 0x40 MSTORE SWAP1 DUP2 PUSH1 0x0 DUP3 ADD PUSH1 0x0 SWAP1 SLOAD SWAP1 PUSH2 0x100 EXP SWAP1 DIV PUSH1 0x1 PUSH1 0x1 PUSH1 0xA0 SHL SUB AND PUSH1 0x1 PUSH1 0x1 PUSH1 0xA0 SHL SUB AND PUSH1 0x1 PUSH1 0x1 PUSH1 0xA0 SHL SUB AND DUP2 MSTORE PUSH1 0x20 ADD PUSH1 0x1 DUP3 ADD SLOAD DUP2 MSTORE PUSH1 0x20 ADD PUSH1 0x2 DUP3 ADD SLOAD DUP2 MSTORE PUSH1 0x20 ADD PUSH1 0x3 DUP3 ADD SLOAD DUP2 MSTORE PUSH1 0x20 ADD PUSH1 0x4 DUP3 ADD PUSH1 0x0 SWAP1 SLOAD SWAP1 PUSH2 0x100 EXP SWAP1 DIV PUSH1 0x1 PUSH1 0x1 PUSH1 0xA0 SHL SUB AND PUSH1 0x1 PUSH1 0x1 PUSH1 0xA0 SHL SUB AND PUSH1 0x1 PUSH1 0x1 PUSH1 0xA0 SHL SUB AND DUP2 MSTORE PUSH1 0x20 ADD PUSH1 0x5 DUP3 ADD DUP1 SLOAD PUSH2 0x57BC SWAP1 PUSH2 0x8E86 JUMP JUMPDEST DUP1 PUSH1 0x1F ADD PUSH1 0x20 DUP1 SWAP2 DIV MUL PUSH1 0x20 ADD PUSH1 0x40 MLOAD SWAP1 DUP2 ADD PUSH1 0x40 MSTORE DUP1 SWAP3 SWAP2 SWAP1 DUP2 DUP2 MSTORE PUSH1 0x20 ADD DUP3 DUP1 SLOAD PUSH2 0x57E8 SWAP1 PUSH2 0x8E86 JUMP JUMPDEST DUP1 ISZERO PUSH2 0x5835 JUMPI DUP1 PUSH1 0x1F LT PUSH2 0x580A JUMPI PUSH2 0x100 DUP1 DUP4 SLOAD DIV MUL DUP4 MSTORE SWAP2 PUSH1 0x20 ADD SWAP2 PUSH2 0x5835 JUMP JUMPDEST DUP3 ADD SWAP2 SWAP1 PUSH1 0x0 MSTORE PUSH1 0x20 PUSH1 0x0 KECCAK256 SWAP1 JUMPDEST DUP2 SLOAD DUP2 MSTORE SWAP1 PUSH1 0x1 ADD SWAP1 PUSH1 0x20 ADD DUP1 DUP4 GT PUSH2 0x5818 JUMPI DUP3 SWAP1 SUB PUSH1 0x1F AND DUP3 ADD SWAP2 JUMPDEST POP POP POP POP POP DUP2 MSTORE PUSH1 0x20 ADD PUSH1 0x6 DUP3 ADD DUP1 SLOAD PUSH2 0x584E SWAP1 PUSH2 0x8E86 JUMP JUMPDEST DUP1 PUSH1 0x1F ADD PUSH1 0x20 DUP1 SWAP2 DIV MUL PUSH1 0x20 ADD PUSH1 0x40 MLOAD SWAP1 DUP2 ADD PUSH1 0x40 MSTORE DUP1 SWAP3 SWAP2 SWAP1 DUP2 DUP2 MSTORE PUSH1 0x20 ADD DUP3 DUP1 SLOAD PUSH2 0x587A SWAP1 PUSH2 0x8E86 JUMP JUMPDEST DUP1 ISZERO PUSH2 0x58C7 JUMPI DUP1 PUSH1 0x1F LT PUSH2 0x589C JUMPI PUSH2 0x100 DUP1 DUP4 SLOAD DIV MUL DUP4 MSTORE SWAP2 PUSH1 0x20 ADD SWAP2 PUSH2 0x58C7 JUMP JUMPDEST DUP3 ADD SWAP2 SWAP1 PUSH1 0x0 MSTORE PUSH1 0x20 PUSH1 0x0 KECCAK256 SWAP1 JUMPDEST DUP2 SLOAD DUP2 MSTORE SWAP1 PUSH1 0x1 ADD SWAP1 PUSH1 0x20 ADD DUP1 DUP4 GT PUSH2 0x58AA JUMPI DUP3 SWAP1 SUB PUSH1 0x1F AND DUP3 ADD SWAP2 JUMPDEST POP POP POP POP POP DUP2 MSTORE PUSH1 0x20 ADD PUSH1 0x7 DUP3 ADD DUP1 SLOAD PUSH2 0x58E0 SWAP1 PUSH2 0x8E86 JUMP JUMPDEST DUP1 PUSH1 0x1F ADD PUSH1 0x20 DUP1 SWAP2 DIV MUL PUSH1 0x20 ADD PUSH1 0x40 MLOAD SWAP1 DUP2 ADD PUSH1 0x40 MSTORE DUP1 SWAP3 SWAP2 SWAP1 DUP2 DUP2 MSTORE PUSH1 0x20 ADD DUP3 DUP1 SLOAD PUSH2 0x590C SWAP1 PUSH2 0x8E86 JUMP JUMPDEST DUP1 ISZERO PUSH2 0x5959 JUMPI DUP1 PUSH1 0x1F LT PUSH2 0x592E JUMPI PUSH2 0x100 DUP1 DUP4 SLOAD DIV MUL DUP4 MSTORE SWAP2 PUSH1 0x20 ADD SWAP2 PUSH2 0x5959 JUMP JUMPDEST DUP3 ADD SWAP2 SWAP1 PUSH1 0x0 MSTORE PUSH1 0x20 PUSH1 0x0 KECCAK256 SWAP1 JUMPDEST DUP2 SLOAD DUP2 MSTORE SWAP1 PUSH1 0x1 ADD SWAP1 PUSH1 0x20 ADD DUP1 DUP4 GT PUSH2 0x593C JUMPI DUP3 SWAP1 SUB PUSH1 0x1F AND DUP3 ADD SWAP2 JUMPDEST POP POP POP POP POP DUP2 MSTORE PUSH1 0x20 ADD PUSH1 0x8 DUP3 ADD DUP1 SLOAD PUSH2 0x5972 SWAP1 PUSH2 0x8E86 JUMP JUMPDEST DUP1 PUSH1 0x1F ADD PUSH1 0x20 DUP1 SWAP2 DIV MUL PUSH1 0x20 ADD PUSH1 0x40 MLOAD SWAP1 DUP2 ADD PUSH1 0x40 MSTORE DUP1 SWAP3 SWAP2 SWAP1 DUP2 DUP2 MSTORE PUSH1 0x20 ADD DUP3 DUP1 SLOAD PUSH2 0x599E SWAP1 PUSH2 0x8E86 JUMP JUMPDEST DUP1 ISZERO PUSH2 0x59EB JUMPI DUP1 PUSH1 0x1F LT PUSH2 0x59C0 JUMPI PUSH2 0x100 DUP1 DUP4 SLOAD DIV MUL DUP4 MSTORE SWAP2 PUSH1 0x20 ADD SWAP2 PUSH2 0x59EB JUMP JUMPDEST DUP3 ADD SWAP2 SWAP1 PUSH1 0x0 MSTORE PUSH1 0x20 PUSH1 0x0 KECCAK256 SWAP1 JUMPDEST DUP2 SLOAD DUP2 MSTORE SWAP1 PUSH1 0x1 ADD SWAP1 PUSH1 0x20 ADD DUP1 DUP4 GT PUSH2 0x59CE JUMPI DUP3 SWAP1 SUB PUSH1 0x1F AND DUP3 ADD SWAP2 JUMPDEST POP POP POP SWAP2 DUP4 MSTORE POP POP PUSH1 0x9 DUP3 ADD SLOAD PUSH1 0x20 DUP3 ADD MSTORE PUSH1 0xA DUP3 ADD SLOAD PUSH1 0x40 DUP3 ADD MSTORE PUSH1 0xB DUP3 ADD SLOAD PUSH1 0x1 PUSH1 0x1 PUSH1 0xA0 SHL SUB AND PUSH1 0x60 DUP3 ADD MSTORE PUSH1 0xC DUP3 ADD DUP1 SLOAD PUSH1 0x80 SWAP1 SWAP3 ADD SWAP2 PUSH2 0x5A2F SWAP1 PUSH2 0x8E86 JUMP JUMPDEST DUP1 PUSH1 0x1F ADD PUSH1 0x20 DUP1 SWAP2 DIV MUL PUSH1 0x20 ADD PUSH1 0x40 MLOAD SWAP1 DUP2 ADD PUSH1 0x40 MSTORE DUP1 SWAP3 SWAP2 SWAP1 DUP2 DUP2 MSTORE PUSH1 0x20 ADD DUP3 DUP1 SLOAD PUSH2 0x5A5B SWAP1 PUSH2 0x8E86 JUMP JUMPDEST DUP1 ISZERO PUSH2 0x5AA8 JUMPI DUP1 PUSH1 0x1F LT PUSH2 0x5A7D JUMPI PUSH2 0x100 DUP1 DUP4 SLOAD DIV MUL DUP4 MSTORE SWAP2 PUSH1 0x20 ADD SWAP2 PUSH2 0x5AA8 JUMP JUMPDEST DUP3 ADD SWAP2 SWAP1 PUSH1 0x0 MSTORE PUSH1 0x20 PUSH1 0x0 KECCAK256 SWAP1 JUMPDEST DUP2 SLOAD DUP2 MSTORE SWAP1 PUSH1 0x1 ADD SWAP1 PUSH1 0x20 ADD DUP1 DUP4 GT PUSH2 0x5A8B JUMPI DUP3 SWAP1 SUB PUSH1 0x1F AND DUP3 ADD SWAP2 JUMPDEST POP POP POP POP POP DUP2 MSTORE PUSH1 0x20 ADD PUSH1 0xD DUP3 ADD DUP1 SLOAD PUSH2 0x5AC1 SWAP1 PUSH2 0x8E86 JUMP JUMPDEST DUP1 PUSH1 0x1F ADD PUSH1 0x20 DUP1 SWAP2 DIV MUL PUSH1 0x20 ADD PUSH1 0x40 MLOAD SWAP1 DUP2 ADD PUSH1 0x40 MSTORE DUP1 SWAP3 SWAP2 SWAP1 DUP2 DUP2 MSTORE PUSH1 0x20 ADD DUP3 DUP1 SLOAD PUSH2 0x5AED SWAP1 PUSH2 0x8E86 JUMP JUMPDEST DUP1 ISZERO PUSH2 0x5B3A JUMPI DUP1 PUSH1 0x1F LT PUSH2 0x5B0F JUMPI PUSH2 0x100 DUP1 DUP4 SLOAD DIV MUL DUP4 MSTORE SWAP2 PUSH1 0x20 ADD SWAP2 PUSH2 0x5B3A JUMP JUMPDEST DUP3 ADD SWAP2 SWAP1 PUSH1 0x0 MSTORE PUSH1 0x20 PUSH1 0x0 KECCAK256 SWAP1 JUMPDEST DUP2 SLOAD DUP2 MSTORE SWAP1 PUSH1 0x1 ADD SWAP1 PUSH1 0x20 ADD DUP1 DUP4 GT PUSH2 0x5B1D JUMPI DUP3 SWAP1 SUB PUSH1 0x1F AND DUP3 ADD SWAP2 JUMPDEST POP POP POP POP POP DUP2 MSTORE PUSH1 0x20 ADD PUSH1 0xE DUP3 ADD DUP1 SLOAD PUSH2 0x5B53 SWAP1 PUSH2 0x8E86 JUMP JUMPDEST DUP1 PUSH1 0x1F ADD PUSH1 0x20 DUP1 SWAP2 DIV MUL PUSH1 0x20 ADD PUSH1 0x40 MLOAD SWAP1 DUP2 ADD PUSH1 0x40 MSTORE DUP1 SWAP3 SWAP2 SWAP1 DUP2 DUP2 MSTORE PUSH1 0x20 ADD DUP3 DUP1 SLOAD PUSH2 0x5B7F SWAP1 PUSH2 0x8E86 JUMP JUMPDEST DUP1 ISZERO PUSH2 0x5BCC JUMPI DUP1 PUSH1 0x1F LT PUSH2 0x5BA1 JUMPI PUSH2 0x100 DUP1 DUP4 SLOAD DIV MUL DUP4 MSTORE SWAP2 PUSH1 0x20 ADD SWAP2 PUSH2 0x5BCC JUMP JUMPDEST DUP3 ADD SWAP2 SWAP1 PUSH1 0x0 MSTORE PUSH1 0x20 PUSH1 0x0 KECCAK256 SWAP1 JUMPDEST DUP2 SLOAD DUP2 MSTORE SWAP1 PUSH1 0x1 ADD SWAP1 PUSH1 0x20 ADD DUP1 DUP4 GT PUSH2 0x5BAF JUMPI DUP3 SWAP1 SUB PUSH1 0x1F AND DUP3 ADD SWAP2 JUMPDEST POP POP POP POP POP DUP2 MSTORE PUSH1 0x20 ADD PUSH1 0xF DUP3 ADD DUP1 SLOAD PUSH2 0x5BE5 SWAP1 PUSH2 0x8E86 JUMP JUMPDEST DUP1 PUSH1 0x1F ADD PUSH1 0x20 DUP1 SWAP2 DIV MUL PUSH1 0x20 ADD PUSH1 0x40 MLOAD SWAP1 DUP2 ADD PUSH1 0x40 MSTORE DUP1 SWAP3 SWAP2 SWAP1 DUP2 DUP2 MSTORE PUSH1 0x20 ADD DUP3 DUP1 SLOAD PUSH2 0x5C11 SWAP1 PUSH2 0x8E86 JUMP JUMPDEST DUP1 ISZERO PUSH2 0x5C5E JUMPI DUP1 PUSH1 0x1F LT PUSH2 0x5C33 JUMPI PUSH2 0x100 DUP1 DUP4 SLOAD DIV MUL DUP4 MSTORE SWAP2 PUSH1 0x20 ADD SWAP2 PUSH2 0x5C5E JUMP JUMPDEST DUP3 ADD SWAP2 SWAP1 PUSH1 0x0 MSTORE PUSH1 0x20 PUSH1 0x0 KECCAK256 SWAP1 JUMPDEST DUP2 SLOAD DUP2 MSTORE SWAP1 PUSH1 0x1 ADD SWAP1 PUSH1 0x20 ADD DUP1 DUP4 GT PUSH2 0x5C41 JUMPI DUP3 SWAP1 SUB PUSH1 0x1F AND DUP3 ADD SWAP2 JUMPDEST POP POP POP SWAP2 DUP4 MSTORE POP POP PUSH1 0x10 DUP3 ADD SLOAD PUSH1 0x20 DUP3 ADD MSTORE PUSH1 0x11 DUP3 ADD SLOAD PUSH1 0x40 DUP3 ADD MSTORE PUSH1 0x12 DUP3 ADD SLOAD PUSH1 0x1 PUSH1 0x1 PUSH1 0xA0 SHL SUB AND PUSH1 0x60 DUP3 ADD MSTORE PUSH1 0x13 DUP3 ADD DUP1 SLOAD PUSH1 0x80 SWAP1 SWAP3 ADD SWAP2 PUSH2 0x5CA2 SWAP1 PUSH2 0x8E86 JUMP JUMPDEST DUP1 PUSH1 0x1F ADD PUSH1 0x20 DUP1 SWAP2 DIV MUL PUSH1 0x20 ADD PUSH1 0x40 MLOAD SWAP1 DUP2 ADD PUSH1 0x40 MSTORE DUP1 SWAP3 SWAP2 SWAP1 DUP2 DUP2 MSTORE PUSH1 0x20 ADD DUP3 DUP1 SLOAD PUSH2 0x5CCE SWAP1 PUSH2 0x8E86 JUMP JUMPDEST DUP1 ISZERO PUSH2 0x5D1B JUMPI DUP1 PUSH1 0x1F LT PUSH2 0x5CF0 JUMPI PUSH2 0x100 DUP1 DUP4 SLOAD DIV MUL DUP4 MSTORE SWAP2 PUSH1 0x20 ADD SWAP2 PUSH2 0x5D1B JUMP JUMPDEST DUP3 ADD SWAP2 SWAP1 PUSH1 0x0 MSTORE PUSH1 0x20 PUSH1 0x0 KECCAK256 SWAP1 JUMPDEST DUP2 SLOAD DUP2 MSTORE SWAP1 PUSH1 0x1 ADD SWAP1 PUSH1 0x20 ADD DUP1 DUP4 GT PUSH2 0x5CFE JUMPI DUP3 SWAP1 SUB PUSH1 0x1F AND DUP3 ADD SWAP2 JUMPDEST POP POP POP POP POP DUP2 MSTORE PUSH1 0x20 ADD PUSH1 0x14 DUP3 ADD DUP1 SLOAD PUSH2 0x5D34 SWAP1 PUSH2 0x8E86 JUMP JUMPDEST DUP1 PUSH1 0x1F ADD PUSH1 0x20 DUP1 SWAP2 DIV MUL PUSH1 0x20 ADD PUSH1 0x40 MLOAD SWAP1 DUP2 ADD PUSH1 0x40 MSTORE DUP1 SWAP3 SWAP2 SWAP1 DUP2 DUP2 MSTORE PUSH1 0x20 ADD DUP3 DUP1 SLOAD PUSH2 0x5D60 SWAP1 PUSH2 0x8E86 JUMP JUMPDEST DUP1 ISZERO PUSH2 0x5DAD JUMPI DUP1 PUSH1 0x1F LT PUSH2 0x5D82 JUMPI PUSH2 0x100 DUP1 DUP4 SLOAD DIV MUL DUP4 MSTORE SWAP2 PUSH1 0x20 ADD SWAP2 PUSH2 0x5DAD JUMP JUMPDEST DUP3 ADD SWAP2 SWAP1 PUSH1 0x0 MSTORE PUSH1 0x20 PUSH1 0x0 KECCAK256 SWAP1 JUMPDEST DUP2 SLOAD DUP2 MSTORE SWAP1 PUSH1 0x1 ADD SWAP1 PUSH1 0x20 ADD DUP1 DUP4 GT PUSH2 0x5D90 JUMPI DUP3 SWAP1 SUB PUSH1 0x1F AND DUP3 ADD SWAP2 JUMPDEST POP POP POP SWAP2 DUP4 MSTORE POP POP PUSH1 0x15 DUP3 ADD SLOAD PUSH1 0x20 DUP3 ADD MSTORE PUSH1 0x16 DUP3 ADD SLOAD PUSH1 0x40 DUP3 ADD MSTORE PUSH1 0x17 DUP3 ADD SLOAD PUSH1 0x1 PUSH1 0x1 PUSH1 0xA0 SHL SUB AND PUSH1 0x60 DUP3 ADD MSTORE PUSH1 0x18 DUP3 ADD DUP1 SLOAD PUSH1 0x80 SWAP1 SWAP3 ADD SWAP2 PUSH2 0x5DF1 SWAP1 PUSH2 0x8E86 JUMP JUMPDEST DUP1 PUSH1 0x1F ADD PUSH1 0x20 DUP1 SWAP2 DIV MUL PUSH1 0x20 ADD PUSH1 0x40 MLOAD SWAP1 DUP2 ADD PUSH1 0x40 MSTORE DUP1 SWAP3 SWAP2 SWAP1 DUP2 DUP2 MSTORE PUSH1 0x20 ADD DUP3 DUP1 SLOAD PUSH2 0x5E1D SWAP1 PUSH2 0x8E86 JUMP JUMPDEST DUP1 ISZERO PUSH2 0x5E6A JUMPI DUP1 PUSH1 0x1F LT PUSH2 0x5E3F JUMPI PUSH2 0x100 DUP1 DUP4 SLOAD DIV MUL DUP4 MSTORE SWAP2 PUSH1 0x20 ADD SWAP2 PUSH2 0x5E6A JUMP JUMPDEST DUP3 ADD SWAP2 SWAP1 PUSH1 0x0 MSTORE PUSH1 0x20 PUSH1 0x0 KECCAK256 SWAP1 JUMPDEST DUP2 SLOAD DUP2 MSTORE SWAP1 PUSH1 0x1 ADD SWAP1 PUSH1 0x20 ADD DUP1 DUP4 GT PUSH2 0x5E4D JUMPI DUP3 SWAP1 SUB PUSH1 0x1F AND DUP3 ADD SWAP2 JUMPDEST POP POP POP POP POP DUP2 MSTORE PUSH1 0x20 ADD PUSH1 0x19 DUP3 ADD DUP1 SLOAD PUSH2 0x5E83 SWAP1 PUSH2 0x8E86 JUMP JUMPDEST DUP1 PUSH1 0x1F ADD PUSH1 0x20 DUP1 SWAP2 DIV MUL PUSH1 0x20 ADD PUSH1 0x40 MLOAD SWAP1 DUP2 ADD PUSH1 0x40 MSTORE DUP1 SWAP3 SWAP2 SWAP1 DUP2 DUP2 MSTORE PUSH1 0x20 ADD DUP3 DUP1 SLOAD PUSH2 0x5EAF SWAP1 PUSH2 0x8E86 JUMP JUMPDEST DUP1 ISZERO PUSH2 0x5EFC JUMPI DUP1 PUSH1 0x1F LT PUSH2 0x5ED1 JUMPI PUSH2 0x100 DUP1 DUP4 SLOAD DIV MUL DUP4 MSTORE SWAP2 PUSH1 0x20 ADD SWAP2 PUSH2 0x5EFC JUMP JUMPDEST DUP3 ADD SWAP2 SWAP1 PUSH1 0x0 MSTORE PUSH1 0x20 PUSH1 0x0 KECCAK256 SWAP1 JUMPDEST DUP2 SLOAD DUP2 MSTORE SWAP1 PUSH1 0x1 ADD SWAP1 PUSH1 0x20 ADD DUP1 DUP4 GT PUSH2 0x5EDF JUMPI DUP3 SWAP1 SUB PUSH1 0x1F AND DUP3 ADD SWAP2 JUMPDEST POP POP POP POP POP DUP2 MSTORE PUSH1 0x20 ADD PUSH1 0x1A DUP3 ADD DUP1 SLOAD PUSH2 0x5F15 SWAP1 PUSH2 0x8E86 JUMP JUMPDEST DUP1 PUSH1 0x1F ADD PUSH1 0x20 DUP1 SWAP2 DIV MUL PUSH1 0x20 ADD PUSH1 0x40 MLOAD SWAP1 DUP2 ADD PUSH1 0x40 MSTORE DUP1 SWAP3 SWAP2 SWAP1 DUP2 DUP2 MSTORE PUSH1 0x20 ADD DUP3 DUP1 SLOAD PUSH2 0x5F41 SWAP1 PUSH2 0x8E86 JUMP JUMPDEST DUP1 ISZERO PUSH2 0x5F8E JUMPI DUP1 PUSH1 0x1F LT PUSH2 0x5F63 JUMPI PUSH2 0x100 DUP1 DUP4 SLOAD DIV MUL DUP4 MSTORE SWAP2 PUSH1 0x20 ADD SWAP2 PUSH2 0x5F8E JUMP JUMPDEST DUP3 ADD SWAP2 SWAP1 PUSH1 0x0 MSTORE PUSH1 0x20 PUSH1 0x0 KECCAK256 SWAP1 JUMPDEST DUP2 SLOAD DUP2 MSTORE SWAP1 PUSH1 0x1 ADD SWAP1 PUSH1 0x20 ADD DUP1 DUP4 GT PUSH2 0x5F71 JUMPI DUP3 SWAP1 SUB PUSH1 0x1F AND DUP3 ADD SWAP2 JUMPDEST POP POP POP POP POP DUP2 MSTORE PUSH1 0x20 ADD PUSH1 0x1B DUP3 ADD DUP1 SLOAD PUSH2 0x5FA7 SWAP1 PUSH2 0x8E86 JUMP JUMPDEST DUP1 PUSH1 0x1F ADD PUSH1 0x20 DUP1 SWAP2 DIV MUL PUSH1 0x20 ADD PUSH1 0x40 MLOAD SWAP1 DUP2 ADD PUSH1 0x40 MSTORE DUP1 SWAP3 SWAP2 SWAP1 DUP2 DUP2 MSTORE PUSH1 0x20 ADD DUP3 DUP1 SLOAD PUSH2 0x5FD3 SWAP1 PUSH2 0x8E86 JUMP JUMPDEST DUP1 ISZERO PUSH2 0x6020 JUMPI DUP1 PUSH1 0x1F LT PUSH2 0x5FF5 JUMPI PUSH2 0x100 DUP1 DUP4 SLOAD DIV MUL DUP4 MSTORE SWAP2 PUSH1 0x20 ADD SWAP2 PUSH2 0x6020 JUMP JUMPDEST DUP3 ADD SWAP2 SWAP1 PUSH1 0x0 MSTORE PUSH1 0x20 PUSH1 0x0 KECCAK256 SWAP1 JUMPDEST DUP2 SLOAD DUP2 MSTORE SWAP1 PUSH1 0x1 ADD SWAP1 PUSH1 0x20 ADD DUP1 DUP4 GT PUSH2 0x6003 JUMPI DUP3 SWAP1 SUB PUSH1 0x1F AND DUP3 ADD SWAP2 JUMPDEST POP POP POP POP POP DUP2 MSTORE PUSH1 0x20 ADD PUSH1 0x1C DUP3 ADD DUP1 SLOAD PUSH2 0x6039 SWAP1 PUSH2 0x8E86 JUMP JUMPDEST DUP1 PUSH1 0x1F ADD PUSH1 0x20 DUP1 SWAP2 DIV MUL PUSH1 0x20 ADD PUSH1 0x40 MLOAD SWAP1 DUP2 ADD PUSH1 0x40 MSTORE DUP1 SWAP3 SWAP2 SWAP1 DUP2 DUP2 MSTORE PUSH1 0x20 ADD DUP3 DUP1 SLOAD PUSH2 0x6065 SWAP1 PUSH2 0x8E86 JUMP JUMPDEST DUP1 ISZERO PUSH2 0x60B2 JUMPI DUP1 PUSH1 0x1F LT PUSH2 0x6087 JUMPI PUSH2 0x100 DUP1 DUP4 SLOAD DIV MUL DUP4 MSTORE SWAP2 PUSH1 0x20 ADD SWAP2 PUSH2 0x60B2 JUMP JUMPDEST DUP3 ADD SWAP2 SWAP1 PUSH1 0x0 MSTORE PUSH1 0x20 PUSH1 0x0 KECCAK256 SWAP1 JUMPDEST DUP2 SLOAD DUP2 MSTORE SWAP1 PUSH1 0x1 ADD SWAP1 PUSH1 0x20 ADD DUP1 DUP4 GT PUSH2 0x6095 JUMPI DUP3 SWAP1 SUB PUSH1 0x1F AND DUP3 ADD SWAP2 JUMPDEST POP POP POP SWAP2 DUP4 MSTORE POP POP PUSH1 0x1D DUP3 ADD SLOAD PUSH1 0x20 DUP1 DUP4 ADD SWAP2 SWAP1 SWAP2 MSTORE PUSH1 0x1E DUP4 ADD SLOAD PUSH1 0x40 DUP4 ADD MSTORE PUSH1 0x1F DUP4 ADD SLOAD PUSH1 0x1 PUSH1 0x1 PUSH1 0xA0 SHL SUB AND PUSH1 0x60 DUP4 ADD MSTORE DUP3 ADD DUP1 SLOAD PUSH1 0x80 SWAP1 SWAP3 ADD SWAP2 PUSH2 0x60F8 SWAP1 PUSH2 0x8E86 JUMP JUMPDEST DUP1 PUSH1 0x1F ADD PUSH1 0x20 DUP1 SWAP2 DIV MUL PUSH1 0x20 ADD PUSH1 0x40 MLOAD SWAP1 DUP2 ADD PUSH1 0x40 MSTORE DUP1 SWAP3 SWAP2 SWAP1 DUP2 DUP2 MSTORE PUSH1 0x20 ADD DUP3 DUP1 SLOAD PUSH2 0x6124 SWAP1 PUSH2 0x8E86 JUMP JUMPDEST DUP1 ISZERO PUSH2 0x6171 JUMPI DUP1 PUSH1 0x1F LT PUSH2 0x6146 JUMPI PUSH2 0x100 DUP1 DUP4 SLOAD DIV MUL DUP4 MSTORE SWAP2 PUSH1 0x20 ADD SWAP2 PUSH2 0x6171 JUMP JUMPDEST DUP3 ADD SWAP2 SWAP1 PUSH1 0x0 MSTORE PUSH1 0x20 PUSH1 0x0 KECCAK256 SWAP1 JUMPDEST DUP2 SLOAD DUP2 MSTORE SWAP1 PUSH1 0x1 ADD SWAP1 PUSH1 0x20 ADD DUP1 DUP4 GT PUSH2 0x6154 JUMPI DUP3 SWAP1 SUB PUSH1 0x1F AND DUP3 ADD SWAP2 JUMPDEST POP POP POP POP POP DUP2 MSTORE PUSH1 0x20 ADD PUSH1 0x21 DUP3 ADD DUP1 SLOAD PUSH2 0x618A SWAP1 PUSH2 0x8E86 JUMP JUMPDEST DUP1 PUSH1 0x1F ADD PUSH1 0x20 DUP1 SWAP2 DIV MUL PUSH1 0x20 ADD PUSH1 0x40 MLOAD SWAP1 DUP2 ADD PUSH1 0x40 MSTORE DUP1 SWAP3 SWAP2 SWAP1 DUP2 DUP2 MSTORE PUSH1 0x20 ADD DUP3 DUP1 SLOAD PUSH2 0x61B6 SWAP1 PUSH2 0x8E86 JUMP JUMPDEST DUP1 ISZERO PUSH2 0x6203 JUMPI DUP1 PUSH1 0x1F LT PUSH2 0x61D8 JUMPI PUSH2 0x100 DUP1 DUP4 SLOAD DIV MUL DUP4 MSTORE SWAP2 PUSH1 0x20 ADD SWAP2 PUSH2 0x6203 JUMP JUMPDEST DUP3 ADD SWAP2 SWAP1 PUSH1 0x0 MSTORE PUSH1 0x20 PUSH1 0x0 KECCAK256 SWAP1 JUMPDEST DUP2 SLOAD DUP2 MSTORE SWAP1 PUSH1 0x1 ADD SWAP1 PUSH1 0x20 ADD DUP1 DUP4 GT PUSH2 0x61E6 JUMPI DUP3 SWAP1 SUB PUSH1 0x1F AND DUP3 ADD SWAP2 JUMPDEST POP POP POP SWAP2 DUP4 MSTORE POP POP PUSH1 0x22 DUP3 ADD SLOAD PUSH1 0x20 DUP3 ADD MSTORE PUSH1 0x23 DUP3 ADD SLOAD PUSH1 0x40 DUP3 ADD MSTORE PUSH1 0x24 DUP3 ADD SLOAD PUSH1 0x1 PUSH1 0x1 PUSH1 0xA0 SHL SUB AND PUSH1 0x60 DUP3 ADD MSTORE PUSH1 0x25 DUP3 ADD DUP1 SLOAD PUSH1 0x80 SWAP1 SWAP3 ADD SWAP2 PUSH2 0x6247 SWAP1 PUSH2 0x8E86 JUMP JUMPDEST DUP1 PUSH1 0x1F ADD PUSH1 0x20 DUP1 SWAP2 DIV MUL PUSH1 0x20 ADD PUSH1 0x40 MLOAD SWAP1 DUP2 ADD PUSH1 0x40 MSTORE DUP1 SWAP3 SWAP2 SWAP1 DUP2 DUP2 MSTORE PUSH1 0x20 ADD DUP3 DUP1 SLOAD PUSH2 0x6273 SWAP1 PUSH2 0x8E86 JUMP JUMPDEST DUP1 ISZERO PUSH2 0x62C0 JUMPI DUP1 PUSH1 0x1F LT PUSH2 0x6295 JUMPI PUSH2 0x100 DUP1 DUP4 SLOAD DIV MUL DUP4 MSTORE SWAP2 PUSH1 0x20 ADD SWAP2 PUSH2 0x62C0 JUMP JUMPDEST DUP3 ADD SWAP2 SWAP1 PUSH1 0x0 MSTORE PUSH1 0x20 PUSH1 0x0 KECCAK256 SWAP1 JUMPDEST DUP2 SLOAD DUP2 MSTORE SWAP1 PUSH1 0x1 ADD SWAP1 PUSH1 0x20 ADD DUP1 DUP4 GT PUSH2 0x62A3 JUMPI DUP3 SWAP1 SUB PUSH1 0x1F AND DUP3 ADD SWAP2 JUMPDEST POP POP POP POP POP DUP2 MSTORE PUSH1 0x20 ADD PUSH1 0x26 DUP3 ADD DUP1 SLOAD PUSH2 0x62D9 SWAP1 PUSH2 0x8E86 JUMP JUMPDEST DUP1 PUSH1 0x1F ADD PUSH1 0x20 DUP1 SWAP2 DIV MUL PUSH1 0x20 ADD PUSH1 0x40 MLOAD SWAP1 DUP2 ADD PUSH1 0x40 MSTORE DUP1 SWAP3 SWAP2 SWAP1 DUP2 DUP2 MSTORE PUSH1 0x20 ADD DUP3 DUP1 SLOAD PUSH2 0x6305 SWAP1 PUSH2 0x8E86 JUMP JUMPDEST DUP1 ISZERO PUSH2 0x6352 JUMPI DUP1 PUSH1 0x1F LT PUSH2 0x6327 JUMPI PUSH2 0x100 DUP1 DUP4 SLOAD DIV MUL DUP4 MSTORE SWAP2 PUSH1 0x20 ADD SWAP2 PUSH2 0x6352 JUMP JUMPDEST DUP3 ADD SWAP2 SWAP1 PUSH1 0x0 MSTORE PUSH1 0x20 PUSH1 0x0 KECCAK256 SWAP1 JUMPDEST DUP2 SLOAD DUP2 MSTORE SWAP1 PUSH1 0x1 ADD SWAP1 PUSH1 0x20 ADD DUP1 DUP4 GT PUSH2 0x6335 JUMPI DUP3 SWAP1 SUB PUSH1 0x1F AND DUP3 ADD SWAP2 JUMPDEST POP POP POP SWAP2 DUP4 MSTORE POP POP PUSH1 0x27 DUP3 ADD SLOAD PUSH1 0x20 DUP3 ADD MSTORE PUSH1 0x28 DUP3 ADD SLOAD PUSH1 0x1 PUSH1 0x1 PUSH1 0xA0 SHL SUB AND PUSH1 0x40 DUP3 ADD MSTORE PUSH1 0x29 DUP3 ADD DUP1 SLOAD PUSH1 0x60 SWAP1 SWAP3 ADD SWAP2 PUSH2 0x638C SWAP1 PUSH2 0x8E86 JUMP JUMPDEST DUP1 PUSH1 0x1F ADD PUSH1 0x20 DUP1 SWAP2 DIV MUL PUSH1 0x20 ADD PUSH1 0x40 MLOAD SWAP1 DUP2 ADD PUSH1 0x40 MSTORE DUP1 SWAP3 SWAP2 SWAP1 DUP2 DUP2 MSTORE PUSH1 0x20 ADD DUP3 DUP1 SLOAD PUSH2 0x63B8 SWAP1 PUSH2 0x8E86 JUMP JUMPDEST DUP1 ISZERO PUSH2 0x6405 JUMPI DUP1 PUSH1 0x1F LT PUSH2 0x63DA JUMPI PUSH2 0x100 DUP1 DUP4 SLOAD DIV MUL DUP4 MSTORE SWAP2 PUSH1 0x20 ADD SWAP2 PUSH2 0x6405 JUMP JUMPDEST DUP3 ADD SWAP2 SWAP1 PUSH1 0x0 MSTORE PUSH1 0x20 PUSH1 0x0 KECCAK256 SWAP1 JUMPDEST DUP2 SLOAD DUP2 MSTORE SWAP1 PUSH1 0x1 ADD SWAP1 PUSH1 0x20 ADD DUP1 DUP4 GT PUSH2 0x63E8 JUMPI DUP3 SWAP1 SUB PUSH1 0x1F AND DUP3 ADD SWAP2 JUMPDEST POP POP POP SWAP2 DUP4 MSTORE POP POP PUSH1 0x2A DUP3 ADD SLOAD PUSH1 0x20 DUP3 ADD MSTORE PUSH1 0x2B DUP3 ADD SLOAD PUSH1 0x40 SWAP1 SWAP2 ADD SWAP1 PUSH1 0xFF AND PUSH1 0x19 DUP2 GT ISZERO PUSH2 0x6436 JUMPI PUSH2 0x6436 PUSH2 0x8EF2 JUMP JUMPDEST PUSH1 0x19 DUP2 GT ISZERO PUSH2 0x6447 JUMPI PUSH2 0x6447 PUSH2 0x8EF2 JUMP JUMPDEST DUP2 MSTORE POP POP SWAP1 POP DUP1 PUSH1 0x0 ADD MLOAD DUP2 PUSH1 0x20 ADD MLOAD DUP3 PUSH1 0x40 ADD MLOAD DUP4 PUSH1 0x60 ADD MLOAD DUP5 PUSH1 0x80 ADD MLOAD DUP6 PUSH1 0xA0 ADD MLOAD DUP7 PUSH1 0xC0 ADD MLOAD DUP8 PUSH1 0xE0 ADD MLOAD DUP9 PUSH2 0x100 ADD MLOAD DUP10 PUSH2 0x120 ADD MLOAD DUP11 PUSH2 0x140 ADD MLOAD SWAP12 POP SWAP12 POP SWAP12 POP SWAP12 POP SWAP12 POP SWAP12 POP SWAP12 POP SWAP12 POP SWAP12 POP SWAP12 POP SWAP12 POP POP SWAP2 SWAP4 SWAP6 SWAP8 SWAP10 SWAP12 SWAP1 SWAP3 SWAP5 SWAP7 SWAP9 SWAP11 POP JUMP JUMPDEST PUSH2 0x36EE CALLER PUSH2 0x8634 JUMP JUMPDEST PUSH2 0x64BF CALLER PUSH2 0x4F40 JUMP JUMPDEST PUSH2 0x64C8 JUMPI PUSH1 0x0 DUP1 REVERT JUMPDEST DUP1 PUSH1 0x2 PUSH1 0x0 DUP3 DUP2 MSTORE PUSH1 0xB PUSH1 0x20 MSTORE PUSH1 0x40 SWAP1 KECCAK256 PUSH1 0x2B ADD SLOAD PUSH1 0xFF AND PUSH1 0x19 DUP2 GT ISZERO PUSH2 0x64F1 JUMPI PUSH2 0x64F1 PUSH2 0x8EF2 JUMP JUMPDEST EQ PUSH2 0x64FB JUMPI PUSH1 0x0 DUP1 REVERT JUMPDEST PUSH1 0x0 DUP3 DUP2 MSTORE PUSH1 0xB PUSH1 0x20 MSTORE PUSH1 0x40 SWAP1 KECCAK256 SLOAD PUSH1 0x1 PUSH1 0x1 PUSH1 0xA0 SHL SUB AND CALLER DUP2 EQ PUSH2 0x651F JUMPI PUSH1 0x0 DUP1 REVERT JUMPDEST PUSH1 0x0 DUP4 DUP2 MSTORE PUSH1 0xB PUSH1 0x20 SWAP1 DUP2 MSTORE PUSH1 0x40 SWAP2 DUP3 SWAP1 KECCAK256 PUSH1 0x2B ADD DUP1 SLOAD PUSH1 0xFF NOT AND PUSH1 0x3 OR SWAP1 SSTORE SWAP1 MLOAD DUP5 DUP2 MSTORE PUSH32 0x7A02B5A0B1F928CFFCAFD0E750F369A40F124F4F34F65801FE1F0D945B9A7915 SWAP2 ADD PUSH2 0xA9A JUMP JUMPDEST PUSH2 0x36EE CALLER PUSH2 0x8676 JUMP JUMPDEST PUSH1 0x8 SLOAD PUSH1 0x1 PUSH1 0x1 PUSH1 0xA0 SHL SUB AND CALLER EQ PUSH2 0x658C JUMPI PUSH1 0x0 DUP1 REVERT JUMPDEST PUSH2 0xAC2 DUP2 PUSH2 0x86B8 JUMP JUMPDEST PUSH1 0x0 DUP2 DUP2 MSTORE PUSH1 0xB PUSH1 0x20 SWAP1 DUP2 MSTORE PUSH1 0x40 DUP1 DUP4 KECCAK256 DUP2 MLOAD PUSH2 0x580 DUP2 ADD DUP4 MSTORE DUP2 SLOAD PUSH1 0x1 PUSH1 0x1 PUSH1 0xA0 SHL SUB SWAP1 DUP2 AND DUP3 MSTORE PUSH1 0x1 DUP4 ADD SLOAD SWAP5 DUP3 ADD SWAP5 SWAP1 SWAP5 MSTORE PUSH1 0x2 DUP3 ADD SLOAD SWAP3 DUP2 ADD SWAP3 SWAP1 SWAP3 MSTORE PUSH1 0x3 DUP2 ADD SLOAD PUSH1 0x60 DUP4 DUP2 ADD SWAP2 SWAP1 SWAP2 MSTORE PUSH1 0x4 DUP3 ADD SLOAD SWAP1 SWAP4 AND PUSH1 0x80 DUP4 ADD MSTORE PUSH1 0x5 DUP2 ADD DUP1 SLOAD DUP6 SWAP4 DUP5 SWAP4 SWAP1 SWAP3 SWAP1 SWAP2 PUSH1 0xA0 DUP5 ADD SWAP2 SWAP1 PUSH2 0x660E SWAP1 PUSH2 0x8E86 JUMP JUMPDEST DUP1 PUSH1 0x1F ADD PUSH1 0x20 DUP1 SWAP2 DIV MUL PUSH1 0x20 ADD PUSH1 0x40 MLOAD SWAP1 DUP2 ADD PUSH1 0x40 MSTORE DUP1 SWAP3 SWAP2 SWAP1 DUP2 DUP2 MSTORE PUSH1 0x20 ADD DUP3 DUP1 SLOAD PUSH2 0x663A SWAP1 PUSH2 0x8E86 JUMP JUMPDEST DUP1 ISZERO PUSH2 0x6687 JUMPI DUP1 PUSH1 0x1F LT PUSH2 0x665C JUMPI PUSH2 0x100 DUP1 DUP4 SLOAD DIV MUL DUP4 MSTORE SWAP2 PUSH1 0x20 ADD SWAP2 PUSH2 0x6687 JUMP JUMPDEST DUP3 ADD SWAP2 SWAP1 PUSH1 0x0 MSTORE PUSH1 0x20 PUSH1 0x0 KECCAK256 SWAP1 JUMPDEST DUP2 SLOAD DUP2 MSTORE SWAP1 PUSH1 0x1 ADD SWAP1 PUSH1 0x20 ADD DUP1 DUP4 GT PUSH2 0x666A JUMPI DUP3 SWAP1 SUB PUSH1 0x1F AND DUP3 ADD SWAP2 JUMPDEST POP POP POP POP POP DUP2 MSTORE PUSH1 0x20 ADD PUSH1 0x6 DUP3 ADD DUP1 SLOAD PUSH2 0x66A0 SWAP1 PUSH2 0x8E86 JUMP JUMPDEST DUP1 PUSH1 0x1F ADD PUSH1 0x20 DUP1 SWAP2 DIV MUL PUSH1 0x20 ADD PUSH1 0x40 MLOAD SWAP1 DUP2 ADD PUSH1 0x40 MSTORE DUP1 SWAP3 SWAP2 SWAP1 DUP2 DUP2 MSTORE PUSH1 0x20 ADD DUP3 DUP1 SLOAD PUSH2 0x66CC SWAP1 PUSH2 0x8E86 JUMP JUMPDEST DUP1 ISZERO PUSH2 0x6719 JUMPI DUP1 PUSH1 0x1F LT PUSH2 0x66EE JUMPI PUSH2 0x100 DUP1 DUP4 SLOAD DIV MUL DUP4 MSTORE SWAP2 PUSH1 0x20 ADD SWAP2 PUSH2 0x6719 JUMP JUMPDEST DUP3 ADD SWAP2 SWAP1 PUSH1 0x0 MSTORE PUSH1 0x20 PUSH1 0x0 KECCAK256 SWAP1 JUMPDEST DUP2 SLOAD DUP2 MSTORE SWAP1 PUSH1 0x1 ADD SWAP1 PUSH1 0x20 ADD DUP1 DUP4 GT PUSH2 0x66FC JUMPI DUP3 SWAP1 SUB PUSH1 0x1F AND DUP3 ADD SWAP2 JUMPDEST POP POP POP POP POP DUP2 MSTORE PUSH1 0x20 ADD PUSH1 0x7 DUP3 ADD DUP1 SLOAD PUSH2 0x6732 SWAP1 PUSH2 0x8E86 JUMP JUMPDEST DUP1 PUSH1 0x1F ADD PUSH1 0x20 DUP1 SWAP2 DIV MUL PUSH1 0x20 ADD PUSH1 0x40 MLOAD SWAP1 DUP2 ADD PUSH1 0x40 MSTORE DUP1 SWAP3 SWAP2 SWAP1 DUP2 DUP2 MSTORE PUSH1 0x20 ADD DUP3 DUP1 SLOAD PUSH2 0x675E SWAP1 PUSH2 0x8E86 JUMP JUMPDEST DUP1 ISZERO PUSH2 0x67AB JUMPI DUP1 PUSH1 0x1F LT PUSH2 0x6780 JUMPI PUSH2 0x100 DUP1 DUP4 SLOAD DIV MUL DUP4 MSTORE SWAP2 PUSH1 0x20 ADD SWAP2 PUSH2 0x67AB JUMP JUMPDEST DUP3 ADD SWAP2 SWAP1 PUSH1 0x0 MSTORE PUSH1 0x20 PUSH1 0x0 KECCAK256 SWAP1 JUMPDEST DUP2 SLOAD DUP2 MSTORE SWAP1 PUSH1 0x1 ADD SWAP1 PUSH1 0x20 ADD DUP1 DUP4 GT PUSH2 0x678E JUMPI DUP3 SWAP1 SUB PUSH1 0x1F AND DUP3 ADD SWAP2 JUMPDEST POP POP POP POP POP DUP2 MSTORE PUSH1 0x20 ADD PUSH1 0x8 DUP3 ADD DUP1 SLOAD PUSH2 0x67C4 SWAP1 PUSH2 0x8E86 JUMP JUMPDEST DUP1 PUSH1 0x1F ADD PUSH1 0x20 DUP1 SWAP2 DIV MUL PUSH1 0x20 ADD PUSH1 0x40 MLOAD SWAP1 DUP2 ADD PUSH1 0x40 MSTORE DUP1 SWAP3 SWAP2 SWAP1 DUP2 DUP2 MSTORE PUSH1 0x20 ADD DUP3 DUP1 SLOAD PUSH2 0x67F0 SWAP1 PUSH2 0x8E86 JUMP JUMPDEST DUP1 ISZERO PUSH2 0x683D JUMPI DUP1 PUSH1 0x1F LT PUSH2 0x6812 JUMPI PUSH2 0x100 DUP1 DUP4 SLOAD DIV MUL DUP4 MSTORE SWAP2 PUSH1 0x20 ADD SWAP2 PUSH2 0x683D JUMP JUMPDEST DUP3 ADD SWAP2 SWAP1 PUSH1 0x0 MSTORE PUSH1 0x20 PUSH1 0x0 KECCAK256 SWAP1 JUMPDEST DUP2 SLOAD DUP2 MSTORE SWAP1 PUSH1 0x1 ADD SWAP1 PUSH1 0x20 ADD DUP1 DUP4 GT PUSH2 0x6820 JUMPI DUP3 SWAP1 SUB PUSH1 0x1F AND DUP3 ADD SWAP2 JUMPDEST POP POP POP SWAP2 DUP4 MSTORE POP POP PUSH1 0x9 DUP3 ADD SLOAD PUSH1 0x20 DUP3 ADD MSTORE PUSH1 0xA DUP3 ADD SLOAD PUSH1 0x40 DUP3 ADD MSTORE PUSH1 0xB DUP3 ADD SLOAD PUSH1 0x1 PUSH1 0x1 PUSH1 0xA0 SHL SUB AND PUSH1 0x60 DUP3 ADD MSTORE PUSH1 0xC DUP3 ADD DUP1 SLOAD PUSH1 0x80 SWAP1 SWAP3 ADD SWAP2 PUSH2 0x6881 SWAP1 PUSH2 0x8E86 JUMP JUMPDEST DUP1 PUSH1 0x1F ADD PUSH1 0x20 DUP1 SWAP2 DIV MUL PUSH1 0x20 ADD PUSH1 0x40 MLOAD SWAP1 DUP2 ADD PUSH1 0x40 MSTORE DUP1 SWAP3 SWAP2 SWAP1 DUP2 DUP2 MSTORE PUSH1 0x20 ADD DUP3 DUP1 SLOAD PUSH2 0x68AD SWAP1 PUSH2 0x8E86 JUMP JUMPDEST DUP1 ISZERO PUSH2 0x68FA JUMPI DUP1 PUSH1 0x1F LT PUSH2 0x68CF JUMPI PUSH2 0x100 DUP1 DUP4 SLOAD DIV MUL DUP4 MSTORE SWAP2 PUSH1 0x20 ADD SWAP2 PUSH2 0x68FA JUMP JUMPDEST DUP3 ADD SWAP2 SWAP1 PUSH1 0x0 MSTORE PUSH1 0x20 PUSH1 0x0 KECCAK256 SWAP1 JUMPDEST DUP2 SLOAD DUP2 MSTORE SWAP1 PUSH1 0x1 ADD SWAP1 PUSH1 0x20 ADD DUP1 DUP4 GT PUSH2 0x68DD JUMPI DUP3 SWAP1 SUB PUSH1 0x1F AND DUP3 ADD SWAP2 JUMPDEST POP POP POP POP POP DUP2 MSTORE PUSH1 0x20 ADD PUSH1 0xD DUP3 ADD DUP1 SLOAD PUSH2 0x6913 SWAP1 PUSH2 0x8E86 JUMP JUMPDEST DUP1 PUSH1 0x1F ADD PUSH1 0x20 DUP1 SWAP2 DIV MUL PUSH1 0x20 ADD PUSH1 0x40 MLOAD SWAP1 DUP2 ADD PUSH1 0x40 MSTORE DUP1 SWAP3 SWAP2 SWAP1 DUP2 DUP2 MSTORE PUSH1 0x20 ADD DUP3 DUP1 SLOAD PUSH2 0x693F SWAP1 PUSH2 0x8E86 JUMP JUMPDEST DUP1 ISZERO PUSH2 0x698C JUMPI DUP1 PUSH1 0x1F LT PUSH2 0x6961 JUMPI PUSH2 0x100 DUP1 DUP4 SLOAD DIV MUL DUP4 MSTORE SWAP2 PUSH1 0x20 ADD SWAP2 PUSH2 0x698C JUMP JUMPDEST DUP3 ADD SWAP2 SWAP1 PUSH1 0x0 MSTORE PUSH1 0x20 PUSH1 0x0 KECCAK256 SWAP1 JUMPDEST DUP2 SLOAD DUP2 MSTORE SWAP1 PUSH1 0x1 ADD SWAP1 PUSH1 0x20 ADD DUP1 DUP4 GT PUSH2 0x696F JUMPI DUP3 SWAP1 SUB PUSH1 0x1F AND DUP3 ADD SWAP2 JUMPDEST POP POP POP POP POP DUP2 MSTORE PUSH1 0x20 ADD PUSH1 0xE DUP3 ADD DUP1 SLOAD PUSH2 0x69A5 SWAP1 PUSH2 0x8E86 JUMP JUMPDEST DUP1 PUSH1 0x1F ADD PUSH1 0x20 DUP1 SWAP2 DIV MUL PUSH1 0x20 ADD PUSH1 0x40 MLOAD SWAP1 DUP2 ADD PUSH1 0x40 MSTORE DUP1 SWAP3 SWAP2 SWAP1 DUP2 DUP2 MSTORE PUSH1 0x20 ADD DUP3 DUP1 SLOAD PUSH2 0x69D1 SWAP1 PUSH2 0x8E86 JUMP JUMPDEST DUP1 ISZERO PUSH2 0x6A1E JUMPI DUP1 PUSH1 0x1F LT PUSH2 0x69F3 JUMPI PUSH2 0x100 DUP1 DUP4 SLOAD DIV MUL DUP4 MSTORE SWAP2 PUSH1 0x20 ADD SWAP2 PUSH2 0x6A1E JUMP JUMPDEST DUP3 ADD SWAP2 SWAP1 PUSH1 0x0 MSTORE PUSH1 0x20 PUSH1 0x0 KECCAK256 SWAP1 JUMPDEST DUP2 SLOAD DUP2 MSTORE SWAP1 PUSH1 0x1 ADD SWAP1 PUSH1 0x20 ADD DUP1 DUP4 GT PUSH2 0x6A01 JUMPI DUP3 SWAP1 SUB PUSH1 0x1F AND DUP3 ADD SWAP2 JUMPDEST POP POP POP POP POP DUP2 MSTORE PUSH1 0x20 ADD PUSH1 0xF DUP3 ADD DUP1 SLOAD PUSH2 0x6A37 SWAP1 PUSH2 0x8E86 JUMP JUMPDEST DUP1 PUSH1 0x1F ADD PUSH1 0x20 DUP1 SWAP2 DIV MUL PUSH1 0x20 ADD PUSH1 0x40 MLOAD SWAP1 DUP2 ADD PUSH1 0x40 MSTORE DUP1 SWAP3 SWAP2 SWAP1 DUP2 DUP2 MSTORE PUSH1 0x20 ADD DUP3 DUP1 SLOAD PUSH2 0x6A63 SWAP1 PUSH2 0x8E86 JUMP JUMPDEST DUP1 ISZERO PUSH2 0x6AB0 JUMPI DUP1 PUSH1 0x1F LT PUSH2 0x6A85 JUMPI PUSH2 0x100 DUP1 DUP4 SLOAD DIV MUL DUP4 MSTORE SWAP2 PUSH1 0x20 ADD SWAP2 PUSH2 0x6AB0 JUMP JUMPDEST DUP3 ADD SWAP2 SWAP1 PUSH1 0x0 MSTORE PUSH1 0x20 PUSH1 0x0 KECCAK256 SWAP1 JUMPDEST DUP2 SLOAD DUP2 MSTORE SWAP1 PUSH1 0x1 ADD SWAP1 PUSH1 0x20 ADD DUP1 DUP4 GT PUSH2 0x6A93 JUMPI DUP3 SWAP1 SUB PUSH1 0x1F AND DUP3 ADD SWAP2 JUMPDEST POP POP POP SWAP2 DUP4 MSTORE POP POP PUSH1 0x10 DUP3 ADD SLOAD PUSH1 0x20 DUP3 ADD MSTORE PUSH1 0x11 DUP3 ADD SLOAD PUSH1 0x40 DUP3 ADD MSTORE PUSH1 0x12 DUP3 ADD SLOAD PUSH1 0x1 PUSH1 0x1 PUSH1 0xA0 SHL SUB AND PUSH1 0x60 DUP3 ADD MSTORE PUSH1 0x13 DUP3 ADD DUP1 SLOAD PUSH1 0x80 SWAP1 SWAP3 ADD SWAP2 PUSH2 0x6AF4 SWAP1 PUSH2 0x8E86 JUMP JUMPDEST DUP1 PUSH1 0x1F ADD PUSH1 0x20 DUP1 SWAP2 DIV MUL PUSH1 0x20 ADD PUSH1 0x40 MLOAD SWAP1 DUP2 ADD PUSH1 0x40 MSTORE DUP1 SWAP3 SWAP2 SWAP1 DUP2 DUP2 MSTORE PUSH1 0x20 ADD DUP3 DUP1 SLOAD PUSH2 0x6B20 SWAP1 PUSH2 0x8E86 JUMP JUMPDEST DUP1 ISZERO PUSH2 0x6B6D JUMPI DUP1 PUSH1 0x1F LT PUSH2 0x6B42 JUMPI PUSH2 0x100 DUP1 DUP4 SLOAD DIV MUL DUP4 MSTORE SWAP2 PUSH1 0x20 ADD SWAP2 PUSH2 0x6B6D JUMP JUMPDEST DUP3 ADD SWAP2 SWAP1 PUSH1 0x0 MSTORE PUSH1 0x20 PUSH1 0x0 KECCAK256 SWAP1 JUMPDEST DUP2 SLOAD DUP2 MSTORE SWAP1 PUSH1 0x1 ADD SWAP1 PUSH1 0x20 ADD DUP1 DUP4 GT PUSH2 0x6B50 JUMPI DUP3 SWAP1 SUB PUSH1 0x1F AND DUP3 ADD SWAP2 JUMPDEST POP POP POP POP POP DUP2 MSTORE PUSH1 0x20 ADD PUSH1 0x14 DUP3 ADD DUP1 SLOAD PUSH2 0x6B86 SWAP1 PUSH2 0x8E86 JUMP JUMPDEST DUP1 PUSH1 0x1F ADD PUSH1 0x20 DUP1 SWAP2 DIV MUL PUSH1 0x20 ADD PUSH1 0x40 MLOAD SWAP1 DUP2 ADD PUSH1 0x40 MSTORE DUP1 SWAP3 SWAP2 SWAP1 DUP2 DUP2 MSTORE PUSH1 0x20 ADD DUP3 DUP1 SLOAD PUSH2 0x6BB2 SWAP1 PUSH2 0x8E86 JUMP JUMPDEST DUP1 ISZERO PUSH2 0x6BFF JUMPI DUP1 PUSH1 0x1F LT PUSH2 0x6BD4 JUMPI PUSH2 0x100 DUP1 DUP4 SLOAD DIV MUL DUP4 MSTORE SWAP2 PUSH1 0x20 ADD SWAP2 PUSH2 0x6BFF JUMP JUMPDEST DUP3 ADD SWAP2 SWAP1 PUSH1 0x0 MSTORE PUSH1 0x20 PUSH1 0x0 KECCAK256 SWAP1 JUMPDEST DUP2 SLOAD DUP2 MSTORE SWAP1 PUSH1 0x1 ADD SWAP1 PUSH1 0x20 ADD DUP1 DUP4 GT PUSH2 0x6BE2 JUMPI DUP3 SWAP1 SUB PUSH1 0x1F AND DUP3 ADD SWAP2 JUMPDEST POP POP POP SWAP2 DUP4 MSTORE POP POP PUSH1 0x15 DUP3 ADD SLOAD PUSH1 0x20 DUP3 ADD MSTORE PUSH1 0x16 DUP3 ADD SLOAD PUSH1 0x40 DUP3 ADD MSTORE PUSH1 0x17 DUP3 ADD SLOAD PUSH1 0x1 PUSH1 0x1 PUSH1 0xA0 SHL SUB AND PUSH1 0x60 DUP3 ADD MSTORE PUSH1 0x18 DUP3 ADD DUP1 SLOAD PUSH1 0x80 SWAP1 SWAP3 ADD SWAP2 PUSH2 0x6C43 SWAP1 PUSH2 0x8E86 JUMP JUMPDEST DUP1 PUSH1 0x1F ADD PUSH1 0x20 DUP1 SWAP2 DIV MUL PUSH1 0x20 ADD PUSH1 0x40 MLOAD SWAP1 DUP2 ADD PUSH1 0x40 MSTORE DUP1 SWAP3 SWAP2 SWAP1 DUP2 DUP2 MSTORE PUSH1 0x20 ADD DUP3 DUP1 SLOAD PUSH2 0x6C6F SWAP1 PUSH2 0x8E86 JUMP JUMPDEST DUP1 ISZERO PUSH2 0x6CBC JUMPI DUP1 PUSH1 0x1F LT PUSH2 0x6C91 JUMPI PUSH2 0x100 DUP1 DUP4 SLOAD DIV MUL DUP4 MSTORE SWAP2 PUSH1 0x20 ADD SWAP2 PUSH2 0x6CBC JUMP JUMPDEST DUP3 ADD SWAP2 SWAP1 PUSH1 0x0 MSTORE PUSH1 0x20 PUSH1 0x0 KECCAK256 SWAP1 JUMPDEST DUP2 SLOAD DUP2 MSTORE SWAP1 PUSH1 0x1 ADD SWAP1 PUSH1 0x20 ADD DUP1 DUP4 GT PUSH2 0x6C9F JUMPI DUP3 SWAP1 SUB PUSH1 0x1F AND DUP3 ADD SWAP2 JUMPDEST POP POP POP POP POP DUP2 MSTORE PUSH1 0x20 ADD PUSH1 0x19 DUP3 ADD DUP1 SLOAD PUSH2 0x6CD5 SWAP1 PUSH2 0x8E86 JUMP JUMPDEST DUP1 PUSH1 0x1F ADD PUSH1 0x20 DUP1 SWAP2 DIV MUL PUSH1 0x20 ADD PUSH1 0x40 MLOAD SWAP1 DUP2 ADD PUSH1 0x40 MSTORE DUP1 SWAP3 SWAP2 SWAP1 DUP2 DUP2 MSTORE PUSH1 0x20 ADD DUP3 DUP1 SLOAD PUSH2 0x6D01 SWAP1 PUSH2 0x8E86 JUMP JUMPDEST DUP1 ISZERO PUSH2 0x6D4E JUMPI DUP1 PUSH1 0x1F LT PUSH2 0x6D23 JUMPI PUSH2 0x100 DUP1 DUP4 SLOAD DIV MUL DUP4 MSTORE SWAP2 PUSH1 0x20 ADD SWAP2 PUSH2 0x6D4E JUMP JUMPDEST DUP3 ADD SWAP2 SWAP1 PUSH1 0x0 MSTORE PUSH1 0x20 PUSH1 0x0 KECCAK256 SWAP1 JUMPDEST DUP2 SLOAD DUP2 MSTORE SWAP1 PUSH1 0x1 ADD SWAP1 PUSH1 0x20 ADD DUP1 DUP4 GT PUSH2 0x6D31 JUMPI DUP3 SWAP1 SUB PUSH1 0x1F AND DUP3 ADD SWAP2 JUMPDEST POP POP POP POP POP DUP2 MSTORE PUSH1 0x20 ADD PUSH1 0x1A DUP3 ADD DUP1 SLOAD PUSH2 0x6D67 SWAP1 PUSH2 0x8E86 JUMP JUMPDEST DUP1 PUSH1 0x1F ADD PUSH1 0x20 DUP1 SWAP2 DIV MUL PUSH1 0x20 ADD PUSH1 0x40 MLOAD SWAP1 DUP2 ADD PUSH1 0x40 MSTORE DUP1 SWAP3 SWAP2 SWAP1 DUP2 DUP2 MSTORE PUSH1 0x20 ADD DUP3 DUP1 SLOAD PUSH2 0x6D93 SWAP1 PUSH2 0x8E86 JUMP JUMPDEST DUP1 ISZERO PUSH2 0x6DE0 JUMPI DUP1 PUSH1 0x1F LT PUSH2 0x6DB5 JUMPI PUSH2 0x100 DUP1 DUP4 SLOAD DIV MUL DUP4 MSTORE SWAP2 PUSH1 0x20 ADD SWAP2 PUSH2 0x6DE0 JUMP JUMPDEST DUP3 ADD SWAP2 SWAP1 PUSH1 0x0 MSTORE PUSH1 0x20 PUSH1 0x0 KECCAK256 SWAP1 JUMPDEST DUP2 SLOAD DUP2 MSTORE SWAP1 PUSH1 0x1 ADD SWAP1 PUSH1 0x20 ADD DUP1 DUP4 GT PUSH2 0x6DC3 JUMPI DUP3 SWAP1 SUB PUSH1 0x1F AND DUP3 ADD SWAP2 JUMPDEST POP POP POP POP POP DUP2 MSTORE PUSH1 0x20 ADD PUSH1 0x1B DUP3 ADD DUP1 SLOAD PUSH2 0x6DF9 SWAP1 PUSH2 0x8E86 JUMP JUMPDEST DUP1 PUSH1 0x1F ADD PUSH1 0x20 DUP1 SWAP2 DIV MUL PUSH1 0x20 ADD PUSH1 0x40 MLOAD SWAP1 DUP2 ADD PUSH1 0x40 MSTORE DUP1 SWAP3 SWAP2 SWAP1 DUP2 DUP2 MSTORE PUSH1 0x20 ADD DUP3 DUP1 SLOAD PUSH2 0x6E25 SWAP1 PUSH2 0x8E86 JUMP JUMPDEST DUP1 ISZERO PUSH2 0x6E72 JUMPI DUP1 PUSH1 0x1F LT PUSH2 0x6E47 JUMPI PUSH2 0x100 DUP1 DUP4 SLOAD DIV MUL DUP4 MSTORE SWAP2 PUSH1 0x20 ADD SWAP2 PUSH2 0x6E72 JUMP JUMPDEST DUP3 ADD SWAP2 SWAP1 PUSH1 0x0 MSTORE PUSH1 0x20 PUSH1 0x0 KECCAK256 SWAP1 JUMPDEST DUP2 SLOAD DUP2 MSTORE SWAP1 PUSH1 0x1 ADD SWAP1 PUSH1 0x20 ADD DUP1 DUP4 GT PUSH2 0x6E55 JUMPI DUP3 SWAP1 SUB PUSH1 0x1F AND DUP3 ADD SWAP2 JUMPDEST POP POP POP POP POP DUP2 MSTORE PUSH1 0x20 ADD PUSH1 0x1C DUP3 ADD DUP1 SLOAD PUSH2 0x6E8B SWAP1 PUSH2 0x8E86 JUMP JUMPDEST DUP1 PUSH1 0x1F ADD PUSH1 0x20 DUP1 SWAP2 DIV MUL PUSH1 0x20 ADD PUSH1 0x40 MLOAD SWAP1 DUP2 ADD PUSH1 0x40 MSTORE DUP1 SWAP3 SWAP2 SWAP1 DUP2 DUP2 MSTORE PUSH1 0x20 ADD DUP3 DUP1 SLOAD PUSH2 0x6EB7 SWAP1 PUSH2 0x8E86 JUMP JUMPDEST DUP1 ISZERO PUSH2 0x6F04 JUMPI DUP1 PUSH1 0x1F LT PUSH2 0x6ED9 JUMPI PUSH2 0x100 DUP1 DUP4 SLOAD DIV MUL DUP4 MSTORE SWAP2 PUSH1 0x20 ADD SWAP2 PUSH2 0x6F04 JUMP JUMPDEST DUP3 ADD SWAP2 SWAP1 PUSH1 0x0 MSTORE PUSH1 0x20 PUSH1 0x0 KECCAK256 SWAP1 JUMPDEST DUP2 SLOAD DUP2 MSTORE SWAP1 PUSH1 0x1 ADD SWAP1 PUSH1 0x20 ADD DUP1 DUP4 GT PUSH2 0x6EE7 JUMPI DUP3 SWAP1 SUB PUSH1 0x1F AND DUP3 ADD SWAP2 JUMPDEST POP POP POP SWAP2 DUP4 MSTORE POP POP PUSH1 0x1D DUP3 ADD SLOAD PUSH1 0x20 DUP1 DUP4 ADD SWAP2 SWAP1 SWAP2 MSTORE PUSH1 0x1E DUP4 ADD SLOAD PUSH1 0x40 DUP4 ADD MSTORE PUSH1 0x1F DUP4 ADD SLOAD PUSH1 0x1 PUSH1 0x1 PUSH1 0xA0 SHL SUB AND PUSH1 0x60 DUP4 ADD MSTORE DUP3 ADD DUP1 SLOAD PUSH1 0x80 SWAP1 SWAP3 ADD SWAP2 PUSH2 0x6F4A SWAP1 PUSH2 0x8E86 JUMP JUMPDEST DUP1 PUSH1 0x1F ADD PUSH1 0x20 DUP1 SWAP2 DIV MUL PUSH1 0x20 ADD PUSH1 0x40 MLOAD SWAP1 DUP2 ADD PUSH1 0x40 MSTORE DUP1 SWAP3 SWAP2 SWAP1 DUP2 DUP2 MSTORE PUSH1 0x20 ADD DUP3 DUP1 SLOAD PUSH2 0x6F76 SWAP1 PUSH2 0x8E86 JUMP JUMPDEST DUP1 ISZERO PUSH2 0x6FC3 JUMPI DUP1 PUSH1 0x1F LT PUSH2 0x6F98 JUMPI PUSH2 0x100 DUP1 DUP4 SLOAD DIV MUL DUP4 MSTORE SWAP2 PUSH1 0x20 ADD SWAP2 PUSH2 0x6FC3 JUMP JUMPDEST DUP3 ADD SWAP2 SWAP1 PUSH1 0x0 MSTORE PUSH1 0x20 PUSH1 0x0 KECCAK256 SWAP1 JUMPDEST DUP2 SLOAD DUP2 MSTORE SWAP1 PUSH1 0x1 ADD SWAP1 PUSH1 0x20 ADD DUP1 DUP4 GT PUSH2 0x6FA6 JUMPI DUP3 SWAP1 SUB PUSH1 0x1F AND DUP3 ADD SWAP2 JUMPDEST POP POP POP POP POP DUP2 MSTORE PUSH1 0x20 ADD PUSH1 0x21 DUP3 ADD DUP1 SLOAD PUSH2 0x6FDC SWAP1 PUSH2 0x8E86 JUMP JUMPDEST DUP1 PUSH1 0x1F ADD PUSH1 0x20 DUP1 SWAP2 DIV MUL PUSH1 0x20 ADD PUSH1 0x40 MLOAD SWAP1 DUP2 ADD PUSH1 0x40 MSTORE DUP1 SWAP3 SWAP2 SWAP1 DUP2 DUP2 MSTORE PUSH1 0x20 ADD DUP3 DUP1 SLOAD PUSH2 0x7008 SWAP1 PUSH2 0x8E86 JUMP JUMPDEST DUP1 ISZERO PUSH2 0x7055 JUMPI DUP1 PUSH1 0x1F LT PUSH2 0x702A JUMPI PUSH2 0x100 DUP1 DUP4 SLOAD DIV MUL DUP4 MSTORE SWAP2 PUSH1 0x20 ADD SWAP2 PUSH2 0x7055 JUMP JUMPDEST DUP3 ADD SWAP2 SWAP1 PUSH1 0x0 MSTORE PUSH1 0x20 PUSH1 0x0 KECCAK256 SWAP1 JUMPDEST DUP2 SLOAD DUP2 MSTORE SWAP1 PUSH1 0x1 ADD SWAP1 PUSH1 0x20 ADD DUP1 DUP4 GT PUSH2 0x7038 JUMPI DUP3 SWAP1 SUB PUSH1 0x1F AND DUP3 ADD SWAP2 JUMPDEST POP POP POP SWAP2 DUP4 MSTORE POP POP PUSH1 0x22 DUP3 ADD SLOAD PUSH1 0x20 DUP3 ADD MSTORE PUSH1 0x23 DUP3 ADD SLOAD PUSH1 0x40 DUP3 ADD MSTORE PUSH1 0x24 DUP3 ADD SLOAD PUSH1 0x1 PUSH1 0x1 PUSH1 0xA0 SHL SUB AND PUSH1 0x60 DUP3 ADD MSTORE PUSH1 0x25 DUP3 ADD DUP1 SLOAD PUSH1 0x80 SWAP1 SWAP3 ADD SWAP2 PUSH2 0x7099 SWAP1 PUSH2 0x8E86 JUMP JUMPDEST DUP1 PUSH1 0x1F ADD PUSH1 0x20 DUP1 SWAP2 DIV MUL PUSH1 0x20 ADD PUSH1 0x40 MLOAD SWAP1 DUP2 ADD PUSH1 0x40 MSTORE DUP1 SWAP3 SWAP2 SWAP1 DUP2 DUP2 MSTORE PUSH1 0x20 ADD DUP3 DUP1 SLOAD PUSH2 0x70C5 SWAP1 PUSH2 0x8E86 JUMP JUMPDEST DUP1 ISZERO PUSH2 0x7112 JUMPI DUP1 PUSH1 0x1F LT PUSH2 0x70E7 JUMPI PUSH2 0x100 DUP1 DUP4 SLOAD DIV MUL DUP4 MSTORE SWAP2 PUSH1 0x20 ADD SWAP2 PUSH2 0x7112 JUMP JUMPDEST DUP3 ADD SWAP2 SWAP1 PUSH1 0x0 MSTORE PUSH1 0x20 PUSH1 0x0 KECCAK256 SWAP1 JUMPDEST DUP2 SLOAD DUP2 MSTORE SWAP1 PUSH1 0x1 ADD SWAP1 PUSH1 0x20 ADD DUP1 DUP4 GT PUSH2 0x70F5 JUMPI DUP3 SWAP1 SUB PUSH1 0x1F AND DUP3 ADD SWAP2 JUMPDEST POP POP POP POP POP DUP2 MSTORE PUSH1 0x20 ADD PUSH1 0x26 DUP3 ADD DUP1 SLOAD PUSH2 0x712B SWAP1 PUSH2 0x8E86 JUMP JUMPDEST DUP1 PUSH1 0x1F ADD PUSH1 0x20 DUP1 SWAP2 DIV MUL PUSH1 0x20 ADD PUSH1 0x40 MLOAD SWAP1 DUP2 ADD PUSH1 0x40 MSTORE DUP1 SWAP3 SWAP2 SWAP1 DUP2 DUP2 MSTORE PUSH1 0x20 ADD DUP3 DUP1 SLOAD PUSH2 0x7157 SWAP1 PUSH2 0x8E86 JUMP JUMPDEST DUP1 ISZERO PUSH2 0x71A4 JUMPI DUP1 PUSH1 0x1F LT PUSH2 0x7179 JUMPI PUSH2 0x100 DUP1 DUP4 SLOAD DIV MUL DUP4 MSTORE SWAP2 PUSH1 0x20 ADD SWAP2 PUSH2 0x71A4 JUMP JUMPDEST DUP3 ADD SWAP2 SWAP1 PUSH1 0x0 MSTORE PUSH1 0x20 PUSH1 0x0 KECCAK256 SWAP1 JUMPDEST DUP2 SLOAD DUP2 MSTORE SWAP1 PUSH1 0x1 ADD SWAP1 PUSH1 0x20 ADD DUP1 DUP4 GT PUSH2 0x7187 JUMPI DUP3 SWAP1 SUB PUSH1 0x1F AND DUP3 ADD SWAP2 JUMPDEST POP POP POP SWAP2 DUP4 MSTORE POP POP PUSH1 0x27 DUP3 ADD SLOAD PUSH1 0x20 DUP3 ADD MSTORE PUSH1 0x28 DUP3 ADD SLOAD PUSH1 0x1 PUSH1 0x1 PUSH1 0xA0 SHL SUB AND PUSH1 0x40 DUP3 ADD MSTORE PUSH1 0x29 DUP3 ADD DUP1 SLOAD PUSH1 0x60 SWAP1 SWAP3 ADD SWAP2 PUSH2 0x71DE SWAP1 PUSH2 0x8E86 JUMP JUMPDEST DUP1 PUSH1 0x1F ADD PUSH1 0x20 DUP1 SWAP2 DIV MUL PUSH1 0x20 ADD PUSH1 0x40 MLOAD SWAP1 DUP2 ADD PUSH1 0x40 MSTORE DUP1 SWAP3 SWAP2 SWAP1 DUP2 DUP2 MSTORE PUSH1 0x20 ADD DUP3 DUP1 SLOAD PUSH2 0x720A SWAP1 PUSH2 0x8E86 JUMP JUMPDEST DUP1 ISZERO PUSH2 0x7257 JUMPI DUP1 PUSH1 0x1F LT PUSH2 0x722C JUMPI PUSH2 0x100 DUP1 DUP4 SLOAD DIV MUL DUP4 MSTORE SWAP2 PUSH1 0x20 ADD SWAP2 PUSH2 0x7257 JUMP JUMPDEST DUP3 ADD SWAP2 SWAP1 PUSH1 0x0 MSTORE PUSH1 0x20 PUSH1 0x0 KECCAK256 SWAP1 JUMPDEST DUP2 SLOAD DUP2 MSTORE SWAP1 PUSH1 0x1 ADD SWAP1 PUSH1 0x20 ADD DUP1 DUP4 GT PUSH2 0x723A JUMPI DUP3 SWAP1 SUB PUSH1 0x1F AND DUP3 ADD SWAP2 JUMPDEST POP POP POP SWAP2 DUP4 MSTORE POP POP PUSH1 0x2A DUP3 ADD SLOAD PUSH1 0x20 DUP3 ADD MSTORE PUSH1 0x2B DUP3 ADD SLOAD PUSH1 0x40 SWAP1 SWAP2 ADD SWAP1 PUSH1 0xFF AND PUSH1 0x19 DUP2 GT ISZERO PUSH2 0x7288 JUMPI PUSH2 0x7288 PUSH2 0x8EF2 JUMP JUMPDEST PUSH1 0x19 DUP2 GT ISZERO PUSH2 0x7299 JUMPI PUSH2 0x7299 PUSH2 0x8EF2 JUMP JUMPDEST SWAP1 MSTORE POP PUSH2 0x500 DUP2 ADD MLOAD PUSH2 0x520 DUP3 ADD MLOAD PUSH2 0x540 SWAP1 SWAP3 ADD MLOAD SWAP1 SWAP8 SWAP2 SWAP7 POP SWAP5 POP SWAP3 POP POP POP JUMP JUMPDEST PUSH2 0x72C5 CALLER PUSH2 0x3A41 JUMP JUMPDEST PUSH2 0x72CE JUMPI PUSH1 0x0 DUP1 REVERT JUMPDEST DUP1 PUSH1 0x13 PUSH1 0x0 DUP3 DUP2 MSTORE PUSH1 0xB PUSH1 0x20 MSTORE PUSH1 0x40 SWAP1 KECCAK256 PUSH1 0x2B ADD SLOAD PUSH1 0xFF AND PUSH1 0x19 DUP2 GT ISZERO PUSH2 0x72F7 JUMPI PUSH2 0x72F7 PUSH2 0x8EF2 JUMP JUMPDEST EQ PUSH2 0x7301 JUMPI PUSH1 0x0 DUP1 REVERT JUMPDEST PUSH1 0x0 DUP3 DUP2 MSTORE PUSH1 0xB PUSH1 0x20 SWAP1 DUP2 MSTORE PUSH1 0x40 SWAP2 DUP3 SWAP1 KECCAK256 DUP1 SLOAD PUSH1 0x1 PUSH1 0x1 PUSH1 0xA0 SHL SUB NOT SWAP1 DUP2 AND CALLER SWAP1 DUP2 OR DUP4 SSTORE PUSH1 0x24 DUP4 ADD DUP1 SLOAD SWAP1 SWAP3 AND OR SWAP1 SSTORE PUSH1 0x2B ADD DUP1 SLOAD PUSH1 0xFF NOT AND PUSH1 0x14 OR SWAP1 SSTORE SWAP1 MLOAD DUP4 DUP2 MSTORE PUSH32 0x3874B7B1F05F41F05649193134CA5A46A483340FB2345D76D6BC0879322BB1DB SWAP2 ADD PUSH2 0x28E2 JUMP JUMPDEST PUSH2 0x7377 CALLER PUSH2 0x3FB1 JUMP JUMPDEST PUSH2 0x7380 JUMPI PUSH1 0x0 DUP1 REVERT JUMPDEST DUP2 PUSH1 0x10 PUSH1 0x0 DUP3 DUP2 MSTORE PUSH1 0xB PUSH1 0x20 MSTORE PUSH1 0x40 SWAP1 KECCAK256 PUSH1 0x2B ADD SLOAD PUSH1 0xFF AND PUSH1 0x19 DUP2 GT ISZERO PUSH2 0x73A9 JUMPI PUSH2 0x73A9 PUSH2 0x8EF2 JUMP JUMPDEST EQ PUSH2 0x73B3 JUMPI PUSH1 0x0 DUP1 REVERT JUMPDEST PUSH1 0x0 DUP4 DUP2 MSTORE PUSH1 0xB PUSH1 0x20 MSTORE PUSH1 0x40 SWAP1 KECCAK256 SLOAD PUSH1 0x1 PUSH1 0x1 PUSH1 0xA0 SHL SUB AND CALLER DUP2 EQ PUSH2 0x73D7 JUMPI PUSH1 0x0 DUP1 REVERT JUMPDEST PUSH1 0x0 DUP5 DUP2 MSTORE PUSH1 0xB PUSH1 0x20 SWAP1 DUP2 MSTORE PUSH1 0x40 SWAP1 SWAP2 KECCAK256 PUSH1 0x2B DUP2 ADD DUP1 SLOAD PUSH1 0xFF NOT AND PUSH1 0x11 OR SWAP1 SSTORE TIMESTAMP PUSH1 0x22 DUP3 ADD SSTORE DUP5 MLOAD PUSH2 0x7411 SWAP3 PUSH1 0x21 SWAP1 SWAP3 ADD SWAP2 DUP7 ADD SWAP1 PUSH2 0x876E JUMP JUMPDEST POP PUSH1 0x0 DUP5 DUP2 MSTORE PUSH1 0xC PUSH1 0x20 MSTORE PUSH1 0x40 SWAP1 DUP2 SWAP1 KECCAK256 NUMBER PUSH1 0x3 SWAP1 SWAP2 ADD SSTORE MLOAD PUSH32 0x323EF6697998935F1E0CBFA1E699243A8FA2D97BA49D0C0FF56E729E8165BB06 SWAP1 PUSH2 0x193C SWAP1 DUP7 DUP2 MSTORE PUSH1 0x20 ADD SWAP1 JUMP JUMPDEST PUSH2 0x7462 CALLER PUSH2 0x4F40 JUMP JUMPDEST PUSH2 0x746B JUMPI PUSH1 0x0 DUP1 REVERT JUMPDEST DUP2 PUSH1 0x0 DUP1 DUP3 DUP2 MSTORE PUSH1 0xB PUSH1 0x20 MSTORE PUSH1 0x40 SWAP1 KECCAK256 PUSH1 0x2B ADD SLOAD PUSH1 0xFF AND PUSH1 0x19 DUP2 GT ISZERO PUSH2 0x7493 JUMPI PUSH2 0x7493 PUSH2 0x8EF2 JUMP JUMPDEST EQ PUSH2 0x749D JUMPI PUSH1 0x0 DUP1 REVERT JUMPDEST PUSH1 0x0 DUP4 DUP2 MSTORE PUSH1 0xB PUSH1 0x20 MSTORE PUSH1 0x40 SWAP1 KECCAK256 SLOAD PUSH1 0x1 PUSH1 0x1 PUSH1 0xA0 SHL SUB AND CALLER DUP2 EQ PUSH2 0x74C1 JUMPI PUSH1 0x0 DUP1 REVERT JUMPDEST PUSH1 0x0 DUP5 DUP2 MSTORE PUSH1 0xB PUSH1 0x20 SWAP1 DUP2 MSTORE PUSH1 0x40 SWAP1 SWAP2 KECCAK256 PUSH1 0x2B DUP2 ADD DUP1 SLOAD PUSH1 0xFF NOT AND PUSH1 0x1 OR SWAP1 SSTORE DUP5 MLOAD PUSH2 0x74F5 SWAP3 PUSH1 0x6 SWAP1 SWAP3 ADD SWAP2 DUP7 ADD SWAP1 PUSH2 0x876E JUMP JUMPDEST POP PUSH1 0x0 DUP5 DUP2 MSTORE PUSH1 0xB PUSH1 0x20 MSTORE PUSH1 0x40 SWAP1 DUP2 SWAP1 KECCAK256 TIMESTAMP PUSH1 0xA SWAP1 SWAP2 ADD SSTORE MLOAD PUSH32 0x749C1FAF048FC07C9FD93E5F88C7A1FCB337B593061AAB5C05B06885F6A77CCF SWAP1 PUSH2 0x193C SWAP1 DUP7 DUP2 MSTORE PUSH1 0x20 ADD SWAP1 JUMP JUMPDEST PUSH1 0x0 DUP2 DUP2 MSTORE PUSH1 0xB PUSH1 0x20 SWAP1 DUP2 MSTORE PUSH1 0x40 DUP1 DUP4 KECCAK256 DUP2 MLOAD PUSH2 0x580 DUP2 ADD DUP4 MSTORE DUP2 SLOAD PUSH1 0x1 PUSH1 0x1 PUSH1 0xA0 SHL SUB SWAP1 DUP2 AND DUP3 MSTORE PUSH1 0x1 DUP4 ADD SLOAD SWAP5 DUP3 ADD SWAP5 SWAP1 SWAP5 MSTORE PUSH1 0x2 DUP3 ADD SLOAD SWAP3 DUP2 ADD SWAP3 SWAP1 SWAP3 MSTORE PUSH1 0x3 DUP2 ADD SLOAD PUSH1 0x60 DUP4 DUP2 ADD SWAP2 SWAP1 SWAP2 MSTORE PUSH1 0x4 DUP3 ADD SLOAD SWAP1 SWAP4 AND PUSH1 0x80 DUP4 ADD MSTORE PUSH1 0x5 DUP2 ADD DUP1 SLOAD DUP5 SWAP4 DUP5 SWAP4 DUP5 SWAP4 DUP5 SWAP4 DUP10 SWAP4 DUP5 SWAP4 DUP5 SWAP4 SWAP2 SWAP3 SWAP1 SWAP2 PUSH1 0xA0 DUP5 ADD SWAP2 PUSH2 0x75BF SWAP1 PUSH2 0x8E86 JUMP JUMPDEST DUP1 PUSH1 0x1F ADD PUSH1 0x20 DUP1 SWAP2 DIV MUL PUSH1 0x20 ADD PUSH1 0x40 MLOAD SWAP1 DUP2 ADD PUSH1 0x40 MSTORE DUP1 SWAP3 SWAP2 SWAP1 DUP2 DUP2 MSTORE PUSH1 0x20 ADD DUP3 DUP1 SLOAD PUSH2 0x75EB SWAP1 PUSH2 0x8E86 JUMP JUMPDEST DUP1 ISZERO PUSH2 0x7638 JUMPI DUP1 PUSH1 0x1F LT PUSH2 0x760D JUMPI PUSH2 0x100 DUP1 DUP4 SLOAD DIV MUL DUP4 MSTORE SWAP2 PUSH1 0x20 ADD SWAP2 PUSH2 0x7638 JUMP JUMPDEST DUP3 ADD SWAP2 SWAP1 PUSH1 0x0 MSTORE PUSH1 0x20 PUSH1 0x0 KECCAK256 SWAP1 JUMPDEST DUP2 SLOAD DUP2 MSTORE SWAP1 PUSH1 0x1 ADD SWAP1 PUSH1 0x20 ADD DUP1 DUP4 GT PUSH2 0x761B JUMPI DUP3 SWAP1 SUB PUSH1 0x1F AND DUP3 ADD SWAP2 JUMPDEST POP POP POP POP POP DUP2 MSTORE PUSH1 0x20 ADD PUSH1 0x6 DUP3 ADD DUP1 SLOAD PUSH2 0x7651 SWAP1 PUSH2 0x8E86 JUMP JUMPDEST DUP1 PUSH1 0x1F ADD PUSH1 0x20 DUP1 SWAP2 DIV MUL PUSH1 0x20 ADD PUSH1 0x40 MLOAD SWAP1 DUP2 ADD PUSH1 0x40 MSTORE DUP1 SWAP3 SWAP2 SWAP1 DUP2 DUP2 MSTORE PUSH1 0x20 ADD DUP3 DUP1 SLOAD PUSH2 0x767D SWAP1 PUSH2 0x8E86 JUMP JUMPDEST DUP1 ISZERO PUSH2 0x76CA JUMPI DUP1 PUSH1 0x1F LT PUSH2 0x769F JUMPI PUSH2 0x100 DUP1 DUP4 SLOAD DIV MUL DUP4 MSTORE SWAP2 PUSH1 0x20 ADD SWAP2 PUSH2 0x76CA JUMP JUMPDEST DUP3 ADD SWAP2 SWAP1 PUSH1 0x0 MSTORE PUSH1 0x20 PUSH1 0x0 KECCAK256 SWAP1 JUMPDEST DUP2 SLOAD DUP2 MSTORE SWAP1 PUSH1 0x1 ADD SWAP1 PUSH1 0x20 ADD DUP1 DUP4 GT PUSH2 0x76AD JUMPI DUP3 SWAP1 SUB PUSH1 0x1F AND DUP3 ADD SWAP2 JUMPDEST POP POP POP POP POP DUP2 MSTORE PUSH1 0x20 ADD PUSH1 0x7 DUP3 ADD DUP1 SLOAD PUSH2 0x76E3 SWAP1 PUSH2 0x8E86 JUMP JUMPDEST DUP1 PUSH1 0x1F ADD PUSH1 0x20 DUP1 SWAP2 DIV MUL PUSH1 0x20 ADD PUSH1 0x40 MLOAD SWAP1 DUP2 ADD PUSH1 0x40 MSTORE DUP1 SWAP3 SWAP2 SWAP1 DUP2 DUP2 MSTORE PUSH1 0x20 ADD DUP3 DUP1 SLOAD PUSH2 0x770F SWAP1 PUSH2 0x8E86 JUMP JUMPDEST DUP1 ISZERO PUSH2 0x775C JUMPI DUP1 PUSH1 0x1F LT PUSH2 0x7731 JUMPI PUSH2 0x100 DUP1 DUP4 SLOAD DIV MUL DUP4 MSTORE SWAP2 PUSH1 0x20 ADD SWAP2 PUSH2 0x775C JUMP JUMPDEST DUP3 ADD SWAP2 SWAP1 PUSH1 0x0 MSTORE PUSH1 0x20 PUSH1 0x0 KECCAK256 SWAP1 JUMPDEST DUP2 SLOAD DUP2 MSTORE SWAP1 PUSH1 0x1 ADD SWAP1 PUSH1 0x20 ADD DUP1 DUP4 GT PUSH2 0x773F JUMPI DUP3 SWAP1 SUB PUSH1 0x1F AND DUP3 ADD SWAP2 JUMPDEST POP POP POP POP POP DUP2 MSTORE PUSH1 0x20 ADD PUSH1 0x8 DUP3 ADD DUP1 SLOAD PUSH2 0x7775 SWAP1 PUSH2 0x8E86 JUMP JUMPDEST DUP1 PUSH1 0x1F ADD PUSH1 0x20 DUP1 SWAP2 DIV MUL PUSH1 0x20 ADD PUSH1 0x40 MLOAD SWAP1 DUP2 ADD PUSH1 0x40 MSTORE DUP1 SWAP3 SWAP2 SWAP1 DUP2 DUP2 MSTORE PUSH1 0x20 ADD DUP3 DUP1 SLOAD PUSH2 0x77A1 SWAP1 PUSH2 0x8E86 JUMP JUMPDEST DUP1 ISZERO PUSH2 0x77EE JUMPI DUP1 PUSH1 0x1F LT PUSH2 0x77C3 JUMPI PUSH2 0x100 DUP1 DUP4 SLOAD DIV MUL DUP4 MSTORE SWAP2 PUSH1 0x20 ADD SWAP2 PUSH2 0x77EE JUMP JUMPDEST DUP3 ADD SWAP2 SWAP1 PUSH1 0x0 MSTORE PUSH1 0x20 PUSH1 0x0 KECCAK256 SWAP1 JUMPDEST DUP2 SLOAD DUP2 MSTORE SWAP1 PUSH1 0x1 ADD SWAP1 PUSH1 0x20 ADD DUP1 DUP4 GT PUSH2 0x77D1 JUMPI DUP3 SWAP1 SUB PUSH1 0x1F AND DUP3 ADD SWAP2 JUMPDEST POP POP POP SWAP2 DUP4 MSTORE POP POP PUSH1 0x9 DUP3 ADD SLOAD PUSH1 0x20 DUP3 ADD MSTORE PUSH1 0xA DUP3 ADD SLOAD PUSH1 0x40 DUP3 ADD MSTORE PUSH1 0xB DUP3 ADD SLOAD PUSH1 0x1 PUSH1 0x1 PUSH1 0xA0 SHL SUB AND PUSH1 0x60 DUP3 ADD MSTORE PUSH1 0xC DUP3 ADD DUP1 SLOAD PUSH1 0x80 SWAP1 SWAP3 ADD SWAP2 PUSH2 0x7832 SWAP1 PUSH2 0x8E86 JUMP JUMPDEST DUP1 PUSH1 0x1F ADD PUSH1 0x20 DUP1 SWAP2 DIV MUL PUSH1 0x20 ADD PUSH1 0x40 MLOAD SWAP1 DUP2 ADD PUSH1 0x40 MSTORE DUP1 SWAP3 SWAP2 SWAP1 DUP2 DUP2 MSTORE PUSH1 0x20 ADD DUP3 DUP1 SLOAD PUSH2 0x785E SWAP1 PUSH2 0x8E86 JUMP JUMPDEST DUP1 ISZERO PUSH2 0x78AB JUMPI DUP1 PUSH1 0x1F LT PUSH2 0x7880 JUMPI PUSH2 0x100 DUP1 DUP4 SLOAD DIV MUL DUP4 MSTORE SWAP2 PUSH1 0x20 ADD SWAP2 PUSH2 0x78AB JUMP JUMPDEST DUP3 ADD SWAP2 SWAP1 PUSH1 0x0 MSTORE PUSH1 0x20 PUSH1 0x0 KECCAK256 SWAP1 JUMPDEST DUP2 SLOAD DUP2 MSTORE SWAP1 PUSH1 0x1 ADD SWAP1 PUSH1 0x20 ADD DUP1 DUP4 GT PUSH2 0x788E JUMPI DUP3 SWAP1 SUB PUSH1 0x1F AND DUP3 ADD SWAP2 JUMPDEST POP POP POP POP POP DUP2 MSTORE PUSH1 0x20 ADD PUSH1 0xD DUP3 ADD DUP1 SLOAD PUSH2 0x78C4 SWAP1 PUSH2 0x8E86 JUMP JUMPDEST DUP1 PUSH1 0x1F ADD PUSH1 0x20 DUP1 SWAP2 DIV MUL PUSH1 0x20 ADD PUSH1 0x40 MLOAD SWAP1 DUP2 ADD PUSH1 0x40 MSTORE DUP1 SWAP3 SWAP2 SWAP1 DUP2 DUP2 MSTORE PUSH1 0x20 ADD DUP3 DUP1 SLOAD PUSH2 0x78F0 SWAP1 PUSH2 0x8E86 JUMP JUMPDEST DUP1 ISZERO PUSH2 0x793D JUMPI DUP1 PUSH1 0x1F LT PUSH2 0x7912 JUMPI PUSH2 0x100 DUP1 DUP4 SLOAD DIV MUL DUP4 MSTORE SWAP2 PUSH1 0x20 ADD SWAP2 PUSH2 0x793D JUMP JUMPDEST DUP3 ADD SWAP2 SWAP1 PUSH1 0x0 MSTORE PUSH1 0x20 PUSH1 0x0 KECCAK256 SWAP1 JUMPDEST DUP2 SLOAD DUP2 MSTORE SWAP1 PUSH1 0x1 ADD SWAP1 PUSH1 0x20 ADD DUP1 DUP4 GT PUSH2 0x7920 JUMPI DUP3 SWAP1 SUB PUSH1 0x1F AND DUP3 ADD SWAP2 JUMPDEST POP POP POP POP POP DUP2 MSTORE PUSH1 0x20 ADD PUSH1 0xE DUP3 ADD DUP1 SLOAD PUSH2 0x7956 SWAP1 PUSH2 0x8E86 JUMP JUMPDEST DUP1 PUSH1 0x1F ADD PUSH1 0x20 DUP1 SWAP2 DIV MUL PUSH1 0x20 ADD PUSH1 0x40 MLOAD SWAP1 DUP2 ADD PUSH1 0x40 MSTORE DUP1 SWAP3 SWAP2 SWAP1 DUP2 DUP2 MSTORE PUSH1 0x20 ADD DUP3 DUP1 SLOAD PUSH2 0x7982 SWAP1 PUSH2 0x8E86 JUMP JUMPDEST DUP1 ISZERO PUSH2 0x79CF JUMPI DUP1 PUSH1 0x1F LT PUSH2 0x79A4 JUMPI PUSH2 0x100 DUP1 DUP4 SLOAD DIV MUL DUP4 MSTORE SWAP2 PUSH1 0x20 ADD SWAP2 PUSH2 0x79CF JUMP JUMPDEST DUP3 ADD SWAP2 SWAP1 PUSH1 0x0 MSTORE PUSH1 0x20 PUSH1 0x0 KECCAK256 SWAP1 JUMPDEST DUP2 SLOAD DUP2 MSTORE SWAP1 PUSH1 0x1 ADD SWAP1 PUSH1 0x20 ADD DUP1 DUP4 GT PUSH2 0x79B2 JUMPI DUP3 SWAP1 SUB PUSH1 0x1F AND DUP3 ADD SWAP2 JUMPDEST POP POP POP POP POP DUP2 MSTORE PUSH1 0x20 ADD PUSH1 0xF DUP3 ADD DUP1 SLOAD PUSH2 0x79E8 SWAP1 PUSH2 0x8E86 JUMP JUMPDEST DUP1 PUSH1 0x1F ADD PUSH1 0x20 DUP1 SWAP2 DIV MUL PUSH1 0x20 ADD PUSH1 0x40 MLOAD SWAP1 DUP2 ADD PUSH1 0x40 MSTORE DUP1 SWAP3 SWAP2 SWAP1 DUP2 DUP2 MSTORE PUSH1 0x20 ADD DUP3 DUP1 SLOAD PUSH2 0x7A14 SWAP1 PUSH2 0x8E86 JUMP JUMPDEST DUP1 ISZERO PUSH2 0x7A61 JUMPI DUP1 PUSH1 0x1F LT PUSH2 0x7A36 JUMPI PUSH2 0x100 DUP1 DUP4 SLOAD DIV MUL DUP4 MSTORE SWAP2 PUSH1 0x20 ADD SWAP2 PUSH2 0x7A61 JUMP JUMPDEST DUP3 ADD SWAP2 SWAP1 PUSH1 0x0 MSTORE PUSH1 0x20 PUSH1 0x0 KECCAK256 SWAP1 JUMPDEST DUP2 SLOAD DUP2 MSTORE SWAP1 PUSH1 0x1 ADD SWAP1 PUSH1 0x20 ADD DUP1 DUP4 GT PUSH2 0x7A44 JUMPI DUP3 SWAP1 SUB PUSH1 0x1F AND DUP3 ADD SWAP2 JUMPDEST POP POP POP SWAP2 DUP4 MSTORE POP POP PUSH1 0x10 DUP3 ADD SLOAD PUSH1 0x20 DUP3 ADD MSTORE PUSH1 0x11 DUP3 ADD SLOAD PUSH1 0x40 DUP3 ADD MSTORE PUSH1 0x12 DUP3 ADD SLOAD PUSH1 0x1 PUSH1 0x1 PUSH1 0xA0 SHL SUB AND PUSH1 0x60 DUP3 ADD MSTORE PUSH1 0x13 DUP3 ADD DUP1 SLOAD PUSH1 0x80 SWAP1 SWAP3 ADD SWAP2 PUSH2 0x7AA5 SWAP1 PUSH2 0x8E86 JUMP JUMPDEST DUP1 PUSH1 0x1F ADD PUSH1 0x20 DUP1 SWAP2 DIV MUL PUSH1 0x20 ADD PUSH1 0x40 MLOAD SWAP1 DUP2 ADD PUSH1 0x40 MSTORE DUP1 SWAP3 SWAP2 SWAP1 DUP2 DUP2 MSTORE PUSH1 0x20 ADD DUP3 DUP1 SLOAD PUSH2 0x7AD1 SWAP1 PUSH2 0x8E86 JUMP JUMPDEST DUP1 ISZERO PUSH2 0x7B1E JUMPI DUP1 PUSH1 0x1F LT PUSH2 0x7AF3 JUMPI PUSH2 0x100 DUP1 DUP4 SLOAD DIV MUL DUP4 MSTORE SWAP2 PUSH1 0x20 ADD SWAP2 PUSH2 0x7B1E JUMP JUMPDEST DUP3 ADD SWAP2 SWAP1 PUSH1 0x0 MSTORE PUSH1 0x20 PUSH1 0x0 KECCAK256 SWAP1 JUMPDEST DUP2 SLOAD DUP2 MSTORE SWAP1 PUSH1 0x1 ADD SWAP1 PUSH1 0x20 ADD DUP1 DUP4 GT PUSH2 0x7B01 JUMPI DUP3 SWAP1 SUB PUSH1 0x1F AND DUP3 ADD SWAP2 JUMPDEST POP POP POP POP POP DUP2 MSTORE PUSH1 0x20 ADD PUSH1 0x14 DUP3 ADD DUP1 SLOAD PUSH2 0x7B37 SWAP1 PUSH2 0x8E86 JUMP JUMPDEST DUP1 PUSH1 0x1F ADD PUSH1 0x20 DUP1 SWAP2 DIV MUL PUSH1 0x20 ADD PUSH1 0x40 MLOAD SWAP1 DUP2 ADD PUSH1 0x40 MSTORE DUP1 SWAP3 SWAP2 SWAP1 DUP2 DUP2 MSTORE PUSH1 0x20 ADD DUP3 DUP1 SLOAD PUSH2 0x7B63 SWAP1 PUSH2 0x8E86 JUMP JUMPDEST DUP1 ISZERO PUSH2 0x7BB0 JUMPI DUP1 PUSH1 0x1F LT PUSH2 0x7B85 JUMPI PUSH2 0x100 DUP1 DUP4 SLOAD DIV MUL DUP4 MSTORE SWAP2 PUSH1 0x20 ADD SWAP2 PUSH2 0x7BB0 JUMP JUMPDEST DUP3 ADD SWAP2 SWAP1 PUSH1 0x0 MSTORE PUSH1 0x20 PUSH1 0x0 KECCAK256 SWAP1 JUMPDEST DUP2 SLOAD DUP2 MSTORE SWAP1 PUSH1 0x1 ADD SWAP1 PUSH1 0x20 ADD DUP1 DUP4 GT PUSH2 0x7B93 JUMPI DUP3 SWAP1 SUB PUSH1 0x1F AND DUP3 ADD SWAP2 JUMPDEST POP POP POP SWAP2 DUP4 MSTORE POP POP PUSH1 0x15 DUP3 ADD SLOAD PUSH1 0x20 DUP3 ADD MSTORE PUSH1 0x16 DUP3 ADD SLOAD PUSH1 0x40 DUP3 ADD MSTORE PUSH1 0x17 DUP3 ADD SLOAD PUSH1 0x1 PUSH1 0x1 PUSH1 0xA0 SHL SUB AND PUSH1 0x60 DUP3 ADD MSTORE PUSH1 0x18 DUP3 ADD DUP1 SLOAD PUSH1 0x80 SWAP1 SWAP3 ADD SWAP2 PUSH2 0x7BF4 SWAP1 PUSH2 0x8E86 JUMP JUMPDEST DUP1 PUSH1 0x1F ADD PUSH1 0x20 DUP1 SWAP2 DIV MUL PUSH1 0x20 ADD PUSH1 0x40 MLOAD SWAP1 DUP2 ADD PUSH1 0x40 MSTORE DUP1 SWAP3 SWAP2 SWAP1 DUP2 DUP2 MSTORE PUSH1 0x20 ADD DUP3 DUP1 SLOAD PUSH2 0x7C20 SWAP1 PUSH2 0x8E86 JUMP JUMPDEST DUP1 ISZERO PUSH2 0x7C6D JUMPI DUP1 PUSH1 0x1F LT PUSH2 0x7C42 JUMPI PUSH2 0x100 DUP1 DUP4 SLOAD DIV MUL DUP4 MSTORE SWAP2 PUSH1 0x20 ADD SWAP2 PUSH2 0x7C6D JUMP JUMPDEST DUP3 ADD SWAP2 SWAP1 PUSH1 0x0 MSTORE PUSH1 0x20 PUSH1 0x0 KECCAK256 SWAP1 JUMPDEST DUP2 SLOAD DUP2 MSTORE SWAP1 PUSH1 0x1 ADD SWAP1 PUSH1 0x20 ADD DUP1 DUP4 GT PUSH2 0x7C50 JUMPI DUP3 SWAP1 SUB PUSH1 0x1F AND DUP3 ADD SWAP2 JUMPDEST POP POP POP POP POP DUP2 MSTORE PUSH1 0x20 ADD PUSH1 0x19 DUP3 ADD DUP1 SLOAD PUSH2 0x7C86 SWAP1 PUSH2 0x8E86 JUMP JUMPDEST DUP1 PUSH1 0x1F ADD PUSH1 0x20 DUP1 SWAP2 DIV MUL PUSH1 0x20 ADD PUSH1 0x40 MLOAD SWAP1 DUP2 ADD PUSH1 0x40 MSTORE DUP1 SWAP3 SWAP2 SWAP1 DUP2 DUP2 MSTORE PUSH1 0x20 ADD DUP3 DUP1 SLOAD PUSH2 0x7CB2 SWAP1 PUSH2 0x8E86 JUMP JUMPDEST DUP1 ISZERO PUSH2 0x7CFF JUMPI DUP1 PUSH1 0x1F LT PUSH2 0x7CD4 JUMPI PUSH2 0x100 DUP1 DUP4 SLOAD DIV MUL DUP4 MSTORE SWAP2 PUSH1 0x20 ADD SWAP2 PUSH2 0x7CFF JUMP JUMPDEST DUP3 ADD SWAP2 SWAP1 PUSH1 0x0 MSTORE PUSH1 0x20 PUSH1 0x0 KECCAK256 SWAP1 JUMPDEST DUP2 SLOAD DUP2 MSTORE SWAP1 PUSH1 0x1 ADD SWAP1 PUSH1 0x20 ADD DUP1 DUP4 GT PUSH2 0x7CE2 JUMPI DUP3 SWAP1 SUB PUSH1 0x1F AND DUP3 ADD SWAP2 JUMPDEST POP POP POP POP POP DUP2 MSTORE PUSH1 0x20 ADD PUSH1 0x1A DUP3 ADD DUP1 SLOAD PUSH2 0x7D18 SWAP1 PUSH2 0x8E86 JUMP JUMPDEST DUP1 PUSH1 0x1F ADD PUSH1 0x20 DUP1 SWAP2 DIV MUL PUSH1 0x20 ADD PUSH1 0x40 MLOAD SWAP1 DUP2 ADD PUSH1 0x40 MSTORE DUP1 SWAP3 SWAP2 SWAP1 DUP2 DUP2 MSTORE PUSH1 0x20 ADD DUP3 DUP1 SLOAD PUSH2 0x7D44 SWAP1 PUSH2 0x8E86 JUMP JUMPDEST DUP1 ISZERO PUSH2 0x7D91 JUMPI DUP1 PUSH1 0x1F LT PUSH2 0x7D66 JUMPI PUSH2 0x100 DUP1 DUP4 SLOAD DIV MUL DUP4 MSTORE SWAP2 PUSH1 0x20 ADD SWAP2 PUSH2 0x7D91 JUMP JUMPDEST DUP3 ADD SWAP2 SWAP1 PUSH1 0x0 MSTORE PUSH1 0x20 PUSH1 0x0 KECCAK256 SWAP1 JUMPDEST DUP2 SLOAD DUP2 MSTORE SWAP1 PUSH1 0x1 ADD SWAP1 PUSH1 0x20 ADD DUP1 DUP4 GT PUSH2 0x7D74 JUMPI DUP3 SWAP1 SUB PUSH1 0x1F AND DUP3 ADD SWAP2 JUMPDEST POP POP POP POP POP DUP2 MSTORE PUSH1 0x20 ADD PUSH1 0x1B DUP3 ADD DUP1 SLOAD PUSH2 0x7DAA SWAP1 PUSH2 0x8E86 JUMP JUMPDEST DUP1 PUSH1 0x1F ADD PUSH1 0x20 DUP1 SWAP2 DIV MUL PUSH1 0x20 ADD PUSH1 0x40 MLOAD SWAP1 DUP2 ADD PUSH1 0x40 MSTORE DUP1 SWAP3 SWAP2 SWAP1 DUP2 DUP2 MSTORE PUSH1 0x20 ADD DUP3 DUP1 SLOAD PUSH2 0x7DD6 SWAP1 PUSH2 0x8E86 JUMP JUMPDEST DUP1 ISZERO PUSH2 0x7E23 JUMPI DUP1 PUSH1 0x1F LT PUSH2 0x7DF8 JUMPI PUSH2 0x100 DUP1 DUP4 SLOAD DIV MUL DUP4 MSTORE SWAP2 PUSH1 0x20 ADD SWAP2 PUSH2 0x7E23 JUMP JUMPDEST DUP3 ADD SWAP2 SWAP1 PUSH1 0x0 MSTORE PUSH1 0x20 PUSH1 0x0 KECCAK256 SWAP1 JUMPDEST DUP2 SLOAD DUP2 MSTORE SWAP1 PUSH1 0x1 ADD SWAP1 PUSH1 0x20 ADD DUP1 DUP4 GT PUSH2 0x7E06 JUMPI DUP3 SWAP1 SUB PUSH1 0x1F AND DUP3 ADD SWAP2 JUMPDEST POP POP POP POP POP DUP2 MSTORE PUSH1 0x20 ADD PUSH1 0x1C DUP3 ADD DUP1 SLOAD PUSH2 0x7E3C SWAP1 PUSH2 0x8E86 JUMP JUMPDEST DUP1 PUSH1 0x1F ADD PUSH1 0x20 DUP1 SWAP2 DIV MUL PUSH1 0x20 ADD PUSH1 0x40 MLOAD SWAP1 DUP2 ADD PUSH1 0x40 MSTORE DUP1 SWAP3 SWAP2 SWAP1 DUP2 DUP2 MSTORE PUSH1 0x20 ADD DUP3 DUP1 SLOAD PUSH2 0x7E68 SWAP1 PUSH2 0x8E86 JUMP JUMPDEST DUP1 ISZERO PUSH2 0x7EB5 JUMPI DUP1 PUSH1 0x1F LT PUSH2 0x7E8A JUMPI PUSH2 0x100 DUP1 DUP4 SLOAD DIV MUL DUP4 MSTORE SWAP2 PUSH1 0x20 ADD SWAP2 PUSH2 0x7EB5 JUMP JUMPDEST DUP3 ADD SWAP2 SWAP1 PUSH1 0x0 MSTORE PUSH1 0x20 PUSH1 0x0 KECCAK256 SWAP1 JUMPDEST DUP2 SLOAD DUP2 MSTORE SWAP1 PUSH1 0x1 ADD SWAP1 PUSH1 0x20 ADD DUP1 DUP4 GT PUSH2 0x7E98 JUMPI DUP3 SWAP1 SUB PUSH1 0x1F AND DUP3 ADD SWAP2 JUMPDEST POP POP POP SWAP2 DUP4 MSTORE POP POP PUSH1 0x1D DUP3 ADD SLOAD PUSH1 0x20 DUP1 DUP4 ADD SWAP2 SWAP1 SWAP2 MSTORE PUSH1 0x1E DUP4 ADD SLOAD PUSH1 0x40 DUP4 ADD MSTORE PUSH1 0x1F DUP4 ADD SLOAD PUSH1 0x1 PUSH1 0x1 PUSH1 0xA0 SHL SUB AND PUSH1 0x60 DUP4 ADD MSTORE DUP3 ADD DUP1 SLOAD PUSH1 0x80 SWAP1 SWAP3 ADD SWAP2 PUSH2 0x7EFB SWAP1 PUSH2 0x8E86 JUMP JUMPDEST DUP1 PUSH1 0x1F ADD PUSH1 0x20 DUP1 SWAP2 DIV MUL PUSH1 0x20 ADD PUSH1 0x40 MLOAD SWAP1 DUP2 ADD PUSH1 0x40 MSTORE DUP1 SWAP3 SWAP2 SWAP1 DUP2 DUP2 MSTORE PUSH1 0x20 ADD DUP3 DUP1 SLOAD PUSH2 0x7F27 SWAP1 PUSH2 0x8E86 JUMP JUMPDEST DUP1 ISZERO PUSH2 0x7F74 JUMPI DUP1 PUSH1 0x1F LT PUSH2 0x7F49 JUMPI PUSH2 0x100 DUP1 DUP4 SLOAD DIV MUL DUP4 MSTORE SWAP2 PUSH1 0x20 ADD SWAP2 PUSH2 0x7F74 JUMP JUMPDEST DUP3 ADD SWAP2 SWAP1 PUSH1 0x0 MSTORE PUSH1 0x20 PUSH1 0x0 KECCAK256 SWAP1 JUMPDEST DUP2 SLOAD DUP2 MSTORE SWAP1 PUSH1 0x1 ADD SWAP1 PUSH1 0x20 ADD DUP1 DUP4 GT PUSH2 0x7F57 JUMPI DUP3 SWAP1 SUB PUSH1 0x1F AND DUP3 ADD SWAP2 JUMPDEST POP POP POP POP POP DUP2 MSTORE PUSH1 0x20 ADD PUSH1 0x21 DUP3 ADD DUP1 SLOAD PUSH2 0x7F8D SWAP1 PUSH2 0x8E86 JUMP JUMPDEST DUP1 PUSH1 0x1F ADD PUSH1 0x20 DUP1 SWAP2 DIV MUL PUSH1 0x20 ADD PUSH1 0x40 MLOAD SWAP1 DUP2 ADD PUSH1 0x40 MSTORE DUP1 SWAP3 SWAP2 SWAP1 DUP2 DUP2 MSTORE PUSH1 0x20 ADD DUP3 DUP1 SLOAD PUSH2 0x7FB9 SWAP1 PUSH2 0x8E86 JUMP JUMPDEST DUP1 ISZERO PUSH2 0x8006 JUMPI DUP1 PUSH1 0x1F LT PUSH2 0x7FDB JUMPI PUSH2 0x100 DUP1 DUP4 SLOAD DIV MUL DUP4 MSTORE SWAP2 PUSH1 0x20 ADD SWAP2 PUSH2 0x8006 JUMP JUMPDEST DUP3 ADD SWAP2 SWAP1 PUSH1 0x0 MSTORE PUSH1 0x20 PUSH1 0x0 KECCAK256 SWAP1 JUMPDEST DUP2 SLOAD DUP2 MSTORE SWAP1 PUSH1 0x1 ADD SWAP1 PUSH1 0x20 ADD DUP1 DUP4 GT PUSH2 0x7FE9 JUMPI DUP3 SWAP1 SUB PUSH1 0x1F AND DUP3 ADD SWAP2 JUMPDEST POP POP POP SWAP2 DUP4 MSTORE POP POP PUSH1 0x22 DUP3 ADD SLOAD PUSH1 0x20 DUP3 ADD MSTORE PUSH1 0x23 DUP3 ADD SLOAD PUSH1 0x40 DUP3 ADD MSTORE PUSH1 0x24 DUP3 ADD SLOAD PUSH1 0x1 PUSH1 0x1 PUSH1 0xA0 SHL SUB AND PUSH1 0x60 DUP3 ADD MSTORE PUSH1 0x25 DUP3 ADD DUP1 SLOAD PUSH1 0x80 SWAP1 SWAP3 ADD SWAP2 PUSH2 0x804A SWAP1 PUSH2 0x8E86 JUMP JUMPDEST DUP1 PUSH1 0x1F ADD PUSH1 0x20 DUP1 SWAP2 DIV MUL PUSH1 0x20 ADD PUSH1 0x40 MLOAD SWAP1 DUP2 ADD PUSH1 0x40 MSTORE DUP1 SWAP3 SWAP2 SWAP1 DUP2 DUP2 MSTORE PUSH1 0x20 ADD DUP3 DUP1 SLOAD PUSH2 0x8076 SWAP1 PUSH2 0x8E86 JUMP JUMPDEST DUP1 ISZERO PUSH2 0x80C3 JUMPI DUP1 PUSH1 0x1F LT PUSH2 0x8098 JUMPI PUSH2 0x100 DUP1 DUP4 SLOAD DIV MUL DUP4 MSTORE SWAP2 PUSH1 0x20 ADD SWAP2 PUSH2 0x80C3 JUMP JUMPDEST DUP3 ADD SWAP2 SWAP1 PUSH1 0x0 MSTORE PUSH1 0x20 PUSH1 0x0 KECCAK256 SWAP1 JUMPDEST DUP2 SLOAD DUP2 MSTORE SWAP1 PUSH1 0x1 ADD SWAP1 PUSH1 0x20 ADD DUP1 DUP4 GT PUSH2 0x80A6 JUMPI DUP3 SWAP1 SUB PUSH1 0x1F AND DUP3 ADD SWAP2 JUMPDEST POP POP POP POP POP DUP2 MSTORE PUSH1 0x20 ADD PUSH1 0x26 DUP3 ADD DUP1 SLOAD PUSH2 0x80DC SWAP1 PUSH2 0x8E86 JUMP JUMPDEST DUP1 PUSH1 0x1F ADD PUSH1 0x20 DUP1 SWAP2 DIV MUL PUSH1 0x20 ADD PUSH1 0x40 MLOAD SWAP1 DUP2 ADD PUSH1 0x40 MSTORE DUP1 SWAP3 SWAP2 SWAP1 DUP2 DUP2 MSTORE PUSH1 0x20 ADD DUP3 DUP1 SLOAD PUSH2 0x8108 SWAP1 PUSH2 0x8E86 JUMP JUMPDEST DUP1 ISZERO PUSH2 0x8155 JUMPI DUP1 PUSH1 0x1F LT PUSH2 0x812A JUMPI PUSH2 0x100 DUP1 DUP4 SLOAD DIV MUL DUP4 MSTORE SWAP2 PUSH1 0x20 ADD SWAP2 PUSH2 0x8155 JUMP JUMPDEST DUP3 ADD SWAP2 SWAP1 PUSH1 0x0 MSTORE PUSH1 0x20 PUSH1 0x0 KECCAK256 SWAP1 JUMPDEST DUP2 SLOAD DUP2 MSTORE SWAP1 PUSH1 0x1 ADD SWAP1 PUSH1 0x20 ADD DUP1 DUP4 GT PUSH2 0x8138 JUMPI DUP3 SWAP1 SUB PUSH1 0x1F AND DUP3 ADD SWAP2 JUMPDEST POP POP POP SWAP2 DUP4 MSTORE POP POP PUSH1 0x27 DUP3 ADD SLOAD PUSH1 0x20 DUP3 ADD MSTORE PUSH1 0x28 DUP3 ADD SLOAD PUSH1 0x1 PUSH1 0x1 PUSH1 0xA0 SHL SUB AND PUSH1 0x40 DUP3 ADD MSTORE PUSH1 0x29 DUP3 ADD DUP1 SLOAD PUSH1 0x60 SWAP1 SWAP3 ADD SWAP2 PUSH2 0x818F SWAP1 PUSH2 0x8E86 JUMP JUMPDEST DUP1 PUSH1 0x1F ADD PUSH1 0x20 DUP1 SWAP2 DIV MUL PUSH1 0x20 ADD PUSH1 0x40 MLOAD SWAP1 DUP2 ADD PUSH1 0x40 MSTORE DUP1 SWAP3 SWAP2 SWAP1 DUP2 DUP2 MSTORE PUSH1 0x20 ADD DUP3 DUP1 SLOAD PUSH2 0x81BB SWAP1 PUSH2 0x8E86 JUMP JUMPDEST DUP1 ISZERO PUSH2 0x8208 JUMPI DUP1 PUSH1 0x1F LT PUSH2 0x81DD JUMPI PUSH2 0x100 DUP1 DUP4 SLOAD DIV MUL DUP4 MSTORE SWAP2 PUSH1 0x20 ADD SWAP2 PUSH2 0x8208 JUMP JUMPDEST DUP3 ADD SWAP2 SWAP1 PUSH1 0x0 MSTORE PUSH1 0x20 PUSH1 0x0 KECCAK256 SWAP1 JUMPDEST DUP2 SLOAD DUP2 MSTORE SWAP1 PUSH1 0x1 ADD SWAP1 PUSH1 0x20 ADD DUP1 DUP4 GT PUSH2 0x81EB JUMPI DUP3 SWAP1 SUB PUSH1 0x1F AND DUP3 ADD SWAP2 JUMPDEST POP POP POP SWAP2 DUP4 MSTORE POP POP PUSH1 0x2A DUP3 ADD SLOAD PUSH1 0x20 DUP3 ADD MSTORE PUSH1 0x2B DUP3 ADD SLOAD PUSH1 0x40 SWAP1 SWAP2 ADD SWAP1 PUSH1 0xFF AND PUSH1 0x19 DUP2 GT ISZERO PUSH2 0x8239 JUMPI PUSH2 0x8239 PUSH2 0x8EF2 JUMP JUMPDEST PUSH1 0x19 DUP2 GT ISZERO PUSH2 0x824A JUMPI PUSH2 0x824A PUSH2 0x8EF2 JUMP JUMPDEST DUP2 MSTORE POP POP SWAP1 POP DUP1 PUSH2 0x2E0 ADD MLOAD DUP2 PUSH2 0x300 ADD MLOAD DUP3 PUSH2 0x320 ADD MLOAD DUP4 PUSH2 0x340 ADD MLOAD DUP5 PUSH2 0x360 ADD MLOAD DUP6 PUSH2 0x380 ADD MLOAD DUP7 PUSH2 0x3A0 ADD MLOAD DUP8 PUSH2 0x3C0 ADD MLOAD SWAP9 POP SWAP9 POP SWAP9 POP SWAP9 POP SWAP9 POP SWAP9 POP SWAP9 POP SWAP9 POP POP SWAP2 SWAP4 SWAP6 SWAP8 POP SWAP2 SWAP4 SWAP6 SWAP8 JUMP JUMPDEST PUSH1 0x1 PUSH1 0x1 PUSH1 0xA0 SHL SUB DUP2 AND PUSH2 0x82AF JUMPI PUSH1 0x0 DUP1 REVERT JUMPDEST PUSH2 0x82B9 DUP3 DUP3 PUSH2 0x832A JUMP JUMPDEST ISZERO PUSH2 0x82C3 JUMPI PUSH1 0x0 DUP1 REVERT JUMPDEST PUSH1 0x1 PUSH1 0x1 PUSH1 0xA0 SHL SUB AND PUSH1 0x0 SWAP1 DUP2 MSTORE PUSH1 0x20 SWAP2 SWAP1 SWAP2 MSTORE PUSH1 0x40 SWAP1 KECCAK256 DUP1 SLOAD PUSH1 0xFF NOT AND PUSH1 0x1 OR SWAP1 SSTORE JUMP JUMPDEST PUSH2 0x82F3 PUSH1 0x7 DUP3 PUSH2 0x829C JUMP JUMPDEST PUSH1 0x40 MLOAD PUSH1 0x1 PUSH1 0x1 PUSH1 0xA0 SHL SUB DUP3 AND SWAP1 PUSH32 0x28B26E7A3D20AEDBC5F8F2EBF7DA671C0491723A2B78F47A097B0E46DEE07142 SWAP1 PUSH1 0x0 SWAP1 LOG2 POP JUMP JUMPDEST PUSH1 0x0 PUSH1 0x1 PUSH1 0x1 PUSH1 0xA0 SHL SUB DUP3 AND PUSH2 0x833F JUMPI PUSH1 0x0 DUP1 REVERT JUMPDEST POP PUSH1 0x1 PUSH1 0x1 PUSH1 0xA0 SHL SUB AND PUSH1 0x0 SWAP1 DUP2 MSTORE PUSH1 0x20 SWAP2 SWAP1 SWAP2 MSTORE PUSH1 0x40 SWAP1 KECCAK256 SLOAD PUSH1 0xFF AND SWAP1 JUMP JUMPDEST PUSH2 0x836A PUSH1 0x4 DUP3 PUSH2 0x829C JUMP JUMPDEST PUSH1 0x40 MLOAD PUSH1 0x1 PUSH1 0x1 PUSH1 0xA0 SHL SUB DUP3 AND SWAP1 PUSH31 0xA0477DDED24B6F3CA0EFB56770E84D7AF0117BDE8073E93A34E2F0B67F6292 SWAP1 PUSH1 0x0 SWAP1 LOG2 POP JUMP JUMPDEST PUSH2 0x83AB PUSH1 0x2 DUP3 PUSH2 0x8726 JUMP JUMPDEST PUSH1 0x40 MLOAD PUSH1 0x1 PUSH1 0x1 PUSH1 0xA0 SHL SUB DUP3 AND SWAP1 PUSH32 0x667F5DA192EF185267B681A3EA60C6A496A92711141D3E9CD25B4BE0048F30FF SWAP1 PUSH1 0x0 SWAP1 LOG2 POP JUMP JUMPDEST PUSH2 0x83ED PUSH1 0x3 DUP3 PUSH2 0x8726 JUMP JUMPDEST PUSH1 0x40 MLOAD PUSH1 0x1 PUSH1 0x1 PUSH1 0xA0 SHL SUB DUP3 AND SWAP1 PUSH32 0x71C0EC84B3F18F4B5AB128B9B8FFDEBBE0CCF91B486A336A5CE99BF62842DDDA SWAP1 PUSH1 0x0 SWAP1 LOG2 POP JUMP JUMPDEST PUSH2 0x842F PUSH1 0x7 DUP3 PUSH2 0x8726 JUMP JUMPDEST PUSH1 0x40 MLOAD PUSH1 0x1 PUSH1 0x1 PUSH1 0xA0 SHL SUB DUP3 AND SWAP1 PUSH32 0xE3F5ED5F263F1F01764A96EDFC7D025F511EC5F7D180E8816908B78BCF74F098 SWAP1 PUSH1 0x0 SWAP1 LOG2 POP JUMP JUMPDEST PUSH2 0x8471 PUSH1 0x5 DUP3 PUSH2 0x8726 JUMP JUMPDEST PUSH1 0x40 MLOAD PUSH1 0x1 PUSH1 0x1 PUSH1 0xA0 SHL SUB DUP3 AND SWAP1 PUSH32 0x126174F6CF49C81CDB4A9214C6B8F037BEF55B4EC31E4FC776CEA2A1C8A88D59 SWAP1 PUSH1 0x0 SWAP1 LOG2 POP JUMP JUMPDEST PUSH2 0x84B3 PUSH1 0x5 DUP3 PUSH2 0x829C JUMP JUMPDEST PUSH1 0x40 MLOAD PUSH1 0x1 PUSH1 0x1 PUSH1 0xA0 SHL SUB DUP3 AND SWAP1 PUSH32 0xDDBF200AA634DC3FB81CFD68583DD1040D1C751D335E1D86B631BDE3E977FEA8 SWAP1 PUSH1 0x0 SWAP1 LOG2 POP JUMP JUMPDEST PUSH2 0x84F5 PUSH1 0x2 DUP3 PUSH2 0x829C JUMP JUMPDEST PUSH1 0x40 MLOAD PUSH1 0x1 PUSH1 0x1 PUSH1 0xA0 SHL SUB DUP3 AND SWAP1 PUSH32 0x4C8EFB2F42D55D7D831E421921A3B89A7806BB65FDC7C5CCC226F27066603189 SWAP1 PUSH1 0x0 SWAP1 LOG2 POP JUMP JUMPDEST PUSH2 0x8537 PUSH1 0x1 DUP3 PUSH2 0x829C JUMP JUMPDEST PUSH1 0x40 MLOAD PUSH1 0x1 PUSH1 0x1 PUSH1 0xA0 SHL SUB DUP3 AND SWAP1 PUSH32 0x2E0DED4123377A3C2BC9A26F1717655A129E2F20752924D42E730EC89C83DBD0 SWAP1 PUSH1 0x0 SWAP1 LOG2 POP JUMP JUMPDEST PUSH2 0x8579 PUSH1 0x1 DUP3 PUSH2 0x8726 JUMP JUMPDEST PUSH1 0x40 MLOAD PUSH1 0x1 PUSH1 0x1 PUSH1 0xA0 SHL SUB DUP3 AND SWAP1 PUSH32 0xA5E0F060AF304AB17DD418C7927E3DA3AE7868189BF387AEE09AB179CCC572F2 SWAP1 PUSH1 0x0 SWAP1 LOG2 POP JUMP JUMPDEST PUSH2 0x85BB PUSH1 0x6 DUP3 PUSH2 0x829C JUMP JUMPDEST PUSH1 0x40 MLOAD PUSH1 0x1 PUSH1 0x1 PUSH1 0xA0 SHL SUB DUP3 AND SWAP1 PUSH32 0x71AE26CAD02663E3D92EFD6EC56031A80D74A20C0AB4183FAA8BF262261C9BAA SWAP1 PUSH1 0x0 SWAP1 LOG2 POP JUMP JUMPDEST PUSH2 0x85FD PUSH1 0x3 DUP3 PUSH2 0x829C JUMP JUMPDEST PUSH1 0x40 MLOAD PUSH1 0x1 PUSH1 0x1 PUSH1 0xA0 SHL SUB DUP3 AND SWAP1 PUSH32 0x4D9645F2965973330140385C3B546AD4C04B7EE2AE3ABB69562F5929D6B8320B SWAP1 PUSH1 0x0 SWAP1 LOG2 POP JUMP JUMPDEST PUSH2 0x863F PUSH1 0x6 DUP3 PUSH2 0x8726 JUMP JUMPDEST PUSH1 0x40 MLOAD PUSH1 0x1 PUSH1 0x1 PUSH1 0xA0 SHL SUB DUP3 AND SWAP1 PUSH32 0xDB7176E79CFFEF81CB01767DD0447A0B24BB72CA9778D4B245581086B2A7E6DB SWAP1 PUSH1 0x0 SWAP1 LOG2 POP JUMP JUMPDEST PUSH2 0x8681 PUSH1 0x4 DUP3 PUSH2 0x8726 JUMP JUMPDEST PUSH1 0x40 MLOAD PUSH1 0x1 PUSH1 0x1 PUSH1 0xA0 SHL SUB DUP3 AND SWAP1 PUSH32 0x83D8CCE936A4BACCE731675CB6D6DE235957309CC48EB6A36AA7AE1811EB9FAB SWAP1 PUSH1 0x0 SWAP1 LOG2 POP JUMP JUMPDEST PUSH1 0x1 PUSH1 0x1 PUSH1 0xA0 SHL SUB DUP2 AND PUSH2 0x86CB JUMPI PUSH1 0x0 DUP1 REVERT JUMPDEST PUSH1 0x0 DUP1 SLOAD PUSH1 0x40 MLOAD PUSH1 0x1 PUSH1 0x1 PUSH1 0xA0 SHL SUB DUP1 DUP6 AND SWAP4 SWAP3 AND SWAP2 PUSH32 0x5C486528EC3E3F0EA91181CFF8116F02BFA350E03B8B6F12E00765ADBB5AF85C SWAP2 LOG3 PUSH1 0x0 DUP1 SLOAD PUSH1 0x1 PUSH1 0x1 PUSH1 0xA0 SHL SUB NOT AND PUSH1 0x1 PUSH1 0x1 PUSH1 0xA0 SHL SUB SWAP3 SWAP1 SWAP3 AND SWAP2 SWAP1 SWAP2 OR SWAP1 SSTORE JUMP JUMPDEST PUSH1 0x1 PUSH1 0x1 PUSH1 0xA0 SHL SUB DUP2 AND PUSH2 0x8739 JUMPI PUSH1 0x0 DUP1 REVERT JUMPDEST PUSH2 0x8743 DUP3 DUP3 PUSH2 0x832A JUMP JUMPDEST PUSH2 0x874C JUMPI PUSH1 0x0 DUP1 REVERT JUMPDEST PUSH1 0x1 PUSH1 0x1 PUSH1 0xA0 SHL SUB AND PUSH1 0x0 SWAP1 DUP2 MSTORE PUSH1 0x20 SWAP2 SWAP1 SWAP2 MSTORE PUSH1 0x40 SWAP1 KECCAK256 DUP1 SLOAD PUSH1 0xFF NOT AND SWAP1 SSTORE JUMP JUMPDEST DUP3 DUP1 SLOAD PUSH2 0x877A SWAP1 PUSH2 0x8E86 JUMP JUMPDEST SWAP1 PUSH1 0x0 MSTORE PUSH1 0x20 PUSH1 0x0 KECCAK256 SWAP1 PUSH1 0x1F ADD PUSH1 0x20 SWAP1 DIV DUP2 ADD SWAP3 DUP3 PUSH2 0x879C JUMPI PUSH1 0x0 DUP6 SSTORE PUSH2 0x87E2 JUMP JUMPDEST DUP3 PUSH1 0x1F LT PUSH2 0x87B5 JUMPI DUP1 MLOAD PUSH1 0xFF NOT AND DUP4 DUP1 ADD OR DUP6 SSTORE PUSH2 0x87E2 JUMP JUMPDEST DUP3 DUP1 ADD PUSH1 0x1 ADD DUP6 SSTORE DUP3 ISZERO PUSH2 0x87E2 JUMPI SWAP2 DUP3 ADD JUMPDEST DUP3 DUP2 GT ISZERO PUSH2 0x87E2 JUMPI DUP3 MLOAD DUP3 SSTORE SWAP2 PUSH1 0x20 ADD SWAP2 SWAP1 PUSH1 0x1 ADD SWAP1 PUSH2 0x87C7 JUMP JUMPDEST POP PUSH2 0x87EE SWAP3 SWAP2 POP PUSH2 0x898B JUMP JUMPDEST POP SWAP1 JUMP JUMPDEST PUSH1 0x40 MLOAD DUP1 PUSH2 0x580 ADD PUSH1 0x40 MSTORE DUP1 PUSH1 0x0 PUSH1 0x1 PUSH1 0x1 PUSH1 0xA0 SHL SUB AND DUP2 MSTORE PUSH1 0x20 ADD PUSH1 0x0 DUP2 MSTORE PUSH1 0x20 ADD PUSH1 0x0 DUP2 MSTORE PUSH1 0x20 ADD PUSH1 0x0 DUP2 MSTORE PUSH1 0x20 ADD PUSH1 0x0 PUSH1 0x1 PUSH1 0x1 PUSH1 0xA0 SHL SUB AND DUP2 MSTORE PUSH1 0x20 ADD PUSH1 0x60 DUP2 MSTORE PUSH1 0x20 ADD PUSH1 0x60 DUP2 MSTORE PUSH1 0x20 ADD PUSH1 0x60 DUP2 MSTORE PUSH1 0x20 ADD PUSH1 0x60 DUP2 MSTORE PUSH1 0x20 ADD PUSH1 0x0 DUP2 MSTORE PUSH1 0x20 ADD PUSH1 0x0 DUP2 MSTORE PUSH1 0x20 ADD PUSH1 0x0 PUSH1 0x1 PUSH1 0x1 PUSH1 0xA0 SHL SUB AND DUP2 MSTORE PUSH1 0x20 ADD PUSH1 0x60 DUP2 MSTORE PUSH1 0x20 ADD PUSH1 0x60 DUP2 MSTORE PUSH1 0x20 ADD PUSH1 0x60 DUP2 MSTORE PUSH1 0x20 ADD PUSH1 0x60 DUP2 MSTORE PUSH1 0x20 ADD PUSH1 0x0 DUP2 MSTORE PUSH1 0x20 ADD PUSH1 0x0 DUP2 MSTORE PUSH1 0x20 ADD PUSH1 0x0 PUSH1 0x1 PUSH1 0x1 PUSH1 0xA0 SHL SUB AND DUP2 MSTORE PUSH1 0x20 ADD PUSH1 0x60 DUP2 MSTORE PUSH1 0x20 ADD PUSH1 0x60 DUP2 MSTORE PUSH1 0x20 ADD PUSH1 0x0 DUP2 MSTORE PUSH1 0x20 ADD PUSH1 0x0 DUP2 MSTORE PUSH1 0x20 ADD PUSH1 0x0 PUSH1 0x1 PUSH1 0x1 PUSH1 0xA0 SHL SUB AND DUP2 MSTORE PUSH1 0x20 ADD PUSH1 0x60 DUP2 MSTORE PUSH1 0x20 ADD PUSH1 0x60 DUP2 MSTORE PUSH1 0x20 ADD PUSH1 0x60 DUP2 MSTORE PUSH1 0x20 ADD PUSH1 0x60 DUP2 MSTORE PUSH1 0x20 ADD PUSH1 0x60 DUP2 MSTORE PUSH1 0x20 ADD PUSH1 0x0 DUP2 MSTORE PUSH1 0x20 ADD PUSH1 0x0 DUP2 MSTORE PUSH1 0x20 ADD PUSH1 0x0 PUSH1 0x1 PUSH1 0x1 PUSH1 0xA0 SHL SUB AND DUP2 MSTORE PUSH1 0x20 ADD PUSH1 0x60 DUP2 MSTORE PUSH1 0x20 ADD PUSH1 0x60 DUP2 MSTORE PUSH1 0x20 ADD PUSH1 0x0 DUP2 MSTORE PUSH1 0x20 ADD PUSH1 0x0 DUP2 MSTORE PUSH1 0x20 ADD PUSH1 0x0 PUSH1 0x1 PUSH1 0x1 PUSH1 0xA0 SHL SUB AND DUP2 MSTORE PUSH1 0x20 ADD PUSH1 0x60 DUP2 MSTORE PUSH1 0x20 ADD PUSH1 0x60 DUP2 MSTORE PUSH1 0x20 ADD PUSH1 0x0 DUP2 MSTORE PUSH1 0x20 ADD PUSH1 0x0 PUSH1 0x1 PUSH1 0x1 PUSH1 0xA0 SHL SUB AND DUP2 MSTORE PUSH1 0x20 ADD PUSH1 0x60 DUP2 MSTORE PUSH1 0x20 ADD PUSH1 0x0 DUP2 MSTORE PUSH1 0x20 ADD PUSH1 0x0 PUSH1 0x19 DUP2 GT ISZERO PUSH2 0x8986 JUMPI PUSH2 0x8986 PUSH2 0x8EF2 JUMP JUMPDEST SWAP1 MSTORE SWAP1 JUMP JUMPDEST JUMPDEST DUP1 DUP3 GT ISZERO PUSH2 0x87EE JUMPI PUSH1 0x0 DUP2 SSTORE PUSH1 0x1 ADD PUSH2 0x898C JUMP JUMPDEST PUSH1 0x0 DUP3 PUSH1 0x1F DUP4 ADD SLT PUSH2 0x89B1 JUMPI PUSH1 0x0 DUP1 REVERT JUMPDEST DUP2 CALLDATALOAD PUSH8 0xFFFFFFFFFFFFFFFF DUP1 DUP3 GT ISZERO PUSH2 0x89CC JUMPI PUSH2 0x89CC PUSH2 0x8F08 JUMP JUMPDEST PUSH1 0x40 MLOAD PUSH1 0x1F DUP4 ADD PUSH1 0x1F NOT SWAP1 DUP2 AND PUSH1 0x3F ADD AND DUP2 ADD SWAP1 DUP3 DUP3 GT DUP2 DUP4 LT OR ISZERO PUSH2 0x89F4 JUMPI PUSH2 0x89F4 PUSH2 0x8F08 JUMP JUMPDEST DUP2 PUSH1 0x40 MSTORE DUP4 DUP2 MSTORE DUP7 PUSH1 0x20 DUP6 DUP9 ADD ADD GT ISZERO PUSH2 0x8A0D JUMPI PUSH1 0x0 DUP1 REVERT JUMPDEST DUP4 PUSH1 0x20 DUP8 ADD PUSH1 0x20 DUP4 ADD CALLDATACOPY PUSH1 0x0 PUSH1 0x20 DUP6 DUP4 ADD ADD MSTORE DUP1 SWAP5 POP POP POP POP POP SWAP3 SWAP2 POP POP JUMP JUMPDEST PUSH1 0x0 PUSH1 0x20 DUP3 DUP5 SUB SLT ISZERO PUSH2 0x8A3F JUMPI PUSH1 0x0 DUP1 REVERT JUMPDEST DUP2 CALLDATALOAD PUSH1 0x1 PUSH1 0x1 PUSH1 0xA0 SHL SUB DUP2 AND DUP2 EQ PUSH2 0x8A56 JUMPI PUSH1 0x0 DUP1 REVERT JUMPDEST SWAP4 SWAP3 POP POP POP JUMP JUMPDEST PUSH1 0x0 PUSH1 0x20 DUP3 DUP5 SUB SLT ISZERO PUSH2 0x8A6F JUMPI PUSH1 0x0 DUP1 REVERT JUMPDEST POP CALLDATALOAD SWAP2 SWAP1 POP JUMP JUMPDEST PUSH1 0x0 DUP1 PUSH1 0x40 DUP4 DUP6 SUB SLT ISZERO PUSH2 0x8A89 JUMPI PUSH1 0x0 DUP1 REVERT JUMPDEST DUP3 CALLDATALOAD SWAP2 POP PUSH1 0x20 DUP4 ADD CALLDATALOAD PUSH8 0xFFFFFFFFFFFFFFFF DUP2 GT ISZERO PUSH2 0x8AA7 JUMPI PUSH1 0x0 DUP1 REVERT JUMPDEST PUSH2 0x8AB3 DUP6 DUP3 DUP7 ADD PUSH2 0x89A0 JUMP JUMPDEST SWAP2 POP POP SWAP3 POP SWAP3 SWAP1 POP JUMP JUMPDEST PUSH1 0x0 DUP1 PUSH1 0x0 PUSH1 0x60 DUP5 DUP7 SUB SLT ISZERO PUSH2 0x8AD2 JUMPI PUSH1 0x0 DUP1 REVERT JUMPDEST DUP4 CALLDATALOAD SWAP3 POP PUSH1 0x20 DUP5 ADD CALLDATALOAD PUSH8 0xFFFFFFFFFFFFFFFF DUP1 DUP3 GT ISZERO PUSH2 0x8AF1 JUMPI PUSH1 0x0 DUP1 REVERT JUMPDEST PUSH2 0x8AFD DUP8 DUP4 DUP9 ADD PUSH2 0x89A0 JUMP JUMPDEST SWAP4 POP PUSH1 0x40 DUP7 ADD CALLDATALOAD SWAP2 POP DUP1 DUP3 GT ISZERO PUSH2 0x8B13 JUMPI PUSH1 0x0 DUP1 REVERT JUMPDEST POP PUSH2 0x8B20 DUP7 DUP3 DUP8 ADD PUSH2 0x89A0 JUMP JUMPDEST SWAP2 POP POP SWAP3 POP SWAP3 POP SWAP3 JUMP JUMPDEST PUSH1 0x0 DUP1 PUSH1 0x0 DUP1 PUSH1 0x80 DUP6 DUP8 SUB SLT ISZERO PUSH2 0x8B40 JUMPI PUSH1 0x0 DUP1 REVERT JUMPDEST DUP5 CALLDATALOAD SWAP4 POP PUSH1 0x20 DUP6 ADD CALLDATALOAD PUSH8 0xFFFFFFFFFFFFFFFF DUP1 DUP3 GT ISZERO PUSH2 0x8B5F JUMPI PUSH1 0x0 DUP1 REVERT JUMPDEST PUSH2 0x8B6B DUP9 DUP4 DUP10 ADD PUSH2 0x89A0 JUMP JUMPDEST SWAP5 POP PUSH1 0x40 DUP8 ADD CALLDATALOAD SWAP2 POP DUP1 DUP3 GT ISZERO PUSH2 0x8B81 JUMPI PUSH1 0x0 DUP1 REVERT JUMPDEST PUSH2 0x8B8D DUP9 DUP4 DUP10 ADD PUSH2 0x89A0 JUMP JUMPDEST SWAP4 POP PUSH1 0x60 DUP8 ADD CALLDATALOAD SWAP2 POP DUP1 DUP3 GT ISZERO PUSH2 0x8BA3 JUMPI PUSH1 0x0 DUP1 REVERT JUMPDEST POP PUSH2 0x8BB0 DUP8 DUP3 DUP9 ADD PUSH2 0x89A0 JUMP JUMPDEST SWAP2 POP POP SWAP3 SWAP6 SWAP2 SWAP5 POP SWAP3 POP JUMP JUMPDEST PUSH1 0x0 DUP2 MLOAD DUP1 DUP5 MSTORE PUSH1 0x0 JUMPDEST DUP2 DUP2 LT ISZERO PUSH2 0x8BE2 JUMPI PUSH1 0x20 DUP2 DUP6 ADD DUP2 ADD MLOAD DUP7 DUP4 ADD DUP3 ADD MSTORE ADD PUSH2 0x8BC6 JUMP JUMPDEST DUP2 DUP2 GT ISZERO PUSH2 0x8BF4 JUMPI PUSH1 0x0 PUSH1 0x20 DUP4 DUP8 ADD ADD MSTORE JUMPDEST POP PUSH1 0x1F ADD PUSH1 0x1F NOT AND SWAP3 SWAP1 SWAP3 ADD PUSH1 0x20 ADD SWAP3 SWAP2 POP POP JUMP JUMPDEST PUSH1 0x1 PUSH1 0x1 PUSH1 0xA0 SHL SUB DUP10 AND DUP2 MSTORE PUSH2 0x100 PUSH1 0x20 DUP3 ADD DUP2 SWAP1 MSTORE PUSH1 0x0 SWAP1 PUSH2 0x8C2E DUP4 DUP3 ADD DUP12 PUSH2 0x8BBC JUMP JUMPDEST SWAP1 POP DUP3 DUP2 SUB PUSH1 0x40 DUP5 ADD MSTORE PUSH2 0x8C42 DUP2 DUP11 PUSH2 0x8BBC JUMP JUMPDEST SWAP1 POP DUP3 DUP2 SUB PUSH1 0x60 DUP5 ADD MSTORE PUSH2 0x8C56 DUP2 DUP10 PUSH2 0x8BBC JUMP JUMPDEST SWAP1 POP DUP3 DUP2 SUB PUSH1 0x80 DUP5 ADD MSTORE PUSH2 0x8C6A DUP2 DUP9 PUSH2 0x8BBC JUMP JUMPDEST SWAP1 POP DUP3 DUP2 SUB PUSH1 0xA0 DUP5 ADD MSTORE PUSH2 0x8C7E DUP2 DUP8 PUSH2 0x8BBC JUMP JUMPDEST PUSH1 0xC0 DUP5 ADD SWAP6 SWAP1 SWAP6 MSTORE POP POP PUSH1 0xE0 ADD MSTORE SWAP7 SWAP6 POP POP POP POP POP POP JUMP JUMPDEST PUSH1 0x1 PUSH1 0x1 PUSH1 0xA0 SHL SUB DUP9 AND DUP2 MSTORE PUSH1 0xE0 PUSH1 0x20 DUP3 ADD DUP2 SWAP1 MSTORE PUSH1 0x0 SWAP1 PUSH2 0x8CBA SWAP1 DUP4 ADD DUP10 PUSH2 0x8BBC JUMP JUMPDEST DUP3 DUP2 SUB PUSH1 0x40 DUP5 ADD MSTORE PUSH2 0x8CCC DUP2 DUP10 PUSH2 0x8BBC JUMP JUMPDEST SWAP1 POP DUP3 DUP2 SUB PUSH1 0x60 DUP5 ADD MSTORE PUSH2 0x8CE0 DUP2 DUP9 PUSH2 0x8BBC JUMP JUMPDEST SWAP1 POP DUP3 DUP2 SUB PUSH1 0x80 DUP5 ADD MSTORE PUSH2 0x8CF4 DUP2 DUP8 PUSH2 0x8BBC JUMP JUMPDEST PUSH1 0xA0 DUP5 ADD SWAP6 SWAP1 SWAP6 MSTORE POP POP PUSH1 0xC0 ADD MSTORE SWAP6 SWAP5 POP POP POP POP POP JUMP JUMPDEST PUSH1 0x1 PUSH1 0x1 PUSH1 0xA0 SHL SUB DUP6 AND DUP2 MSTORE PUSH1 0x80 PUSH1 0x20 DUP3 ADD DUP2 SWAP1 MSTORE PUSH1 0x0 SWAP1 PUSH2 0x8D2F SWAP1 DUP4 ADD DUP7 PUSH2 0x8BBC JUMP JUMPDEST DUP3 DUP2 SUB PUSH1 0x40 DUP5 ADD MSTORE PUSH2 0x8D41 DUP2 DUP7 PUSH2 0x8BBC JUMP JUMPDEST SWAP2 POP POP DUP3 PUSH1 0x60 DUP4 ADD MSTORE SWAP6 SWAP5 POP POP POP POP POP JUMP JUMPDEST PUSH1 0x1 PUSH1 0x1 PUSH1 0xA0 SHL SUB DUP7 AND DUP2 MSTORE PUSH1 0xA0 PUSH1 0x20 DUP3 ADD DUP2 SWAP1 MSTORE PUSH1 0x0 SWAP1 PUSH2 0x8D77 SWAP1 DUP4 ADD DUP8 PUSH2 0x8BBC JUMP JUMPDEST DUP3 DUP2 SUB PUSH1 0x40 DUP5 ADD MSTORE PUSH2 0x8D89 DUP2 DUP8 PUSH2 0x8BBC JUMP JUMPDEST PUSH1 0x60 DUP5 ADD SWAP6 SWAP1 SWAP6 MSTORE POP POP PUSH1 0x80 ADD MSTORE SWAP4 SWAP3 POP POP POP JUMP JUMPDEST PUSH1 0x1 PUSH1 0x1 PUSH1 0xA0 SHL SUB DUP5 AND DUP2 MSTORE PUSH1 0x60 PUSH1 0x20 DUP3 ADD DUP2 SWAP1 MSTORE PUSH1 0x0 SWAP1 PUSH2 0x8DC2 SWAP1 DUP4 ADD DUP6 PUSH2 0x8BBC JUMP JUMPDEST SWAP1 POP DUP3 PUSH1 0x40 DUP4 ADD MSTORE SWAP5 SWAP4 POP POP POP POP JUMP JUMPDEST PUSH1 0x1 PUSH1 0x1 PUSH1 0xA0 SHL SUB DUP13 DUP2 AND DUP3 MSTORE PUSH1 0x20 DUP3 ADD DUP13 SWAP1 MSTORE PUSH1 0x40 DUP3 ADD DUP12 SWAP1 MSTORE PUSH1 0x60 DUP3 ADD DUP11 SWAP1 MSTORE DUP9 AND PUSH1 0x80 DUP3 ADD MSTORE PUSH2 0x160 PUSH1 0xA0 DUP3 ADD DUP2 SWAP1 MSTORE PUSH1 0x0 SWAP1 PUSH2 0x8E14 DUP4 DUP3 ADD DUP11 PUSH2 0x8BBC JUMP JUMPDEST SWAP1 POP DUP3 DUP2 SUB PUSH1 0xC0 DUP5 ADD MSTORE PUSH2 0x8E28 DUP2 DUP10 PUSH2 0x8BBC JUMP JUMPDEST SWAP1 POP DUP3 DUP2 SUB PUSH1 0xE0 DUP5 ADD MSTORE PUSH2 0x8E3C DUP2 DUP9 PUSH2 0x8BBC JUMP JUMPDEST SWAP1 POP DUP3 DUP2 SUB PUSH2 0x100 DUP5 ADD MSTORE PUSH2 0x8E51 DUP2 DUP8 PUSH2 0x8BBC JUMP JUMPDEST PUSH2 0x120 DUP5 ADD SWAP6 SWAP1 SWAP6 MSTORE POP POP PUSH2 0x140 ADD MSTORE SWAP10 SWAP9 POP POP POP POP POP POP POP POP POP JUMP JUMPDEST PUSH1 0x0 DUP3 NOT DUP3 GT ISZERO PUSH2 0x8E81 JUMPI PUSH2 0x8E81 PUSH2 0x8EDC JUMP JUMPDEST POP ADD SWAP1 JUMP JUMPDEST PUSH1 0x1 DUP2 DUP2 SHR SWAP1 DUP3 AND DUP1 PUSH2 0x8E9A JUMPI PUSH1 0x7F DUP3 AND SWAP2 POP JUMPDEST PUSH1 0x20 DUP3 LT DUP2 EQ ISZERO PUSH2 0x8EBB JUMPI PUSH4 0x4E487B71 PUSH1 0xE0 SHL PUSH1 0x0 MSTORE PUSH1 0x22 PUSH1 0x4 MSTORE PUSH1 0x24 PUSH1 0x0 REVERT JUMPDEST POP SWAP2 SWAP1 POP JUMP JUMPDEST PUSH1 0x0 PUSH1 0x0 NOT DUP3 EQ ISZERO PUSH2 0x8ED5 JUMPI PUSH2 0x8ED5 PUSH2 0x8EDC JUMP JUMPDEST POP PUSH1 0x1 ADD SWAP1 JUMP JUMPDEST PUSH4 0x4E487B71 PUSH1 0xE0 SHL PUSH1 0x0 MSTORE PUSH1 0x11 PUSH1 0x4 MSTORE PUSH1 0x24 PUSH1 0x0 REVERT JUMPDEST PUSH4 0x4E487B71 PUSH1 0xE0 SHL PUSH1 0x0 MSTORE PUSH1 0x21 PUSH1 0x4 MSTORE PUSH1 0x24 PUSH1 0x0 REVERT JUMPDEST PUSH4 0x4E487B71 PUSH1 0xE0 SHL PUSH1 0x0 MSTORE PUSH1 0x41 PUSH1 0x4 MSTORE PUSH1 0x24 PUSH1 0x0 REVERT INVALID LOG2 PUSH5 0x6970667358 0x22 SLT KECCAK256 XOR 0x27 LOG1 BYTE SLOAD 0xE3 0xFC PUSH2 0x7E84 0xFB SDIV PUSH10 0x3A475195E7B30DFD09FD MSTORE 0xA8 0xF LOG0 CODESIZE PUSH7 0x107D1F64736F6C PUSH4 0x43000807 STOP CALLER "
		},
		"gasEstimates": {
			"creation": {
				"codeDepositCost": "7338400",
				"executionCost": "infinite",
				"totalCost": "infinite"
			},
			"external": {
				"addConsumer(address)": "infinite",
				"addDistributor(address)": "infinite",
				"addFarmer(address)": "infinite",
				"addMill(address)": "infinite",
				"addRetailer(address)": "infinite",
				"addSilo(address)": "infinite",
				"addTransporter(address)": "infinite",
				"buyFinalProductByConsumer(uint256,string)": "infinite",
				"buyGrainByMill(uint256)": "78737",
				"buyPackagedGrainByDistributor(uint256)": "78691",
				"buyPackagedWheatByDistributor(uint256)": "78704",
				"buyWheatBySilo(uint256)": "100933",
				"consumerData(uint256)": "infinite",
				"distributorData(uint256)": "infinite",
				"exportGrainByTrans(uint256,string,string)": "infinite",
				"farmData(uint256)": "infinite",
				"farmWheatByFarmer(uint256,string,string)": "infinite",
				"finalProductForSaleByRetailer(uint256)": "32432",
				"getProductHistory(uint256)": "13330",
				"harvestWheatByFarmer(uint256,string)": "infinite",
				"inspectWheatBySilo(uint256,string,string,string)": "infinite",
				"isConsumer(address)": "2716",
				"isDistributor(address)": "2716",
				"isFarmer(address)": "2672",
				"isMill(address)": "2695",
				"isOwner()": "2377",
				"isRetailer(address)": "2694",
				"isSilo(address)": "2673",
				"isTransporter(address)": "2738",
				"millData(uint256)": "infinite",
				"ownerLookup()": "2434",
				"packagingGrainByMill(uint256,string,string,string)": "infinite",
				"processGrainByMill(uint256,string)": "infinite",
				"recieveFinalProductByRetailer(uint256,string)": "infinite",
				"recieveGrainByMill(uint256,string)": "infinite",
				"recievePackagedGrainByDistributor(uint256,string)": "infinite",
				"renounceConsumer()": "28132",
				"renounceDistributor()": "28087",
				"renounceFarmer()": "28088",
				"renounceMill()": "28087",
				"renounceOwnership()": "30298",
				"renounceRetailer()": "28109",
				"renounceSilo()": "28089",
				"renounceTransporter()": "28111",
				"retailerData(uint256)": "infinite",
				"sellGrainBySilo(uint256)": "32477",
				"sellPackagedGrain(uint256)": "32446",
				"sellPackagedGrainByDistributor(uint256)": "32456",
				"sellWheatByFarmer(uint256)": "32432",
				"shipGrainToTransporter(uint256)": "76774",
				"shipPackagedGrainByDistributor(uint256)": "54578",
				"shipPackagedWheatByMill(uint256)": "54556",
				"siloData(uint256)": "infinite",
				"stackFinalProductOnShelvesByRetailer(uint256,string)": "infinite",
				"storeGrainBySilo(uint256,string)": "infinite",
				"storePackagedGrainByDistributor(uint256,string)": "infinite",
				"storeWheatByFarmer(uint256,string)": "infinite",
				"transferOwnership(address)": "30505",
				"transporterData(uint256)": "infinite"
			}
		},
		"methodIdentifiers": {
			"addConsumer(address)": "112940f9",
			"addDistributor(address)": "7250e224",
			"addFarmer(address)": "80c3f96d",
			"addMill(address)": "18b50d07",
			"addRetailer(address)": "8ec4f505",
			"addSilo(address)": "7e4704f3",
			"addTransporter(address)": "b7022049",
			"buyFinalProductByConsumer(uint256,string)": "492bf524",
			"buyGrainByMill(uint256)": "2a861005",
			"buyPackagedGrainByDistributor(uint256)": "f7134b7b",
			"buyPackagedWheatByDistributor(uint256)": "1e5766e5",
			"buyWheatBySilo(uint256)": "8a74853f",
			"consumerData(uint256)": "f45c3174",
			"distributorData(uint256)": "1d48a5e4",
			"exportGrainByTrans(uint256,string,string)": "a57a8f89",
			"farmData(uint256)": "d18f838f",
			"farmWheatByFarmer(uint256,string,string)": "c927b792",
			"finalProductForSaleByRetailer(uint256)": "63c4178e",
			"getProductHistory(uint256)": "57a096a1",
			"harvestWheatByFarmer(uint256,string)": "fdc1fdea",
			"inspectWheatBySilo(uint256,string,string,string)": "8f15c630",
			"isConsumer(address)": "834ff739",
			"isDistributor(address)": "8f0c86fa",
			"isFarmer(address)": "b9429069",
			"isMill(address)": "150e3465",
			"isOwner()": "8f32d59b",
			"isRetailer(address)": "5da09b88",
			"isSilo(address)": "12f0dcd8",
			"isTransporter(address)": "2b8109d5",
			"millData(uint256)": "ffcbcd44",
			"ownerLookup()": "e02e64ea",
			"packagingGrainByMill(uint256,string,string,string)": "02ee9e4d",
			"processGrainByMill(uint256,string)": "37341533",
			"recieveFinalProductByRetailer(uint256,string)": "197a0479",
			"recieveGrainByMill(uint256,string)": "c8ec7707",
			"recievePackagedGrainByDistributor(uint256,string)": "f916bf63",
			"renounceConsumer()": "61e6982d",
			"renounceDistributor()": "644241db",
			"renounceFarmer()": "80fc0ce4",
			"renounceMill()": "e77f6d05",
			"renounceOwnership()": "715018a6",
			"renounceRetailer()": "db0e6a2f",
			"renounceSilo()": "2e4a437b",
			"renounceTransporter()": "2ea17b27",
			"retailerData(uint256)": "b4fccdaa",
			"sellGrainBySilo(uint256)": "5de010c9",
			"sellPackagedGrain(uint256)": "03c0c015",
			"sellPackagedGrainByDistributor(uint256)": "7bf7fbf7",
			"sellWheatByFarmer(uint256)": "e26a6d69",
			"shipGrainToTransporter(uint256)": "1b4531ef",
			"shipPackagedGrainByDistributor(uint256)": "4250b253",
			"shipPackagedWheatByMill(uint256)": "8b278e45",
			"siloData(uint256)": "15837e7d",
			"stackFinalProductOnShelvesByRetailer(uint256,string)": "c8bcd871",
			"storeGrainBySilo(uint256,string)": "1b84ba42",
			"storePackagedGrainByDistributor(uint256,string)": "6719570b",
			"storeWheatByFarmer(uint256,string)": "453536ac",
			"transferOwnership(address)": "f2fde38b",
			"transporterData(uint256)": "2e157608"
		}
	},
	"abi": [
		{
			"inputs": [],
			"stateMutability": "nonpayable",
			"type": "constructor"
		},
		{
			"anonymous": false,
			"inputs": [
				{
					"indexed": false,
					"internalType": "uint256",
					"name": "upc",
					"type": "uint256"
				}
			],
			"name": "BoughtByConsumer",
			"type": "event"
		},
		{
			"anonymous": false,
			"inputs": [
				{
					"indexed": false,
					"internalType": "uint256",
					"name": "upc",
					"type": "uint256"
				}
			],
			"name": "BoughtByDistributor",
			"type": "event"
		},
		{
			"anonymous": false,
			"inputs": [
				{
					"indexed": false,
					"internalType": "uint256",
					"name": "upc",
					"type": "uint256"
				}
			],
			"name": "BoughtByMill",
			"type": "event"
		},
		{
			"anonymous": false,
			"inputs": [
				{
					"indexed": false,
					"internalType": "uint256",
					"name": "upc",
					"type": "uint256"
				}
			],
			"name": "BoughtByRetailer",
			"type": "event"
		},
		{
			"anonymous": false,
			"inputs": [
				{
					"indexed": false,
					"internalType": "uint256",
					"name": "upc",
					"type": "uint256"
				}
			],
			"name": "BoughtBySilo",
			"type": "event"
		},
		{
			"anonymous": false,
			"inputs": [
				{
					"indexed": true,
					"internalType": "address",
					"name": "account",
					"type": "address"
				}
			],
			"name": "ConsumerAdded",
			"type": "event"
		},
		{
			"anonymous": false,
			"inputs": [
				{
					"indexed": true,
					"internalType": "address",
					"name": "account",
					"type": "address"
				}
			],
			"name": "ConsumerRemoved",
			"type": "event"
		},
		{
			"anonymous": false,
			"inputs": [
				{
					"indexed": true,
					"internalType": "address",
					"name": "account",
					"type": "address"
				}
			],
			"name": "DistributorAdded",
			"type": "event"
		},
		{
			"anonymous": false,
			"inputs": [
				{
					"indexed": true,
					"internalType": "address",
					"name": "account",
					"type": "address"
				}
			],
			"name": "DistributorRemoved",
			"type": "event"
		},
		{
			"anonymous": false,
			"inputs": [
				{
					"indexed": false,
					"internalType": "uint256",
					"name": "upc",
					"type": "uint256"
				}
			],
			"name": "ExportByTransporter",
			"type": "event"
		},
		{
			"anonymous": false,
			"inputs": [
				{
					"indexed": false,
					"internalType": "uint256",
					"name": "upc",
					"type": "uint256"
				}
			],
			"name": "FarmedByFarmer",
			"type": "event"
		},
		{
			"anonymous": false,
			"inputs": [
				{
					"indexed": true,
					"internalType": "address",
					"name": "account",
					"type": "address"
				}
			],
			"name": "FarmerAdded",
			"type": "event"
		},
		{
			"anonymous": false,
			"inputs": [
				{
					"indexed": true,
					"internalType": "address",
					"name": "account",
					"type": "address"
				}
			],
			"name": "FarmerRemoved",
			"type": "event"
		},
		{
			"anonymous": false,
			"inputs": [
				{
					"indexed": false,
					"internalType": "uint256",
					"name": "upc",
					"type": "uint256"
				}
			],
			"name": "ForSaleByDistributor",
			"type": "event"
		},
		{
			"anonymous": false,
			"inputs": [
				{
					"indexed": false,
					"internalType": "uint256",
					"name": "upc",
					"type": "uint256"
				}
			],
			"name": "ForSaleByFarmer",
			"type": "event"
		},
		{
			"anonymous": false,
			"inputs": [
				{
					"indexed": false,
					"internalType": "uint256",
					"name": "upc",
					"type": "uint256"
				}
			],
			"name": "ForSaleByMill",
			"type": "event"
		},
		{
			"anonymous": false,
			"inputs": [
				{
					"indexed": false,
					"internalType": "uint256",
					"name": "upc",
					"type": "uint256"
				}
			],
			"name": "ForSaleByRetailer",
			"type": "event"
		},
		{
			"anonymous": false,
			"inputs": [
				{
					"indexed": false,
					"internalType": "uint256",
					"name": "upc",
					"type": "uint256"
				}
			],
			"name": "ForSaleBySilo",
			"type": "event"
		},
		{
			"anonymous": false,
			"inputs": [
				{
					"indexed": false,
					"internalType": "uint256",
					"name": "upc",
					"type": "uint256"
				}
			],
			"name": "HarvestedByFarmer",
			"type": "event"
		},
		{
			"anonymous": false,
			"inputs": [
				{
					"indexed": false,
					"internalType": "uint256",
					"name": "upc",
					"type": "uint256"
				}
			],
			"name": "InspectedBySilo",
			"type": "event"
		},
		{
			"anonymous": false,
			"inputs": [
				{
					"indexed": true,
					"internalType": "address",
					"name": "account",
					"type": "address"
				}
			],
			"name": "MillAdded",
			"type": "event"
		},
		{
			"anonymous": false,
			"inputs": [
				{
					"indexed": true,
					"internalType": "address",
					"name": "account",
					"type": "address"
				}
			],
			"name": "MillRemoved",
			"type": "event"
		},
		{
			"anonymous": false,
			"inputs": [
				{
					"indexed": false,
					"internalType": "uint256",
					"name": "upc",
					"type": "uint256"
				}
			],
			"name": "PackageByMill",
			"type": "event"
		},
		{
			"anonymous": false,
			"inputs": [
				{
					"indexed": false,
					"internalType": "uint256",
					"name": "upc",
					"type": "uint256"
				}
			],
			"name": "ProcessByMill",
			"type": "event"
		},
		{
			"anonymous": false,
			"inputs": [
				{
					"indexed": false,
					"internalType": "uint256",
					"name": "upc",
					"type": "uint256"
				}
			],
			"name": "RecieveByDistributor",
			"type": "event"
		},
		{
			"anonymous": false,
			"inputs": [
				{
					"indexed": false,
					"internalType": "uint256",
					"name": "upc",
					"type": "uint256"
				}
			],
			"name": "RecieveByMill",
			"type": "event"
		},
		{
			"anonymous": false,
			"inputs": [
				{
					"indexed": false,
					"internalType": "uint256",
					"name": "upc",
					"type": "uint256"
				}
			],
			"name": "RecieveByRetailer",
			"type": "event"
		},
		{
			"anonymous": false,
			"inputs": [
				{
					"indexed": true,
					"internalType": "address",
					"name": "account",
					"type": "address"
				}
			],
			"name": "RetailerAdded",
			"type": "event"
		},
		{
			"anonymous": false,
			"inputs": [
				{
					"indexed": true,
					"internalType": "address",
					"name": "account",
					"type": "address"
				}
			],
			"name": "RetailerRemoved",
			"type": "event"
		},
		{
			"anonymous": false,
			"inputs": [
				{
					"indexed": false,
					"internalType": "uint256",
					"name": "upc",
					"type": "uint256"
				}
			],
			"name": "ShipByDistributor",
			"type": "event"
		},
		{
			"anonymous": false,
			"inputs": [
				{
					"indexed": false,
					"internalType": "uint256",
					"name": "upc",
					"type": "uint256"
				}
			],
			"name": "ShipByMill",
			"type": "event"
		},
		{
			"anonymous": false,
			"inputs": [
				{
					"indexed": false,
					"internalType": "uint256",
					"name": "upc",
					"type": "uint256"
				}
			],
			"name": "ShipBySilo",
			"type": "event"
		},
		{
			"anonymous": false,
			"inputs": [
				{
					"indexed": true,
					"internalType": "address",
					"name": "account",
					"type": "address"
				}
			],
			"name": "SiloAdded",
			"type": "event"
		},
		{
			"anonymous": false,
			"inputs": [
				{
					"indexed": true,
					"internalType": "address",
					"name": "account",
					"type": "address"
				}
			],
			"name": "SiloRemoved",
			"type": "event"
		},
		{
			"anonymous": false,
			"inputs": [
				{
					"indexed": false,
					"internalType": "uint256",
					"name": "upc",
					"type": "uint256"
				}
			],
			"name": "StackByRetailer",
			"type": "event"
		},
		{
			"anonymous": false,
			"inputs": [
				{
					"indexed": false,
					"internalType": "uint256",
					"name": "upc",
					"type": "uint256"
				}
			],
			"name": "StoreByDistributor",
			"type": "event"
		},
		{
			"anonymous": false,
			"inputs": [
				{
					"indexed": false,
					"internalType": "uint256",
					"name": "upc",
					"type": "uint256"
				}
			],
			"name": "StoredByFarmer",
			"type": "event"
		},
		{
			"anonymous": false,
			"inputs": [
				{
					"indexed": false,
					"internalType": "uint256",
					"name": "upc",
					"type": "uint256"
				}
			],
			"name": "StoredBySilo",
			"type": "event"
		},
		{
			"anonymous": false,
			"inputs": [
				{
					"indexed": true,
					"internalType": "address",
					"name": "oldOwner",
					"type": "address"
				},
				{
					"indexed": true,
					"internalType": "address",
					"name": "newOwner",
					"type": "address"
				}
			],
			"name": "TransferOwnership",
			"type": "event"
		},
		{
			"anonymous": false,
			"inputs": [
				{
					"indexed": true,
					"internalType": "address",
					"name": "account",
					"type": "address"
				}
			],
			"name": "TransporterAdded",
			"type": "event"
		},
		{
			"anonymous": false,
			"inputs": [
				{
					"indexed": true,
					"internalType": "address",
					"name": "account",
					"type": "address"
				}
			],
			"name": "TransporterRemoved",
			"type": "event"
		},
		{
			"inputs": [
				{
					"internalType": "address",
					"name": "account",
					"type": "address"
				}
			],
			"name": "addConsumer",
			"outputs": [],
			"stateMutability": "nonpayable",
			"type": "function"
		},
		{
			"inputs": [
				{
					"internalType": "address",
					"name": "account",
					"type": "address"
				}
			],
			"name": "addDistributor",
			"outputs": [],
			"stateMutability": "nonpayable",
			"type": "function"
		},
		{
			"inputs": [
				{
					"internalType": "address",
					"name": "account",
					"type": "address"
				}
			],
			"name": "addFarmer",
			"outputs": [],
			"stateMutability": "nonpayable",
			"type": "function"
		},
		{
			"inputs": [
				{
					"internalType": "address",
					"name": "account",
					"type": "address"
				}
			],
			"name": "addMill",
			"outputs": [],
			"stateMutability": "nonpayable",
			"type": "function"
		},
		{
			"inputs": [
				{
					"internalType": "address",
					"name": "account",
					"type": "address"
				}
			],
			"name": "addRetailer",
			"outputs": [],
			"stateMutability": "nonpayable",
			"type": "function"
		},
		{
			"inputs": [
				{
					"internalType": "address",
					"name": "account",
					"type": "address"
				}
			],
			"name": "addSilo",
			"outputs": [],
			"stateMutability": "nonpayable",
			"type": "function"
		},
		{
			"inputs": [
				{
					"internalType": "address",
					"name": "account",
					"type": "address"
				}
			],
			"name": "addTransporter",
			"outputs": [],
			"stateMutability": "nonpayable",
			"type": "function"
		},
		{
			"inputs": [
				{
					"internalType": "uint256",
					"name": "_upc",
					"type": "uint256"
				},
				{
					"internalType": "string",
					"name": "_consumerInfo",
					"type": "string"
				}
			],
			"name": "buyFinalProductByConsumer",
			"outputs": [],
			"stateMutability": "nonpayable",
			"type": "function"
		},
		{
			"inputs": [
				{
					"internalType": "uint256",
					"name": "_upc",
					"type": "uint256"
				}
			],
			"name": "buyGrainByMill",
			"outputs": [],
			"stateMutability": "nonpayable",
			"type": "function"
		},
		{
			"inputs": [
				{
					"internalType": "uint256",
					"name": "_upc",
					"type": "uint256"
				}
			],
			"name": "buyPackagedGrainByDistributor",
			"outputs": [],
			"stateMutability": "nonpayable",
			"type": "function"
		},
		{
			"inputs": [
				{
					"internalType": "uint256",
					"name": "_upc",
					"type": "uint256"
				}
			],
			"name": "buyPackagedWheatByDistributor",
			"outputs": [],
			"stateMutability": "nonpayable",
			"type": "function"
		},
		{
			"inputs": [
				{
					"internalType": "uint256",
					"name": "_upc",
					"type": "uint256"
				}
			],
			"name": "buyWheatBySilo",
			"outputs": [],
			"stateMutability": "nonpayable",
			"type": "function"
		},
		{
			"inputs": [
				{
					"internalType": "uint256",
					"name": "_upc",
					"type": "uint256"
				}
			],
			"name": "consumerData",
			"outputs": [
				{
					"internalType": "address",
					"name": "consumerID",
					"type": "address"
				},
				{
					"internalType": "string",
					"name": "consumerInfo",
					"type": "string"
				},
				{
					"internalType": "uint256",
					"name": "purchaseDate",
					"type": "uint256"
				}
			],
			"stateMutability": "view",
			"type": "function"
		},
		{
			"inputs": [
				{
					"internalType": "uint256",
					"name": "_upc",
					"type": "uint256"
				}
			],
			"name": "distributorData",
			"outputs": [
				{
					"internalType": "address",
					"name": "distributorID",
					"type": "address"
				},
				{
					"internalType": "string",
					"name": "storageInfoDist",
					"type": "string"
				},
				{
					"internalType": "string",
					"name": "shipmentInfo",
					"type": "string"
				},
				{
					"internalType": "uint256",
					"name": "arrivalDateDist",
					"type": "uint256"
				},
				{
					"internalType": "uint256",
					"name": "shippingDateDist",
					"type": "uint256"
				}
			],
			"stateMutability": "view",
			"type": "function"
		},
		{
			"inputs": [
				{
					"internalType": "uint256",
					"name": "_upc",
					"type": "uint256"
				},
				{
					"internalType": "string",
					"name": "_transportInfo",
					"type": "string"
				},
				{
					"internalType": "string",
					"name": "_transitDocument",
					"type": "string"
				}
			],
			"name": "exportGrainByTrans",
			"outputs": [],
			"stateMutability": "nonpayable",
			"type": "function"
		},
		{
			"inputs": [
				{
					"internalType": "uint256",
					"name": "_upc",
					"type": "uint256"
				}
			],
			"name": "farmData",
			"outputs": [
				{
					"internalType": "address",
					"name": "ownerID",
					"type": "address"
				},
				{
					"internalType": "uint256",
					"name": "productID",
					"type": "uint256"
				},
				{
					"internalType": "uint256",
					"name": "productUPC",
					"type": "uint256"
				},
				{
					"internalType": "uint256",
					"name": "productBatchID",
					"type": "uint256"
				},
				{
					"internalType": "address",
					"name": "farmID",
					"type": "address"
				},
				{
					"internalType": "string",
					"name": "farmInfo",
					"type": "string"
				},
				{
					"internalType": "string",
					"name": "harvestDetail",
					"type": "string"
				},
				{
					"internalType": "string",
					"name": "storageInfoFarm",
					"type": "string"
				},
				{
					"internalType": "string",
					"name": "farmChemicals",
					"type": "string"
				},
				{
					"internalType": "uint256",
					"name": "farmDate",
					"type": "uint256"
				},
				{
					"internalType": "uint256",
					"name": "harvestDate",
					"type": "uint256"
				}
			],
			"stateMutability": "view",
			"type": "function"
		},
		{
			"inputs": [
				{
					"internalType": "uint256",
					"name": "_upc",
					"type": "uint256"
				},
				{
					"internalType": "string",
					"name": "_farmInfo",
					"type": "string"
				},
				{
					"internalType": "string",
					"name": "_farmChemicals",
					"type": "string"
				}
			],
			"name": "farmWheatByFarmer",
			"outputs": [],
			"stateMutability": "nonpayable",
			"type": "function"
		},
		{
			"inputs": [
				{
					"internalType": "uint256",
					"name": "_upc",
					"type": "uint256"
				}
			],
			"name": "finalProductForSaleByRetailer",
			"outputs": [],
			"stateMutability": "nonpayable",
			"type": "function"
		},
		{
			"inputs": [
				{
					"internalType": "uint256",
					"name": "_upc",
					"type": "uint256"
				}
			],
			"name": "getProductHistory",
			"outputs": [
				{
					"internalType": "uint256",
					"name": "FTS",
					"type": "uint256"
				},
				{
					"internalType": "uint256",
					"name": "STT",
					"type": "uint256"
				},
				{
					"internalType": "uint256",
					"name": "TTM",
					"type": "uint256"
				},
				{
					"internalType": "uint256",
					"name": "MTD",
					"type": "uint256"
				},
				{
					"internalType": "uint256",
					"name": "DTR",
					"type": "uint256"
				},
				{
					"internalType": "uint256",
					"name": "RTC",
					"type": "uint256"
				}
			],
			"stateMutability": "view",
			"type": "function"
		},
		{
			"inputs": [
				{
					"internalType": "uint256",
					"name": "_upc",
					"type": "uint256"
				},
				{
					"internalType": "string",
					"name": "_harvestDetail",
					"type": "string"
				}
			],
			"name": "harvestWheatByFarmer",
			"outputs": [],
			"stateMutability": "nonpayable",
			"type": "function"
		},
		{
			"inputs": [
				{
					"internalType": "uint256",
					"name": "_upc",
					"type": "uint256"
				},
				{
					"internalType": "string",
					"name": "_siloInfo",
					"type": "string"
				},
				{
					"internalType": "string",
					"name": "_certificateOfInspection",
					"type": "string"
				},
				{
					"internalType": "string",
					"name": "_processingInfoSilo",
					"type": "string"
				}
			],
			"name": "inspectWheatBySilo",
			"outputs": [],
			"stateMutability": "nonpayable",
			"type": "function"
		},
		{
			"inputs": [
				{
					"internalType": "address",
					"name": "account",
					"type": "address"
				}
			],
			"name": "isConsumer",
			"outputs": [
				{
					"internalType": "bool",
					"name": "",
					"type": "bool"
				}
			],
			"stateMutability": "view",
			"type": "function"
		},
		{
			"inputs": [
				{
					"internalType": "address",
					"name": "account",
					"type": "address"
				}
			],
			"name": "isDistributor",
			"outputs": [
				{
					"internalType": "bool",
					"name": "",
					"type": "bool"
				}
			],
			"stateMutability": "view",
			"type": "function"
		},
		{
			"inputs": [
				{
					"internalType": "address",
					"name": "account",
					"type": "address"
				}
			],
			"name": "isFarmer",
			"outputs": [
				{
					"internalType": "bool",
					"name": "",
					"type": "bool"
				}
			],
			"stateMutability": "view",
			"type": "function"
		},
		{
			"inputs": [
				{
					"internalType": "address",
					"name": "account",
					"type": "address"
				}
			],
			"name": "isMill",
			"outputs": [
				{
					"internalType": "bool",
					"name": "",
					"type": "bool"
				}
			],
			"stateMutability": "view",
			"type": "function"
		},
		{
			"inputs": [],
			"name": "isOwner",
			"outputs": [
				{
					"internalType": "bool",
					"name": "",
					"type": "bool"
				}
			],
			"stateMutability": "view",
			"type": "function"
		},
		{
			"inputs": [
				{
					"internalType": "address",
					"name": "account",
					"type": "address"
				}
			],
			"name": "isRetailer",
			"outputs": [
				{
					"internalType": "bool",
					"name": "",
					"type": "bool"
				}
			],
			"stateMutability": "view",
			"type": "function"
		},
		{
			"inputs": [
				{
					"internalType": "address",
					"name": "account",
					"type": "address"
				}
			],
			"name": "isSilo",
			"outputs": [
				{
					"internalType": "bool",
					"name": "",
					"type": "bool"
				}
			],
			"stateMutability": "view",
			"type": "function"
		},
		{
			"inputs": [
				{
					"internalType": "address",
					"name": "account",
					"type": "address"
				}
			],
			"name": "isTransporter",
			"outputs": [
				{
					"internalType": "bool",
					"name": "",
					"type": "bool"
				}
			],
			"stateMutability": "view",
			"type": "function"
		},
		{
			"inputs": [
				{
					"internalType": "uint256",
					"name": "_upc",
					"type": "uint256"
				}
			],
			"name": "millData",
			"outputs": [
				{
					"internalType": "address",
					"name": "millID",
					"type": "address"
				},
				{
					"internalType": "string",
					"name": "millInfo",
					"type": "string"
				},
				{
					"internalType": "string",
					"name": "processingInfoMill",
					"type": "string"
				},
				{
					"internalType": "string",
					"name": "storageInfoMill",
					"type": "string"
				},
				{
					"internalType": "string",
					"name": "packagingInfo",
					"type": "string"
				},
				{
					"internalType": "string",
					"name": "productDetailMill",
					"type": "string"
				},
				{
					"internalType": "uint256",
					"name": "arrivalDateMill",
					"type": "uint256"
				},
				{
					"internalType": "uint256",
					"name": "shippingDateMill",
					"type": "uint256"
				}
			],
			"stateMutability": "view",
			"type": "function"
		},
		{
			"inputs": [],
			"name": "ownerLookup",
			"outputs": [
				{
					"internalType": "address",
					"name": "",
					"type": "address"
				}
			],
			"stateMutability": "view",
			"type": "function"
		},
		{
			"inputs": [
				{
					"internalType": "uint256",
					"name": "_upc",
					"type": "uint256"
				},
				{
					"internalType": "string",
					"name": "_packagingInfo",
					"type": "string"
				},
				{
					"internalType": "string",
					"name": "_storageInfoMill",
					"type": "string"
				},
				{
					"internalType": "string",
					"name": "_productDetailMill",
					"type": "string"
				}
			],
			"name": "packagingGrainByMill",
			"outputs": [],
			"stateMutability": "nonpayable",
			"type": "function"
		},
		{
			"inputs": [
				{
					"internalType": "uint256",
					"name": "_upc",
					"type": "uint256"
				},
				{
					"internalType": "string",
					"name": "_processingInfoMill",
					"type": "string"
				}
			],
			"name": "processGrainByMill",
			"outputs": [],
			"stateMutability": "nonpayable",
			"type": "function"
		},
		{
			"inputs": [
				{
					"internalType": "uint256",
					"name": "_upc",
					"type": "uint256"
				},
				{
					"internalType": "string",
					"name": "_retailerInfo",
					"type": "string"
				}
			],
			"name": "recieveFinalProductByRetailer",
			"outputs": [],
			"stateMutability": "nonpayable",
			"type": "function"
		},
		{
			"inputs": [
				{
					"internalType": "uint256",
					"name": "_upc",
					"type": "uint256"
				},
				{
					"internalType": "string",
					"name": "_millInfo",
					"type": "string"
				}
			],
			"name": "recieveGrainByMill",
			"outputs": [],
			"stateMutability": "nonpayable",
			"type": "function"
		},
		{
			"inputs": [
				{
					"internalType": "uint256",
					"name": "_upc",
					"type": "uint256"
				},
				{
					"internalType": "string",
					"name": "_shipmentInfo",
					"type": "string"
				}
			],
			"name": "recievePackagedGrainByDistributor",
			"outputs": [],
			"stateMutability": "nonpayable",
			"type": "function"
		},
		{
			"inputs": [],
			"name": "renounceConsumer",
			"outputs": [],
			"stateMutability": "nonpayable",
			"type": "function"
		},
		{
			"inputs": [],
			"name": "renounceDistributor",
			"outputs": [],
			"stateMutability": "nonpayable",
			"type": "function"
		},
		{
			"inputs": [],
			"name": "renounceFarmer",
			"outputs": [],
			"stateMutability": "nonpayable",
			"type": "function"
		},
		{
			"inputs": [],
			"name": "renounceMill",
			"outputs": [],
			"stateMutability": "nonpayable",
			"type": "function"
		},
		{
			"inputs": [],
			"name": "renounceOwnership",
			"outputs": [],
			"stateMutability": "nonpayable",
			"type": "function"
		},
		{
			"inputs": [],
			"name": "renounceRetailer",
			"outputs": [],
			"stateMutability": "nonpayable",
			"type": "function"
		},
		{
			"inputs": [],
			"name": "renounceSilo",
			"outputs": [],
			"stateMutability": "nonpayable",
			"type": "function"
		},
		{
			"inputs": [],
			"name": "renounceTransporter",
			"outputs": [],
			"stateMutability": "nonpayable",
			"type": "function"
		},
		{
			"inputs": [
				{
					"internalType": "uint256",
					"name": "_upc",
					"type": "uint256"
				}
			],
			"name": "retailerData",
			"outputs": [
				{
					"internalType": "address",
					"name": "retailerID",
					"type": "address"
				},
				{
					"internalType": "string",
					"name": "retailerInfo",
					"type": "string"
				},
				{
					"internalType": "string",
					"name": "stackInfoRet",
					"type": "string"
				},
				{
					"internalType": "uint256",
					"name": "arrivalDateRet",
					"type": "uint256"
				}
			],
			"stateMutability": "view",
			"type": "function"
		},
		{
			"inputs": [
				{
					"internalType": "uint256",
					"name": "_upc",
					"type": "uint256"
				}
			],
			"name": "sellGrainBySilo",
			"outputs": [],
			"stateMutability": "nonpayable",
			"type": "function"
		},
		{
			"inputs": [
				{
					"internalType": "uint256",
					"name": "_upc",
					"type": "uint256"
				}
			],
			"name": "sellPackagedGrain",
			"outputs": [],
			"stateMutability": "nonpayable",
			"type": "function"
		},
		{
			"inputs": [
				{
					"internalType": "uint256",
					"name": "_upc",
					"type": "uint256"
				}
			],
			"name": "sellPackagedGrainByDistributor",
			"outputs": [],
			"stateMutability": "nonpayable",
			"type": "function"
		},
		{
			"inputs": [
				{
					"internalType": "uint256",
					"name": "_upc",
					"type": "uint256"
				}
			],
			"name": "sellWheatByFarmer",
			"outputs": [],
			"stateMutability": "nonpayable",
			"type": "function"
		},
		{
			"inputs": [
				{
					"internalType": "uint256",
					"name": "_upc",
					"type": "uint256"
				}
			],
			"name": "shipGrainToTransporter",
			"outputs": [],
			"stateMutability": "nonpayable",
			"type": "function"
		},
		{
			"inputs": [
				{
					"internalType": "uint256",
					"name": "_upc",
					"type": "uint256"
				}
			],
			"name": "shipPackagedGrainByDistributor",
			"outputs": [],
			"stateMutability": "nonpayable",
			"type": "function"
		},
		{
			"inputs": [
				{
					"internalType": "uint256",
					"name": "_upc",
					"type": "uint256"
				}
			],
			"name": "shipPackagedWheatByMill",
			"outputs": [],
			"stateMutability": "nonpayable",
			"type": "function"
		},
		{
			"inputs": [
				{
					"internalType": "uint256",
					"name": "_upc",
					"type": "uint256"
				}
			],
			"name": "siloData",
			"outputs": [
				{
					"internalType": "address",
					"name": "siloID",
					"type": "address"
				},
				{
					"internalType": "string",
					"name": "siloInfo",
					"type": "string"
				},
				{
					"internalType": "string",
					"name": "certificateOfInspection",
					"type": "string"
				},
				{
					"internalType": "string",
					"name": "processingInfoSilo",
					"type": "string"
				},
				{
					"internalType": "string",
					"name": "storageInfoSilo",
					"type": "string"
				},
				{
					"internalType": "uint256",
					"name": "arrivalDateSilo",
					"type": "uint256"
				},
				{
					"internalType": "uint256",
					"name": "shippingDateSilo",
					"type": "uint256"
				}
			],
			"stateMutability": "view",
			"type": "function"
		},
		{
			"inputs": [
				{
					"internalType": "uint256",
					"name": "_upc",
					"type": "uint256"
				},
				{
					"internalType": "string",
					"name": "_stackInfoRet",
					"type": "string"
				}
			],
			"name": "stackFinalProductOnShelvesByRetailer",
			"outputs": [],
			"stateMutability": "nonpayable",
			"type": "function"
		},
		{
			"inputs": [
				{
					"internalType": "uint256",
					"name": "_upc",
					"type": "uint256"
				},
				{
					"internalType": "string",
					"name": "_storageInfoBySilo",
					"type": "string"
				}
			],
			"name": "storeGrainBySilo",
			"outputs": [],
			"stateMutability": "nonpayable",
			"type": "function"
		},
		{
			"inputs": [
				{
					"internalType": "uint256",
					"name": "_upc",
					"type": "uint256"
				},
				{
					"internalType": "string",
					"name": "_storageInfoDist",
					"type": "string"
				}
			],
			"name": "storePackagedGrainByDistributor",
			"outputs": [],
			"stateMutability": "nonpayable",
			"type": "function"
		},
		{
			"inputs": [
				{
					"internalType": "uint256",
					"name": "_upc",
					"type": "uint256"
				},
				{
					"internalType": "string",
					"name": "_storageInfoFarm",
					"type": "string"
				}
			],
			"name": "storeWheatByFarmer",
			"outputs": [],
			"stateMutability": "nonpayable",
			"type": "function"
		},
		{
			"inputs": [
				{
					"internalType": "address",
					"name": "newOwner",
					"type": "address"
				}
			],
			"name": "transferOwnership",
			"outputs": [],
			"stateMutability": "nonpayable",
			"type": "function"
		},
		{
			"inputs": [
				{
					"internalType": "uint256",
					"name": "_upc",
					"type": "uint256"
				}
			],
			"name": "transporterData",
			"outputs": [
				{
					"internalType": "address",
					"name": "transporterID",
					"type": "address"
				},
				{
					"internalType": "string",
					"name": "transportInfo",
					"type": "string"
				},
				{
					"internalType": "string",
					"name": "transitDocument",
					"type": "string"
				},
				{
					"internalType": "uint256",
					"name": "arrivalDateTrans",
					"type": "uint256"
				},
				{
					"internalType": "uint256",
					"name": "shippingtDateTrans",
					"type": "uint256"
				}
			],
			"stateMutability": "view",
			"type": "function"
		}
	]
}