{
  "contractName": "MillRole",
  "abi": [
    {
      "inputs": [],
      "stateMutability": "nonpayable",
      "type": "constructor"
    },
    {
      "anonymous": false,
      "inputs": [
        {
          "indexed": true,
          "internalType": "address",
          "name": "account",
          "type": "address"
        }
      ],
      "name": "MillAdded",
      "type": "event"
    },
    {
      "anonymous": false,
      "inputs": [
        {
          "indexed": true,
          "internalType": "address",
          "name": "account",
          "type": "address"
        }
      ],
      "name": "MillRemoved",
      "type": "event"
    },
    {
      "inputs": [
        {
          "internalType": "address",
          "name": "account",
          "type": "address"
        }
      ],
      "name": "isMill",
      "outputs": [
        {
          "internalType": "bool",
          "name": "",
          "type": "bool"
        }
      ],
      "stateMutability": "view",
      "type": "function",
      "constant": true
    },
    {
      "inputs": [
        {
          "internalType": "address",
          "name": "account",
          "type": "address"
        }
      ],
      "name": "addMill",
      "outputs": [],
      "stateMutability": "nonpayable",
      "type": "function"
    },
    {
      "inputs": [],
      "name": "renounceMill",
      "outputs": [],
      "stateMutability": "nonpayable",
      "type": "function"
    }
  ],
  "bytecode": "0x608060405234801561001057600080fd5b506100203361002560201b60201c565b6101c6565b61003d81600061008260201b6100e21790919060201c565b8073ffffffffffffffffffffffffffffffffffffffff167ea0477dded24b6f3ca0efb56770e84d7af0117bde8073e93a34e2f0b67f629260405160405180910390a250565b600073ffffffffffffffffffffffffffffffffffffffff168173ffffffffffffffffffffffffffffffffffffffff1614156100bc57600080fd5b6100cc828261013460201b60201c565b156100d657600080fd5b60018260000160008373ffffffffffffffffffffffffffffffffffffffff1673ffffffffffffffffffffffffffffffffffffffff16815260200190815260200160002060006101000a81548160ff0219169083151502179055505050565b60008073ffffffffffffffffffffffffffffffffffffffff168273ffffffffffffffffffffffffffffffffffffffff16141561016f57600080fd5b8260000160008373ffffffffffffffffffffffffffffffffffffffff1673ffffffffffffffffffffffffffffffffffffffff16815260200190815260200160002060009054906101000a900460ff16905092915050565b61047a806101d56000396000f3fe608060405234801561001057600080fd5b50600436106100415760003560e01c8063150e34651461004657806318b50d0714610076578063e77f6d0514610092575b600080fd5b610060600480360381019061005b9190610393565b61009c565b60405161006d91906103cf565b60405180910390f35b610090600480360381019061008b9190610393565b6100b9565b005b61009a6100d7565b005b60006100b282600061018e90919063ffffffff16565b9050919050565b6100c23361009c565b6100cb57600080fd5b6100d481610220565b50565b6100e033610279565b565b600073ffffffffffffffffffffffffffffffffffffffff168173ffffffffffffffffffffffffffffffffffffffff16141561011c57600080fd5b610126828261018e565b1561013057600080fd5b60018260000160008373ffffffffffffffffffffffffffffffffffffffff1673ffffffffffffffffffffffffffffffffffffffff16815260200190815260200160002060006101000a81548160ff0219169083151502179055505050565b60008073ffffffffffffffffffffffffffffffffffffffff168273ffffffffffffffffffffffffffffffffffffffff1614156101c957600080fd5b8260000160008373ffffffffffffffffffffffffffffffffffffffff1673ffffffffffffffffffffffffffffffffffffffff16815260200190815260200160002060009054906101000a900460ff16905092915050565b6102348160006100e290919063ffffffff16565b8073ffffffffffffffffffffffffffffffffffffffff167ea0477dded24b6f3ca0efb56770e84d7af0117bde8073e93a34e2f0b67f629260405160405180910390a250565b61028d8160006102d390919063ffffffff16565b8073ffffffffffffffffffffffffffffffffffffffff167f83d8cce936a4bacce731675cb6d6de235957309cc48eb6a36aa7ae1811eb9fab60405160405180910390a250565b600073ffffffffffffffffffffffffffffffffffffffff168173ffffffffffffffffffffffffffffffffffffffff16141561030d57600080fd5b610317828261018e565b61032057600080fd5b60008260000160008373ffffffffffffffffffffffffffffffffffffffff1673ffffffffffffffffffffffffffffffffffffffff16815260200190815260200160002060006101000a81548160ff0219169083151502179055505050565b60008135905061038d8161042d565b92915050565b6000602082840312156103a9576103a8610428565b5b60006103b78482850161037e565b91505092915050565b6103c9816103fc565b82525050565b60006020820190506103e460008301846103c0565b92915050565b60006103f582610408565b9050919050565b60008115159050919050565b600073ffffffffffffffffffffffffffffffffffffffff82169050919050565b600080fd5b610436816103ea565b811461044157600080fd5b5056fea2646970667358221220c0fb0b4075d907309c9b7aef1a153e65b61d38271b7a450738364ea04fa5e38964736f6c63430008070033",
  "immutableReferences": {},
  "source": "// SPDX-License-Identifier: MIT\r\npragma solidity >=0.4.22 <0.9.0;\r\n\r\n\r\nimport \"./Roles.sol\";\r\n\r\n// Mill\r\n\r\n// Define a contract 'MillRole' to manage this role - add, remove, check\r\ncontract MillRole {\r\n  using Roles for Roles.Role;\r\n\r\n  // Define 2 events, one for Adding, and other for Removing\r\n  event MillAdded(address indexed account);\r\n  event MillRemoved(address indexed account);\r\n\r\n  // Define a struct 'Mills' by inheriting from 'Roles' library, struct Role\r\n  Roles.Role private Mills;\r\n\r\n  // In the constructor make the address that deploys this contract the 1st Mill\r\n  constructor()  {\r\n    _addMill(msg.sender);\r\n  }\r\n\r\n  // Define a modifier that checks to see if msg.sender has the appropriate role\r\n  modifier onlyMill() {\r\n    require(isMill(msg.sender));\r\n    _;\r\n  }\r\n\r\n  // Define a function 'isMill' to check this role\r\n  function isMill(address account) public view returns (bool) {\r\n    return Mills.has(account);\r\n  }\r\n\r\n  // Define a function 'addMill' that adds this role\r\n  function addMill(address account) public onlyMill {\r\n    _addMill(account);\r\n  }\r\n\r\n  // Define a function 'renounceMill' to renounce this role\r\n  function renounceMill() public {\r\n    _removeMill(msg.sender);\r\n  }\r\n\r\n  // Define an internal function '_addMill' to add this role, called by 'addMill'\r\n  function _addMill(address account) internal {\r\n    Mills.add(account);\r\n    emit MillAdded(account);\r\n  }\r\n\r\n  // Define an internal function '_removeMill' to remove this role, called by 'removeMill'\r\n  function _removeMill(address account) internal {\r\n    Mills.remove(account);\r\n    emit MillRemoved(account);\r\n  }\r\n}",
  "sourcePath": "C:\\Users\\ayoub\\prog\\WheatBc\\contracts\\WheatAccessControl\\MillRole.sol",
  "compiler": {
    "name": "solc",
    "version": "0.8.7+commit.e28d00a7.Emscripten.clang"
  },
  "schemaVersion": "3.4.3",
  "updatedAt": "2021-09-14T13:23:12.980Z",
  "networkType": "ethereum",
  "devdoc": {
    "kind": "dev",
    "methods": {},
    "version": 1
  },
  "userdoc": {
    "kind": "user",
    "methods": {},
    "version": 1
  }
}