{
  "contractName": "SupplyChain",
  "abi": [
    {
      "inputs": [],
      "stateMutability": "nonpayable",
      "type": "constructor"
    },
    {
      "anonymous": false,
      "inputs": [
        {
          "indexed": false,
          "internalType": "uint256",
          "name": "upc",
          "type": "uint256"
        }
      ],
      "name": "BoughtByConsumer",
      "type": "event"
    },
    {
      "anonymous": false,
      "inputs": [
        {
          "indexed": false,
          "internalType": "uint256",
          "name": "upc",
          "type": "uint256"
        }
      ],
      "name": "BoughtByDistributor",
      "type": "event"
    },
    {
      "anonymous": false,
      "inputs": [
        {
          "indexed": false,
          "internalType": "uint256",
          "name": "upc",
          "type": "uint256"
        }
      ],
      "name": "BoughtByMill",
      "type": "event"
    },
    {
      "anonymous": false,
      "inputs": [
        {
          "indexed": false,
          "internalType": "uint256",
          "name": "upc",
          "type": "uint256"
        }
      ],
      "name": "BoughtByRetailer",
      "type": "event"
    },
    {
      "anonymous": false,
      "inputs": [
        {
          "indexed": false,
          "internalType": "uint256",
          "name": "upc",
          "type": "uint256"
        }
      ],
      "name": "BoughtBySilo",
      "type": "event"
    },
    {
      "anonymous": false,
      "inputs": [
        {
          "indexed": true,
          "internalType": "address",
          "name": "account",
          "type": "address"
        }
      ],
      "name": "ConsumerAdded",
      "type": "event"
    },
    {
      "anonymous": false,
      "inputs": [
        {
          "indexed": true,
          "internalType": "address",
          "name": "account",
          "type": "address"
        }
      ],
      "name": "ConsumerRemoved",
      "type": "event"
    },
    {
      "anonymous": false,
      "inputs": [
        {
          "indexed": true,
          "internalType": "address",
          "name": "account",
          "type": "address"
        }
      ],
      "name": "DistributorAdded",
      "type": "event"
    },
    {
      "anonymous": false,
      "inputs": [
        {
          "indexed": true,
          "internalType": "address",
          "name": "account",
          "type": "address"
        }
      ],
      "name": "DistributorRemoved",
      "type": "event"
    },
    {
      "anonymous": false,
      "inputs": [
        {
          "indexed": false,
          "internalType": "uint256",
          "name": "upc",
          "type": "uint256"
        }
      ],
      "name": "ExportByTransporter",
      "type": "event"
    },
    {
      "anonymous": false,
      "inputs": [
        {
          "indexed": false,
          "internalType": "uint256",
          "name": "upc",
          "type": "uint256"
        }
      ],
      "name": "FarmedByFarmer",
      "type": "event"
    },
    {
      "anonymous": false,
      "inputs": [
        {
          "indexed": true,
          "internalType": "address",
          "name": "account",
          "type": "address"
        }
      ],
      "name": "FarmerAdded",
      "type": "event"
    },
    {
      "anonymous": false,
      "inputs": [
        {
          "indexed": true,
          "internalType": "address",
          "name": "account",
          "type": "address"
        }
      ],
      "name": "FarmerRemoved",
      "type": "event"
    },
    {
      "anonymous": false,
      "inputs": [
        {
          "indexed": false,
          "internalType": "uint256",
          "name": "upc",
          "type": "uint256"
        }
      ],
      "name": "ForSaleByDistributor",
      "type": "event"
    },
    {
      "anonymous": false,
      "inputs": [
        {
          "indexed": false,
          "internalType": "uint256",
          "name": "upc",
          "type": "uint256"
        }
      ],
      "name": "ForSaleByFarmer",
      "type": "event"
    },
    {
      "anonymous": false,
      "inputs": [
        {
          "indexed": false,
          "internalType": "uint256",
          "name": "upc",
          "type": "uint256"
        }
      ],
      "name": "ForSaleByMill",
      "type": "event"
    },
    {
      "anonymous": false,
      "inputs": [
        {
          "indexed": false,
          "internalType": "uint256",
          "name": "upc",
          "type": "uint256"
        }
      ],
      "name": "ForSaleByRetailer",
      "type": "event"
    },
    {
      "anonymous": false,
      "inputs": [
        {
          "indexed": false,
          "internalType": "uint256",
          "name": "upc",
          "type": "uint256"
        }
      ],
      "name": "ForSaleBySilo",
      "type": "event"
    },
    {
      "anonymous": false,
      "inputs": [
        {
          "indexed": false,
          "internalType": "uint256",
          "name": "upc",
          "type": "uint256"
        }
      ],
      "name": "HarvestedByFarmer",
      "type": "event"
    },
    {
      "anonymous": false,
      "inputs": [
        {
          "indexed": false,
          "internalType": "uint256",
          "name": "upc",
          "type": "uint256"
        }
      ],
      "name": "InspectedBySilo",
      "type": "event"
    },
    {
      "anonymous": false,
      "inputs": [
        {
          "indexed": true,
          "internalType": "address",
          "name": "account",
          "type": "address"
        }
      ],
      "name": "MillAdded",
      "type": "event"
    },
    {
      "anonymous": false,
      "inputs": [
        {
          "indexed": true,
          "internalType": "address",
          "name": "account",
          "type": "address"
        }
      ],
      "name": "MillRemoved",
      "type": "event"
    },
    {
      "anonymous": false,
      "inputs": [
        {
          "indexed": false,
          "internalType": "uint256",
          "name": "upc",
          "type": "uint256"
        }
      ],
      "name": "PackageByMill",
      "type": "event"
    },
    {
      "anonymous": false,
      "inputs": [
        {
          "indexed": false,
          "internalType": "uint256",
          "name": "upc",
          "type": "uint256"
        }
      ],
      "name": "ProcessByMill",
      "type": "event"
    },
    {
      "anonymous": false,
      "inputs": [
        {
          "indexed": false,
          "internalType": "uint256",
          "name": "upc",
          "type": "uint256"
        }
      ],
      "name": "RecieveByDistributor",
      "type": "event"
    },
    {
      "anonymous": false,
      "inputs": [
        {
          "indexed": false,
          "internalType": "uint256",
          "name": "upc",
          "type": "uint256"
        }
      ],
      "name": "RecieveByMill",
      "type": "event"
    },
    {
      "anonymous": false,
      "inputs": [
        {
          "indexed": false,
          "internalType": "uint256",
          "name": "upc",
          "type": "uint256"
        }
      ],
      "name": "RecieveByRetailer",
      "type": "event"
    },
    {
      "anonymous": false,
      "inputs": [
        {
          "indexed": true,
          "internalType": "address",
          "name": "account",
          "type": "address"
        }
      ],
      "name": "RetailerAdded",
      "type": "event"
    },
    {
      "anonymous": false,
      "inputs": [
        {
          "indexed": true,
          "internalType": "address",
          "name": "account",
          "type": "address"
        }
      ],
      "name": "RetailerRemoved",
      "type": "event"
    },
    {
      "anonymous": false,
      "inputs": [
        {
          "indexed": false,
          "internalType": "uint256",
          "name": "upc",
          "type": "uint256"
        }
      ],
      "name": "ShipByDistributor",
      "type": "event"
    },
    {
      "anonymous": false,
      "inputs": [
        {
          "indexed": false,
          "internalType": "uint256",
          "name": "upc",
          "type": "uint256"
        }
      ],
      "name": "ShipByMill",
      "type": "event"
    },
    {
      "anonymous": false,
      "inputs": [
        {
          "indexed": false,
          "internalType": "uint256",
          "name": "upc",
          "type": "uint256"
        }
      ],
      "name": "ShipBySilo",
      "type": "event"
    },
    {
      "anonymous": false,
      "inputs": [
        {
          "indexed": true,
          "internalType": "address",
          "name": "account",
          "type": "address"
        }
      ],
      "name": "SiloAdded",
      "type": "event"
    },
    {
      "anonymous": false,
      "inputs": [
        {
          "indexed": true,
          "internalType": "address",
          "name": "account",
          "type": "address"
        }
      ],
      "name": "SiloRemoved",
      "type": "event"
    },
    {
      "anonymous": false,
      "inputs": [
        {
          "indexed": false,
          "internalType": "uint256",
          "name": "upc",
          "type": "uint256"
        }
      ],
      "name": "StackByRetailer",
      "type": "event"
    },
    {
      "anonymous": false,
      "inputs": [
        {
          "indexed": false,
          "internalType": "uint256",
          "name": "upc",
          "type": "uint256"
        }
      ],
      "name": "StoreByDistributor",
      "type": "event"
    },
    {
      "anonymous": false,
      "inputs": [
        {
          "indexed": false,
          "internalType": "uint256",
          "name": "upc",
          "type": "uint256"
        }
      ],
      "name": "StoredByFarmer",
      "type": "event"
    },
    {
      "anonymous": false,
      "inputs": [
        {
          "indexed": false,
          "internalType": "uint256",
          "name": "upc",
          "type": "uint256"
        }
      ],
      "name": "StoredBySilo",
      "type": "event"
    },
    {
      "anonymous": false,
      "inputs": [
        {
          "indexed": true,
          "internalType": "address",
          "name": "oldOwner",
          "type": "address"
        },
        {
          "indexed": true,
          "internalType": "address",
          "name": "newOwner",
          "type": "address"
        }
      ],
      "name": "TransferOwnership",
      "type": "event"
    },
    {
      "anonymous": false,
      "inputs": [
        {
          "indexed": true,
          "internalType": "address",
          "name": "account",
          "type": "address"
        }
      ],
      "name": "TransporterAdded",
      "type": "event"
    },
    {
      "anonymous": false,
      "inputs": [
        {
          "indexed": true,
          "internalType": "address",
          "name": "account",
          "type": "address"
        }
      ],
      "name": "TransporterRemoved",
      "type": "event"
    },
    {
      "inputs": [
        {
          "internalType": "address",
          "name": "account",
          "type": "address"
        }
      ],
      "name": "addConsumer",
      "outputs": [],
      "stateMutability": "nonpayable",
      "type": "function"
    },
    {
      "inputs": [
        {
          "internalType": "address",
          "name": "account",
          "type": "address"
        }
      ],
      "name": "addDistributor",
      "outputs": [],
      "stateMutability": "nonpayable",
      "type": "function"
    },
    {
      "inputs": [
        {
          "internalType": "address",
          "name": "account",
          "type": "address"
        }
      ],
      "name": "addFarmer",
      "outputs": [],
      "stateMutability": "nonpayable",
      "type": "function"
    },
    {
      "inputs": [
        {
          "internalType": "address",
          "name": "account",
          "type": "address"
        }
      ],
      "name": "addMill",
      "outputs": [],
      "stateMutability": "nonpayable",
      "type": "function"
    },
    {
      "inputs": [
        {
          "internalType": "address",
          "name": "account",
          "type": "address"
        }
      ],
      "name": "addRetailer",
      "outputs": [],
      "stateMutability": "nonpayable",
      "type": "function"
    },
    {
      "inputs": [
        {
          "internalType": "address",
          "name": "account",
          "type": "address"
        }
      ],
      "name": "addSilo",
      "outputs": [],
      "stateMutability": "nonpayable",
      "type": "function"
    },
    {
      "inputs": [
        {
          "internalType": "address",
          "name": "account",
          "type": "address"
        }
      ],
      "name": "addTransporter",
      "outputs": [],
      "stateMutability": "nonpayable",
      "type": "function"
    },
    {
      "inputs": [
        {
          "internalType": "address",
          "name": "account",
          "type": "address"
        }
      ],
      "name": "isConsumer",
      "outputs": [
        {
          "internalType": "bool",
          "name": "",
          "type": "bool"
        }
      ],
      "stateMutability": "view",
      "type": "function"
    },
    {
      "inputs": [
        {
          "internalType": "address",
          "name": "account",
          "type": "address"
        }
      ],
      "name": "isDistributor",
      "outputs": [
        {
          "internalType": "bool",
          "name": "",
          "type": "bool"
        }
      ],
      "stateMutability": "view",
      "type": "function"
    },
    {
      "inputs": [
        {
          "internalType": "address",
          "name": "account",
          "type": "address"
        }
      ],
      "name": "isFarmer",
      "outputs": [
        {
          "internalType": "bool",
          "name": "",
          "type": "bool"
        }
      ],
      "stateMutability": "view",
      "type": "function"
    },
    {
      "inputs": [
        {
          "internalType": "address",
          "name": "account",
          "type": "address"
        }
      ],
      "name": "isMill",
      "outputs": [
        {
          "internalType": "bool",
          "name": "",
          "type": "bool"
        }
      ],
      "stateMutability": "view",
      "type": "function"
    },
    {
      "inputs": [],
      "name": "isOwner",
      "outputs": [
        {
          "internalType": "bool",
          "name": "",
          "type": "bool"
        }
      ],
      "stateMutability": "view",
      "type": "function"
    },
    {
      "inputs": [
        {
          "internalType": "address",
          "name": "account",
          "type": "address"
        }
      ],
      "name": "isRetailer",
      "outputs": [
        {
          "internalType": "bool",
          "name": "",
          "type": "bool"
        }
      ],
      "stateMutability": "view",
      "type": "function"
    },
    {
      "inputs": [
        {
          "internalType": "address",
          "name": "account",
          "type": "address"
        }
      ],
      "name": "isSilo",
      "outputs": [
        {
          "internalType": "bool",
          "name": "",
          "type": "bool"
        }
      ],
      "stateMutability": "view",
      "type": "function"
    },
    {
      "inputs": [
        {
          "internalType": "address",
          "name": "account",
          "type": "address"
        }
      ],
      "name": "isTransporter",
      "outputs": [
        {
          "internalType": "bool",
          "name": "",
          "type": "bool"
        }
      ],
      "stateMutability": "view",
      "type": "function"
    },
    {
      "inputs": [],
      "name": "ownerLookup",
      "outputs": [
        {
          "internalType": "address",
          "name": "",
          "type": "address"
        }
      ],
      "stateMutability": "view",
      "type": "function"
    },
    {
      "inputs": [],
      "name": "renounceConsumer",
      "outputs": [],
      "stateMutability": "nonpayable",
      "type": "function"
    },
    {
      "inputs": [],
      "name": "renounceDistributor",
      "outputs": [],
      "stateMutability": "nonpayable",
      "type": "function"
    },
    {
      "inputs": [],
      "name": "renounceFarmer",
      "outputs": [],
      "stateMutability": "nonpayable",
      "type": "function"
    },
    {
      "inputs": [],
      "name": "renounceMill",
      "outputs": [],
      "stateMutability": "nonpayable",
      "type": "function"
    },
    {
      "inputs": [],
      "name": "renounceOwnership",
      "outputs": [],
      "stateMutability": "nonpayable",
      "type": "function"
    },
    {
      "inputs": [],
      "name": "renounceRetailer",
      "outputs": [],
      "stateMutability": "nonpayable",
      "type": "function"
    },
    {
      "inputs": [],
      "name": "renounceSilo",
      "outputs": [],
      "stateMutability": "nonpayable",
      "type": "function"
    },
    {
      "inputs": [],
      "name": "renounceTransporter",
      "outputs": [],
      "stateMutability": "nonpayable",
      "type": "function"
    },
    {
      "inputs": [
        {
          "internalType": "address",
          "name": "newOwner",
          "type": "address"
        }
      ],
      "name": "transferOwnership",
      "outputs": [],
      "stateMutability": "nonpayable",
      "type": "function"
    },
    {
      "inputs": [
        {
          "internalType": "uint256",
          "name": "_upc",
          "type": "uint256"
        },
        {
          "internalType": "string",
          "name": "_farmInfo",
          "type": "string"
        },
        {
          "internalType": "string",
          "name": "_farmChemicals",
          "type": "string"
        }
      ],
      "name": "farmWheatByFarmer",
      "outputs": [],
      "stateMutability": "nonpayable",
      "type": "function"
    },
    {
      "inputs": [
        {
          "internalType": "uint256",
          "name": "_upc",
          "type": "uint256"
        },
        {
          "internalType": "string",
          "name": "_harvestDetail",
          "type": "string"
        }
      ],
      "name": "harvestWheatByFarmer",
      "outputs": [],
      "stateMutability": "nonpayable",
      "type": "function"
    },
    {
      "inputs": [
        {
          "internalType": "uint256",
          "name": "_upc",
          "type": "uint256"
        },
        {
          "internalType": "string",
          "name": "_storageInfoFarm",
          "type": "string"
        }
      ],
      "name": "storeWheatByFarmer",
      "outputs": [],
      "stateMutability": "nonpayable",
      "type": "function"
    },
    {
      "inputs": [
        {
          "internalType": "uint256",
          "name": "_upc",
          "type": "uint256"
        }
      ],
      "name": "sellWheatByFarmer",
      "outputs": [],
      "stateMutability": "nonpayable",
      "type": "function"
    },
    {
      "inputs": [
        {
          "internalType": "uint256",
          "name": "_upc",
          "type": "uint256"
        }
      ],
      "name": "buyWheatBySilo",
      "outputs": [],
      "stateMutability": "nonpayable",
      "type": "function"
    },
    {
      "inputs": [
        {
          "internalType": "uint256",
          "name": "_upc",
          "type": "uint256"
        },
        {
          "internalType": "string",
          "name": "_siloInfo",
          "type": "string"
        },
        {
          "internalType": "string",
          "name": "_certificateOfInspection",
          "type": "string"
        },
        {
          "internalType": "string",
          "name": "_processingInfoSilo",
          "type": "string"
        }
      ],
      "name": "inspectWheatBySilo",
      "outputs": [],
      "stateMutability": "nonpayable",
      "type": "function"
    },
    {
      "inputs": [
        {
          "internalType": "uint256",
          "name": "_upc",
          "type": "uint256"
        },
        {
          "internalType": "string",
          "name": "_storageInfoBySilo",
          "type": "string"
        }
      ],
      "name": "storeGrainBySilo",
      "outputs": [],
      "stateMutability": "nonpayable",
      "type": "function"
    },
    {
      "inputs": [
        {
          "internalType": "uint256",
          "name": "_upc",
          "type": "uint256"
        }
      ],
      "name": "sellGrainBySilo",
      "outputs": [],
      "stateMutability": "nonpayable",
      "type": "function"
    },
    {
      "inputs": [
        {
          "internalType": "uint256",
          "name": "_upc",
          "type": "uint256"
        }
      ],
      "name": "buyGrainByMill",
      "outputs": [],
      "stateMutability": "nonpayable",
      "type": "function"
    },
    {
      "inputs": [
        {
          "internalType": "uint256",
          "name": "_upc",
          "type": "uint256"
        }
      ],
      "name": "shipGrainToTransporter",
      "outputs": [],
      "stateMutability": "nonpayable",
      "type": "function"
    },
    {
      "inputs": [
        {
          "internalType": "uint256",
          "name": "_upc",
          "type": "uint256"
        },
        {
          "internalType": "string",
          "name": "_transportInfo",
          "type": "string"
        },
        {
          "internalType": "string",
          "name": "_transitDocument",
          "type": "string"
        }
      ],
      "name": "exportGrainByTrans",
      "outputs": [],
      "stateMutability": "nonpayable",
      "type": "function"
    },
    {
      "inputs": [
        {
          "internalType": "uint256",
          "name": "_upc",
          "type": "uint256"
        },
        {
          "internalType": "string",
          "name": "_millInfo",
          "type": "string"
        }
      ],
      "name": "recieveGrainByMill",
      "outputs": [],
      "stateMutability": "nonpayable",
      "type": "function"
    },
    {
      "inputs": [
        {
          "internalType": "uint256",
          "name": "_upc",
          "type": "uint256"
        },
        {
          "internalType": "string",
          "name": "_processingInfoMill",
          "type": "string"
        }
      ],
      "name": "processGrainByMill",
      "outputs": [],
      "stateMutability": "nonpayable",
      "type": "function"
    },
    {
      "inputs": [
        {
          "internalType": "uint256",
          "name": "_upc",
          "type": "uint256"
        },
        {
          "internalType": "string",
          "name": "_packagingInfo",
          "type": "string"
        },
        {
          "internalType": "string",
          "name": "_storageInfoMill",
          "type": "string"
        },
        {
          "internalType": "string",
          "name": "_productDetailMill",
          "type": "string"
        }
      ],
      "name": "packagingGrainByMill",
      "outputs": [],
      "stateMutability": "nonpayable",
      "type": "function"
    },
    {
      "inputs": [
        {
          "internalType": "uint256",
          "name": "_upc",
          "type": "uint256"
        }
      ],
      "name": "sellPackagedGrain",
      "outputs": [],
      "stateMutability": "nonpayable",
      "type": "function"
    },
    {
      "inputs": [
        {
          "internalType": "uint256",
          "name": "_upc",
          "type": "uint256"
        }
      ],
      "name": "buyPackagedWheatByDistributor",
      "outputs": [],
      "stateMutability": "nonpayable",
      "type": "function"
    },
    {
      "inputs": [
        {
          "internalType": "uint256",
          "name": "_upc",
          "type": "uint256"
        }
      ],
      "name": "shipPackagedWheatByMill",
      "outputs": [],
      "stateMutability": "nonpayable",
      "type": "function"
    },
    {
      "inputs": [
        {
          "internalType": "uint256",
          "name": "_upc",
          "type": "uint256"
        },
        {
          "internalType": "string",
          "name": "_shipmentInfo",
          "type": "string"
        }
      ],
      "name": "recievePackagedGrainByDistributor",
      "outputs": [],
      "stateMutability": "nonpayable",
      "type": "function"
    },
    {
      "inputs": [
        {
          "internalType": "uint256",
          "name": "_upc",
          "type": "uint256"
        },
        {
          "internalType": "string",
          "name": "_storageInfoDist",
          "type": "string"
        }
      ],
      "name": "storePackagedGrainByDistributor",
      "outputs": [],
      "stateMutability": "nonpayable",
      "type": "function"
    },
    {
      "inputs": [
        {
          "internalType": "uint256",
          "name": "_upc",
          "type": "uint256"
        }
      ],
      "name": "sellPackagedGrainByDistributor",
      "outputs": [],
      "stateMutability": "nonpayable",
      "type": "function"
    },
    {
      "inputs": [
        {
          "internalType": "uint256",
          "name": "_upc",
          "type": "uint256"
        }
      ],
      "name": "buyPackagedGrainByDistributor",
      "outputs": [],
      "stateMutability": "nonpayable",
      "type": "function"
    },
    {
      "inputs": [
        {
          "internalType": "uint256",
          "name": "_upc",
          "type": "uint256"
        }
      ],
      "name": "shipPackagedGrainByDistributor",
      "outputs": [],
      "stateMutability": "nonpayable",
      "type": "function"
    },
    {
      "inputs": [
        {
          "internalType": "uint256",
          "name": "_upc",
          "type": "uint256"
        },
        {
          "internalType": "string",
          "name": "_retailerInfo",
          "type": "string"
        }
      ],
      "name": "recieveFinalProductByRetailer",
      "outputs": [],
      "stateMutability": "nonpayable",
      "type": "function"
    },
    {
      "inputs": [
        {
          "internalType": "uint256",
          "name": "_upc",
          "type": "uint256"
        },
        {
          "internalType": "string",
          "name": "_stackInfoRet",
          "type": "string"
        }
      ],
      "name": "stackFinalProductOnShelvesByRetailer",
      "outputs": [],
      "stateMutability": "nonpayable",
      "type": "function"
    },
    {
      "inputs": [
        {
          "internalType": "uint256",
          "name": "_upc",
          "type": "uint256"
        }
      ],
      "name": "finalProductForSaleByRetailer",
      "outputs": [],
      "stateMutability": "nonpayable",
      "type": "function"
    },
    {
      "inputs": [
        {
          "internalType": "uint256",
          "name": "_upc",
          "type": "uint256"
        },
        {
          "internalType": "string",
          "name": "_consumerInfo",
          "type": "string"
        }
      ],
      "name": "buyFinalProductByConsumer",
      "outputs": [],
      "stateMutability": "nonpayable",
      "type": "function"
    },
    {
      "inputs": [
        {
          "internalType": "uint256",
          "name": "_upc",
          "type": "uint256"
        }
      ],
      "name": "farmData",
      "outputs": [
        {
          "internalType": "address",
          "name": "ownerID",
          "type": "address"
        },
        {
          "internalType": "uint256",
          "name": "productID",
          "type": "uint256"
        },
        {
          "internalType": "uint256",
          "name": "productUPC",
          "type": "uint256"
        },
        {
          "internalType": "uint256",
          "name": "productBatchID",
          "type": "uint256"
        },
        {
          "internalType": "address",
          "name": "farmID",
          "type": "address"
        },
        {
          "internalType": "string",
          "name": "farmInfo",
          "type": "string"
        },
        {
          "internalType": "string",
          "name": "harvestDetail",
          "type": "string"
        },
        {
          "internalType": "string",
          "name": "storageInfoFarm",
          "type": "string"
        },
        {
          "internalType": "string",
          "name": "farmChemicals",
          "type": "string"
        },
        {
          "internalType": "uint256",
          "name": "farmDate",
          "type": "uint256"
        },
        {
          "internalType": "uint256",
          "name": "harvestDate",
          "type": "uint256"
        }
      ],
      "stateMutability": "view",
      "type": "function"
    },
    {
      "inputs": [
        {
          "internalType": "uint256",
          "name": "_upc",
          "type": "uint256"
        }
      ],
      "name": "siloData",
      "outputs": [
        {
          "internalType": "address",
          "name": "siloID",
          "type": "address"
        },
        {
          "internalType": "string",
          "name": "siloInfo",
          "type": "string"
        },
        {
          "internalType": "string",
          "name": "certificateOfInspection",
          "type": "string"
        },
        {
          "internalType": "string",
          "name": "processingInfoSilo",
          "type": "string"
        },
        {
          "internalType": "string",
          "name": "storageInfoSilo",
          "type": "string"
        },
        {
          "internalType": "uint256",
          "name": "arrivalDateSilo",
          "type": "uint256"
        },
        {
          "internalType": "uint256",
          "name": "shippingDateSilo",
          "type": "uint256"
        }
      ],
      "stateMutability": "view",
      "type": "function"
    },
    {
      "inputs": [
        {
          "internalType": "uint256",
          "name": "_upc",
          "type": "uint256"
        }
      ],
      "name": "transporterData",
      "outputs": [
        {
          "internalType": "address",
          "name": "transporterID",
          "type": "address"
        },
        {
          "internalType": "string",
          "name": "transportInfo",
          "type": "string"
        },
        {
          "internalType": "string",
          "name": "transitDocument",
          "type": "string"
        },
        {
          "internalType": "uint256",
          "name": "arrivalDateTrans",
          "type": "uint256"
        },
        {
          "internalType": "uint256",
          "name": "shippingtDateTrans",
          "type": "uint256"
        }
      ],
      "stateMutability": "view",
      "type": "function"
    },
    {
      "inputs": [
        {
          "internalType": "uint256",
          "name": "_upc",
          "type": "uint256"
        }
      ],
      "name": "millData",
      "outputs": [
        {
          "internalType": "address",
          "name": "millID",
          "type": "address"
        },
        {
          "internalType": "string",
          "name": "millInfo",
          "type": "string"
        },
        {
          "internalType": "string",
          "name": "processingInfoMill",
          "type": "string"
        },
        {
          "internalType": "string",
          "name": "storageInfoMill",
          "type": "string"
        },
        {
          "internalType": "string",
          "name": "packagingInfo",
          "type": "string"
        },
        {
          "internalType": "string",
          "name": "productDetailMill",
          "type": "string"
        },
        {
          "internalType": "uint256",
          "name": "arrivalDateMill",
          "type": "uint256"
        },
        {
          "internalType": "uint256",
          "name": "shippingDateMill",
          "type": "uint256"
        }
      ],
      "stateMutability": "view",
      "type": "function"
    },
    {
      "inputs": [
        {
          "internalType": "uint256",
          "name": "_upc",
          "type": "uint256"
        }
      ],
      "name": "distributorData",
      "outputs": [
        {
          "internalType": "address",
          "name": "distributorID",
          "type": "address"
        },
        {
          "internalType": "string",
          "name": "storageInfoDist",
          "type": "string"
        },
        {
          "internalType": "string",
          "name": "shipmentInfo",
          "type": "string"
        },
        {
          "internalType": "uint256",
          "name": "arrivalDateDist",
          "type": "uint256"
        },
        {
          "internalType": "uint256",
          "name": "shippingDateDist",
          "type": "uint256"
        }
      ],
      "stateMutability": "view",
      "type": "function"
    },
    {
      "inputs": [
        {
          "internalType": "uint256",
          "name": "_upc",
          "type": "uint256"
        }
      ],
      "name": "retailerData",
      "outputs": [
        {
          "internalType": "address",
          "name": "retailerID",
          "type": "address"
        },
        {
          "internalType": "string",
          "name": "retailerInfo",
          "type": "string"
        },
        {
          "internalType": "string",
          "name": "stackInfoRet",
          "type": "string"
        },
        {
          "internalType": "uint256",
          "name": "arrivalDateRet",
          "type": "uint256"
        }
      ],
      "stateMutability": "view",
      "type": "function"
    },
    {
      "inputs": [
        {
          "internalType": "uint256",
          "name": "_upc",
          "type": "uint256"
        }
      ],
      "name": "consumerData",
      "outputs": [
        {
          "internalType": "address",
          "name": "consumerID",
          "type": "address"
        },
        {
          "internalType": "string",
          "name": "consumerInfo",
          "type": "string"
        },
        {
          "internalType": "uint256",
          "name": "purchaseDate",
          "type": "uint256"
        }
      ],
      "stateMutability": "view",
      "type": "function"
    },
    {
      "inputs": [
        {
          "internalType": "uint256",
          "name": "_upc",
          "type": "uint256"
        }
      ],
      "name": "getProductHistory",
      "outputs": [
        {
          "internalType": "uint256",
          "name": "FTS",
          "type": "uint256"
        },
        {
          "internalType": "uint256",
          "name": "STT",
          "type": "uint256"
        },
        {
          "internalType": "uint256",
          "name": "TTM",
          "type": "uint256"
        },
        {
          "internalType": "uint256",
          "name": "MTD",
          "type": "uint256"
        },
        {
          "internalType": "uint256",
          "name": "DTR",
          "type": "uint256"
        },
        {
          "internalType": "uint256",
          "name": "RTC",
          "type": "uint256"
        }
      ],
      "stateMutability": "view",
      "type": "function"
    }
  ],
  "bytecode": "0x60806040523480156200001157600080fd5b50336000806101000a81548173ffffffffffffffffffffffffffffffffffffffff021916908373ffffffffffffffffffffffffffffffffffffffff16021790555060008054906101000a900473ffffffffffffffffffffffffffffffffffffffff1673ffffffffffffffffffffffffffffffffffffffff16600073ffffffffffffffffffffffffffffffffffffffff167f5c486528ec3e3f0ea91181cff8116f02bfa350e03b8b6f12e00765adbb5af85c60405160405180910390a3620000de336200019b60201b60201c565b620000ef33620001fc60201b60201c565b62000100336200025d60201b60201c565b6200011133620002be60201b60201c565b62000122336200031e60201b60201c565b62000133336200037f60201b60201c565b6200014433620003e060201b60201c565b33600860006101000a81548173ffffffffffffffffffffffffffffffffffffffff021916908373ffffffffffffffffffffffffffffffffffffffff1602179055506001600a8190555060016009819055506200058a565b620001b68160016200044160201b6200aa221790919060201c565b8073ffffffffffffffffffffffffffffffffffffffff167f2e0ded4123377a3c2bc9a26f1717655a129e2f20752924d42e730ec89c83dbd060405160405180910390a250565b620002178160026200044160201b6200aa221790919060201c565b8073ffffffffffffffffffffffffffffffffffffffff167f4c8efb2f42d55d7d831e421921a3b89a7806bb65fdc7c5ccc226f2706660318960405160405180910390a250565b620002788160036200044160201b6200aa221790919060201c565b8073ffffffffffffffffffffffffffffffffffffffff167f4d9645f2965973330140385c3b546ad4c04b7ee2ae3abb69562f5929d6b8320b60405160405180910390a250565b620002d98160046200044160201b6200aa221790919060201c565b8073ffffffffffffffffffffffffffffffffffffffff167ea0477dded24b6f3ca0efb56770e84d7af0117bde8073e93a34e2f0b67f629260405160405180910390a250565b620003398160056200044160201b6200aa221790919060201c565b8073ffffffffffffffffffffffffffffffffffffffff167fddbf200aa634dc3fb81cfd68583dd1040d1c751d335e1d86b631bde3e977fea860405160405180910390a250565b6200039a8160066200044160201b6200aa221790919060201c565b8073ffffffffffffffffffffffffffffffffffffffff167f71ae26cad02663e3d92efd6ec56031a80d74a20c0ab4183faa8bf262261c9baa60405160405180910390a250565b620003fb8160076200044160201b6200aa221790919060201c565b8073ffffffffffffffffffffffffffffffffffffffff167f28b26e7a3d20aedbc5f8f2ebf7da671c0491723a2b78f47a097b0e46dee0714260405160405180910390a250565b600073ffffffffffffffffffffffffffffffffffffffff168173ffffffffffffffffffffffffffffffffffffffff1614156200047c57600080fd5b6200048e8282620004f760201b60201c565b156200049957600080fd5b60018260000160008373ffffffffffffffffffffffffffffffffffffffff1673ffffffffffffffffffffffffffffffffffffffff16815260200190815260200160002060006101000a81548160ff0219169083151502179055505050565b60008073ffffffffffffffffffffffffffffffffffffffff168273ffffffffffffffffffffffffffffffffffffffff1614156200053357600080fd5b8260000160008373ffffffffffffffffffffffffffffffffffffffff1673ffffffffffffffffffffffffffffffffffffffff16815260200190815260200160002060009054906101000a900460ff16905092915050565b61be9f806200059a6000396000f3fe608060405234801561001057600080fd5b50600436106103995760003560e01c80637250e224116101e9578063b94290691161010f578063e26a6d69116100ad578063f7134b7b1161007c578063f7134b7b14610a50578063f916bf6314610a6c578063fdc1fdea14610a88578063ffcbcd4414610aa457610399565b8063e26a6d69146109dc578063e77f6d05146109f8578063f2fde38b14610a02578063f45c317414610a1e57610399565b8063c927b792116100e9578063c927b7921461095e578063d18f838f1461097a578063db0e6a2f146109b4578063e02e64ea146109be57610399565b8063b9429069146108f6578063c8bcd87114610926578063c8ec77071461094257610399565b80638b278e45116101875780638f32d59b116101565780638f32d59b1461086d578063a57a8f891461088b578063b4fccdaa146108a7578063b7022049146108da57610399565b80638b278e45146107e95780638ec4f505146108055780638f0c86fa146108215780638f15c6301461085157610399565b806380c3f96d116101c357806380c3f96d1461077757806380fc0ce414610793578063834ff7391461079d5780638a74853f146107cd57610399565b80637250e224146107235780637bf7fbf71461073f5780637e4704f31461075b57610399565b80632e157608116102ce57806357a096a11161026c57806363c4178e1161023b57806363c4178e146106d7578063644241db146106f35780636719570b146106fd578063715018a61461071957610399565b806357a096a11461064c5780635da09b88146106815780635de010c9146106b157806361e6982d146106cd57610399565b806337341533116102a857806337341533146105dc5780634250b253146105f8578063453536ac14610614578063492bf5241461063057610399565b80632e157608146105945780632e4a437b146105c85780632ea17b27146105d257610399565b8063197a04791161033b5780631d48a5e4116103155780631d48a5e4146104f85780631e5766e51461052c5780632a861005146105485780632b8109d51461056457610399565b8063197a0479146104a45780631b4531ef146104c05780631b84ba42146104dc57610399565b806312f0dcd81161037757806312f0dcd8146103f2578063150e34651461042257806315837e7d1461045257806318b50d071461048857610399565b806302ee9e4d1461039e57806303c0c015146103ba578063112940f9146103d6575b600080fd5b6103b860048036038101906103b3919061b6a4565b610adb565b005b6103d460048036038101906103cf919061b590565b610cb0565b005b6103f060048036038101906103eb919061b563565b610e01565b005b61040c6004803603810190610407919061b563565b610e1f565b604051610419919061bac5565b60405180910390f35b61043c6004803603810190610437919061b563565b610e3c565b604051610449919061bac5565b60405180910390f35b61046c6004803603810190610467919061b590565b610e59565b60405161047f979695949392919061b881565b60405180910390f35b6104a2600480360381019061049d919061b563565b611db4565b005b6104be60048036038101906104b9919061b5bd565b611dd2565b005b6104da60048036038101906104d5919061b590565b611f85565b005b6104f660048036038101906104f1919061b5bd565b61210c565b005b610512600480360381019061050d919061b590565b612289565b60405161052395949392919061b95f565b60405180910390f35b6105466004803603810190610541919061b590565b6131cf565b005b610562600480360381019061055d919061b590565b61335a565b005b61057e6004803603810190610579919061b563565b6134e5565b60405161058b919061bac5565b60405180910390f35b6105ae60048036038101906105a9919061b590565b613502565b6040516105bf95949392919061b95f565b60405180910390f35b6105d0614448565b005b6105da614453565b005b6105f660048036038101906105f1919061b5bd565b61445e565b005b610612600480360381019061060d919061b590565b6145db565b005b61062e6004803603810190610629919061b5bd565b614747565b005b61064a6004803603810190610645919061b5bd565b6148c4565b005b6106666004803603810190610661919061b590565b614ab1565b6040516106789695949392919061bafb565b60405180910390f35b61069b6004803603810190610696919061b563565b614b4c565b6040516106a8919061bac5565b60405180910390f35b6106cb60048036038101906106c6919061b590565b614b69565b005b6106d5614cba565b005b6106f160048036038101906106ec919061b590565b614cc5565b005b6106fb614e16565b005b6107176004803603810190610712919061b5bd565b614e21565b005b610721614f9e565b005b61073d6004803603810190610738919061b563565b6150b6565b005b6107596004803603810190610754919061b590565b6150d4565b005b6107756004803603810190610770919061b563565b615225565b005b610791600480360381019061078c919061b563565b615243565b005b61079b615261565b005b6107b760048036038101906107b2919061b563565b61526c565b6040516107c4919061bac5565b60405180910390f35b6107e760048036038101906107e2919061b590565b615289565b005b61080360048036038101906107fe919061b590565b61542f565b005b61081f600480360381019061081a919061b563565b61559b565b005b61083b6004803603810190610836919061b563565b6155b9565b604051610848919061bac5565b60405180910390f35b61086b6004803603810190610866919061b6a4565b6155d6565b005b6108756157c6565b604051610882919061bac5565b60405180910390f35b6108a560048036038101906108a0919061b619565b61581d565b005b6108c160048036038101906108bc919061b590565b6159e1565b6040516108d1949392919061b90c565b60405180910390f35b6108f460048036038101906108ef919061b563565b61691b565b005b610910600480360381019061090b919061b563565b616939565b60405161091d919061bac5565b60405180910390f35b610940600480360381019061093b919061b5bd565b616956565b005b61095c6004803603810190610957919061b5bd565b616ad3565b005b6109786004803603810190610973919061b619565b616c6a565b005b610994600480360381019061098f919061b590565b617543565b6040516109ab9b9a9998979695949392919061b9fe565b60405180910390f35b6109bc6184c0565b005b6109c66184cb565b6040516109d3919061b7c5565b60405180910390f35b6109f660048036038101906109f1919061b590565b6184f4565b005b610a00618645565b005b610a1c6004803603810190610a17919061b563565b618650565b005b610a386004803603810190610a33919061b590565b6186b6565b604051610a479392919061b9c0565b60405180910390f35b610a6a6004803603810190610a65919061b590565b6195e7565b005b610a866004803603810190610a81919061b5bd565b619772565b005b610aa26004803603810190610a9d919061b5bd565b619925565b005b610abe6004803603810190610ab9919061b590565b619abd565b604051610ad298979695949392919061b7e0565b60405180910390f35b610ae433610e3c565b610aed57600080fd5b83600c6019811115610b0257610b0161bd89565b5b600b6000838152602001908152602001600020602b0160009054906101000a900460ff166019811115610b3857610b3761bd89565b5b14610b4257600080fd5b600b600086815260200190815260200160002060000160009054906101000a900473ffffffffffffffffffffffffffffffffffffffff168073ffffffffffffffffffffffffffffffffffffffff163373ffffffffffffffffffffffffffffffffffffffff1614610bb157600080fd5b600d600b6000888152602001908152602001600020602b0160006101000a81548160ff02191690836019811115610beb57610bea61bd89565b5b021790555084600b6000888152602001908152602001600020601b019080519060200190610c1a92919061b1ed565b5083600b6000888152602001908152602001600020601a019080519060200190610c4592919061b1ed565b5082600b6000888152602001908152602001600020601c019080519060200190610c7092919061b1ed565b507f080a89a48d661a348c1b359a36dd71b2e8ca13001acf4574ab498d52097fd91b86604051610ca0919061bae0565b60405180910390a1505050505050565b610cb933610e3c565b610cc257600080fd5b80600d6019811115610cd757610cd661bd89565b5b600b6000838152602001908152602001600020602b0160009054906101000a900460ff166019811115610d0d57610d0c61bd89565b5b14610d1757600080fd5b600b600083815260200190815260200160002060000160009054906101000a900473ffffffffffffffffffffffffffffffffffffffff168073ffffffffffffffffffffffffffffffffffffffff163373ffffffffffffffffffffffffffffffffffffffff1614610d8657600080fd5b600e600b6000858152602001908152602001600020602b0160006101000a81548160ff02191690836019811115610dc057610dbf61bd89565b5b02179055507f2fc8c17bb6fb086638c55fe51c88af62a57142ca45adbe0288d0c5f5ddd6cb5583604051610df4919061bae0565b60405180910390a1505050565b610e0a3361526c565b610e1357600080fd5b610e1c8161aace565b50565b6000610e3582600261ab2890919063ffffffff16565b9050919050565b6000610e5282600461ab2890919063ffffffff16565b9050919050565b60006060806060806000806000600b60008a8152602001908152602001600020604051806105800160405290816000820160009054906101000a900473ffffffffffffffffffffffffffffffffffffffff1673ffffffffffffffffffffffffffffffffffffffff1673ffffffffffffffffffffffffffffffffffffffff1681526020016001820154815260200160028201548152602001600382015481526020016004820160009054906101000a900473ffffffffffffffffffffffffffffffffffffffff1673ffffffffffffffffffffffffffffffffffffffff1673ffffffffffffffffffffffffffffffffffffffff168152602001600582018054610f5f9061bcae565b80601f0160208091040260200160405190810160405280929190818152602001828054610f8b9061bcae565b8015610fd85780601f10610fad57610100808354040283529160200191610fd8565b820191906000526020600020905b815481529060010190602001808311610fbb57829003601f168201915b50505050508152602001600682018054610ff19061bcae565b80601f016020809104026020016040519081016040528092919081815260200182805461101d9061bcae565b801561106a5780601f1061103f5761010080835404028352916020019161106a565b820191906000526020600020905b81548152906001019060200180831161104d57829003601f168201915b505050505081526020016007820180546110839061bcae565b80601f01602080910402602001604051908101604052809291908181526020018280546110af9061bcae565b80156110fc5780601f106110d1576101008083540402835291602001916110fc565b820191906000526020600020905b8154815290600101906020018083116110df57829003601f168201915b505050505081526020016008820180546111159061bcae565b80601f01602080910402602001604051908101604052809291908181526020018280546111419061bcae565b801561118e5780601f106111635761010080835404028352916020019161118e565b820191906000526020600020905b81548152906001019060200180831161117157829003601f168201915b5050505050815260200160098201548152602001600a8201548152602001600b820160009054906101000a900473ffffffffffffffffffffffffffffffffffffffff1673ffffffffffffffffffffffffffffffffffffffff1673ffffffffffffffffffffffffffffffffffffffff168152602001600c820180546112119061bcae565b80601f016020809104026020016040519081016040528092919081815260200182805461123d9061bcae565b801561128a5780601f1061125f5761010080835404028352916020019161128a565b820191906000526020600020905b81548152906001019060200180831161126d57829003601f168201915b50505050508152602001600d820180546112a39061bcae565b80601f01602080910402602001604051908101604052809291908181526020018280546112cf9061bcae565b801561131c5780601f106112f15761010080835404028352916020019161131c565b820191906000526020600020905b8154815290600101906020018083116112ff57829003601f168201915b50505050508152602001600e820180546113359061bcae565b80601f01602080910402602001604051908101604052809291908181526020018280546113619061bcae565b80156113ae5780601f10611383576101008083540402835291602001916113ae565b820191906000526020600020905b81548152906001019060200180831161139157829003601f168201915b50505050508152602001600f820180546113c79061bcae565b80601f01602080910402602001604051908101604052809291908181526020018280546113f39061bcae565b80156114405780601f1061141557610100808354040283529160200191611440565b820191906000526020600020905b81548152906001019060200180831161142357829003601f168201915b5050505050815260200160108201548152602001601182015481526020016012820160009054906101000a900473ffffffffffffffffffffffffffffffffffffffff1673ffffffffffffffffffffffffffffffffffffffff1673ffffffffffffffffffffffffffffffffffffffff1681526020016013820180546114c39061bcae565b80601f01602080910402602001604051908101604052809291908181526020018280546114ef9061bcae565b801561153c5780601f106115115761010080835404028352916020019161153c565b820191906000526020600020905b81548152906001019060200180831161151f57829003601f168201915b505050505081526020016014820180546115559061bcae565b80601f01602080910402602001604051908101604052809291908181526020018280546115819061bcae565b80156115ce5780601f106115a3576101008083540402835291602001916115ce565b820191906000526020600020905b8154815290600101906020018083116115b157829003601f168201915b5050505050815260200160158201548152602001601682015481526020016017820160009054906101000a900473ffffffffffffffffffffffffffffffffffffffff1673ffffffffffffffffffffffffffffffffffffffff1673ffffffffffffffffffffffffffffffffffffffff1681526020016018820180546116519061bcae565b80601f016020809104026020016040519081016040528092919081815260200182805461167d9061bcae565b80156116ca5780601f1061169f576101008083540402835291602001916116ca565b820191906000526020600020905b8154815290600101906020018083116116ad57829003601f168201915b505050505081526020016019820180546116e39061bcae565b80601f016020809104026020016040519081016040528092919081815260200182805461170f9061bcae565b801561175c5780601f106117315761010080835404028352916020019161175c565b820191906000526020600020905b81548152906001019060200180831161173f57829003601f168201915b50505050508152602001601a820180546117759061bcae565b80601f01602080910402602001604051908101604052809291908181526020018280546117a19061bcae565b80156117ee5780601f106117c3576101008083540402835291602001916117ee565b820191906000526020600020905b8154815290600101906020018083116117d157829003601f168201915b50505050508152602001601b820180546118079061bcae565b80601f01602080910402602001604051908101604052809291908181526020018280546118339061bcae565b80156118805780601f1061185557610100808354040283529160200191611880565b820191906000526020600020905b81548152906001019060200180831161186357829003601f168201915b50505050508152602001601c820180546118999061bcae565b80601f01602080910402602001604051908101604052809291908181526020018280546118c59061bcae565b80156119125780601f106118e757610100808354040283529160200191611912565b820191906000526020600020905b8154815290600101906020018083116118f557829003601f168201915b50505050508152602001601d8201548152602001601e8201548152602001601f820160009054906101000a900473ffffffffffffffffffffffffffffffffffffffff1673ffffffffffffffffffffffffffffffffffffffff1673ffffffffffffffffffffffffffffffffffffffff1681526020016020820180546119959061bcae565b80601f01602080910402602001604051908101604052809291908181526020018280546119c19061bcae565b8015611a0e5780601f106119e357610100808354040283529160200191611a0e565b820191906000526020600020905b8154815290600101906020018083116119f157829003601f168201915b50505050508152602001602182018054611a279061bcae565b80601f0160208091040260200160405190810160405280929190818152602001828054611a539061bcae565b8015611aa05780601f10611a7557610100808354040283529160200191611aa0565b820191906000526020600020905b815481529060010190602001808311611a8357829003601f168201915b5050505050815260200160228201548152602001602382015481526020016024820160009054906101000a900473ffffffffffffffffffffffffffffffffffffffff1673ffffffffffffffffffffffffffffffffffffffff1673ffffffffffffffffffffffffffffffffffffffff168152602001602582018054611b239061bcae565b80601f0160208091040260200160405190810160405280929190818152602001828054611b4f9061bcae565b8015611b9c5780601f10611b7157610100808354040283529160200191611b9c565b820191906000526020600020905b815481529060010190602001808311611b7f57829003601f168201915b50505050508152602001602682018054611bb59061bcae565b80601f0160208091040260200160405190810160405280929190818152602001828054611be19061bcae565b8015611c2e5780601f10611c0357610100808354040283529160200191611c2e565b820191906000526020600020905b815481529060010190602001808311611c1157829003601f168201915b50505050508152602001602782015481526020016028820160009054906101000a900473ffffffffffffffffffffffffffffffffffffffff1673ffffffffffffffffffffffffffffffffffffffff1673ffffffffffffffffffffffffffffffffffffffff168152602001602982018054611ca79061bcae565b80601f0160208091040260200160405190810160405280929190818152602001828054611cd39061bcae565b8015611d205780601f10611cf557610100808354040283529160200191611d20565b820191906000526020600020905b815481529060010190602001808311611d0357829003601f168201915b50505050508152602001602a8201548152602001602b820160009054906101000a900460ff166019811115611d5857611d5761bd89565b5b6019811115611d6a57611d6961bd89565b5b815250509050806101600151816101800151826101a00151836101c00151846101e00151856102000151866102200151975097509750975097509750975050919395979092949650565b611dbd33610e3c565b611dc657600080fd5b611dcf8161abba565b50565b611ddb33614b4c565b611de457600080fd5b8160156019811115611df957611df861bd89565b5b600b6000838152602001908152602001600020602b0160009054906101000a900460ff166019811115611e2f57611e2e61bd89565b5b14611e3957600080fd5b600b600084815260200190815260200160002060000160009054906101000a900473ffffffffffffffffffffffffffffffffffffffff168073ffffffffffffffffffffffffffffffffffffffff163373ffffffffffffffffffffffffffffffffffffffff1614611ea857600080fd5b6016600b6000868152602001908152602001600020602b0160006101000a81548160ff02191690836019811115611ee257611ee161bd89565b5b021790555042600b60008681526020019081526020016000206027018190555082600b60008681526020019081526020016000206025019080519060200190611f2c92919061b1ed565b5043600c6000868152602001908152602001600020600401819055507f3ad7f6994ec57ddf2643d9c407dbebe50f61bce4866ff1c47e9ede1f4f35e4d384604051611f77919061bae0565b60405180910390a150505050565b611f8e33610e1f565b611f9757600080fd5b8060086019811115611fac57611fab61bd89565b5b600b6000838152602001908152602001600020602b0160009054906101000a900460ff166019811115611fe257611fe161bd89565b5b14611fec57600080fd5b600b6000838152602001908152602001600020600b0160009054906101000a900473ffffffffffffffffffffffffffffffffffffffff168073ffffffffffffffffffffffffffffffffffffffff163373ffffffffffffffffffffffffffffffffffffffff161461205b57600080fd5b6009600b6000858152602001908152602001600020602b0160006101000a81548160ff021916908360198111156120955761209461bd89565b5b021790555043600c60008581526020019081526020016000206001018190555042600b6000858152602001908152602001600020601101819055507fa8af7baeb697f9f6205da1b9373fc85791aa19aa2b21749d80ba8c8e9a64b7cf836040516120ff919061bae0565b60405180910390a1505050565b61211533610e1f565b61211e57600080fd5b81600560198111156121335761213261bd89565b5b600b6000838152602001908152602001600020602b0160009054906101000a900460ff1660198111156121695761216861bd89565b5b1461217357600080fd5b600b600084815260200190815260200160002060000160009054906101000a900473ffffffffffffffffffffffffffffffffffffffff168073ffffffffffffffffffffffffffffffffffffffff163373ffffffffffffffffffffffffffffffffffffffff16146121e257600080fd5b82600b6000868152602001908152602001600020600f01908051906020019061220c92919061b1ed565b506006600b6000868152602001908152602001600020602b0160006101000a81548160ff021916908360198111156122475761224661bd89565b5b02179055507f1b25471619210b4c254eb01319715c6579c3037a230f624154fe1551604ba11d8460405161227b919061bae0565b60405180910390a150505050565b60006060806000806000600b6000888152602001908152602001600020604051806105800160405290816000820160009054906101000a900473ffffffffffffffffffffffffffffffffffffffff1673ffffffffffffffffffffffffffffffffffffffff1673ffffffffffffffffffffffffffffffffffffffff1681526020016001820154815260200160028201548152602001600382015481526020016004820160009054906101000a900473ffffffffffffffffffffffffffffffffffffffff1673ffffffffffffffffffffffffffffffffffffffff1673ffffffffffffffffffffffffffffffffffffffff16815260200160058201805461238c9061bcae565b80601f01602080910402602001604051908101604052809291908181526020018280546123b89061bcae565b80156124055780601f106123da57610100808354040283529160200191612405565b820191906000526020600020905b8154815290600101906020018083116123e857829003601f168201915b5050505050815260200160068201805461241e9061bcae565b80601f016020809104026020016040519081016040528092919081815260200182805461244a9061bcae565b80156124975780601f1061246c57610100808354040283529160200191612497565b820191906000526020600020905b81548152906001019060200180831161247a57829003601f168201915b505050505081526020016007820180546124b09061bcae565b80601f01602080910402602001604051908101604052809291908181526020018280546124dc9061bcae565b80156125295780601f106124fe57610100808354040283529160200191612529565b820191906000526020600020905b81548152906001019060200180831161250c57829003601f168201915b505050505081526020016008820180546125429061bcae565b80601f016020809104026020016040519081016040528092919081815260200182805461256e9061bcae565b80156125bb5780601f10612590576101008083540402835291602001916125bb565b820191906000526020600020905b81548152906001019060200180831161259e57829003601f168201915b5050505050815260200160098201548152602001600a8201548152602001600b820160009054906101000a900473ffffffffffffffffffffffffffffffffffffffff1673ffffffffffffffffffffffffffffffffffffffff1673ffffffffffffffffffffffffffffffffffffffff168152602001600c8201805461263e9061bcae565b80601f016020809104026020016040519081016040528092919081815260200182805461266a9061bcae565b80156126b75780601f1061268c576101008083540402835291602001916126b7565b820191906000526020600020905b81548152906001019060200180831161269a57829003601f168201915b50505050508152602001600d820180546126d09061bcae565b80601f01602080910402602001604051908101604052809291908181526020018280546126fc9061bcae565b80156127495780601f1061271e57610100808354040283529160200191612749565b820191906000526020600020905b81548152906001019060200180831161272c57829003601f168201915b50505050508152602001600e820180546127629061bcae565b80601f016020809104026020016040519081016040528092919081815260200182805461278e9061bcae565b80156127db5780601f106127b0576101008083540402835291602001916127db565b820191906000526020600020905b8154815290600101906020018083116127be57829003601f168201915b50505050508152602001600f820180546127f49061bcae565b80601f01602080910402602001604051908101604052809291908181526020018280546128209061bcae565b801561286d5780601f106128425761010080835404028352916020019161286d565b820191906000526020600020905b81548152906001019060200180831161285057829003601f168201915b5050505050815260200160108201548152602001601182015481526020016012820160009054906101000a900473ffffffffffffffffffffffffffffffffffffffff1673ffffffffffffffffffffffffffffffffffffffff1673ffffffffffffffffffffffffffffffffffffffff1681526020016013820180546128f09061bcae565b80601f016020809104026020016040519081016040528092919081815260200182805461291c9061bcae565b80156129695780601f1061293e57610100808354040283529160200191612969565b820191906000526020600020905b81548152906001019060200180831161294c57829003601f168201915b505050505081526020016014820180546129829061bcae565b80601f01602080910402602001604051908101604052809291908181526020018280546129ae9061bcae565b80156129fb5780601f106129d0576101008083540402835291602001916129fb565b820191906000526020600020905b8154815290600101906020018083116129de57829003601f168201915b5050505050815260200160158201548152602001601682015481526020016017820160009054906101000a900473ffffffffffffffffffffffffffffffffffffffff1673ffffffffffffffffffffffffffffffffffffffff1673ffffffffffffffffffffffffffffffffffffffff168152602001601882018054612a7e9061bcae565b80601f0160208091040260200160405190810160405280929190818152602001828054612aaa9061bcae565b8015612af75780601f10612acc57610100808354040283529160200191612af7565b820191906000526020600020905b815481529060010190602001808311612ada57829003601f168201915b50505050508152602001601982018054612b109061bcae565b80601f0160208091040260200160405190810160405280929190818152602001828054612b3c9061bcae565b8015612b895780601f10612b5e57610100808354040283529160200191612b89565b820191906000526020600020905b815481529060010190602001808311612b6c57829003601f168201915b50505050508152602001601a82018054612ba29061bcae565b80601f0160208091040260200160405190810160405280929190818152602001828054612bce9061bcae565b8015612c1b5780601f10612bf057610100808354040283529160200191612c1b565b820191906000526020600020905b815481529060010190602001808311612bfe57829003601f168201915b50505050508152602001601b82018054612c349061bcae565b80601f0160208091040260200160405190810160405280929190818152602001828054612c609061bcae565b8015612cad5780601f10612c8257610100808354040283529160200191612cad565b820191906000526020600020905b815481529060010190602001808311612c9057829003601f168201915b50505050508152602001601c82018054612cc69061bcae565b80601f0160208091040260200160405190810160405280929190818152602001828054612cf29061bcae565b8015612d3f5780601f10612d1457610100808354040283529160200191612d3f565b820191906000526020600020905b815481529060010190602001808311612d2257829003601f168201915b50505050508152602001601d8201548152602001601e8201548152602001601f820160009054906101000a900473ffffffffffffffffffffffffffffffffffffffff1673ffffffffffffffffffffffffffffffffffffffff1673ffffffffffffffffffffffffffffffffffffffff168152602001602082018054612dc29061bcae565b80601f0160208091040260200160405190810160405280929190818152602001828054612dee9061bcae565b8015612e3b5780601f10612e1057610100808354040283529160200191612e3b565b820191906000526020600020905b815481529060010190602001808311612e1e57829003601f168201915b50505050508152602001602182018054612e549061bcae565b80601f0160208091040260200160405190810160405280929190818152602001828054612e809061bcae565b8015612ecd5780601f10612ea257610100808354040283529160200191612ecd565b820191906000526020600020905b815481529060010190602001808311612eb057829003601f168201915b5050505050815260200160228201548152602001602382015481526020016024820160009054906101000a900473ffffffffffffffffffffffffffffffffffffffff1673ffffffffffffffffffffffffffffffffffffffff1673ffffffffffffffffffffffffffffffffffffffff168152602001602582018054612f509061bcae565b80601f0160208091040260200160405190810160405280929190818152602001828054612f7c9061bcae565b8015612fc95780601f10612f9e57610100808354040283529160200191612fc9565b820191906000526020600020905b815481529060010190602001808311612fac57829003601f168201915b50505050508152602001602682018054612fe29061bcae565b80601f016020809104026020016040519081016040528092919081815260200182805461300e9061bcae565b801561305b5780601f106130305761010080835404028352916020019161305b565b820191906000526020600020905b81548152906001019060200180831161303e57829003601f168201915b50505050508152602001602782015481526020016028820160009054906101000a900473ffffffffffffffffffffffffffffffffffffffff1673ffffffffffffffffffffffffffffffffffffffff1673ffffffffffffffffffffffffffffffffffffffff1681526020016029820180546130d49061bcae565b80601f01602080910402602001604051908101604052809291908181526020018280546131009061bcae565b801561314d5780601f106131225761010080835404028352916020019161314d565b820191906000526020600020905b81548152906001019060200180831161313057829003601f168201915b50505050508152602001602a8201548152602001602b820160009054906101000a900460ff1660198111156131855761318461bd89565b5b60198111156131975761319661bd89565b5b815250509050806103e00151816104000151826104200151836104400151846104600151955095509550955095505091939590929450565b6131d8336155b9565b6131e157600080fd5b80600e60198111156131f6576131f561bd89565b5b600b6000838152602001908152602001600020602b0160009054906101000a900460ff16601981111561322c5761322b61bd89565b5b1461323657600080fd5b33600b600084815260200190815260200160002060000160006101000a81548173ffffffffffffffffffffffffffffffffffffffff021916908373ffffffffffffffffffffffffffffffffffffffff16021790555033600b6000848152602001908152602001600020601f0160006101000a81548173ffffffffffffffffffffffffffffffffffffffff021916908373ffffffffffffffffffffffffffffffffffffffff160217905550600f600b6000848152602001908152602001600020602b0160006101000a81548160ff0219169083601981111561331a5761331961bd89565b5b02179055507fb64a650bd16fdcc58820f555d97b554e91b54798dad96aa8edc7bfbe9485603a8260405161334e919061bae0565b60405180910390a15050565b61336333610e3c565b61336c57600080fd5b80600760198111156133815761338061bd89565b5b600b6000838152602001908152602001600020602b0160009054906101000a900460ff1660198111156133b7576133b661bd89565b5b146133c157600080fd5b33600b600084815260200190815260200160002060000160006101000a81548173ffffffffffffffffffffffffffffffffffffffff021916908373ffffffffffffffffffffffffffffffffffffffff16021790555033600b600084815260200190815260200160002060170160006101000a81548173ffffffffffffffffffffffffffffffffffffffff021916908373ffffffffffffffffffffffffffffffffffffffff1602179055506008600b6000848152602001908152602001600020602b0160006101000a81548160ff021916908360198111156134a5576134a461bd89565b5b02179055507f784d5d462b810ea2026b9e53c351191f8300eb50e1f674d21ed03ea527d881fd826040516134d9919061bae0565b60405180910390a15050565b60006134fb82600361ab2890919063ffffffff16565b9050919050565b60006060806000806000600b6000888152602001908152602001600020604051806105800160405290816000820160009054906101000a900473ffffffffffffffffffffffffffffffffffffffff1673ffffffffffffffffffffffffffffffffffffffff1673ffffffffffffffffffffffffffffffffffffffff1681526020016001820154815260200160028201548152602001600382015481526020016004820160009054906101000a900473ffffffffffffffffffffffffffffffffffffffff1673ffffffffffffffffffffffffffffffffffffffff1673ffffffffffffffffffffffffffffffffffffffff1681526020016005820180546136059061bcae565b80601f01602080910402602001604051908101604052809291908181526020018280546136319061bcae565b801561367e5780601f106136535761010080835404028352916020019161367e565b820191906000526020600020905b81548152906001019060200180831161366157829003601f168201915b505050505081526020016006820180546136979061bcae565b80601f01602080910402602001604051908101604052809291908181526020018280546136c39061bcae565b80156137105780601f106136e557610100808354040283529160200191613710565b820191906000526020600020905b8154815290600101906020018083116136f357829003601f168201915b505050505081526020016007820180546137299061bcae565b80601f01602080910402602001604051908101604052809291908181526020018280546137559061bcae565b80156137a25780601f10613777576101008083540402835291602001916137a2565b820191906000526020600020905b81548152906001019060200180831161378557829003601f168201915b505050505081526020016008820180546137bb9061bcae565b80601f01602080910402602001604051908101604052809291908181526020018280546137e79061bcae565b80156138345780601f1061380957610100808354040283529160200191613834565b820191906000526020600020905b81548152906001019060200180831161381757829003601f168201915b5050505050815260200160098201548152602001600a8201548152602001600b820160009054906101000a900473ffffffffffffffffffffffffffffffffffffffff1673ffffffffffffffffffffffffffffffffffffffff1673ffffffffffffffffffffffffffffffffffffffff168152602001600c820180546138b79061bcae565b80601f01602080910402602001604051908101604052809291908181526020018280546138e39061bcae565b80156139305780601f1061390557610100808354040283529160200191613930565b820191906000526020600020905b81548152906001019060200180831161391357829003601f168201915b50505050508152602001600d820180546139499061bcae565b80601f01602080910402602001604051908101604052809291908181526020018280546139759061bcae565b80156139c25780601f10613997576101008083540402835291602001916139c2565b820191906000526020600020905b8154815290600101906020018083116139a557829003601f168201915b50505050508152602001600e820180546139db9061bcae565b80601f0160208091040260200160405190810160405280929190818152602001828054613a079061bcae565b8015613a545780601f10613a2957610100808354040283529160200191613a54565b820191906000526020600020905b815481529060010190602001808311613a3757829003601f168201915b50505050508152602001600f82018054613a6d9061bcae565b80601f0160208091040260200160405190810160405280929190818152602001828054613a999061bcae565b8015613ae65780601f10613abb57610100808354040283529160200191613ae6565b820191906000526020600020905b815481529060010190602001808311613ac957829003601f168201915b5050505050815260200160108201548152602001601182015481526020016012820160009054906101000a900473ffffffffffffffffffffffffffffffffffffffff1673ffffffffffffffffffffffffffffffffffffffff1673ffffffffffffffffffffffffffffffffffffffff168152602001601382018054613b699061bcae565b80601f0160208091040260200160405190810160405280929190818152602001828054613b959061bcae565b8015613be25780601f10613bb757610100808354040283529160200191613be2565b820191906000526020600020905b815481529060010190602001808311613bc557829003601f168201915b50505050508152602001601482018054613bfb9061bcae565b80601f0160208091040260200160405190810160405280929190818152602001828054613c279061bcae565b8015613c745780601f10613c4957610100808354040283529160200191613c74565b820191906000526020600020905b815481529060010190602001808311613c5757829003601f168201915b5050505050815260200160158201548152602001601682015481526020016017820160009054906101000a900473ffffffffffffffffffffffffffffffffffffffff1673ffffffffffffffffffffffffffffffffffffffff1673ffffffffffffffffffffffffffffffffffffffff168152602001601882018054613cf79061bcae565b80601f0160208091040260200160405190810160405280929190818152602001828054613d239061bcae565b8015613d705780601f10613d4557610100808354040283529160200191613d70565b820191906000526020600020905b815481529060010190602001808311613d5357829003601f168201915b50505050508152602001601982018054613d899061bcae565b80601f0160208091040260200160405190810160405280929190818152602001828054613db59061bcae565b8015613e025780601f10613dd757610100808354040283529160200191613e02565b820191906000526020600020905b815481529060010190602001808311613de557829003601f168201915b50505050508152602001601a82018054613e1b9061bcae565b80601f0160208091040260200160405190810160405280929190818152602001828054613e479061bcae565b8015613e945780601f10613e6957610100808354040283529160200191613e94565b820191906000526020600020905b815481529060010190602001808311613e7757829003601f168201915b50505050508152602001601b82018054613ead9061bcae565b80601f0160208091040260200160405190810160405280929190818152602001828054613ed99061bcae565b8015613f265780601f10613efb57610100808354040283529160200191613f26565b820191906000526020600020905b815481529060010190602001808311613f0957829003601f168201915b50505050508152602001601c82018054613f3f9061bcae565b80601f0160208091040260200160405190810160405280929190818152602001828054613f6b9061bcae565b8015613fb85780601f10613f8d57610100808354040283529160200191613fb8565b820191906000526020600020905b815481529060010190602001808311613f9b57829003601f168201915b50505050508152602001601d8201548152602001601e8201548152602001601f820160009054906101000a900473ffffffffffffffffffffffffffffffffffffffff1673ffffffffffffffffffffffffffffffffffffffff1673ffffffffffffffffffffffffffffffffffffffff16815260200160208201805461403b9061bcae565b80601f01602080910402602001604051908101604052809291908181526020018280546140679061bcae565b80156140b45780601f10614089576101008083540402835291602001916140b4565b820191906000526020600020905b81548152906001019060200180831161409757829003601f168201915b505050505081526020016021820180546140cd9061bcae565b80601f01602080910402602001604051908101604052809291908181526020018280546140f99061bcae565b80156141465780601f1061411b57610100808354040283529160200191614146565b820191906000526020600020905b81548152906001019060200180831161412957829003601f168201915b5050505050815260200160228201548152602001602382015481526020016024820160009054906101000a900473ffffffffffffffffffffffffffffffffffffffff1673ffffffffffffffffffffffffffffffffffffffff1673ffffffffffffffffffffffffffffffffffffffff1681526020016025820180546141c99061bcae565b80601f01602080910402602001604051908101604052809291908181526020018280546141f59061bcae565b80156142425780601f1061421757610100808354040283529160200191614242565b820191906000526020600020905b81548152906001019060200180831161422557829003601f168201915b5050505050815260200160268201805461425b9061bcae565b80601f01602080910402602001604051908101604052809291908181526020018280546142879061bcae565b80156142d45780601f106142a9576101008083540402835291602001916142d4565b820191906000526020600020905b8154815290600101906020018083116142b757829003601f168201915b50505050508152602001602782015481526020016028820160009054906101000a900473ffffffffffffffffffffffffffffffffffffffff1673ffffffffffffffffffffffffffffffffffffffff1673ffffffffffffffffffffffffffffffffffffffff16815260200160298201805461434d9061bcae565b80601f01602080910402602001604051908101604052809291908181526020018280546143799061bcae565b80156143c65780601f1061439b576101008083540402835291602001916143c6565b820191906000526020600020905b8154815290600101906020018083116143a957829003601f168201915b50505050508152602001602a8201548152602001602b820160009054906101000a900460ff1660198111156143fe576143fd61bd89565b5b60198111156144105761440f61bd89565b5b815250509050806102400151816102600151826102800151836102a00151846102c00151955095509550955095505091939590929450565b6144513361ac13565b565b61445c3361ac6d565b565b61446733610e3c565b61447057600080fd5b81600b60198111156144855761448461bd89565b5b600b6000838152602001908152602001600020602b0160009054906101000a900460ff1660198111156144bb576144ba61bd89565b5b146144c557600080fd5b600b600084815260200190815260200160002060000160009054906101000a900473ffffffffffffffffffffffffffffffffffffffff168073ffffffffffffffffffffffffffffffffffffffff163373ffffffffffffffffffffffffffffffffffffffff161461453457600080fd5b600c600b6000868152602001908152602001600020602b0160006101000a81548160ff0219169083601981111561456e5761456d61bd89565b5b021790555082600b6000868152602001908152602001600020601901908051906020019061459d92919061b1ed565b507f958b80388d309396ca845bf0d784abb7f42548d9aab59a8321d62c56fd2dc2f1846040516145cd919061bae0565b60405180910390a150505050565b6145e4336155b9565b6145ed57600080fd5b80601460198111156146025761460161bd89565b5b600b6000838152602001908152602001600020602b0160009054906101000a900460ff1660198111156146385761463761bd89565b5b1461464257600080fd5b600b6000838152602001908152602001600020601f0160009054906101000a900473ffffffffffffffffffffffffffffffffffffffff168073ffffffffffffffffffffffffffffffffffffffff163373ffffffffffffffffffffffffffffffffffffffff16146146b157600080fd5b6015600b6000858152602001908152602001600020602b0160006101000a81548160ff021916908360198111156146eb576146ea61bd89565b5b021790555042600b6000858152602001908152602001600020602301819055507fa8b0866b93c89ae2c85673d1b96e6466a54d79a672098832b03400cd0ba2baa08360405161473a919061bae0565b60405180910390a1505050565b61475033616939565b61475957600080fd5b816001601981111561476e5761476d61bd89565b5b600b6000838152602001908152602001600020602b0160009054906101000a900460ff1660198111156147a4576147a361bd89565b5b146147ae57600080fd5b600b600084815260200190815260200160002060000160009054906101000a900473ffffffffffffffffffffffffffffffffffffffff168073ffffffffffffffffffffffffffffffffffffffff163373ffffffffffffffffffffffffffffffffffffffff161461481d57600080fd5b6002600b6000868152602001908152602001600020602b0160006101000a81548160ff021916908360198111156148575761485661bd89565b5b021790555082600b6000868152602001908152602001600020600701908051906020019061488692919061b1ed565b507f8e2298ffc95713bb8acd959144050ab8cd87e6d8954f350a2d49449ed0f6ee33846040516148b6919061bae0565b60405180910390a150505050565b6148cd3361526c565b6148d657600080fd5b81601860198111156148eb576148ea61bd89565b5b600b6000838152602001908152602001600020602b0160009054906101000a900460ff1660198111156149215761492061bd89565b5b1461492b57600080fd5b33600b600085815260200190815260200160002060000160006101000a81548173ffffffffffffffffffffffffffffffffffffffff021916908373ffffffffffffffffffffffffffffffffffffffff16021790555033600b600085815260200190815260200160002060280160006101000a81548173ffffffffffffffffffffffffffffffffffffffff021916908373ffffffffffffffffffffffffffffffffffffffff16021790555042600b6000858152602001908152602001600020602a018190555081600b60008581526020019081526020016000206029019080519060200190614a1a92919061b1ed565b506019600b6000858152602001908152602001600020602b0160006101000a81548160ff02191690836019811115614a5557614a5461bd89565b5b021790555043600c6000858152602001908152602001600020600501819055507f4df39d1b00b9eb27227f5b2731af1a5c756969533540b415979caa2b1ed0220683604051614aa4919061bae0565b60405180910390a1505050565b6000806000806000806000600c60008981526020019081526020016000206040518060c001604052908160008201548152602001600182015481526020016002820154815260200160038201548152602001600482015481526020016005820154815250509050806000015181602001518260400151836060015184608001518560a001519650965096509650965096505091939550919395565b6000614b6282600661ab2890919063ffffffff16565b9050919050565b614b7233610e1f565b614b7b57600080fd5b8060066019811115614b9057614b8f61bd89565b5b600b6000838152602001908152602001600020602b0160009054906101000a900460ff166019811115614bc657614bc561bd89565b5b14614bd057600080fd5b600b600083815260200190815260200160002060000160009054906101000a900473ffffffffffffffffffffffffffffffffffffffff168073ffffffffffffffffffffffffffffffffffffffff163373ffffffffffffffffffffffffffffffffffffffff1614614c3f57600080fd5b6007600b6000858152602001908152602001600020602b0160006101000a81548160ff02191690836019811115614c7957614c7861bd89565b5b02179055507fb08aaff3f8c46416b680a72a3addd304f2e33c6d2438f4e91548520896cd038b83604051614cad919061bae0565b60405180910390a1505050565b614cc33361acc7565b565b614cce33614b4c565b614cd757600080fd5b8060176019811115614cec57614ceb61bd89565b5b600b6000838152602001908152602001600020602b0160009054906101000a900460ff166019811115614d2257614d2161bd89565b5b14614d2c57600080fd5b600b600083815260200190815260200160002060000160009054906101000a900473ffffffffffffffffffffffffffffffffffffffff168073ffffffffffffffffffffffffffffffffffffffff163373ffffffffffffffffffffffffffffffffffffffff1614614d9b57600080fd5b6018600b6000858152602001908152602001600020602b0160006101000a81548160ff02191690836019811115614dd557614dd461bd89565b5b02179055507f59e7ad085805e2b02ad4b0f8033bd75e7ee4c8cd43f996267463585e3589625283604051614e09919061bae0565b60405180910390a1505050565b614e1f3361ad21565b565b614e2a336155b9565b614e3357600080fd5b8160116019811115614e4857614e4761bd89565b5b600b6000838152602001908152602001600020602b0160009054906101000a900460ff166019811115614e7e57614e7d61bd89565b5b14614e8857600080fd5b600b600084815260200190815260200160002060000160009054906101000a900473ffffffffffffffffffffffffffffffffffffffff168073ffffffffffffffffffffffffffffffffffffffff163373ffffffffffffffffffffffffffffffffffffffff1614614ef757600080fd5b6012600b6000868152602001908152602001600020602b0160006101000a81548160ff02191690836019811115614f3157614f3061bd89565b5b021790555082600b60008681526020019081526020016000206020019080519060200190614f6092919061b1ed565b507f3ad20b3682ca16cc276eb05382b2460770786abab6f18305f8558c9f02cb84d584604051614f90919061bae0565b60405180910390a150505050565b600860009054906101000a900473ffffffffffffffffffffffffffffffffffffffff1673ffffffffffffffffffffffffffffffffffffffff163373ffffffffffffffffffffffffffffffffffffffff1614614ff857600080fd5b600073ffffffffffffffffffffffffffffffffffffffff1660008054906101000a900473ffffffffffffffffffffffffffffffffffffffff1673ffffffffffffffffffffffffffffffffffffffff167f5c486528ec3e3f0ea91181cff8116f02bfa350e03b8b6f12e00765adbb5af85c60405160405180910390a360008060006101000a81548173ffffffffffffffffffffffffffffffffffffffff021916908373ffffffffffffffffffffffffffffffffffffffff160217905550565b6150bf336155b9565b6150c857600080fd5b6150d18161ad7b565b50565b6150dd336155b9565b6150e657600080fd5b80601260198111156150fb576150fa61bd89565b5b600b6000838152602001908152602001600020602b0160009054906101000a900460ff1660198111156151315761513061bd89565b5b1461513b57600080fd5b600b600083815260200190815260200160002060000160009054906101000a900473ffffffffffffffffffffffffffffffffffffffff168073ffffffffffffffffffffffffffffffffffffffff163373ffffffffffffffffffffffffffffffffffffffff16146151aa57600080fd5b6013600b6000858152602001908152602001600020602b0160006101000a81548160ff021916908360198111156151e4576151e361bd89565b5b02179055507f539b4a835a8a5d1bc5756a9f146e2bfeaa6bd6b1fa77a7631c0a5154c86cdd0383604051615218919061bae0565b60405180910390a1505050565b61522e33610e1f565b61523757600080fd5b6152408161add5565b50565b61524c33616939565b61525557600080fd5b61525e8161ae2f565b50565b61526a3361ae89565b565b600061528282600761ab2890919063ffffffff16565b9050919050565b61529233610e1f565b61529b57600080fd5b80600360198111156152b0576152af61bd89565b5b600b6000838152602001908152602001600020602b0160009054906101000a900460ff1660198111156152e6576152e561bd89565b5b146152f057600080fd5b33600b600084815260200190815260200160002060000160006101000a81548173ffffffffffffffffffffffffffffffffffffffff021916908373ffffffffffffffffffffffffffffffffffffffff16021790555033600b6000848152602001908152602001600020600b0160006101000a81548173ffffffffffffffffffffffffffffffffffffffff021916908373ffffffffffffffffffffffffffffffffffffffff1602179055506004600b6000848152602001908152602001600020602b0160006101000a81548160ff021916908360198111156153d4576153d361bd89565b5b021790555043600c6000848152602001908152602001600020600001819055507f4dd7033ed3dcf232309d09d67ab4bb185cd9a35b4cc73c6767d09f26c3eecf5d82604051615423919061bae0565b60405180910390a15050565b61543833610e3c565b61544157600080fd5b80600f60198111156154565761545561bd89565b5b600b6000838152602001908152602001600020602b0160009054906101000a900460ff16601981111561548c5761548b61bd89565b5b1461549657600080fd5b600b600083815260200190815260200160002060170160009054906101000a900473ffffffffffffffffffffffffffffffffffffffff168073ffffffffffffffffffffffffffffffffffffffff163373ffffffffffffffffffffffffffffffffffffffff161461550557600080fd5b6010600b6000858152602001908152602001600020602b0160006101000a81548160ff0219169083601981111561553f5761553e61bd89565b5b021790555042600b6000858152602001908152602001600020601e01819055507f472063b547a8d7724e029eaa0f6d0d287c855c575396b23432cafcdb5706d0588360405161558e919061bae0565b60405180910390a1505050565b6155a433614b4c565b6155ad57600080fd5b6155b68161aee3565b50565b60006155cf82600561ab2890919063ffffffff16565b9050919050565b6155df33610e1f565b6155e857600080fd5b83600460198111156155fd576155fc61bd89565b5b600b6000838152602001908152602001600020602b0160009054906101000a900460ff1660198111156156335761563261bd89565b5b1461563d57600080fd5b600b600086815260200190815260200160002060000160009054906101000a900473ffffffffffffffffffffffffffffffffffffffff168073ffffffffffffffffffffffffffffffffffffffff163373ffffffffffffffffffffffffffffffffffffffff16146156ac57600080fd5b42600b60008881526020019081526020016000206010018190555084600b6000888152602001908152602001600020600c0190805190602001906156f192919061b1ed565b5083600b6000888152602001908152602001600020600d01908051906020019061571c92919061b1ed565b5082600b6000888152602001908152602001600020600e01908051906020019061574792919061b1ed565b506005600b6000888152602001908152602001600020602b0160006101000a81548160ff021916908360198111156157825761578161bd89565b5b02179055507fd3234c79bb7fda55fddde9316e98a91b781126438795a393bad7a4100d6ac5f3866040516157b6919061bae0565b60405180910390a1505050505050565b60008060009054906101000a900473ffffffffffffffffffffffffffffffffffffffff1673ffffffffffffffffffffffffffffffffffffffff163373ffffffffffffffffffffffffffffffffffffffff1614905090565b615826336134e5565b61582f57600080fd5b82600960198111156158445761584361bd89565b5b600b6000838152602001908152602001600020602b0160009054906101000a900460ff16601981111561587a5761587961bd89565b5b1461588457600080fd5b33600b600086815260200190815260200160002060120160006101000a81548173ffffffffffffffffffffffffffffffffffffffff021916908373ffffffffffffffffffffffffffffffffffffffff16021790555082600b6000868152602001908152602001600020601301908051906020019061590392919061b1ed565b5081600b6000868152602001908152602001600020601401908051906020019061592e92919061b1ed565b50600a600b6000868152602001908152602001600020602b0160006101000a81548160ff021916908360198111156159695761596861bd89565b5b021790555042600b60008681526020019081526020016000206016018190555043600c6000868152602001908152602001600020600201819055507f3929a8380599bf812215e48de344dd9919b69c4119c3b3b0b2da4054637be903846040516159d3919061bae0565b60405180910390a150505050565b6000606080600080600b6000878152602001908152602001600020604051806105800160405290816000820160009054906101000a900473ffffffffffffffffffffffffffffffffffffffff1673ffffffffffffffffffffffffffffffffffffffff1673ffffffffffffffffffffffffffffffffffffffff1681526020016001820154815260200160028201548152602001600382015481526020016004820160009054906101000a900473ffffffffffffffffffffffffffffffffffffffff1673ffffffffffffffffffffffffffffffffffffffff1673ffffffffffffffffffffffffffffffffffffffff168152602001600582018054615ae29061bcae565b80601f0160208091040260200160405190810160405280929190818152602001828054615b0e9061bcae565b8015615b5b5780601f10615b3057610100808354040283529160200191615b5b565b820191906000526020600020905b815481529060010190602001808311615b3e57829003601f168201915b50505050508152602001600682018054615b749061bcae565b80601f0160208091040260200160405190810160405280929190818152602001828054615ba09061bcae565b8015615bed5780601f10615bc257610100808354040283529160200191615bed565b820191906000526020600020905b815481529060010190602001808311615bd057829003601f168201915b50505050508152602001600782018054615c069061bcae565b80601f0160208091040260200160405190810160405280929190818152602001828054615c329061bcae565b8015615c7f5780601f10615c5457610100808354040283529160200191615c7f565b820191906000526020600020905b815481529060010190602001808311615c6257829003601f168201915b50505050508152602001600882018054615c989061bcae565b80601f0160208091040260200160405190810160405280929190818152602001828054615cc49061bcae565b8015615d115780601f10615ce657610100808354040283529160200191615d11565b820191906000526020600020905b815481529060010190602001808311615cf457829003601f168201915b5050505050815260200160098201548152602001600a8201548152602001600b820160009054906101000a900473ffffffffffffffffffffffffffffffffffffffff1673ffffffffffffffffffffffffffffffffffffffff1673ffffffffffffffffffffffffffffffffffffffff168152602001600c82018054615d949061bcae565b80601f0160208091040260200160405190810160405280929190818152602001828054615dc09061bcae565b8015615e0d5780601f10615de257610100808354040283529160200191615e0d565b820191906000526020600020905b815481529060010190602001808311615df057829003601f168201915b50505050508152602001600d82018054615e269061bcae565b80601f0160208091040260200160405190810160405280929190818152602001828054615e529061bcae565b8015615e9f5780601f10615e7457610100808354040283529160200191615e9f565b820191906000526020600020905b815481529060010190602001808311615e8257829003601f168201915b50505050508152602001600e82018054615eb89061bcae565b80601f0160208091040260200160405190810160405280929190818152602001828054615ee49061bcae565b8015615f315780601f10615f0657610100808354040283529160200191615f31565b820191906000526020600020905b815481529060010190602001808311615f1457829003601f168201915b50505050508152602001600f82018054615f4a9061bcae565b80601f0160208091040260200160405190810160405280929190818152602001828054615f769061bcae565b8015615fc35780601f10615f9857610100808354040283529160200191615fc3565b820191906000526020600020905b815481529060010190602001808311615fa657829003601f168201915b5050505050815260200160108201548152602001601182015481526020016012820160009054906101000a900473ffffffffffffffffffffffffffffffffffffffff1673ffffffffffffffffffffffffffffffffffffffff1673ffffffffffffffffffffffffffffffffffffffff1681526020016013820180546160469061bcae565b80601f01602080910402602001604051908101604052809291908181526020018280546160729061bcae565b80156160bf5780601f10616094576101008083540402835291602001916160bf565b820191906000526020600020905b8154815290600101906020018083116160a257829003601f168201915b505050505081526020016014820180546160d89061bcae565b80601f01602080910402602001604051908101604052809291908181526020018280546161049061bcae565b80156161515780601f1061612657610100808354040283529160200191616151565b820191906000526020600020905b81548152906001019060200180831161613457829003601f168201915b5050505050815260200160158201548152602001601682015481526020016017820160009054906101000a900473ffffffffffffffffffffffffffffffffffffffff1673ffffffffffffffffffffffffffffffffffffffff1673ffffffffffffffffffffffffffffffffffffffff1681526020016018820180546161d49061bcae565b80601f01602080910402602001604051908101604052809291908181526020018280546162009061bcae565b801561624d5780601f106162225761010080835404028352916020019161624d565b820191906000526020600020905b81548152906001019060200180831161623057829003601f168201915b505050505081526020016019820180546162669061bcae565b80601f01602080910402602001604051908101604052809291908181526020018280546162929061bcae565b80156162df5780601f106162b4576101008083540402835291602001916162df565b820191906000526020600020905b8154815290600101906020018083116162c257829003601f168201915b50505050508152602001601a820180546162f89061bcae565b80601f01602080910402602001604051908101604052809291908181526020018280546163249061bcae565b80156163715780601f1061634657610100808354040283529160200191616371565b820191906000526020600020905b81548152906001019060200180831161635457829003601f168201915b50505050508152602001601b8201805461638a9061bcae565b80601f01602080910402602001604051908101604052809291908181526020018280546163b69061bcae565b80156164035780601f106163d857610100808354040283529160200191616403565b820191906000526020600020905b8154815290600101906020018083116163e657829003601f168201915b50505050508152602001601c8201805461641c9061bcae565b80601f01602080910402602001604051908101604052809291908181526020018280546164489061bcae565b80156164955780601f1061646a57610100808354040283529160200191616495565b820191906000526020600020905b81548152906001019060200180831161647857829003601f168201915b50505050508152602001601d8201548152602001601e8201548152602001601f820160009054906101000a900473ffffffffffffffffffffffffffffffffffffffff1673ffffffffffffffffffffffffffffffffffffffff1673ffffffffffffffffffffffffffffffffffffffff1681526020016020820180546165189061bcae565b80601f01602080910402602001604051908101604052809291908181526020018280546165449061bcae565b80156165915780601f1061656657610100808354040283529160200191616591565b820191906000526020600020905b81548152906001019060200180831161657457829003601f168201915b505050505081526020016021820180546165aa9061bcae565b80601f01602080910402602001604051908101604052809291908181526020018280546165d69061bcae565b80156166235780601f106165f857610100808354040283529160200191616623565b820191906000526020600020905b81548152906001019060200180831161660657829003601f168201915b5050505050815260200160228201548152602001602382015481526020016024820160009054906101000a900473ffffffffffffffffffffffffffffffffffffffff1673ffffffffffffffffffffffffffffffffffffffff1673ffffffffffffffffffffffffffffffffffffffff1681526020016025820180546166a69061bcae565b80601f01602080910402602001604051908101604052809291908181526020018280546166d29061bcae565b801561671f5780601f106166f45761010080835404028352916020019161671f565b820191906000526020600020905b81548152906001019060200180831161670257829003601f168201915b505050505081526020016026820180546167389061bcae565b80601f01602080910402602001604051908101604052809291908181526020018280546167649061bcae565b80156167b15780601f10616786576101008083540402835291602001916167b1565b820191906000526020600020905b81548152906001019060200180831161679457829003601f168201915b50505050508152602001602782015481526020016028820160009054906101000a900473ffffffffffffffffffffffffffffffffffffffff1673ffffffffffffffffffffffffffffffffffffffff1673ffffffffffffffffffffffffffffffffffffffff16815260200160298201805461682a9061bcae565b80601f01602080910402602001604051908101604052809291908181526020018280546168569061bcae565b80156168a35780601f10616878576101008083540402835291602001916168a3565b820191906000526020600020905b81548152906001019060200180831161688657829003601f168201915b50505050508152602001602a8201548152602001602b820160009054906101000a900460ff1660198111156168db576168da61bd89565b5b60198111156168ed576168ec61bd89565b5b815250509050806104800151816104a00151826104c00151836104e001519450945094509450509193509193565b616924336134e5565b61692d57600080fd5b6169368161af3d565b50565b600061694f82600161ab2890919063ffffffff16565b9050919050565b61695f33614b4c565b61696857600080fd5b816016601981111561697d5761697c61bd89565b5b600b6000838152602001908152602001600020602b0160009054906101000a900460ff1660198111156169b3576169b261bd89565b5b146169bd57600080fd5b600b600084815260200190815260200160002060000160009054906101000a900473ffffffffffffffffffffffffffffffffffffffff168073ffffffffffffffffffffffffffffffffffffffff163373ffffffffffffffffffffffffffffffffffffffff1614616a2c57600080fd5b6017600b6000868152602001908152602001600020602b0160006101000a81548160ff02191690836019811115616a6657616a6561bd89565b5b021790555082600b60008681526020019081526020016000206026019080519060200190616a9592919061b1ed565b507f4a7b51a1cda61ba200934873304b8985eaa822a11f67ec51831b46423986946484604051616ac5919061bae0565b60405180910390a150505050565b616adc33610e3c565b616ae557600080fd5b81600a6019811115616afa57616af961bd89565b5b600b6000838152602001908152602001600020602b0160009054906101000a900460ff166019811115616b3057616b2f61bd89565b5b14616b3a57600080fd5b600b600084815260200190815260200160002060000160009054906101000a900473ffffffffffffffffffffffffffffffffffffffff168073ffffffffffffffffffffffffffffffffffffffff163373ffffffffffffffffffffffffffffffffffffffff1614616ba957600080fd5b600b806000868152602001908152602001600020602b0160006101000a81548160ff02191690836019811115616be257616be161bd89565b5b021790555082600b60008681526020019081526020016000206018019080519060200190616c1192919061b1ed565b5042600b6000868152602001908152602001600020601d01819055507f2c7366ed54101cf0fbe92656f170d0cb7c41871e0665c5caefe80354045f3ae884604051616c5c919061bae0565b60405180910390a150505050565b616c7333616939565b616c7c57600080fd5b600080600080600080616c8d61b273565b600a548160600181815250508981604001818152505033816000019073ffffffffffffffffffffffffffffffffffffffff16908173ffffffffffffffffffffffffffffffffffffffff168152505033816080019073ffffffffffffffffffffffffffffffffffffffff16908173ffffffffffffffffffffffffffffffffffffffff1681525050888160a0018190525087816101000181905250600a548a616d34919061bbce565b816020018181525050428161012001818152505060008161056001906019811115616d6257616d6161bd89565b5b90816019811115616d7657616d7561bd89565b5b815250508681610160019073ffffffffffffffffffffffffffffffffffffffff16908173ffffffffffffffffffffffffffffffffffffffff16815250508581610240019073ffffffffffffffffffffffffffffffffffffffff16908173ffffffffffffffffffffffffffffffffffffffff168152505084816102e0019073ffffffffffffffffffffffffffffffffffffffff16908173ffffffffffffffffffffffffffffffffffffffff168152505083816103e0019073ffffffffffffffffffffffffffffffffffffffff16908173ffffffffffffffffffffffffffffffffffffffff16815250508281610480019073ffffffffffffffffffffffffffffffffffffffff16908173ffffffffffffffffffffffffffffffffffffffff16815250508181610500019073ffffffffffffffffffffffffffffffffffffffff16908173ffffffffffffffffffffffffffffffffffffffff168152505080600b60008c815260200190815260200160002060008201518160000160006101000a81548173ffffffffffffffffffffffffffffffffffffffff021916908373ffffffffffffffffffffffffffffffffffffffff16021790555060208201518160010155604082015181600201556060820151816003015560808201518160040160006101000a81548173ffffffffffffffffffffffffffffffffffffffff021916908373ffffffffffffffffffffffffffffffffffffffff16021790555060a0820151816005019080519060200190616fac92919061b1ed565b5060c0820151816006019080519060200190616fc992919061b1ed565b5060e0820151816007019080519060200190616fe692919061b1ed565b5061010082015181600801908051906020019061700492919061b1ed565b50610120820151816009015561014082015181600a015561016082015181600b0160006101000a81548173ffffffffffffffffffffffffffffffffffffffff021916908373ffffffffffffffffffffffffffffffffffffffff16021790555061018082015181600c01908051906020019061708092919061b1ed565b506101a082015181600d01908051906020019061709e92919061b1ed565b506101c082015181600e0190805190602001906170bc92919061b1ed565b506101e082015181600f0190805190602001906170da92919061b1ed565b50610200820151816010015561022082015181601101556102408201518160120160006101000a81548173ffffffffffffffffffffffffffffffffffffffff021916908373ffffffffffffffffffffffffffffffffffffffff16021790555061026082015181601301908051906020019061715692919061b1ed565b5061028082015181601401908051906020019061717492919061b1ed565b506102a082015181601501556102c082015181601601556102e08201518160170160006101000a81548173ffffffffffffffffffffffffffffffffffffffff021916908373ffffffffffffffffffffffffffffffffffffffff1602179055506103008201518160180190805190602001906171f092919061b1ed565b5061032082015181601901908051906020019061720e92919061b1ed565b5061034082015181601a01908051906020019061722c92919061b1ed565b5061036082015181601b01908051906020019061724a92919061b1ed565b5061038082015181601c01908051906020019061726892919061b1ed565b506103a082015181601d01556103c082015181601e01556103e082015181601f0160006101000a81548173ffffffffffffffffffffffffffffffffffffffff021916908373ffffffffffffffffffffffffffffffffffffffff1602179055506104008201518160200190805190602001906172e492919061b1ed565b5061042082015181602101908051906020019061730292919061b1ed565b50610440820151816022015561046082015181602301556104808201518160240160006101000a81548173ffffffffffffffffffffffffffffffffffffffff021916908373ffffffffffffffffffffffffffffffffffffffff1602179055506104a082015181602501908051906020019061737e92919061b1ed565b506104c082015181602601908051906020019061739c92919061b1ed565b506104e082015181602701556105008201518160280160006101000a81548173ffffffffffffffffffffffffffffffffffffffff021916908373ffffffffffffffffffffffffffffffffffffffff16021790555061052082015181602901908051906020019061740d92919061b1ed565b5061054082015181602a015561056082015181602b0160006101000a81548160ff021916908360198111156174455761744461bd89565b5b0217905550905050600061745761b476565b8181600001818152505081816020018181525050818160400181815250508181606001818152505081816080018181525050818160a001818152505080600c60008e8152602001908152602001600020600082015181600001556020820151816001015560408201518160020155606082015181600301556080820151816004015560a08201518160050155905050600a60008154809291906174f99061bd11565b91905055507fefe4736d527ba6c7c4480d599caf5e0df1b7208f32a2fa24b6847cd0b9ff3a928c60405161752d919061bae0565b60405180910390a1505050505050505050505050565b60008060008060006060806060806000806000600b60008e8152602001908152602001600020604051806105800160405290816000820160009054906101000a900473ffffffffffffffffffffffffffffffffffffffff1673ffffffffffffffffffffffffffffffffffffffff1673ffffffffffffffffffffffffffffffffffffffff1681526020016001820154815260200160028201548152602001600382015481526020016004820160009054906101000a900473ffffffffffffffffffffffffffffffffffffffff1673ffffffffffffffffffffffffffffffffffffffff1673ffffffffffffffffffffffffffffffffffffffff16815260200160058201805461764f9061bcae565b80601f016020809104026020016040519081016040528092919081815260200182805461767b9061bcae565b80156176c85780601f1061769d576101008083540402835291602001916176c8565b820191906000526020600020905b8154815290600101906020018083116176ab57829003601f168201915b505050505081526020016006820180546176e19061bcae565b80601f016020809104026020016040519081016040528092919081815260200182805461770d9061bcae565b801561775a5780601f1061772f5761010080835404028352916020019161775a565b820191906000526020600020905b81548152906001019060200180831161773d57829003601f168201915b505050505081526020016007820180546177739061bcae565b80601f016020809104026020016040519081016040528092919081815260200182805461779f9061bcae565b80156177ec5780601f106177c1576101008083540402835291602001916177ec565b820191906000526020600020905b8154815290600101906020018083116177cf57829003601f168201915b505050505081526020016008820180546178059061bcae565b80601f01602080910402602001604051908101604052809291908181526020018280546178319061bcae565b801561787e5780601f106178535761010080835404028352916020019161787e565b820191906000526020600020905b81548152906001019060200180831161786157829003601f168201915b5050505050815260200160098201548152602001600a8201548152602001600b820160009054906101000a900473ffffffffffffffffffffffffffffffffffffffff1673ffffffffffffffffffffffffffffffffffffffff1673ffffffffffffffffffffffffffffffffffffffff168152602001600c820180546179019061bcae565b80601f016020809104026020016040519081016040528092919081815260200182805461792d9061bcae565b801561797a5780601f1061794f5761010080835404028352916020019161797a565b820191906000526020600020905b81548152906001019060200180831161795d57829003601f168201915b50505050508152602001600d820180546179939061bcae565b80601f01602080910402602001604051908101604052809291908181526020018280546179bf9061bcae565b8015617a0c5780601f106179e157610100808354040283529160200191617a0c565b820191906000526020600020905b8154815290600101906020018083116179ef57829003601f168201915b50505050508152602001600e82018054617a259061bcae565b80601f0160208091040260200160405190810160405280929190818152602001828054617a519061bcae565b8015617a9e5780601f10617a7357610100808354040283529160200191617a9e565b820191906000526020600020905b815481529060010190602001808311617a8157829003601f168201915b50505050508152602001600f82018054617ab79061bcae565b80601f0160208091040260200160405190810160405280929190818152602001828054617ae39061bcae565b8015617b305780601f10617b0557610100808354040283529160200191617b30565b820191906000526020600020905b815481529060010190602001808311617b1357829003601f168201915b5050505050815260200160108201548152602001601182015481526020016012820160009054906101000a900473ffffffffffffffffffffffffffffffffffffffff1673ffffffffffffffffffffffffffffffffffffffff1673ffffffffffffffffffffffffffffffffffffffff168152602001601382018054617bb39061bcae565b80601f0160208091040260200160405190810160405280929190818152602001828054617bdf9061bcae565b8015617c2c5780601f10617c0157610100808354040283529160200191617c2c565b820191906000526020600020905b815481529060010190602001808311617c0f57829003601f168201915b50505050508152602001601482018054617c459061bcae565b80601f0160208091040260200160405190810160405280929190818152602001828054617c719061bcae565b8015617cbe5780601f10617c9357610100808354040283529160200191617cbe565b820191906000526020600020905b815481529060010190602001808311617ca157829003601f168201915b5050505050815260200160158201548152602001601682015481526020016017820160009054906101000a900473ffffffffffffffffffffffffffffffffffffffff1673ffffffffffffffffffffffffffffffffffffffff1673ffffffffffffffffffffffffffffffffffffffff168152602001601882018054617d419061bcae565b80601f0160208091040260200160405190810160405280929190818152602001828054617d6d9061bcae565b8015617dba5780601f10617d8f57610100808354040283529160200191617dba565b820191906000526020600020905b815481529060010190602001808311617d9d57829003601f168201915b50505050508152602001601982018054617dd39061bcae565b80601f0160208091040260200160405190810160405280929190818152602001828054617dff9061bcae565b8015617e4c5780601f10617e2157610100808354040283529160200191617e4c565b820191906000526020600020905b815481529060010190602001808311617e2f57829003601f168201915b50505050508152602001601a82018054617e659061bcae565b80601f0160208091040260200160405190810160405280929190818152602001828054617e919061bcae565b8015617ede5780601f10617eb357610100808354040283529160200191617ede565b820191906000526020600020905b815481529060010190602001808311617ec157829003601f168201915b50505050508152602001601b82018054617ef79061bcae565b80601f0160208091040260200160405190810160405280929190818152602001828054617f239061bcae565b8015617f705780601f10617f4557610100808354040283529160200191617f70565b820191906000526020600020905b815481529060010190602001808311617f5357829003601f168201915b50505050508152602001601c82018054617f899061bcae565b80601f0160208091040260200160405190810160405280929190818152602001828054617fb59061bcae565b80156180025780601f10617fd757610100808354040283529160200191618002565b820191906000526020600020905b815481529060010190602001808311617fe557829003601f168201915b50505050508152602001601d8201548152602001601e8201548152602001601f820160009054906101000a900473ffffffffffffffffffffffffffffffffffffffff1673ffffffffffffffffffffffffffffffffffffffff1673ffffffffffffffffffffffffffffffffffffffff1681526020016020820180546180859061bcae565b80601f01602080910402602001604051908101604052809291908181526020018280546180b19061bcae565b80156180fe5780601f106180d3576101008083540402835291602001916180fe565b820191906000526020600020905b8154815290600101906020018083116180e157829003601f168201915b505050505081526020016021820180546181179061bcae565b80601f01602080910402602001604051908101604052809291908181526020018280546181439061bcae565b80156181905780601f1061816557610100808354040283529160200191618190565b820191906000526020600020905b81548152906001019060200180831161817357829003601f168201915b5050505050815260200160228201548152602001602382015481526020016024820160009054906101000a900473ffffffffffffffffffffffffffffffffffffffff1673ffffffffffffffffffffffffffffffffffffffff1673ffffffffffffffffffffffffffffffffffffffff1681526020016025820180546182139061bcae565b80601f016020809104026020016040519081016040528092919081815260200182805461823f9061bcae565b801561828c5780601f106182615761010080835404028352916020019161828c565b820191906000526020600020905b81548152906001019060200180831161826f57829003601f168201915b505050505081526020016026820180546182a59061bcae565b80601f01602080910402602001604051908101604052809291908181526020018280546182d19061bcae565b801561831e5780601f106182f35761010080835404028352916020019161831e565b820191906000526020600020905b81548152906001019060200180831161830157829003601f168201915b50505050508152602001602782015481526020016028820160009054906101000a900473ffffffffffffffffffffffffffffffffffffffff1673ffffffffffffffffffffffffffffffffffffffff1673ffffffffffffffffffffffffffffffffffffffff1681526020016029820180546183979061bcae565b80601f01602080910402602001604051908101604052809291908181526020018280546183c39061bcae565b80156184105780601f106183e557610100808354040283529160200191618410565b820191906000526020600020905b8154815290600101906020018083116183f357829003601f168201915b50505050508152602001602a8201548152602001602b820160009054906101000a900460ff1660198111156184485761844761bd89565b5b601981111561845a5761845961bd89565b5b815250509050806000015181602001518260400151836060015184608001518560a001518660c001518760e001518861010001518961012001518a61014001519b509b509b509b509b509b509b509b509b509b509b505091939597999b90929496989a50565b6184c93361af97565b565b60008060009054906101000a900473ffffffffffffffffffffffffffffffffffffffff16905090565b6184fd33616939565b61850657600080fd5b806002601981111561851b5761851a61bd89565b5b600b6000838152602001908152602001600020602b0160009054906101000a900460ff1660198111156185515761855061bd89565b5b1461855b57600080fd5b600b600083815260200190815260200160002060000160009054906101000a900473ffffffffffffffffffffffffffffffffffffffff168073ffffffffffffffffffffffffffffffffffffffff163373ffffffffffffffffffffffffffffffffffffffff16146185ca57600080fd5b6003600b6000858152602001908152602001600020602b0160006101000a81548160ff021916908360198111156186045761860361bd89565b5b02179055507f7a02b5a0b1f928cffcafd0e750f369a40f124f4f34f65801fe1f0d945b9a791583604051618638919061bae0565b60405180910390a1505050565b61864e3361aff1565b565b600860009054906101000a900473ffffffffffffffffffffffffffffffffffffffff1673ffffffffffffffffffffffffffffffffffffffff163373ffffffffffffffffffffffffffffffffffffffff16146186aa57600080fd5b6186b38161b04b565b50565b60006060600080600b6000868152602001908152602001600020604051806105800160405290816000820160009054906101000a900473ffffffffffffffffffffffffffffffffffffffff1673ffffffffffffffffffffffffffffffffffffffff1673ffffffffffffffffffffffffffffffffffffffff1681526020016001820154815260200160028201548152602001600382015481526020016004820160009054906101000a900473ffffffffffffffffffffffffffffffffffffffff1673ffffffffffffffffffffffffffffffffffffffff1673ffffffffffffffffffffffffffffffffffffffff1681526020016005820180546187b69061bcae565b80601f01602080910402602001604051908101604052809291908181526020018280546187e29061bcae565b801561882f5780601f106188045761010080835404028352916020019161882f565b820191906000526020600020905b81548152906001019060200180831161881257829003601f168201915b505050505081526020016006820180546188489061bcae565b80601f01602080910402602001604051908101604052809291908181526020018280546188749061bcae565b80156188c15780601f10618896576101008083540402835291602001916188c1565b820191906000526020600020905b8154815290600101906020018083116188a457829003601f168201915b505050505081526020016007820180546188da9061bcae565b80601f01602080910402602001604051908101604052809291908181526020018280546189069061bcae565b80156189535780601f1061892857610100808354040283529160200191618953565b820191906000526020600020905b81548152906001019060200180831161893657829003601f168201915b5050505050815260200160088201805461896c9061bcae565b80601f01602080910402602001604051908101604052809291908181526020018280546189989061bcae565b80156189e55780601f106189ba576101008083540402835291602001916189e5565b820191906000526020600020905b8154815290600101906020018083116189c857829003601f168201915b5050505050815260200160098201548152602001600a8201548152602001600b820160009054906101000a900473ffffffffffffffffffffffffffffffffffffffff1673ffffffffffffffffffffffffffffffffffffffff1673ffffffffffffffffffffffffffffffffffffffff168152602001600c82018054618a689061bcae565b80601f0160208091040260200160405190810160405280929190818152602001828054618a949061bcae565b8015618ae15780601f10618ab657610100808354040283529160200191618ae1565b820191906000526020600020905b815481529060010190602001808311618ac457829003601f168201915b50505050508152602001600d82018054618afa9061bcae565b80601f0160208091040260200160405190810160405280929190818152602001828054618b269061bcae565b8015618b735780601f10618b4857610100808354040283529160200191618b73565b820191906000526020600020905b815481529060010190602001808311618b5657829003601f168201915b50505050508152602001600e82018054618b8c9061bcae565b80601f0160208091040260200160405190810160405280929190818152602001828054618bb89061bcae565b8015618c055780601f10618bda57610100808354040283529160200191618c05565b820191906000526020600020905b815481529060010190602001808311618be857829003601f168201915b50505050508152602001600f82018054618c1e9061bcae565b80601f0160208091040260200160405190810160405280929190818152602001828054618c4a9061bcae565b8015618c975780601f10618c6c57610100808354040283529160200191618c97565b820191906000526020600020905b815481529060010190602001808311618c7a57829003601f168201915b5050505050815260200160108201548152602001601182015481526020016012820160009054906101000a900473ffffffffffffffffffffffffffffffffffffffff1673ffffffffffffffffffffffffffffffffffffffff1673ffffffffffffffffffffffffffffffffffffffff168152602001601382018054618d1a9061bcae565b80601f0160208091040260200160405190810160405280929190818152602001828054618d469061bcae565b8015618d935780601f10618d6857610100808354040283529160200191618d93565b820191906000526020600020905b815481529060010190602001808311618d7657829003601f168201915b50505050508152602001601482018054618dac9061bcae565b80601f0160208091040260200160405190810160405280929190818152602001828054618dd89061bcae565b8015618e255780601f10618dfa57610100808354040283529160200191618e25565b820191906000526020600020905b815481529060010190602001808311618e0857829003601f168201915b5050505050815260200160158201548152602001601682015481526020016017820160009054906101000a900473ffffffffffffffffffffffffffffffffffffffff1673ffffffffffffffffffffffffffffffffffffffff1673ffffffffffffffffffffffffffffffffffffffff168152602001601882018054618ea89061bcae565b80601f0160208091040260200160405190810160405280929190818152602001828054618ed49061bcae565b8015618f215780601f10618ef657610100808354040283529160200191618f21565b820191906000526020600020905b815481529060010190602001808311618f0457829003601f168201915b50505050508152602001601982018054618f3a9061bcae565b80601f0160208091040260200160405190810160405280929190818152602001828054618f669061bcae565b8015618fb35780601f10618f8857610100808354040283529160200191618fb3565b820191906000526020600020905b815481529060010190602001808311618f9657829003601f168201915b50505050508152602001601a82018054618fcc9061bcae565b80601f0160208091040260200160405190810160405280929190818152602001828054618ff89061bcae565b80156190455780601f1061901a57610100808354040283529160200191619045565b820191906000526020600020905b81548152906001019060200180831161902857829003601f168201915b50505050508152602001601b8201805461905e9061bcae565b80601f016020809104026020016040519081016040528092919081815260200182805461908a9061bcae565b80156190d75780601f106190ac576101008083540402835291602001916190d7565b820191906000526020600020905b8154815290600101906020018083116190ba57829003601f168201915b50505050508152602001601c820180546190f09061bcae565b80601f016020809104026020016040519081016040528092919081815260200182805461911c9061bcae565b80156191695780601f1061913e57610100808354040283529160200191619169565b820191906000526020600020905b81548152906001019060200180831161914c57829003601f168201915b50505050508152602001601d8201548152602001601e8201548152602001601f820160009054906101000a900473ffffffffffffffffffffffffffffffffffffffff1673ffffffffffffffffffffffffffffffffffffffff1673ffffffffffffffffffffffffffffffffffffffff1681526020016020820180546191ec9061bcae565b80601f01602080910402602001604051908101604052809291908181526020018280546192189061bcae565b80156192655780601f1061923a57610100808354040283529160200191619265565b820191906000526020600020905b81548152906001019060200180831161924857829003601f168201915b5050505050815260200160218201805461927e9061bcae565b80601f01602080910402602001604051908101604052809291908181526020018280546192aa9061bcae565b80156192f75780601f106192cc576101008083540402835291602001916192f7565b820191906000526020600020905b8154815290600101906020018083116192da57829003601f168201915b5050505050815260200160228201548152602001602382015481526020016024820160009054906101000a900473ffffffffffffffffffffffffffffffffffffffff1673ffffffffffffffffffffffffffffffffffffffff1673ffffffffffffffffffffffffffffffffffffffff16815260200160258201805461937a9061bcae565b80601f01602080910402602001604051908101604052809291908181526020018280546193a69061bcae565b80156193f35780601f106193c8576101008083540402835291602001916193f3565b820191906000526020600020905b8154815290600101906020018083116193d657829003601f168201915b5050505050815260200160268201805461940c9061bcae565b80601f01602080910402602001604051908101604052809291908181526020018280546194389061bcae565b80156194855780601f1061945a57610100808354040283529160200191619485565b820191906000526020600020905b81548152906001019060200180831161946857829003601f168201915b50505050508152602001602782015481526020016028820160009054906101000a900473ffffffffffffffffffffffffffffffffffffffff1673ffffffffffffffffffffffffffffffffffffffff1673ffffffffffffffffffffffffffffffffffffffff1681526020016029820180546194fe9061bcae565b80601f016020809104026020016040519081016040528092919081815260200182805461952a9061bcae565b80156195775780601f1061954c57610100808354040283529160200191619577565b820191906000526020600020905b81548152906001019060200180831161955a57829003601f168201915b50505050508152602001602a8201548152602001602b820160009054906101000a900460ff1660198111156195af576195ae61bd89565b5b60198111156195c1576195c061bd89565b5b815250509050806105000151816105200151826105400151935093509350509193909250565b6195f033614b4c565b6195f957600080fd5b806013601981111561960e5761960d61bd89565b5b600b6000838152602001908152602001600020602b0160009054906101000a900460ff1660198111156196445761964361bd89565b5b1461964e57600080fd5b33600b600084815260200190815260200160002060000160006101000a81548173ffffffffffffffffffffffffffffffffffffffff021916908373ffffffffffffffffffffffffffffffffffffffff16021790555033600b600084815260200190815260200160002060240160006101000a81548173ffffffffffffffffffffffffffffffffffffffff021916908373ffffffffffffffffffffffffffffffffffffffff1602179055506014600b6000848152602001908152602001600020602b0160006101000a81548160ff021916908360198111156197325761973161bd89565b5b02179055507f3874b7b1f05f41f05649193134ca5a46a483340fb2345d76d6bc0879322bb1db82604051619766919061bae0565b60405180910390a15050565b61977b336155b9565b61978457600080fd5b81601060198111156197995761979861bd89565b5b600b6000838152602001908152602001600020602b0160009054906101000a900460ff1660198111156197cf576197ce61bd89565b5b146197d957600080fd5b600b600084815260200190815260200160002060000160009054906101000a900473ffffffffffffffffffffffffffffffffffffffff168073ffffffffffffffffffffffffffffffffffffffff163373ffffffffffffffffffffffffffffffffffffffff161461984857600080fd5b6011600b6000868152602001908152602001600020602b0160006101000a81548160ff021916908360198111156198825761988161bd89565b5b021790555042600b60008681526020019081526020016000206022018190555082600b600086815260200190815260200160002060210190805190602001906198cc92919061b1ed565b5043600c6000868152602001908152602001600020600301819055507f323ef6697998935f1e0cbfa1e699243a8fa2d97ba49d0c0ff56e729e8165bb0684604051619917919061bae0565b60405180910390a150505050565b61992e33616939565b61993757600080fd5b816000601981111561994c5761994b61bd89565b5b600b6000838152602001908152602001600020602b0160009054906101000a900460ff1660198111156199825761998161bd89565b5b1461998c57600080fd5b600b600084815260200190815260200160002060000160009054906101000a900473ffffffffffffffffffffffffffffffffffffffff168073ffffffffffffffffffffffffffffffffffffffff163373ffffffffffffffffffffffffffffffffffffffff16146199fb57600080fd5b6001600b6000868152602001908152602001600020602b0160006101000a81548160ff02191690836019811115619a3557619a3461bd89565b5b021790555082600b60008681526020019081526020016000206006019080519060200190619a6492919061b1ed565b5042600b6000868152602001908152602001600020600a01819055507f749c1faf048fc07c9fd93e5f88c7a1fcb337b593061aab5c05b06885f6a77ccf84604051619aaf919061bae0565b60405180910390a150505050565b600060608060608060606000806000600b60008b8152602001908152602001600020604051806105800160405290816000820160009054906101000a900473ffffffffffffffffffffffffffffffffffffffff1673ffffffffffffffffffffffffffffffffffffffff1673ffffffffffffffffffffffffffffffffffffffff1681526020016001820154815260200160028201548152602001600382015481526020016004820160009054906101000a900473ffffffffffffffffffffffffffffffffffffffff1673ffffffffffffffffffffffffffffffffffffffff1673ffffffffffffffffffffffffffffffffffffffff168152602001600582018054619bc59061bcae565b80601f0160208091040260200160405190810160405280929190818152602001828054619bf19061bcae565b8015619c3e5780601f10619c1357610100808354040283529160200191619c3e565b820191906000526020600020905b815481529060010190602001808311619c2157829003601f168201915b50505050508152602001600682018054619c579061bcae565b80601f0160208091040260200160405190810160405280929190818152602001828054619c839061bcae565b8015619cd05780601f10619ca557610100808354040283529160200191619cd0565b820191906000526020600020905b815481529060010190602001808311619cb357829003601f168201915b50505050508152602001600782018054619ce99061bcae565b80601f0160208091040260200160405190810160405280929190818152602001828054619d159061bcae565b8015619d625780601f10619d3757610100808354040283529160200191619d62565b820191906000526020600020905b815481529060010190602001808311619d4557829003601f168201915b50505050508152602001600882018054619d7b9061bcae565b80601f0160208091040260200160405190810160405280929190818152602001828054619da79061bcae565b8015619df45780601f10619dc957610100808354040283529160200191619df4565b820191906000526020600020905b815481529060010190602001808311619dd757829003601f168201915b5050505050815260200160098201548152602001600a8201548152602001600b820160009054906101000a900473ffffffffffffffffffffffffffffffffffffffff1673ffffffffffffffffffffffffffffffffffffffff1673ffffffffffffffffffffffffffffffffffffffff168152602001600c82018054619e779061bcae565b80601f0160208091040260200160405190810160405280929190818152602001828054619ea39061bcae565b8015619ef05780601f10619ec557610100808354040283529160200191619ef0565b820191906000526020600020905b815481529060010190602001808311619ed357829003601f168201915b50505050508152602001600d82018054619f099061bcae565b80601f0160208091040260200160405190810160405280929190818152602001828054619f359061bcae565b8015619f825780601f10619f5757610100808354040283529160200191619f82565b820191906000526020600020905b815481529060010190602001808311619f6557829003601f168201915b50505050508152602001600e82018054619f9b9061bcae565b80601f0160208091040260200160405190810160405280929190818152602001828054619fc79061bcae565b801561a0145780601f10619fe95761010080835404028352916020019161a014565b820191906000526020600020905b815481529060010190602001808311619ff757829003601f168201915b50505050508152602001600f8201805461a02d9061bcae565b80601f016020809104026020016040519081016040528092919081815260200182805461a0599061bcae565b801561a0a65780601f1061a07b5761010080835404028352916020019161a0a6565b820191906000526020600020905b81548152906001019060200180831161a08957829003601f168201915b5050505050815260200160108201548152602001601182015481526020016012820160009054906101000a900473ffffffffffffffffffffffffffffffffffffffff1673ffffffffffffffffffffffffffffffffffffffff1673ffffffffffffffffffffffffffffffffffffffff16815260200160138201805461a1299061bcae565b80601f016020809104026020016040519081016040528092919081815260200182805461a1559061bcae565b801561a1a25780601f1061a1775761010080835404028352916020019161a1a2565b820191906000526020600020905b81548152906001019060200180831161a18557829003601f168201915b5050505050815260200160148201805461a1bb9061bcae565b80601f016020809104026020016040519081016040528092919081815260200182805461a1e79061bcae565b801561a2345780601f1061a2095761010080835404028352916020019161a234565b820191906000526020600020905b81548152906001019060200180831161a21757829003601f168201915b5050505050815260200160158201548152602001601682015481526020016017820160009054906101000a900473ffffffffffffffffffffffffffffffffffffffff1673ffffffffffffffffffffffffffffffffffffffff1673ffffffffffffffffffffffffffffffffffffffff16815260200160188201805461a2b79061bcae565b80601f016020809104026020016040519081016040528092919081815260200182805461a2e39061bcae565b801561a3305780601f1061a3055761010080835404028352916020019161a330565b820191906000526020600020905b81548152906001019060200180831161a31357829003601f168201915b5050505050815260200160198201805461a3499061bcae565b80601f016020809104026020016040519081016040528092919081815260200182805461a3759061bcae565b801561a3c25780601f1061a3975761010080835404028352916020019161a3c2565b820191906000526020600020905b81548152906001019060200180831161a3a557829003601f168201915b50505050508152602001601a8201805461a3db9061bcae565b80601f016020809104026020016040519081016040528092919081815260200182805461a4079061bcae565b801561a4545780601f1061a4295761010080835404028352916020019161a454565b820191906000526020600020905b81548152906001019060200180831161a43757829003601f168201915b50505050508152602001601b8201805461a46d9061bcae565b80601f016020809104026020016040519081016040528092919081815260200182805461a4999061bcae565b801561a4e65780601f1061a4bb5761010080835404028352916020019161a4e6565b820191906000526020600020905b81548152906001019060200180831161a4c957829003601f168201915b50505050508152602001601c8201805461a4ff9061bcae565b80601f016020809104026020016040519081016040528092919081815260200182805461a52b9061bcae565b801561a5785780601f1061a54d5761010080835404028352916020019161a578565b820191906000526020600020905b81548152906001019060200180831161a55b57829003601f168201915b50505050508152602001601d8201548152602001601e8201548152602001601f820160009054906101000a900473ffffffffffffffffffffffffffffffffffffffff1673ffffffffffffffffffffffffffffffffffffffff1673ffffffffffffffffffffffffffffffffffffffff16815260200160208201805461a5fb9061bcae565b80601f016020809104026020016040519081016040528092919081815260200182805461a6279061bcae565b801561a6745780601f1061a6495761010080835404028352916020019161a674565b820191906000526020600020905b81548152906001019060200180831161a65757829003601f168201915b5050505050815260200160218201805461a68d9061bcae565b80601f016020809104026020016040519081016040528092919081815260200182805461a6b99061bcae565b801561a7065780601f1061a6db5761010080835404028352916020019161a706565b820191906000526020600020905b81548152906001019060200180831161a6e957829003601f168201915b5050505050815260200160228201548152602001602382015481526020016024820160009054906101000a900473ffffffffffffffffffffffffffffffffffffffff1673ffffffffffffffffffffffffffffffffffffffff1673ffffffffffffffffffffffffffffffffffffffff16815260200160258201805461a7899061bcae565b80601f016020809104026020016040519081016040528092919081815260200182805461a7b59061bcae565b801561a8025780601f1061a7d75761010080835404028352916020019161a802565b820191906000526020600020905b81548152906001019060200180831161a7e557829003601f168201915b5050505050815260200160268201805461a81b9061bcae565b80601f016020809104026020016040519081016040528092919081815260200182805461a8479061bcae565b801561a8945780601f1061a8695761010080835404028352916020019161a894565b820191906000526020600020905b81548152906001019060200180831161a87757829003601f168201915b50505050508152602001602782015481526020016028820160009054906101000a900473ffffffffffffffffffffffffffffffffffffffff1673ffffffffffffffffffffffffffffffffffffffff1673ffffffffffffffffffffffffffffffffffffffff16815260200160298201805461a90d9061bcae565b80601f016020809104026020016040519081016040528092919081815260200182805461a9399061bcae565b801561a9865780601f1061a95b5761010080835404028352916020019161a986565b820191906000526020600020905b81548152906001019060200180831161a96957829003601f168201915b50505050508152602001602a8201548152602001602b820160009054906101000a900460ff16601981111561a9be5761a9bd61bd89565b5b601981111561a9d05761a9cf61bd89565b5b815250509050806102e00151816103000151826103200151836103400151846103600151856103800151866103a00151876103c001519850985098509850985098509850985050919395975091939597565b600073ffffffffffffffffffffffffffffffffffffffff168173ffffffffffffffffffffffffffffffffffffffff16141561aa5c57600080fd5b61aa66828261ab28565b1561aa7057600080fd5b60018260000160008373ffffffffffffffffffffffffffffffffffffffff1673ffffffffffffffffffffffffffffffffffffffff16815260200190815260200160002060006101000a81548160ff0219169083151502179055505050565b61aae281600761aa2290919063ffffffff16565b8073ffffffffffffffffffffffffffffffffffffffff167f28b26e7a3d20aedbc5f8f2ebf7da671c0491723a2b78f47a097b0e46dee0714260405160405180910390a250565b60008073ffffffffffffffffffffffffffffffffffffffff168273ffffffffffffffffffffffffffffffffffffffff16141561ab6357600080fd5b8260000160008373ffffffffffffffffffffffffffffffffffffffff1673ffffffffffffffffffffffffffffffffffffffff16815260200190815260200160002060009054906101000a900460ff16905092915050565b61abce81600461aa2290919063ffffffff16565b8073ffffffffffffffffffffffffffffffffffffffff167ea0477dded24b6f3ca0efb56770e84d7af0117bde8073e93a34e2f0b67f629260405160405180910390a250565b61ac2781600261b14290919063ffffffff16565b8073ffffffffffffffffffffffffffffffffffffffff167f667f5da192ef185267b681a3ea60c6a496a92711141d3e9cd25b4be0048f30ff60405160405180910390a250565b61ac8181600361b14290919063ffffffff16565b8073ffffffffffffffffffffffffffffffffffffffff167f71c0ec84b3f18f4b5ab128b9b8ffdebbe0ccf91b486a336a5ce99bf62842ddda60405160405180910390a250565b61acdb81600761b14290919063ffffffff16565b8073ffffffffffffffffffffffffffffffffffffffff167fe3f5ed5f263f1f01764a96edfc7d025f511ec5f7d180e8816908b78bcf74f09860405160405180910390a250565b61ad3581600561b14290919063ffffffff16565b8073ffffffffffffffffffffffffffffffffffffffff167f126174f6cf49c81cdb4a9214c6b8f037bef55b4ec31e4fc776cea2a1c8a88d5960405160405180910390a250565b61ad8f81600561aa2290919063ffffffff16565b8073ffffffffffffffffffffffffffffffffffffffff167fddbf200aa634dc3fb81cfd68583dd1040d1c751d335e1d86b631bde3e977fea860405160405180910390a250565b61ade981600261aa2290919063ffffffff16565b8073ffffffffffffffffffffffffffffffffffffffff167f4c8efb2f42d55d7d831e421921a3b89a7806bb65fdc7c5ccc226f2706660318960405160405180910390a250565b61ae4381600161aa2290919063ffffffff16565b8073ffffffffffffffffffffffffffffffffffffffff167f2e0ded4123377a3c2bc9a26f1717655a129e2f20752924d42e730ec89c83dbd060405160405180910390a250565b61ae9d81600161b14290919063ffffffff16565b8073ffffffffffffffffffffffffffffffffffffffff167fa5e0f060af304ab17dd418c7927e3da3ae7868189bf387aee09ab179ccc572f260405160405180910390a250565b61aef781600661aa2290919063ffffffff16565b8073ffffffffffffffffffffffffffffffffffffffff167f71ae26cad02663e3d92efd6ec56031a80d74a20c0ab4183faa8bf262261c9baa60405160405180910390a250565b61af5181600361aa2290919063ffffffff16565b8073ffffffffffffffffffffffffffffffffffffffff167f4d9645f2965973330140385c3b546ad4c04b7ee2ae3abb69562f5929d6b8320b60405160405180910390a250565b61afab81600661b14290919063ffffffff16565b8073ffffffffffffffffffffffffffffffffffffffff167fdb7176e79cffef81cb01767dd0447a0b24bb72ca9778d4b245581086b2a7e6db60405160405180910390a250565b61b00581600461b14290919063ffffffff16565b8073ffffffffffffffffffffffffffffffffffffffff167f83d8cce936a4bacce731675cb6d6de235957309cc48eb6a36aa7ae1811eb9fab60405160405180910390a250565b600073ffffffffffffffffffffffffffffffffffffffff168173ffffffffffffffffffffffffffffffffffffffff16141561b08557600080fd5b8073ffffffffffffffffffffffffffffffffffffffff1660008054906101000a900473ffffffffffffffffffffffffffffffffffffffff1673ffffffffffffffffffffffffffffffffffffffff167f5c486528ec3e3f0ea91181cff8116f02bfa350e03b8b6f12e00765adbb5af85c60405160405180910390a3806000806101000a81548173ffffffffffffffffffffffffffffffffffffffff021916908373ffffffffffffffffffffffffffffffffffffffff16021790555050565b600073ffffffffffffffffffffffffffffffffffffffff168173ffffffffffffffffffffffffffffffffffffffff16141561b17c57600080fd5b61b186828261ab28565b61b18f57600080fd5b60008260000160008373ffffffffffffffffffffffffffffffffffffffff1673ffffffffffffffffffffffffffffffffffffffff16815260200190815260200160002060006101000a81548160ff0219169083151502179055505050565b82805461b1f99061bcae565b90600052602060002090601f01602090048101928261b21b576000855561b262565b82601f1061b23457805160ff191683800117855561b262565b8280016001018555821561b262579182015b8281111561b26157825182559160200191906001019061b246565b5b50905061b26f919061b4ac565b5090565b604051806105800160405280600073ffffffffffffffffffffffffffffffffffffffff168152602001600081526020016000815260200160008152602001600073ffffffffffffffffffffffffffffffffffffffff168152602001606081526020016060815260200160608152602001606081526020016000815260200160008152602001600073ffffffffffffffffffffffffffffffffffffffff168152602001606081526020016060815260200160608152602001606081526020016000815260200160008152602001600073ffffffffffffffffffffffffffffffffffffffff16815260200160608152602001606081526020016000815260200160008152602001600073ffffffffffffffffffffffffffffffffffffffff16815260200160608152602001606081526020016060815260200160608152602001606081526020016000815260200160008152602001600073ffffffffffffffffffffffffffffffffffffffff16815260200160608152602001606081526020016000815260200160008152602001600073ffffffffffffffffffffffffffffffffffffffff168152602001606081526020016060815260200160008152602001600073ffffffffffffffffffffffffffffffffffffffff16815260200160608152602001600081526020016000601981111561b4705761b46f61bd89565b5b81525090565b6040518060c001604052806000815260200160008152602001600081526020016000815260200160008152602001600081525090565b5b8082111561b4c557600081600090555060010161b4ad565b5090565b600061b4dc61b4d78461bb81565b61bb5c565b90508281526020810184848401111561b4f85761b4f761be1b565b5b61b50384828561bc6c565b509392505050565b60008135905061b51a8161be3b565b92915050565b600082601f83011261b5355761b53461be16565b5b813561b54584826020860161b4c9565b91505092915050565b60008135905061b55d8161be52565b92915050565b60006020828403121561b5795761b57861be25565b5b600061b5878482850161b50b565b91505092915050565b60006020828403121561b5a65761b5a561be25565b5b600061b5b48482850161b54e565b91505092915050565b6000806040838503121561b5d45761b5d361be25565b5b600061b5e28582860161b54e565b925050602083013567ffffffffffffffff81111561b6035761b60261be20565b5b61b60f8582860161b520565b9150509250929050565b60008060006060848603121561b6325761b63161be25565b5b600061b6408682870161b54e565b935050602084013567ffffffffffffffff81111561b6615761b66061be20565b5b61b66d8682870161b520565b925050604084013567ffffffffffffffff81111561b68e5761b68d61be20565b5b61b69a8682870161b520565b9150509250925092565b6000806000806080858703121561b6be5761b6bd61be25565b5b600061b6cc8782880161b54e565b945050602085013567ffffffffffffffff81111561b6ed5761b6ec61be20565b5b61b6f98782880161b520565b935050604085013567ffffffffffffffff81111561b71a5761b71961be20565b5b61b7268782880161b520565b925050606085013567ffffffffffffffff81111561b7475761b74661be20565b5b61b7538782880161b520565b91505092959194509250565b61b7688161bc24565b82525050565b61b7778161bc36565b82525050565b600061b7888261bbb2565b61b792818561bbbd565b935061b7a281856020860161bc7b565b61b7ab8161be2a565b840191505092915050565b61b7bf8161bc62565b82525050565b600060208201905061b7da600083018461b75f565b92915050565b60006101008201905061b7f6600083018b61b75f565b818103602083015261b808818a61b77d565b9050818103604083015261b81c818961b77d565b9050818103606083015261b830818861b77d565b9050818103608083015261b844818761b77d565b905081810360a083015261b858818661b77d565b905061b86760c083018561b7b6565b61b87460e083018461b7b6565b9998505050505050505050565b600060e08201905061b896600083018a61b75f565b818103602083015261b8a8818961b77d565b9050818103604083015261b8bc818861b77d565b9050818103606083015261b8d0818761b77d565b9050818103608083015261b8e4818661b77d565b905061b8f360a083018561b7b6565b61b90060c083018461b7b6565b98975050505050505050565b600060808201905061b921600083018761b75f565b818103602083015261b933818661b77d565b9050818103604083015261b947818561b77d565b905061b956606083018461b7b6565b95945050505050565b600060a08201905061b974600083018861b75f565b818103602083015261b986818761b77d565b9050818103604083015261b99a818661b77d565b905061b9a9606083018561b7b6565b61b9b6608083018461b7b6565b9695505050505050565b600060608201905061b9d5600083018661b75f565b818103602083015261b9e7818561b77d565b905061b9f6604083018461b7b6565b949350505050565b60006101608201905061ba14600083018e61b75f565b61ba21602083018d61b7b6565b61ba2e604083018c61b7b6565b61ba3b606083018b61b7b6565b61ba48608083018a61b75f565b81810360a083015261ba5a818961b77d565b905081810360c083015261ba6e818861b77d565b905081810360e083015261ba82818761b77d565b905081810361010083015261ba97818661b77d565b905061baa761012083018561b7b6565b61bab561014083018461b7b6565b9c9b505050505050505050505050565b600060208201905061bada600083018461b76e565b92915050565b600060208201905061baf5600083018461b7b6565b92915050565b600060c08201905061bb10600083018961b7b6565b61bb1d602083018861b7b6565b61bb2a604083018761b7b6565b61bb37606083018661b7b6565b61bb44608083018561b7b6565b61bb5160a083018461b7b6565b979650505050505050565b600061bb6661bb77565b905061bb72828261bce0565b919050565b6000604051905090565b600067ffffffffffffffff82111561bb9c5761bb9b61bde7565b5b61bba58261be2a565b9050602081019050919050565b600081519050919050565b600082825260208201905092915050565b600061bbd98261bc62565b915061bbe48361bc62565b9250827fffffffffffffffffffffffffffffffffffffffffffffffffffffffffffffffff0382111561bc195761bc1861bd5a565b5b828201905092915050565b600061bc2f8261bc42565b9050919050565b60008115159050919050565b600073ffffffffffffffffffffffffffffffffffffffff82169050919050565b6000819050919050565b82818337600083830152505050565b60005b8381101561bc9957808201518184015260208101905061bc7e565b8381111561bca8576000848401525b50505050565b6000600282049050600182168061bcc657607f821691505b6020821081141561bcda5761bcd961bdb8565b5b50919050565b61bce98261be2a565b810181811067ffffffffffffffff8211171561bd085761bd0761bde7565b5b80604052505050565b600061bd1c8261bc62565b91507fffffffffffffffffffffffffffffffffffffffffffffffffffffffffffffffff82141561bd4f5761bd4e61bd5a565b5b600182019050919050565b7f4e487b7100000000000000000000000000000000000000000000000000000000600052601160045260246000fd5b7f4e487b7100000000000000000000000000000000000000000000000000000000600052602160045260246000fd5b7f4e487b7100000000000000000000000000000000000000000000000000000000600052602260045260246000fd5b7f4e487b7100000000000000000000000000000000000000000000000000000000600052604160045260246000fd5b600080fd5b600080fd5b600080fd5b600080fd5b6000601f19601f8301169050919050565b61be448161bc24565b811461be4f57600080fd5b50565b61be5b8161bc62565b811461be6657600080fd5b5056fea26469706673582212204a4c3904aa5847faa693e8a6758a2940aaf8e310b25ddd70434f1dda0d61ad8764736f6c63430008070033",
  "immutableReferences": {},
  "source": "// SPDX-License-Identifier: MIT\r\npragma solidity >=0.4.22 <0.9.0;\r\n\r\nimport '../WheatCore/Ownable.sol';\r\nimport '../WheatAccessControl/FarmerRole.sol';\r\nimport '../WheatAccessControl/SiloRole.sol';\r\nimport '../WheatAccessControl/TransporterRole.sol';\r\nimport '../WheatAccessControl/MillRole.sol';\r\nimport '../WheatAccessControl/DistributorRole.sol';\r\nimport '../WheatAccessControl/RetailerRole.sol';\r\nimport '../WheatAccessControl/ConsumerRole.sol';\r\n\r\n// Define a contract 'Supplychain'\r\ncontract SupplyChain is \r\n  Ownable,\r\n  FarmerRole,\r\n  SiloRole,\r\n  TransporterRole,\r\n  MillRole,\r\n  DistributorRole,\r\n  RetailerRole,\r\n  ConsumerRole {\r\n\r\n    // Define Owner\r\n\r\n    address owner;\r\n\r\n    // universal product code\r\n\r\n    uint upc;\r\n\r\n    // batch number \r\n\r\n    uint batchID;\r\n\r\n    // map the final product through its upc\r\n\r\n    mapping (uint => Product ) products;\r\n\r\n    // mapping producthistory\r\n\r\n    mapping (uint => Txblocks) productHistory;\r\n\r\n    enum State {\r\n        FarmedByFarmer, //0\r\n        HarvestedByFarmer, //1\r\n        StoredByFarmer, //2\r\n        ForSaleByFarmer,//3\r\n\r\n        BoughtBySilo,//4\r\n        \r\n        InspectedBySilo,//5\r\n        StoredBySilo,//6\r\n        ForSaleBySilo,//7\r\n        \r\n        BoughtByMill,//8\r\n        \r\n        ShipBySilo,//9\r\n        \r\n        ExportByTransporter,//10\r\n        \r\n        RecieveByMill,//11\r\n        ProcessByMill,//12\r\n        PackageByMill,//13\r\n        ForSaleByMill,//14\r\n        \r\n        BoughtByDistributor,//15\r\n        \r\n        ShipByMill,//16\r\n        \r\n        RecieveByDistributor,//17\r\n        StoreByDistributor,//18\r\n        ForSaleByDistributor,//19\r\n        \r\n        BoughtByRetailer,//20\r\n        \r\n        ShipByDistributor,//21\r\n        \r\n        RecieveByRetailer,//22\r\n        StackByRetailer,//23\r\n        ForSaleByRetailer,//24\r\n        \r\n        BoughtByConsumer//25   \r\n    }\r\n\r\n    State constant defaultState = State.FarmedByFarmer;\r\n    \r\n    // defining product attributes\r\n    \r\n    struct Product {\r\n\r\n        address ownerID;\r\n        uint productID;\r\n\r\n        uint upc;\r\n        uint batchID;\r\n        address farmID;\r\n        string farmInfo;\r\n        string harvestDetail;\r\n        string storageInfoFarm;\r\n        string farmChemicals;\r\n        uint256 farmDate;\r\n        uint256 harvestDate;\r\n\r\n        address siloID;\r\n        string siloInfo;\r\n        string certificateOfInspection;\r\n        string processingInfoSilo;\r\n        string storageInfoSilo;\r\n        uint256 arrivalDateSilo;\r\n        uint256 shippingDateSilo;\r\n\r\n        address transporterID;\r\n        string transportInfo;\r\n        string transitDocument;\r\n        uint256 arrivalDateTrans;\r\n        uint256 shippingtDateTrans;\r\n\r\n        address millID;\r\n        string millInfo;\r\n        string processingInfoMill;\r\n        string storageInfoMill;\r\n        string packagingInfo;\r\n        string productDetailMill;\r\n        uint256 arrivalDateMill;\r\n        uint256 shippingDateMill;\r\n\r\n        address distributorID;\r\n        string storageInfoDist;\r\n        string shipmentInfo;\r\n        uint256 arrivalDateDist;\r\n        uint256 shippingDateDist;\r\n\r\n        address retailerID;\r\n        string retailerInfo;\r\n        string stackInfoRet;\r\n        uint256 arrivalDateRet;\r\n\r\n        address consumerID;\r\n        string consumerInfo;\r\n        uint256 purchaseDate;\r\n\r\n        State productState;\r\n\r\n    }\r\n\r\n    //BlockNumber struct\r\n\r\n    struct Txblocks {\r\n\r\n        uint FTS;\r\n        uint STT;\r\n        uint TTM;\r\n        uint MTD;\r\n        uint DTR;\r\n        uint RTC;\r\n        \r\n    }\r\n\r\n// events\r\n    event FarmedByFarmer(uint upc);\r\n    event HarvestedByFarmer(uint upc);\r\n    event StoredByFarmer(uint upc);\r\n    event ForSaleByFarmer(uint upc);\r\n    event BoughtBySilo(uint upc);\r\n    event InspectedBySilo(uint upc);\r\n    event StoredBySilo(uint upc);\r\n    event ForSaleBySilo(uint upc);\r\n    event BoughtByMill(uint upc);\r\n    event ShipBySilo(uint upc);\r\n    event ExportByTransporter(uint upc);\r\n    event RecieveByMill(uint upc);\r\n    event ProcessByMill(uint upc);\r\n    event PackageByMill(uint upc);\r\n    event ForSaleByMill(uint upc);\r\n    event BoughtByDistributor(uint upc);\r\n    event ShipByMill(uint upc);\r\n    event RecieveByDistributor(uint upc);\r\n    event StoreByDistributor(uint upc);\r\n    event ForSaleByDistributor(uint upc);\r\n    event BoughtByRetailer(uint upc);\r\n    event ShipByDistributor(uint upc);\r\n    event RecieveByRetailer(uint upc);\r\n    event StackByRetailer(uint upc);\r\n    event ForSaleByRetailer(uint upc);\r\n    event BoughtByConsumer(uint upc);\r\n\r\n      // Define a modifer that checks to see if msg.sender == owner of the contract\r\n  modifier onlyOwner() override {\r\n    require(msg.sender == owner);\r\n    _;\r\n  }\r\n\r\n  // Define a modifer that verifies the Caller\r\n  modifier verifyCaller (address _address) {\r\n    require(msg.sender == _address);\r\n    _;\r\n  }\r\n  \r\n  //product state modifier\r\n\r\n  modifier farmedByFarmer(uint _upc){\r\n    require(products[_upc].productState == State.FarmedByFarmer);\r\n    _;\r\n}//1\r\n  modifier harvestedByFarmer(uint _upc){\r\n    require(products[_upc].productState == State.HarvestedByFarmer);\r\n    _;\r\n}//2\r\n  modifier storedByFarmer(uint _upc){\r\n    require(products[_upc].productState == State.StoredByFarmer);\r\n    _;\r\n}//3\r\n  modifier forSaleByFarmer(uint _upc){\r\n    require(products[_upc].productState == State.ForSaleByFarmer);\r\n    _;\r\n}//4\r\n  modifier boughtBySilo(uint _upc){\r\n    require(products[_upc].productState == State.BoughtBySilo);\r\n    _;\r\n}//5\r\n  modifier inspectedBySilo(uint _upc){\r\n    require(products[_upc].productState == State.InspectedBySilo);\r\n    _;\r\n}//6\r\n  modifier storedBySilo(uint _upc){\r\n    require(products[_upc].productState == State.StoredBySilo);\r\n    _;\r\n}//7\r\n  modifier forSaleBySilo(uint _upc){\r\n    require(products[_upc].productState == State.ForSaleBySilo);\r\n    _;\r\n}//8\r\n modifier boughtByMill(uint _upc){\r\n    require(products[_upc].productState == State.BoughtByMill);\r\n    _;\r\n}//25\r\n  modifier shipBySilo(uint _upc){\r\n    require(products[_upc].productState == State.ShipBySilo);\r\n    _;\r\n}//9\r\n  modifier exportByTransporter(uint _upc){\r\n    require(products[_upc].productState == State.ExportByTransporter);\r\n    _;\r\n}//10\r\n  modifier recieveByMill(uint _upc){\r\n    require(products[_upc].productState == State.RecieveByMill);\r\n    _;\r\n}//11\r\n  modifier processByMill(uint _upc){\r\n    require(products[_upc].productState == State.ProcessByMill);\r\n    _;\r\n}//12\r\n  modifier packageByMill(uint _upc){\r\n    require(products[_upc].productState == State.PackageByMill);\r\n    _;\r\n}//13\r\n  modifier forSaleByMill(uint _upc){\r\n    require(products[_upc].productState == State.ForSaleByMill);\r\n    _;\r\n}//14\r\n  modifier boughtByDistributor(uint _upc){\r\n    require(products[_upc].productState == State.BoughtByDistributor);\r\n    _;\r\n}//15\r\n  modifier shipByMill(uint _upc){\r\n    require(products[_upc].productState == State.ShipByMill);\r\n    _;\r\n}//16  \r\nmodifier recieveByDistributor(uint _upc){\r\n    require(products[_upc].productState == State.RecieveByDistributor);\r\n    _;\r\n}//17\r\n  modifier storeByDistributor(uint _upc){\r\n    require(products[_upc].productState == State.StoreByDistributor);\r\n    _;\r\n}//18\r\n  modifier forSaleByDistributor(uint _upc){\r\n    require(products[_upc].productState == State.ForSaleByDistributor);\r\n    _;\r\n}//19\r\n  modifier boughtByRetailer(uint _upc){\r\n    require(products[_upc].productState == State.BoughtByRetailer);\r\n    _;\r\n}//26\r\n  modifier shipByDistributor(uint _upc){\r\n    require(products[_upc].productState == State.ShipByDistributor);\r\n    _;\r\n}//20\r\n  modifier recieveByRetailer(uint _upc){\r\n    require(products[_upc].productState == State.RecieveByRetailer);\r\n    _;\r\n}//21\r\n  modifier stackByRetailer(uint _upc){\r\n    require(products[_upc].productState == State.StackByRetailer);\r\n    _;\r\n} //22\r\n modifier forSaleByRetailer(uint _upc){\r\n    require(products[_upc].productState == State.ForSaleByRetailer);\r\n    _;\r\n}//23\r\n  modifier boughtByConsumer(uint _upc){\r\n    require(products[_upc].productState == State.BoughtByConsumer);\r\n    _;\r\n}//24\r\n\r\n// first deployement setup\r\n\r\nconstructor()  {\r\n  owner = msg.sender;\r\n  batchID = 1;\r\n  upc = 1;\r\n}\r\n\r\n// 1st step farm wheat\r\n\r\nfunction farmWheatByFarmer ( uint _upc, string memory _farmInfo, string memory _farmChemicals) public \r\nonlyFarmer() {\r\n\r\naddress siloID;\r\naddress transporterID;\r\naddress millID;\r\naddress distributorID;\r\naddress retailerID;\r\naddress consumerID;\r\n\r\nProduct memory newWheat;\r\n\r\nnewWheat.batchID = batchID;\r\nnewWheat.upc = _upc;\r\nnewWheat.ownerID = msg.sender;\r\nnewWheat.farmID = msg.sender;\r\nnewWheat.farmInfo = _farmInfo;\r\nnewWheat.farmChemicals = _farmChemicals;\r\n\r\nnewWheat.productID = _upc + batchID;\r\nnewWheat.farmDate = block.timestamp;\r\nnewWheat.productState = defaultState;\r\n\r\nnewWheat.siloID = siloID;\r\nnewWheat.transporterID = transporterID;\r\nnewWheat.millID = millID;\r\nnewWheat.distributorID = distributorID;\r\nnewWheat.retailerID =retailerID;\r\nnewWheat.consumerID = consumerID;\r\nproducts[_upc] = newWheat;\r\n\r\nuint placeholder;\r\n\r\nTxblocks memory txBlock;\r\n\r\ntxBlock.FTS = placeholder;\r\ntxBlock.STT = placeholder;\r\ntxBlock.TTM = placeholder;\r\ntxBlock.MTD = placeholder;\r\ntxBlock.DTR = placeholder;\r\ntxBlock.RTC = placeholder;\r\n\r\nproductHistory[_upc] = txBlock;\r\n\r\nbatchID++;\r\n\r\nemit FarmedByFarmer(_upc);\r\n\r\n\r\n}\r\n\r\n//2nd step harvest wheat;\r\n\r\nfunction harvestWheatByFarmer (uint _upc, string memory _harvestDetail ) public onlyFarmer() farmedByFarmer(_upc) verifyCaller(products[_upc].ownerID) {\r\n\r\n\r\n  products[_upc].productState = State.HarvestedByFarmer;\r\n  \r\n  products[_upc].harvestDetail = _harvestDetail ;\r\n  products[_upc].harvestDate = block.timestamp ;\r\n\r\n\r\n  emit HarvestedByFarmer(_upc);\r\n}\r\n\r\n//3rd step store the batch\r\nfunction storeWheatByFarmer (uint _upc, string memory _storageInfoFarm) public \r\nonlyFarmer() harvestedByFarmer(_upc) verifyCaller(products[_upc].ownerID) {\r\n\r\n\r\n  products[_upc].productState = State.StoredByFarmer;\r\n  \r\n  products[_upc].storageInfoFarm = _storageInfoFarm ;\r\n\r\n  emit StoredByFarmer(_upc);\r\n  \r\n}\r\n\r\n//4th step sell wheat by farmer\r\n\r\nfunction sellWheatByFarmer ( uint _upc ) public\r\nonlyFarmer() storedByFarmer(_upc) verifyCaller(products[_upc].ownerID) {\r\n\r\n  products[_upc].productState = State.ForSaleByFarmer; \r\n\r\n  emit ForSaleByFarmer(_upc); \r\n\r\n\r\n}\r\n\r\n//5th step purchase item by silo\r\n\r\nfunction buyWheatBySilo ( uint _upc ) public \r\nonlySilo() forSaleByFarmer(_upc)  {\r\n\r\n  \r\n\r\n  products[_upc].ownerID = msg.sender;\r\n  products[_upc].siloID = msg.sender;\r\n\r\n  products[_upc].productState = State.BoughtBySilo;\r\n\r\n  productHistory[_upc].FTS = block.number;\r\n\r\n  emit BoughtBySilo(_upc);\r\n\r\n\r\n}\r\n// 6th step inspect by silo \r\n\r\nfunction inspectWheatBySilo (uint _upc, string memory _siloInfo, string memory _certificateOfInspection, string memory _processingInfoSilo ) public\r\nonlySilo() boughtBySilo(_upc) verifyCaller(products[_upc].ownerID) {\r\n  \r\n  products[_upc].arrivalDateSilo = block.timestamp;\r\n  products[_upc].siloInfo = _siloInfo;\r\n  products[_upc].certificateOfInspection = _certificateOfInspection;\r\n  products[_upc].processingInfoSilo = _processingInfoSilo;\r\n  \r\n  products[_upc].productState = State.InspectedBySilo; \r\n\r\n  emit InspectedBySilo(_upc);\r\n\r\n}\r\n\r\n//7th step store grain by silo\r\n\r\nfunction storeGrainBySilo ( uint _upc, string memory _storageInfoBySilo) public \r\nonlySilo() inspectedBySilo(_upc) verifyCaller(products[_upc].ownerID) {\r\n\r\n  products[_upc].storageInfoSilo =_storageInfoBySilo;\r\n  \r\n  products[_upc].productState = State.StoredBySilo; \r\n  \r\n  emit StoredBySilo(_upc);\r\n\r\n}\r\n\r\n\r\n//8th step sell grain by silo\r\n\r\nfunction sellGrainBySilo (uint _upc ) public \r\nonlySilo() storedBySilo(_upc) verifyCaller(products[_upc].ownerID)  {\r\n\r\n  products[_upc].productState = State.ForSaleBySilo;\r\n\r\n  emit ForSaleBySilo(_upc);\r\n\r\n}\r\n\r\n// 9th step buy by Mill\r\n\r\nfunction buyGrainByMill ( uint _upc ) public\r\nonlyMill() forSaleBySilo(_upc) {\r\n\r\n  products[_upc].ownerID = msg.sender;\r\n  products[_upc].millID = msg.sender;\r\n  \r\n  \r\n  products[_upc].productState = State.BoughtByMill;\r\n\r\n  emit BoughtByMill(_upc);\r\n\r\n}\r\n\r\n//10th step ship the grains to transporter \r\n\r\nfunction shipGrainToTransporter ( uint _upc ) public \r\nonlySilo() boughtByMill(_upc) verifyCaller(products[_upc].siloID) {\r\n\r\n    products[_upc].productState = State.ShipBySilo;\r\n    \r\n    productHistory[_upc].STT = block.number;\r\n    \r\n    products[_upc].shippingDateSilo = block.timestamp;\r\n\r\n    \r\n    emit ShipBySilo(_upc);\r\n\r\n\r\n}\r\n//11th step export grain by transporter\r\n\r\nfunction exportGrainByTrans ( uint _upc, string memory _transportInfo, string memory _transitDocument ) public \r\n\r\nonlyTransporter() shipBySilo(_upc) {\r\n\r\n  products[_upc].transporterID = msg.sender;\r\n  products[_upc].transportInfo = _transportInfo;\r\n  products[_upc].transitDocument = _transitDocument;\r\n\r\n  products[_upc].productState = State.ExportByTransporter;\r\n  products[_upc].shippingtDateTrans = block.timestamp;\r\n\r\n  productHistory[_upc].TTM = block.number;\r\n\r\n  emit ExportByTransporter(_upc);\r\n  \r\n}\r\n\r\n//12th recieve grain by mill\r\n\r\nfunction recieveGrainByMill ( uint _upc, string memory _millInfo ) public \r\nonlyMill() exportByTransporter(_upc) verifyCaller(products[_upc].ownerID){\r\n\r\n  products[_upc].productState = State.RecieveByMill;\r\n\r\n  products[_upc].millInfo = _millInfo;\r\n  products[_upc].arrivalDateMill = block.timestamp;\r\n  \r\n  emit RecieveByMill(_upc);\r\n\r\n}\r\n\r\n//13 processing grain by mill \r\nfunction processGrainByMill ( uint _upc, string memory _processingInfoMill) public \r\nonlyMill() recieveByMill(_upc) verifyCaller(products[_upc].ownerID) {\r\n\r\n    products[_upc].productState = State.ProcessByMill;\r\n\r\n    products[_upc].processingInfoMill = _processingInfoMill;\r\n\r\n    emit ProcessByMill(_upc);\r\n\r\n}\r\n\r\n//14th packaging grains\r\n\r\nfunction packagingGrainByMill ( uint _upc, string memory _packagingInfo, string memory _storageInfoMill, string memory _productDetailMill ) public \r\nonlyMill() processByMill(_upc) verifyCaller(products[_upc].ownerID) {\r\n\r\n  products[_upc].productState = State.PackageByMill;\r\n\r\n  products[_upc].packagingInfo = _packagingInfo ;\r\n  products[_upc].storageInfoMill = _storageInfoMill ;\r\n  products[_upc].productDetailMill = _productDetailMill;\r\n\r\n  emit PackageByMill(_upc);\r\n  \r\n\r\n}\r\n\r\n//15th forsale by mill \r\nfunction sellPackagedGrain (uint _upc ) public \r\nonlyMill() packageByMill(_upc) verifyCaller(products[_upc].ownerID)  {\r\n\r\n  products[_upc].productState = State.ForSaleByMill;\r\n\r\n  emit ForSaleByMill(_upc);\r\n\r\n}\r\n\r\n//16th buy by distributor\r\n\r\nfunction buyPackagedWheatByDistributor ( uint _upc ) public \r\nonlyDistributor() forSaleByMill(_upc)  {\r\n\r\n  \r\n\r\n  products[_upc].ownerID = msg.sender;\r\n  products[_upc].distributorID = msg.sender;\r\n\r\n  products[_upc].productState = State.BoughtByDistributor;\r\n\r\n  \r\n\r\n  emit BoughtByDistributor(_upc);\r\n\r\n\r\n}\r\n\r\n//17th Ship by mill \r\n\r\nfunction shipPackagedWheatByMill ( uint _upc ) public \r\nonlyMill() boughtByDistributor(_upc) verifyCaller(products[_upc].millID){\r\n\r\n  products[_upc].productState = State.ShipByMill;\r\n  \r\n  products[_upc].shippingDateMill = block.timestamp;\r\n\r\n   emit ShipByMill(_upc);\r\n\r\n}\r\n\r\n// 18th recieved by distributor\r\n\r\nfunction recievePackagedGrainByDistributor ( uint _upc, string memory _shipmentInfo )public \r\nonlyDistributor() shipByMill(_upc) verifyCaller(products[_upc].ownerID) {\r\n\r\nproducts[_upc].productState = State.RecieveByDistributor ;\r\nproducts[_upc].arrivalDateDist = block.timestamp;\r\n\r\nproducts[_upc].shipmentInfo = _shipmentInfo ;\r\nproductHistory[_upc].MTD = block.number;\r\n\r\nemit RecieveByDistributor(_upc);\r\n\r\n\r\n}\r\n\r\n//19th store by distributor\r\n\r\nfunction storePackagedGrainByDistributor ( uint _upc , string memory _storageInfoDist) public onlyDistributor() recieveByDistributor(_upc) verifyCaller(products[_upc].ownerID) {\r\n  products[_upc].productState = State.StoreByDistributor ;\r\n  products[_upc].storageInfoDist = _storageInfoDist;\r\n\r\n  emit StoreByDistributor(_upc);\r\n\r\n}\r\n\r\n//20th for sale by distributor \r\n\r\nfunction sellPackagedGrainByDistributor( uint _upc) public \r\nonlyDistributor() storeByDistributor(_upc) verifyCaller(products[_upc].ownerID) {\r\n\r\n  products[_upc].productState = State.ForSaleByDistributor ;\r\n\r\n  emit ForSaleByDistributor(_upc);\r\n\r\n}\r\n\r\n//21th buy by retailer\r\n\r\nfunction buyPackagedGrainByDistributor( uint _upc  ) public \r\nonlyRetailer() forSaleByDistributor(_upc) {\r\n\r\n  products[_upc].ownerID = msg.sender;\r\n  products[_upc].retailerID = msg.sender;\r\n\r\n  products[_upc].productState = State.BoughtByRetailer;\r\n\r\n  emit BoughtByRetailer(_upc);\r\n\r\n}\r\n\r\n//22th ship by distributor\r\n\r\nfunction shipPackagedGrainByDistributor ( uint _upc ) public \r\nonlyDistributor() boughtByRetailer(_upc) verifyCaller(products[_upc].distributorID){\r\n\r\n  products[_upc].productState = State.ShipByDistributor;\r\n  \r\n  products[_upc].shippingDateDist = block.timestamp;\r\n\r\n   emit ShipByDistributor(_upc);\r\n\r\n}\r\n\r\n//23th recieve products by retailer \r\n\r\nfunction recieveFinalProductByRetailer ( uint _upc, string memory _retailerInfo) public \r\nonlyRetailer() shipByDistributor(_upc) verifyCaller(products[_upc].ownerID)  {\r\n\r\n \r\n\r\n  products[_upc].productState = State.RecieveByRetailer ;\r\n  products[_upc].arrivalDateRet = block.timestamp;\r\n\r\n  products[_upc].retailerInfo = _retailerInfo ;\r\n  productHistory[_upc].DTR = block.number;\r\n\r\n  emit RecieveByRetailer(_upc);\r\n\r\n\r\n}\r\n\r\n//24th stack products on shelves\r\n\r\nfunction stackFinalProductOnShelvesByRetailer ( uint _upc, string memory _stackInfoRet) public \r\nonlyRetailer() recieveByRetailer(_upc) verifyCaller(products[_upc].ownerID) {\r\n \r\n \r\n  products[_upc].productState = State.StackByRetailer ;\r\n  products[_upc].stackInfoRet = _stackInfoRet;\r\n\r\n  emit StackByRetailer(_upc);\r\n\r\n}\r\n\r\n//25th forsale by retailer\r\n\r\nfunction finalProductForSaleByRetailer (uint _upc ) public \r\nonlyRetailer() stackByRetailer(_upc) verifyCaller(products[_upc].ownerID) {\r\n\r\n  products[_upc].productState = State.ForSaleByRetailer ;\r\n\r\n  emit ForSaleByRetailer(_upc);\r\n\r\n\r\n}\r\n\r\n//26th consumer buys final product \r\n\r\nfunction buyFinalProductByConsumer( uint _upc, string memory _consumerInfo ) public onlyConsumer() forSaleByRetailer(_upc)  {\r\n\r\n  products[_upc].ownerID = msg.sender;\r\n  products[_upc].consumerID = msg.sender;\r\n\r\n  products[_upc].purchaseDate = block.timestamp;\r\n  products[_upc].consumerInfo = _consumerInfo ;\r\n\r\n  products[_upc].productState = State.BoughtByConsumer;\r\n  productHistory[_upc].RTC = block.number;\r\n\r\n  emit BoughtByConsumer(_upc);\r\n\r\n}\r\n\r\nfunction farmData( uint _upc ) public view returns (\r\n        \r\n        address ownerID,\r\n        uint productID,\r\n\r\n        uint productUPC,\r\n        uint productBatchID,\r\n        address farmID,\r\n        string memory farmInfo,\r\n        string memory harvestDetail,\r\n        string memory storageInfoFarm,\r\n        string memory farmChemicals,\r\n        uint256 farmDate,\r\n        uint256 harvestDate) {\r\n          Product memory product = products[_upc];\r\n          return ( \r\n\r\n            product.ownerID,\r\n            product.productID,\r\n            product.upc,\r\n            product.batchID,\r\n            product.farmID,\r\n            product.farmInfo,\r\n            product.harvestDetail,\r\n            product.storageInfoFarm,\r\n            product.farmChemicals,\r\n            product.farmDate,\r\n            product.harvestDate);\r\n        }\r\n\r\n\r\nfunction siloData ( uint _upc ) public view returns (\r\n\r\n        address siloID,\r\n        string memory siloInfo,\r\n        string memory certificateOfInspection,\r\n        string memory processingInfoSilo,\r\n        string memory storageInfoSilo,\r\n        uint256 arrivalDateSilo,\r\n        uint256 shippingDateSilo\r\n        ){\r\n\r\n          Product memory product = products[_upc];\r\n          \r\n          return(\r\n            product.siloID,\r\n            product.siloInfo,\r\n            product.certificateOfInspection,\r\n            product.processingInfoSilo,\r\n            product.storageInfoSilo,\r\n            product.arrivalDateSilo,\r\n            product.shippingDateSilo); }\r\n\r\n\r\n\r\nfunction transporterData ( uint _upc ) public view returns (\r\n        address transporterID,\r\n        string memory transportInfo,\r\n        string memory transitDocument,\r\n        uint256 arrivalDateTrans,\r\n        uint256 shippingtDateTrans\r\n\r\n){\r\n  Product memory product = products[_upc];\r\n   return  (product.transporterID,\r\n            product.transportInfo,\r\n            product.transitDocument,\r\n            product.arrivalDateTrans,\r\n            product.shippingtDateTrans);\r\n            }\r\n\r\n  function millData ( uint _upc ) public view returns (\r\n\r\n        address millID,\r\n        string memory millInfo,\r\n        string memory processingInfoMill,\r\n        string memory storageInfoMill,\r\n        string memory packagingInfo,\r\n        string memory productDetailMill,\r\n        uint256 arrivalDateMill,\r\n        uint256 shippingDateMill\r\n        ){\r\n\r\n          Product memory product = products[_upc];\r\n          \r\n          return(\r\n            product.millID,\r\n            product.millInfo,\r\n            product.processingInfoMill,\r\n            product.storageInfoMill,\r\n            product.packagingInfo,\r\n            product.productDetailMill,\r\n            product.arrivalDateMill,\r\n            product.shippingDateMill); }\r\n\r\n\r\n function distributorData ( uint _upc ) public view returns (\r\n\r\n         address distributorID,\r\n        string memory storageInfoDist,\r\n        string memory shipmentInfo,\r\n        uint256 arrivalDateDist,\r\n        uint256 shippingDateDist\r\n        ){\r\n\r\n          Product memory product = products[_upc];\r\n          \r\n          return(\r\n            product.distributorID,\r\n            product.storageInfoDist,\r\n            product.shipmentInfo,\r\n            product.arrivalDateDist,\r\n            product.shippingDateDist); }\r\n\r\nfunction retailerData ( uint _upc ) public view returns (\r\n\r\n        address retailerID,\r\n        string memory retailerInfo,\r\n        string memory stackInfoRet,\r\n        uint256 arrivalDateRet\r\n        ){\r\n\r\n          Product memory product = products[_upc];\r\n          \r\n          return(\r\n            product.retailerID,\r\n            product.retailerInfo,\r\n            product.stackInfoRet,\r\n            product.arrivalDateRet); }\r\n\r\nfunction consumerData ( uint _upc ) public view returns (\r\n\r\n        address consumerID,\r\n        string memory consumerInfo,\r\n        uint256 purchaseDate\r\n        ){\r\n\r\n          Product memory product = products[_upc];\r\n          \r\n          return(\r\n            product.consumerID,\r\n            product.consumerInfo,\r\n            product.purchaseDate\r\n            ); }\r\n\r\n\r\n\r\n      \r\n  \r\n\r\n\r\n\r\n\r\n\r\n\r\n\r\n\r\n\r\n\r\n\r\n\r\n\r\n\r\n\r\n\r\n\r\n\r\n\r\n\r\n// Product history\r\n  function getProductHistory(uint _upc) public view returns\r\n    (\r\n        uint FTS,\r\n        uint STT,\r\n        uint TTM,\r\n        uint MTD,\r\n        uint DTR,\r\n        uint RTC\r\n    )\r\n    {\r\n      // Assign value to the parameters\r\n      Txblocks memory txblock = productHistory[_upc];\r\n      return\r\n      (\r\n        txblock.FTS,\r\n        txblock.STT,\r\n        txblock.TTM,\r\n        txblock.MTD,\r\n        txblock.DTR,\r\n        txblock.RTC\r\n      );\r\n\r\n    }\r\n\r\n   \r\n\r\n\r\n  \r\n\r\n    \r\n\r\n\r\n\r\n\r\n\r\n\r\n }",
  "sourcePath": "C:\\Users\\ayoub\\prog\\WheatBc\\contracts\\WheatBase\\WheatSupplyChain.sol",
  "compiler": {
    "name": "solc",
    "version": "0.8.7+commit.e28d00a7.Emscripten.clang"
  },
  "schemaVersion": "3.4.3",
  "updatedAt": "2021-09-14T13:23:02.412Z",
  "devdoc": {
    "kind": "dev",
    "methods": {},
    "version": 1
  },
  "userdoc": {
    "kind": "user",
    "methods": {
      "isOwner()": {
        "notice": "Check if the calling address is the owner of the contract"
      },
      "ownerLookup()": {
        "notice": "Look up the address of the owner"
      },
      "renounceOwnership()": {
        "notice": "Define a function to renounce ownerhip"
      },
      "transferOwnership(address)": {
        "notice": "Define a public function to transfer ownership"
      }
    },
    "version": 1
  }
}