{
  "contractName": "TransporterRole",
  "abi": [
    {
      "inputs": [],
      "stateMutability": "nonpayable",
      "type": "constructor"
    },
    {
      "anonymous": false,
      "inputs": [
        {
          "indexed": true,
          "internalType": "address",
          "name": "account",
          "type": "address"
        }
      ],
      "name": "TransporterAdded",
      "type": "event"
    },
    {
      "anonymous": false,
      "inputs": [
        {
          "indexed": true,
          "internalType": "address",
          "name": "account",
          "type": "address"
        }
      ],
      "name": "TransporterRemoved",
      "type": "event"
    },
    {
      "inputs": [
        {
          "internalType": "address",
          "name": "account",
          "type": "address"
        }
      ],
      "name": "isTransporter",
      "outputs": [
        {
          "internalType": "bool",
          "name": "",
          "type": "bool"
        }
      ],
      "stateMutability": "view",
      "type": "function",
      "constant": true
    },
    {
      "inputs": [
        {
          "internalType": "address",
          "name": "account",
          "type": "address"
        }
      ],
      "name": "addTransporter",
      "outputs": [],
      "stateMutability": "nonpayable",
      "type": "function"
    },
    {
      "inputs": [],
      "name": "renounceTransporter",
      "outputs": [],
      "stateMutability": "nonpayable",
      "type": "function"
    }
  ],
  "bytecode": "0x608060405234801561001057600080fd5b506100203361002560201b60201c565b6101c7565b61003d81600061008360201b6100e21790919060201c565b8073ffffffffffffffffffffffffffffffffffffffff167f4d9645f2965973330140385c3b546ad4c04b7ee2ae3abb69562f5929d6b8320b60405160405180910390a250565b600073ffffffffffffffffffffffffffffffffffffffff168173ffffffffffffffffffffffffffffffffffffffff1614156100bd57600080fd5b6100cd828261013560201b60201c565b156100d757600080fd5b60018260000160008373ffffffffffffffffffffffffffffffffffffffff1673ffffffffffffffffffffffffffffffffffffffff16815260200190815260200160002060006101000a81548160ff0219169083151502179055505050565b60008073ffffffffffffffffffffffffffffffffffffffff168273ffffffffffffffffffffffffffffffffffffffff16141561017057600080fd5b8260000160008373ffffffffffffffffffffffffffffffffffffffff1673ffffffffffffffffffffffffffffffffffffffff16815260200190815260200160002060009054906101000a900460ff16905092915050565b61047b806101d66000396000f3fe608060405234801561001057600080fd5b50600436106100415760003560e01c80632b8109d5146100465780632ea17b2714610076578063b702204914610080575b600080fd5b610060600480360381019061005b9190610394565b61009c565b60405161006d91906103d0565b60405180910390f35b61007e6100b9565b005b61009a60048036038101906100959190610394565b6100c4565b005b60006100b282600061018e90919063ffffffff16565b9050919050565b6100c233610220565b565b6100cd3361009c565b6100d657600080fd5b6100df8161027a565b50565b600073ffffffffffffffffffffffffffffffffffffffff168173ffffffffffffffffffffffffffffffffffffffff16141561011c57600080fd5b610126828261018e565b1561013057600080fd5b60018260000160008373ffffffffffffffffffffffffffffffffffffffff1673ffffffffffffffffffffffffffffffffffffffff16815260200190815260200160002060006101000a81548160ff0219169083151502179055505050565b60008073ffffffffffffffffffffffffffffffffffffffff168273ffffffffffffffffffffffffffffffffffffffff1614156101c957600080fd5b8260000160008373ffffffffffffffffffffffffffffffffffffffff1673ffffffffffffffffffffffffffffffffffffffff16815260200190815260200160002060009054906101000a900460ff16905092915050565b6102348160006102d490919063ffffffff16565b8073ffffffffffffffffffffffffffffffffffffffff167f71c0ec84b3f18f4b5ab128b9b8ffdebbe0ccf91b486a336a5ce99bf62842ddda60405160405180910390a250565b61028e8160006100e290919063ffffffff16565b8073ffffffffffffffffffffffffffffffffffffffff167f4d9645f2965973330140385c3b546ad4c04b7ee2ae3abb69562f5929d6b8320b60405160405180910390a250565b600073ffffffffffffffffffffffffffffffffffffffff168173ffffffffffffffffffffffffffffffffffffffff16141561030e57600080fd5b610318828261018e565b61032157600080fd5b60008260000160008373ffffffffffffffffffffffffffffffffffffffff1673ffffffffffffffffffffffffffffffffffffffff16815260200190815260200160002060006101000a81548160ff0219169083151502179055505050565b60008135905061038e8161042e565b92915050565b6000602082840312156103aa576103a9610429565b5b60006103b88482850161037f565b91505092915050565b6103ca816103fd565b82525050565b60006020820190506103e560008301846103c1565b92915050565b60006103f682610409565b9050919050565b60008115159050919050565b600073ffffffffffffffffffffffffffffffffffffffff82169050919050565b600080fd5b610437816103eb565b811461044257600080fd5b5056fea264697066735822122085024c368c944b365b23f812bd00326b95b61328fdb1066add6068a6de4f297364736f6c63430008070033",
  "immutableReferences": {},
  "source": "// SPDX-License-Identifier: MIT\r\npragma solidity >=0.4.22 <0.9.0;\r\n\r\n\r\nimport \"./Roles.sol\";\r\n\r\n// Define a contract 'TransporterRole' to manage this role - add, remove, check\r\ncontract TransporterRole {\r\n  using Roles for Roles.Role;\r\n\r\n  // Define 2 events, one for Adding, and other for Removing\r\n  event TransporterAdded(address indexed account);\r\n  event TransporterRemoved(address indexed account);\r\n\r\n  // Define a struct 'Transporters' by inheriting from 'Roles' library, struct Role\r\n  Roles.Role private Transporters;\r\n\r\n  // In the constructor make the address that deploys this contract the 1st Transporter\r\n  constructor()  {\r\n    _addTransporter(msg.sender);\r\n  }\r\n\r\n  // Define a modifier that checks to see if msg.sender has the appropriate role\r\n  modifier onlyTransporter() {\r\n    require(isTransporter(msg.sender));\r\n    _;\r\n  }\r\n\r\n  // Define a function 'isTransporter' to check this role\r\n  function isTransporter(address account) public view returns (bool) {\r\n    return Transporters.has(account);\r\n  }\r\n\r\n  // Define a function 'addTransporter' that adds this role\r\n  function addTransporter(address account) public onlyTransporter {\r\n    _addTransporter(account);\r\n  }\r\n\r\n  // Define a function 'renounceTransporter' to renounce this role\r\n  function renounceTransporter() public {\r\n    _removeTransporter(msg.sender);\r\n  }\r\n\r\n  // Define an internal function '_addTransporter' to add this role, called by 'addTransporter'\r\n  function _addTransporter(address account) internal {\r\n    Transporters.add(account);\r\n    emit TransporterAdded(account);\r\n  }\r\n\r\n  // Define an internal function '_removeTransporter' to remove this role, called by 'removeTransporter'\r\n  function _removeTransporter(address account) internal {\r\n    Transporters.remove(account);\r\n    emit TransporterRemoved(account);\r\n  }\r\n}",
  "sourcePath": "C:\\Users\\ayoub\\prog\\WheatBc\\contracts\\WheatAccessControl\\TransporterRole.sol",
  "compiler": {
    "name": "solc",
    "version": "0.8.7+commit.e28d00a7.Emscripten.clang"
  },
  "schemaVersion": "3.4.3",
  "updatedAt": "2021-09-14T13:23:12.975Z",
  "networkType": "ethereum",
  "devdoc": {
    "kind": "dev",
    "methods": {},
    "version": 1
  },
  "userdoc": {
    "kind": "user",
    "methods": {},
    "version": 1
  }
}