{
    "contractName": "SupplyChain",
    "abi": [
        {
            "inputs": [],
            "stateMutability": "nonpayable",
            "type": "constructor"
        },
        {
            "anonymous": false,
            "inputs": [
                {
                    "indexed": false,
                    "internalType": "uint256",
                    "name": "upc",
                    "type": "uint256"
                }
            ],
            "name": "BoughtByConsumer",
            "type": "event"
        },
        {
            "anonymous": false,
            "inputs": [
                {
                    "indexed": false,
                    "internalType": "uint256",
                    "name": "upc",
                    "type": "uint256"
                }
            ],
            "name": "BoughtByDistributor",
            "type": "event"
        },
        {
            "anonymous": false,
            "inputs": [
                {
                    "indexed": false,
                    "internalType": "uint256",
                    "name": "upc",
                    "type": "uint256"
                }
            ],
            "name": "BoughtByMill",
            "type": "event"
        },
        {
            "anonymous": false,
            "inputs": [
                {
                    "indexed": false,
                    "internalType": "uint256",
                    "name": "upc",
                    "type": "uint256"
                }
            ],
            "name": "BoughtByRetailer",
            "type": "event"
        },
        {
            "anonymous": false,
            "inputs": [
                {
                    "indexed": false,
                    "internalType": "uint256",
                    "name": "upc",
                    "type": "uint256"
                }
            ],
            "name": "BoughtBySilo",
            "type": "event"
        },
        {
            "anonymous": false,
            "inputs": [
                {
                    "indexed": true,
                    "internalType": "address",
                    "name": "account",
                    "type": "address"
                }
            ],
            "name": "ConsumerAdded",
            "type": "event"
        },
        {
            "anonymous": false,
            "inputs": [
                {
                    "indexed": true,
                    "internalType": "address",
                    "name": "account",
                    "type": "address"
                }
            ],
            "name": "ConsumerRemoved",
            "type": "event"
        },
        {
            "anonymous": false,
            "inputs": [
                {
                    "indexed": true,
                    "internalType": "address",
                    "name": "account",
                    "type": "address"
                }
            ],
            "name": "DistributorAdded",
            "type": "event"
        },
        {
            "anonymous": false,
            "inputs": [
                {
                    "indexed": true,
                    "internalType": "address",
                    "name": "account",
                    "type": "address"
                }
            ],
            "name": "DistributorRemoved",
            "type": "event"
        },
        {
            "anonymous": false,
            "inputs": [
                {
                    "indexed": false,
                    "internalType": "uint256",
                    "name": "upc",
                    "type": "uint256"
                }
            ],
            "name": "ExportByTransporter",
            "type": "event"
        },
        {
            "anonymous": false,
            "inputs": [
                {
                    "indexed": false,
                    "internalType": "uint256",
                    "name": "upc",
                    "type": "uint256"
                }
            ],
            "name": "FarmedByFarmer",
            "type": "event"
        },
        {
            "anonymous": false,
            "inputs": [
                {
                    "indexed": true,
                    "internalType": "address",
                    "name": "account",
                    "type": "address"
                }
            ],
            "name": "FarmerAdded",
            "type": "event"
        },
        {
            "anonymous": false,
            "inputs": [
                {
                    "indexed": true,
                    "internalType": "address",
                    "name": "account",
                    "type": "address"
                }
            ],
            "name": "FarmerRemoved",
            "type": "event"
        },
        {
            "anonymous": false,
            "inputs": [
                {
                    "indexed": false,
                    "internalType": "uint256",
                    "name": "upc",
                    "type": "uint256"
                }
            ],
            "name": "ForSaleByDistributor",
            "type": "event"
        },
        {
            "anonymous": false,
            "inputs": [
                {
                    "indexed": false,
                    "internalType": "uint256",
                    "name": "upc",
                    "type": "uint256"
                }
            ],
            "name": "ForSaleByFarmer",
            "type": "event"
        },
        {
            "anonymous": false,
            "inputs": [
                {
                    "indexed": false,
                    "internalType": "uint256",
                    "name": "upc",
                    "type": "uint256"
                }
            ],
            "name": "ForSaleByMill",
            "type": "event"
        },
        {
            "anonymous": false,
            "inputs": [
                {
                    "indexed": false,
                    "internalType": "uint256",
                    "name": "upc",
                    "type": "uint256"
                }
            ],
            "name": "ForSaleByRetailer",
            "type": "event"
        },
        {
            "anonymous": false,
            "inputs": [
                {
                    "indexed": false,
                    "internalType": "uint256",
                    "name": "upc",
                    "type": "uint256"
                }
            ],
            "name": "ForSaleBySilo",
            "type": "event"
        },
        {
            "anonymous": false,
            "inputs": [
                {
                    "indexed": false,
                    "internalType": "uint256",
                    "name": "upc",
                    "type": "uint256"
                }
            ],
            "name": "HarvestedByFarmer",
            "type": "event"
        },
        {
            "anonymous": false,
            "inputs": [
                {
                    "indexed": false,
                    "internalType": "uint256",
                    "name": "upc",
                    "type": "uint256"
                }
            ],
            "name": "InspectedBySilo",
            "type": "event"
        },
        {
            "anonymous": false,
            "inputs": [
                {
                    "indexed": true,
                    "internalType": "address",
                    "name": "account",
                    "type": "address"
                }
            ],
            "name": "MillAdded",
            "type": "event"
        },
        {
            "anonymous": false,
            "inputs": [
                {
                    "indexed": true,
                    "internalType": "address",
                    "name": "account",
                    "type": "address"
                }
            ],
            "name": "MillRemoved",
            "type": "event"
        },
        {
            "anonymous": false,
            "inputs": [
                {
                    "indexed": false,
                    "internalType": "uint256",
                    "name": "upc",
                    "type": "uint256"
                }
            ],
            "name": "PackageByMill",
            "type": "event"
        },
        {
            "anonymous": false,
            "inputs": [
                {
                    "indexed": false,
                    "internalType": "uint256",
                    "name": "upc",
                    "type": "uint256"
                }
            ],
            "name": "ProcessByMill",
            "type": "event"
        },
        {
            "anonymous": false,
            "inputs": [
                {
                    "indexed": false,
                    "internalType": "uint256",
                    "name": "upc",
                    "type": "uint256"
                }
            ],
            "name": "RecieveByDistributor",
            "type": "event"
        },
        {
            "anonymous": false,
            "inputs": [
                {
                    "indexed": false,
                    "internalType": "uint256",
                    "name": "upc",
                    "type": "uint256"
                }
            ],
            "name": "RecieveByMill",
            "type": "event"
        },
        {
            "anonymous": false,
            "inputs": [
                {
                    "indexed": false,
                    "internalType": "uint256",
                    "name": "upc",
                    "type": "uint256"
                }
            ],
            "name": "RecieveByRetailer",
            "type": "event"
        },
        {
            "anonymous": false,
            "inputs": [
                {
                    "indexed": true,
                    "internalType": "address",
                    "name": "account",
                    "type": "address"
                }
            ],
            "name": "RetailerAdded",
            "type": "event"
        },
        {
            "anonymous": false,
            "inputs": [
                {
                    "indexed": true,
                    "internalType": "address",
                    "name": "account",
                    "type": "address"
                }
            ],
            "name": "RetailerRemoved",
            "type": "event"
        },
        {
            "anonymous": false,
            "inputs": [
                {
                    "indexed": false,
                    "internalType": "uint256",
                    "name": "upc",
                    "type": "uint256"
                }
            ],
            "name": "ShipByDistributor",
            "type": "event"
        },
        {
            "anonymous": false,
            "inputs": [
                {
                    "indexed": false,
                    "internalType": "uint256",
                    "name": "upc",
                    "type": "uint256"
                }
            ],
            "name": "ShipByMill",
            "type": "event"
        },
        {
            "anonymous": false,
            "inputs": [
                {
                    "indexed": false,
                    "internalType": "uint256",
                    "name": "upc",
                    "type": "uint256"
                }
            ],
            "name": "ShipBySilo",
            "type": "event"
        },
        {
            "anonymous": false,
            "inputs": [
                {
                    "indexed": true,
                    "internalType": "address",
                    "name": "account",
                    "type": "address"
                }
            ],
            "name": "SiloAdded",
            "type": "event"
        },
        {
            "anonymous": false,
            "inputs": [
                {
                    "indexed": true,
                    "internalType": "address",
                    "name": "account",
                    "type": "address"
                }
            ],
            "name": "SiloRemoved",
            "type": "event"
        },
        {
            "anonymous": false,
            "inputs": [
                {
                    "indexed": false,
                    "internalType": "uint256",
                    "name": "upc",
                    "type": "uint256"
                }
            ],
            "name": "StackByRetailer",
            "type": "event"
        },
        {
            "anonymous": false,
            "inputs": [
                {
                    "indexed": false,
                    "internalType": "uint256",
                    "name": "upc",
                    "type": "uint256"
                }
            ],
            "name": "StoreByDistributor",
            "type": "event"
        },
        {
            "anonymous": false,
            "inputs": [
                {
                    "indexed": false,
                    "internalType": "uint256",
                    "name": "upc",
                    "type": "uint256"
                }
            ],
            "name": "StoredByFarmer",
            "type": "event"
        },
        {
            "anonymous": false,
            "inputs": [
                {
                    "indexed": false,
                    "internalType": "uint256",
                    "name": "upc",
                    "type": "uint256"
                }
            ],
            "name": "StoredBySilo",
            "type": "event"
        },
        {
            "anonymous": false,
            "inputs": [
                {
                    "indexed": true,
                    "internalType": "address",
                    "name": "oldOwner",
                    "type": "address"
                },
                {
                    "indexed": true,
                    "internalType": "address",
                    "name": "newOwner",
                    "type": "address"
                }
            ],
            "name": "TransferOwnership",
            "type": "event"
        },
        {
            "anonymous": false,
            "inputs": [
                {
                    "indexed": true,
                    "internalType": "address",
                    "name": "account",
                    "type": "address"
                }
            ],
            "name": "TransporterAdded",
            "type": "event"
        },
        {
            "anonymous": false,
            "inputs": [
                {
                    "indexed": true,
                    "internalType": "address",
                    "name": "account",
                    "type": "address"
                }
            ],
            "name": "TransporterRemoved",
            "type": "event"
        },
        {
            "inputs": [
                {
                    "internalType": "address",
                    "name": "account",
                    "type": "address"
                }
            ],
            "name": "addConsumer",
            "outputs": [],
            "stateMutability": "nonpayable",
            "type": "function"
        },
        {
            "inputs": [
                {
                    "internalType": "address",
                    "name": "account",
                    "type": "address"
                }
            ],
            "name": "addDistributor",
            "outputs": [],
            "stateMutability": "nonpayable",
            "type": "function"
        },
        {
            "inputs": [
                {
                    "internalType": "address",
                    "name": "account",
                    "type": "address"
                }
            ],
            "name": "addFarmer",
            "outputs": [],
            "stateMutability": "nonpayable",
            "type": "function"
        },
        {
            "inputs": [
                {
                    "internalType": "address",
                    "name": "account",
                    "type": "address"
                }
            ],
            "name": "addMill",
            "outputs": [],
            "stateMutability": "nonpayable",
            "type": "function"
        },
        {
            "inputs": [
                {
                    "internalType": "address",
                    "name": "account",
                    "type": "address"
                }
            ],
            "name": "addRetailer",
            "outputs": [],
            "stateMutability": "nonpayable",
            "type": "function"
        },
        {
            "inputs": [
                {
                    "internalType": "address",
                    "name": "account",
                    "type": "address"
                }
            ],
            "name": "addSilo",
            "outputs": [],
            "stateMutability": "nonpayable",
            "type": "function"
        },
        {
            "inputs": [
                {
                    "internalType": "address",
                    "name": "account",
                    "type": "address"
                }
            ],
            "name": "addTransporter",
            "outputs": [],
            "stateMutability": "nonpayable",
            "type": "function"
        },
        {
            "inputs": [
                {
                    "internalType": "uint256",
                    "name": "_upc",
                    "type": "uint256"
                }
            ],
            "name": "buyGrainByMill",
            "outputs": [],
            "stateMutability": "nonpayable",
            "type": "function"
        },
        {
            "inputs": [
                {
                    "internalType": "uint256",
                    "name": "_upc",
                    "type": "uint256"
                }
            ],
            "name": "buyPackagedWheatByDistributor",
            "outputs": [],
            "stateMutability": "nonpayable",
            "type": "function"
        },
        {
            "inputs": [
                {
                    "internalType": "uint256",
                    "name": "_upc",
                    "type": "uint256"
                }
            ],
            "name": "buyWheatBySilo",
            "outputs": [],
            "stateMutability": "nonpayable",
            "type": "function"
        },
        {
            "inputs": [
                {
                    "internalType": "uint256",
                    "name": "_upc",
                    "type": "uint256"
                },
                {
                    "internalType": "string",
                    "name": "_transportInfo",
                    "type": "string"
                },
                {
                    "internalType": "string",
                    "name": "_transitDocument",
                    "type": "string"
                }
            ],
            "name": "exportGrainByTrans",
            "outputs": [],
            "stateMutability": "nonpayable",
            "type": "function"
        },
        {
            "inputs": [
                {
                    "internalType": "uint256",
                    "name": "_upc",
                    "type": "uint256"
                },
                {
                    "internalType": "string",
                    "name": "_farmInfo",
                    "type": "string"
                },
                {
                    "internalType": "string",
                    "name": "_farmChemicals",
                    "type": "string"
                }
            ],
            "name": "farmWheatByFarmer",
            "outputs": [],
            "stateMutability": "nonpayable",
            "type": "function"
        },
        {
            "inputs": [
                {
                    "internalType": "uint256",
                    "name": "_upc",
                    "type": "uint256"
                },
                {
                    "internalType": "string",
                    "name": "_harvestDetail",
                    "type": "string"
                }
            ],
            "name": "harvestWheatByFarmer",
            "outputs": [],
            "stateMutability": "nonpayable",
            "type": "function"
        },
        {
            "inputs": [
                {
                    "internalType": "uint256",
                    "name": "_upc",
                    "type": "uint256"
                },
                {
                    "internalType": "string",
                    "name": "_siloInfo",
                    "type": "string"
                },
                {
                    "internalType": "string",
                    "name": "_certificateOfInspection",
                    "type": "string"
                },
                {
                    "internalType": "string",
                    "name": "_processingInfoSilo",
                    "type": "string"
                }
            ],
            "name": "inspectWheatBySilo",
            "outputs": [],
            "stateMutability": "nonpayable",
            "type": "function"
        },
        {
            "inputs": [
                {
                    "internalType": "address",
                    "name": "account",
                    "type": "address"
                }
            ],
            "name": "isConsumer",
            "outputs": [
                {
                    "internalType": "bool",
                    "name": "",
                    "type": "bool"
                }
            ],
            "stateMutability": "view",
            "type": "function"
        },
        {
            "inputs": [
                {
                    "internalType": "address",
                    "name": "account",
                    "type": "address"
                }
            ],
            "name": "isDistributor",
            "outputs": [
                {
                    "internalType": "bool",
                    "name": "",
                    "type": "bool"
                }
            ],
            "stateMutability": "view",
            "type": "function"
        },
        {
            "inputs": [
                {
                    "internalType": "address",
                    "name": "account",
                    "type": "address"
                }
            ],
            "name": "isFarmer",
            "outputs": [
                {
                    "internalType": "bool",
                    "name": "",
                    "type": "bool"
                }
            ],
            "stateMutability": "view",
            "type": "function"
        },
        {
            "inputs": [
                {
                    "internalType": "address",
                    "name": "account",
                    "type": "address"
                }
            ],
            "name": "isMill",
            "outputs": [
                {
                    "internalType": "bool",
                    "name": "",
                    "type": "bool"
                }
            ],
            "stateMutability": "view",
            "type": "function"
        },
        {
            "inputs": [],
            "name": "isOwner",
            "outputs": [
                {
                    "internalType": "bool",
                    "name": "",
                    "type": "bool"
                }
            ],
            "stateMutability": "view",
            "type": "function"
        },
        {
            "inputs": [
                {
                    "internalType": "address",
                    "name": "account",
                    "type": "address"
                }
            ],
            "name": "isRetailer",
            "outputs": [
                {
                    "internalType": "bool",
                    "name": "",
                    "type": "bool"
                }
            ],
            "stateMutability": "view",
            "type": "function"
        },
        {
            "inputs": [
                {
                    "internalType": "address",
                    "name": "account",
                    "type": "address"
                }
            ],
            "name": "isSilo",
            "outputs": [
                {
                    "internalType": "bool",
                    "name": "",
                    "type": "bool"
                }
            ],
            "stateMutability": "view",
            "type": "function"
        },
        {
            "inputs": [
                {
                    "internalType": "address",
                    "name": "account",
                    "type": "address"
                }
            ],
            "name": "isTransporter",
            "outputs": [
                {
                    "internalType": "bool",
                    "name": "",
                    "type": "bool"
                }
            ],
            "stateMutability": "view",
            "type": "function"
        },
        {
            "inputs": [],
            "name": "ownerLookup",
            "outputs": [
                {
                    "internalType": "address",
                    "name": "",
                    "type": "address"
                }
            ],
            "stateMutability": "view",
            "type": "function"
        },
        {
            "inputs": [
                {
                    "internalType": "uint256",
                    "name": "_upc",
                    "type": "uint256"
                },
                {
                    "internalType": "string",
                    "name": "_packagingInfo",
                    "type": "string"
                },
                {
                    "internalType": "string",
                    "name": "_storageInfoMill",
                    "type": "string"
                },
                {
                    "internalType": "string",
                    "name": "_productDetailMill",
                    "type": "string"
                }
            ],
            "name": "packagingGrainByMill",
            "outputs": [],
            "stateMutability": "nonpayable",
            "type": "function"
        },
        {
            "inputs": [
                {
                    "internalType": "uint256",
                    "name": "_upc",
                    "type": "uint256"
                },
                {
                    "internalType": "string",
                    "name": "_processingInfoMill",
                    "type": "string"
                }
            ],
            "name": "processGrainByMill",
            "outputs": [],
            "stateMutability": "nonpayable",
            "type": "function"
        },
        {
            "inputs": [
                {
                    "internalType": "uint256",
                    "name": "_upc",
                    "type": "uint256"
                },
                {
                    "internalType": "string",
                    "name": "_millInfo",
                    "type": "string"
                }
            ],
            "name": "recieveGrainByMill",
            "outputs": [],
            "stateMutability": "nonpayable",
            "type": "function"
        },
        {
            "inputs": [
                {
                    "internalType": "uint256",
                    "name": "_upc",
                    "type": "uint256"
                },
                {
                    "internalType": "string",
                    "name": "_shipmentInfo",
                    "type": "string"
                }
            ],
            "name": "recievePackagedGrainByDistributor",
            "outputs": [],
            "stateMutability": "nonpayable",
            "type": "function"
        },
        {
            "inputs": [],
            "name": "renounceConsumer",
            "outputs": [],
            "stateMutability": "nonpayable",
            "type": "function"
        },
        {
            "inputs": [],
            "name": "renounceDistributor",
            "outputs": [],
            "stateMutability": "nonpayable",
            "type": "function"
        },
        {
            "inputs": [],
            "name": "renounceFarmer",
            "outputs": [],
            "stateMutability": "nonpayable",
            "type": "function"
        },
        {
            "inputs": [],
            "name": "renounceMill",
            "outputs": [],
            "stateMutability": "nonpayable",
            "type": "function"
        },
        {
            "inputs": [],
            "name": "renounceOwnership",
            "outputs": [],
            "stateMutability": "nonpayable",
            "type": "function"
        },
        {
            "inputs": [],
            "name": "renounceRetailer",
            "outputs": [],
            "stateMutability": "nonpayable",
            "type": "function"
        },
        {
            "inputs": [],
            "name": "renounceSilo",
            "outputs": [],
            "stateMutability": "nonpayable",
            "type": "function"
        },
        {
            "inputs": [],
            "name": "renounceTransporter",
            "outputs": [],
            "stateMutability": "nonpayable",
            "type": "function"
        },
        {
            "inputs": [
                {
                    "internalType": "uint256",
                    "name": "_upc",
                    "type": "uint256"
                }
            ],
            "name": "sellGrainBySilo",
            "outputs": [],
            "stateMutability": "nonpayable",
            "type": "function"
        },
        {
            "inputs": [
                {
                    "internalType": "uint256",
                    "name": "_upc",
                    "type": "uint256"
                }
            ],
            "name": "sellPackagedGrain",
            "outputs": [],
            "stateMutability": "nonpayable",
            "type": "function"
        },
        {
            "inputs": [
                {
                    "internalType": "uint256",
                    "name": "_upc",
                    "type": "uint256"
                }
            ],
            "name": "sellWheatByFarmer",
            "outputs": [],
            "stateMutability": "nonpayable",
            "type": "function"
        },
        {
            "inputs": [
                {
                    "internalType": "uint256",
                    "name": "_upc",
                    "type": "uint256"
                }
            ],
            "name": "shipGrainToTransporter",
            "outputs": [],
            "stateMutability": "nonpayable",
            "type": "function"
        },
        {
            "inputs": [
                {
                    "internalType": "uint256",
                    "name": "_upc",
                    "type": "uint256"
                }
            ],
            "name": "shipPackagedWheatByMill",
            "outputs": [],
            "stateMutability": "nonpayable",
            "type": "function"
        },
        {
            "inputs": [
                {
                    "internalType": "uint256",
                    "name": "_upc",
                    "type": "uint256"
                },
                {
                    "internalType": "string",
                    "name": "_storageInfoBySilo",
                    "type": "string"
                }
            ],
            "name": "storeGrainBySilo",
            "outputs": [],
            "stateMutability": "nonpayable",
            "type": "function"
        },
        {
            "inputs": [
                {
                    "internalType": "uint256",
                    "name": "_upc",
                    "type": "uint256"
                },
                {
                    "internalType": "string",
                    "name": "_storageInfoFarm",
                    "type": "string"
                }
            ],
            "name": "storeWheatByFarmer",
            "outputs": [],
            "stateMutability": "nonpayable",
            "type": "function"
        },
        {
            "inputs": [
                {
                    "internalType": "address",
                    "name": "newOwner",
                    "type": "address"
                }
            ],
            "name": "transferOwnership",
            "outputs": [],
            "stateMutability": "nonpayable",
            "type": "function"
        }
    ],
    "bytecode": "60806040523480156200001157600080fd5b50600080546001600160a01b0319163390811782556040519091907f5c486528ec3e3f0ea91181cff8116f02bfa350e03b8b6f12e00765adbb5af85c908290a36200005c33620000c0565b620000673362000112565b620000723362000164565b6200007d33620001b6565b620000883362000207565b620000933362000259565b6200009e33620002ab565b600880546001600160a01b031916331790556001600a81905560095562000383565b620000db816001620002fd60201b62001b921790919060201c565b6040516001600160a01b038216907f2e0ded4123377a3c2bc9a26f1717655a129e2f20752924d42e730ec89c83dbd090600090a250565b6200012d816002620002fd60201b62001b921790919060201c565b6040516001600160a01b038216907f4c8efb2f42d55d7d831e421921a3b89a7806bb65fdc7c5ccc226f2706660318990600090a250565b6200017f816003620002fd60201b62001b921790919060201c565b6040516001600160a01b038216907f4d9645f2965973330140385c3b546ad4c04b7ee2ae3abb69562f5929d6b8320b90600090a250565b620001d1816004620002fd60201b62001b921790919060201c565b6040516001600160a01b038216907ea0477dded24b6f3ca0efb56770e84d7af0117bde8073e93a34e2f0b67f629290600090a250565b62000222816005620002fd60201b62001b921790919060201c565b6040516001600160a01b038216907fddbf200aa634dc3fb81cfd68583dd1040d1c751d335e1d86b631bde3e977fea890600090a250565b62000274816006620002fd60201b62001b921790919060201c565b6040516001600160a01b038216907f71ae26cad02663e3d92efd6ec56031a80d74a20c0ab4183faa8bf262261c9baa90600090a250565b620002c6816007620002fd60201b62001b921790919060201c565b6040516001600160a01b038216907f28b26e7a3d20aedbc5f8f2ebf7da671c0491723a2b78f47a097b0e46dee0714290600090a250565b6001600160a01b0381166200031157600080fd5b6200031d82826200034d565b156200032857600080fd5b6001600160a01b0316600090815260209190915260409020805460ff19166001179055565b60006001600160a01b0382166200036357600080fd5b506001600160a01b03166000908152602091909152604090205460ff1690565b61259180620003936000396000f3fe608060405234801561001057600080fd5b50600436106102695760003560e01c80637e4704f311610151578063b7022049116100c3578063e02e64ea11610087578063e02e64ea146104f7578063e26a6d6914610512578063e77f6d0514610525578063f2fde38b1461052d578063f916bf6314610540578063fdc1fdea1461055357600080fd5b8063b7022049146104a3578063b9429069146104b6578063c8ec7707146104c9578063c927b792146104dc578063db0e6a2f146104ef57600080fd5b80638b278e45116101155780638b278e45146104315780638ec4f505146104445780638f0c86fa146104575780638f15c6301461046a5780638f32d59b1461047d578063a57a8f891461049057600080fd5b80637e4704f3146103dd57806380c3f96d146103f057806380fc0ce414610403578063834ff7391461040b5780638a74853f1461041e57600080fd5b80632b8109d5116101ea5780635da09b88116101ae5780635da09b881461038c5780635de010c91461039f57806361e6982d146103b2578063644241db146103ba578063715018a6146103c25780637250e224146103ca57600080fd5b80632b8109d5146103435780632e4a437b146103565780632ea17b271461035e5780633734153314610366578063453536ac1461037957600080fd5b806318b50d071161023157806318b50d07146102e45780631b4531ef146102f75780631b84ba421461030a5780631e5766e51461031d5780632a8610051461033057600080fd5b806302ee9e4d1461026e57806303c0c01514610283578063112940f91461029657806312f0dcd8146102a9578063150e3465146102d1575b600080fd5b61028161027c366004612419565b610566565b005b61028161029136600461234c565b61068c565b6102816102a436600461231c565b61074b565b6102bc6102b736600461231c565b610769565b60405190151581526020015b60405180910390f35b6102bc6102df36600461231c565b61077c565b6102816102f236600461231c565b610789565b61028161030536600461234c565b6107a4565b610281610318366004612365565b61087a565b61028161032b36600461234c565b610960565b61028161033e36600461234c565b610a1a565b6102bc61035136600461231c565b610acc565b610281610ad9565b610281610ae4565b610281610374366004612365565b610aed565b610281610387366004612365565b610bbb565b6102bc61039a36600461231c565b610c89565b6102816103ad36600461234c565b610c96565b610281610d4c565b610281610d55565b610281610d5e565b6102816103d836600461231c565b610dbf565b6102816103eb36600461231c565b610dda565b6102816103fe36600461231c565b610df5565b610281610e10565b6102bc61041936600461231c565b610e19565b61028161042c36600461234c565b610e26565b61028161043f36600461234c565b610ee5565b61028161045236600461231c565b610fa6565b6102bc61046536600461231c565b610fc1565b610281610478366004612419565b610fce565b6000546001600160a01b031633146102bc565b61028161049e3660046123ac565b6110fc565b6102816104b136600461231c565b611204565b6102bc6104c436600461231c565b61121f565b6102816104d7366004612365565b61122c565b6102816104ea3660046123ac565b611312565b6102816118f2565b6000546040516001600160a01b0390911681526020016102c8565b61028161052036600461234c565b6118fb565b6102816119b1565b61028161053b36600461231c565b6119ba565b61028161054e366004612365565b6119da565b610281610561366004612365565b611aae565b61056f3361077c565b61057857600080fd5b83600c6000828152600b60205260409020602a015460ff1660198111156105a1576105a161252f565b146105ab57600080fd5b6000858152600b60205260409020546001600160a01b03163381146105cf57600080fd5b6000868152600b60209081526040909120602a8101805460ff1916600d179055865161060392601b90920191880190612064565b506000868152600b60209081526040909120855161062992601a90920191870190612064565b506000868152600b60209081526040909120845161064f92601c90920191860190612064565b506040518681527f080a89a48d661a348c1b359a36dd71b2e8ca13001acf4574ab498d52097fd91b906020015b60405180910390a1505050505050565b6106953361077c565b61069e57600080fd5b80600d6000828152600b60205260409020602a015460ff1660198111156106c7576106c761252f565b146106d157600080fd5b6000828152600b60205260409020546001600160a01b03163381146106f557600080fd5b6000838152600b6020908152604091829020602a01805460ff1916600e17905590518481527f2fc8c17bb6fb086638c55fe51c88af62a57142ca45adbe0288d0c5f5ddd6cb5591015b60405180910390a1505050565b61075433610e19565b61075d57600080fd5b61076681611bde565b50565b6000610776600283611c20565b92915050565b6000610776600483611c20565b6107923361077c565b61079b57600080fd5b61076681611c55565b6107ad33610769565b6107b657600080fd5b8060086000828152600b60205260409020602a015460ff1660198111156107df576107df61252f565b146107e957600080fd5b6000828152600b6020819052604090912001546001600160a01b031633811461081157600080fd5b6000838152600b60208181526040808420602a8101805460ff19166009179055600c835293819020436001919091015591815242601190930192909255518481527fa8af7baeb697f9f6205da1b9373fc85791aa19aa2b21749d80ba8c8e9a64b7cf910161073e565b61088333610769565b61088c57600080fd5b8160056000828152600b60205260409020602a015460ff1660198111156108b5576108b561252f565b146108bf57600080fd5b6000838152600b60205260409020546001600160a01b03163381146108e357600080fd5b6000848152600b60209081526040909120845161090892600f90920191860190612064565b506000848152600b6020908152604091829020602a01805460ff1916600617905590518581527f1b25471619210b4c254eb01319715c6579c3037a230f624154fe1551604ba11d91015b60405180910390a150505050565b61096933610fc1565b61097257600080fd5b80600e6000828152600b60205260409020602a015460ff16601981111561099b5761099b61252f565b146109a557600080fd5b6000828152600b602090815260409182902080546001600160a01b0319908116339081178355601f83018054909216179055602a01805460ff1916600f17905590518381527fb64a650bd16fdcc58820f555d97b554e91b54798dad96aa8edc7bfbe9485603a91015b60405180910390a15050565b610a233361077c565b610a2c57600080fd5b8060076000828152600b60205260409020602a015460ff166019811115610a5557610a5561252f565b14610a5f57600080fd5b6000828152600b602090815260409182902080546001600160a01b0319908116339081178355601783018054909216179055602a01805460ff1916600817905590518381527f784d5d462b810ea2026b9e53c351191f8300eb50e1f674d21ed03ea527d881fd9101610a0e565b6000610776600383611c20565b610ae233611c96565b565b610ae233611cd8565b610af63361077c565b610aff57600080fd5b81600b6000828152600b60205260409020602a015460ff166019811115610b2857610b2861252f565b14610b3257600080fd5b6000838152600b60205260409020546001600160a01b0316338114610b5657600080fd5b6000848152600b60209081526040909120602a8101805460ff1916600c1790558451610b8a92601990920191860190612064565b506040518481527f958b80388d309396ca845bf0d784abb7f42548d9aab59a8321d62c56fd2dc2f190602001610952565b610bc43361121f565b610bcd57600080fd5b8160016000828152600b60205260409020602a015460ff166019811115610bf657610bf661252f565b14610c0057600080fd5b6000838152600b60205260409020546001600160a01b0316338114610c2457600080fd5b6000848152600b60209081526040909120602a8101805460ff191660021790558451610c5892600790920191860190612064565b506040518481527f8e2298ffc95713bb8acd959144050ab8cd87e6d8954f350a2d49449ed0f6ee3390602001610952565b6000610776600683611c20565b610c9f33610769565b610ca857600080fd5b8060066000828152600b60205260409020602a015460ff166019811115610cd157610cd161252f565b14610cdb57600080fd5b6000828152600b60205260409020546001600160a01b0316338114610cff57600080fd5b6000838152600b6020908152604091829020602a01805460ff1916600717905590518481527fb08aaff3f8c46416b680a72a3addd304f2e33c6d2438f4e91548520896cd038b910161073e565b610ae233611d1a565b610ae233611d5c565b6008546001600160a01b03163314610d7557600080fd5b600080546040516001600160a01b03909116907f5c486528ec3e3f0ea91181cff8116f02bfa350e03b8b6f12e00765adbb5af85c908390a3600080546001600160a01b0319169055565b610dc833610fc1565b610dd157600080fd5b61076681611d9e565b610de333610769565b610dec57600080fd5b61076681611de0565b610dfe3361121f565b610e0757600080fd5b61076681611e22565b610ae233611e64565b6000610776600783611c20565b610e2f33610769565b610e3857600080fd5b8060036000828152600b60205260409020602a015460ff166019811115610e6157610e6161252f565b14610e6b57600080fd5b6000828152600b6020818152604080842080546001600160a01b03199081163390811783559482018054909116909417909355602a909201805460ff19166004179055600c815291819020439055518381527f4dd7033ed3dcf232309d09d67ab4bb185cd9a35b4cc73c6767d09f26c3eecf5d9101610a0e565b610eee3361077c565b610ef757600080fd5b80600f6000828152600b60205260409020602a015460ff166019811115610f2057610f2061252f565b14610f2a57600080fd5b6000828152600b60205260409020601701546001600160a01b0316338114610f5157600080fd5b6000838152600b6020908152604091829020602a8101805460ff1916601017905542601e9091015590518481527f472063b547a8d7724e029eaa0f6d0d287c855c575396b23432cafcdb5706d058910161073e565b610faf33610c89565b610fb857600080fd5b61076681611ea6565b6000610776600583611c20565b610fd733610769565b610fe057600080fd5b8360046000828152600b60205260409020602a015460ff1660198111156110095761100961252f565b1461101357600080fd5b6000858152600b60205260409020546001600160a01b031633811461103757600080fd5b6000868152600b60209081526040909120426010820155865161106292600c90920191880190612064565b506000868152600b60209081526040909120855161108892600d90920191870190612064565b506000868152600b6020908152604090912084516110ae92600e90920191860190612064565b506000868152600b6020908152604091829020602a01805460ff1916600517905590518781527fd3234c79bb7fda55fddde9316e98a91b781126438795a393bad7a4100d6ac5f3910161067c565b61110533610acc565b61110e57600080fd5b8260096000828152600b60205260409020602a015460ff1660198111156111375761113761252f565b1461114157600080fd5b6000848152600b602090815260409091206012810180546001600160a01b03191633179055845161117a92601390920191860190612064565b506000848152600b6020908152604090912083516111a092601490920191850190612064565b506000848152600b60209081526040808320602a8101805460ff1916600a17905542601690910155600c8252918290204360029091015590518581527f3929a8380599bf812215e48de344dd9919b69c4119c3b3b0b2da4054637be9039101610952565b61120d33610acc565b61121657600080fd5b61076681611ee8565b6000610776600183611c20565b6112353361077c565b61123e57600080fd5b81600a6000828152600b60205260409020602a015460ff1660198111156112675761126761252f565b1461127157600080fd5b6000838152600b60205260409020546001600160a01b031633811461129557600080fd5b6000848152600b60208181526040909220602a8101805460ff191690921790915584516112ca92601890920191860190612064565b506000848152600b60205260409081902042601d90910155517f2c7366ed54101cf0fbe92656f170d0cb7c41871e0665c5caefe80354045f3ae8906109529086815260200190565b61131b3361121f565b61132457600080fd5b6000806000806000806113356120e8565b600a5460608201819052604082018b905233808352608083015260a082018a90526101008201899052611368908b6124ab565b602082810191825242610120840152600061054084018190526001600160a01b038a81166101608601528981166102408601528881166102e08601528781166103e08601528681166104808601528581166104e08601528d8252600b8352604091829020855181546001600160a01b03199081169184169190911782559451600182015591850151600283015560608501516003830155608085015160048301805490951691161790925560a0830151805184939261142e926005850192910190612064565b5060c0820151805161144a916006840191602090910190612064565b5060e08201518051611466916007840191602090910190612064565b506101008201518051611483916008840191602090910190612064565b506101208201516009820155610140820151600a820155610160820151600b820180546001600160a01b0319166001600160a01b0390921691909117905561018082015180516114dd91600c840191602090910190612064565b506101a082015180516114fa91600d840191602090910190612064565b506101c0820151805161151791600e840191602090910190612064565b506101e0820151805161153491600f840191602090910190612064565b50610200820151601082015561022082015160118201556102408201516012820180546001600160a01b0319166001600160a01b03909216919091179055610260820151805161158e916013840191602090910190612064565b5061028082015180516115ab916014840191602090910190612064565b506102a082015160158201556102c082015160168201556102e08201516017820180546001600160a01b0319166001600160a01b039092169190911790556103008201518051611605916018840191602090910190612064565b506103208201518051611622916019840191602090910190612064565b50610340820151805161163f91601a840191602090910190612064565b50610360820151805161165c91601b840191602090910190612064565b50610380820151805161167991601c840191602090910190612064565b506103a0820151601d8201556103c0820151601e8201556103e0820151601f820180546001600160a01b0319166001600160a01b0390921691909117905561040082015180516116d191602080850192910190612064565b5061042082015180516116ee916021840191602090910190612064565b50610440820151602282015561046082015160238201556104808201516024820180546001600160a01b0319166001600160a01b039092169190911790556104a08201518051611748916025840191602090910190612064565b506104c082015160268201556104e08201516027820180546001600160a01b0319166001600160a01b039092169190911790556105008201518051611797916028840191602090910190612064565b506105208201516029820155610540820151602a8201805460ff191660018360198111156117c7576117c761252f565b0217905550905050600061180a6040518060c001604052806000815260200160008152602001600081526020016000815260200160008152602001600081525090565b8181600001818152505081816020018181525050818160400181815250508181606001818152505081816080018181525050818160a001818152505080600c60008e8152602001908152602001600020600082015181600001556020820151816001015560408201518160020155606082015181600301556080820151816004015560a08201518160050155905050600a60008154809291906118ac906124fe565b90915550506040518c81527fefe4736d527ba6c7c4480d599caf5e0df1b7208f32a2fa24b6847cd0b9ff3a929060200160405180910390a1505050505050505050505050565b610ae233611f2a565b6119043361121f565b61190d57600080fd5b8060026000828152600b60205260409020602a015460ff1660198111156119365761193661252f565b1461194057600080fd5b6000828152600b60205260409020546001600160a01b031633811461196457600080fd5b6000838152600b6020908152604091829020602a01805460ff1916600317905590518481527f7a02b5a0b1f928cffcafd0e750f369a40f124f4f34f65801fe1f0d945b9a7915910161073e565b610ae233611f6c565b6008546001600160a01b031633146119d157600080fd5b61076681611fae565b6119e333610fc1565b6119ec57600080fd5b8160106000828152600b60205260409020602a015460ff166019811115611a1557611a1561252f565b14611a1f57600080fd5b6000838152600b60205260409020546001600160a01b0316338114611a4357600080fd5b6000848152600b60209081526040909120602a8101805460ff191660111790554260238201558451611a7d92602190920191860190612064565b506040518481527f323ef6697998935f1e0cbfa1e699243a8fa2d97ba49d0c0ff56e729e8165bb0690602001610952565b611ab73361121f565b611ac057600080fd5b81600080828152600b60205260409020602a015460ff166019811115611ae857611ae861252f565b14611af257600080fd5b6000838152600b60205260409020546001600160a01b0316338114611b1657600080fd5b6000848152600b60209081526040909120602a8101805460ff191660011790558451611b4a92600690920191860190612064565b506000848152600b60205260409081902042600a90910155517f749c1faf048fc07c9fd93e5f88c7a1fcb337b593061aab5c05b06885f6a77ccf906109529086815260200190565b6001600160a01b038116611ba557600080fd5b611baf8282611c20565b15611bb957600080fd5b6001600160a01b0316600090815260209190915260409020805460ff19166001179055565b611be9600782611b92565b6040516001600160a01b038216907f28b26e7a3d20aedbc5f8f2ebf7da671c0491723a2b78f47a097b0e46dee0714290600090a250565b60006001600160a01b038216611c3557600080fd5b506001600160a01b03166000908152602091909152604090205460ff1690565b611c60600482611b92565b6040516001600160a01b038216907ea0477dded24b6f3ca0efb56770e84d7af0117bde8073e93a34e2f0b67f629290600090a250565b611ca160028261201c565b6040516001600160a01b038216907f667f5da192ef185267b681a3ea60c6a496a92711141d3e9cd25b4be0048f30ff90600090a250565b611ce360038261201c565b6040516001600160a01b038216907f71c0ec84b3f18f4b5ab128b9b8ffdebbe0ccf91b486a336a5ce99bf62842ddda90600090a250565b611d2560078261201c565b6040516001600160a01b038216907fe3f5ed5f263f1f01764a96edfc7d025f511ec5f7d180e8816908b78bcf74f09890600090a250565b611d6760058261201c565b6040516001600160a01b038216907f126174f6cf49c81cdb4a9214c6b8f037bef55b4ec31e4fc776cea2a1c8a88d5990600090a250565b611da9600582611b92565b6040516001600160a01b038216907fddbf200aa634dc3fb81cfd68583dd1040d1c751d335e1d86b631bde3e977fea890600090a250565b611deb600282611b92565b6040516001600160a01b038216907f4c8efb2f42d55d7d831e421921a3b89a7806bb65fdc7c5ccc226f2706660318990600090a250565b611e2d600182611b92565b6040516001600160a01b038216907f2e0ded4123377a3c2bc9a26f1717655a129e2f20752924d42e730ec89c83dbd090600090a250565b611e6f60018261201c565b6040516001600160a01b038216907fa5e0f060af304ab17dd418c7927e3da3ae7868189bf387aee09ab179ccc572f290600090a250565b611eb1600682611b92565b6040516001600160a01b038216907f71ae26cad02663e3d92efd6ec56031a80d74a20c0ab4183faa8bf262261c9baa90600090a250565b611ef3600382611b92565b6040516001600160a01b038216907f4d9645f2965973330140385c3b546ad4c04b7ee2ae3abb69562f5929d6b8320b90600090a250565b611f3560068261201c565b6040516001600160a01b038216907fdb7176e79cffef81cb01767dd0447a0b24bb72ca9778d4b245581086b2a7e6db90600090a250565b611f7760048261201c565b6040516001600160a01b038216907f83d8cce936a4bacce731675cb6d6de235957309cc48eb6a36aa7ae1811eb9fab90600090a250565b6001600160a01b038116611fc157600080fd5b600080546040516001600160a01b03808516939216917f5c486528ec3e3f0ea91181cff8116f02bfa350e03b8b6f12e00765adbb5af85c91a3600080546001600160a01b0319166001600160a01b0392909216919091179055565b6001600160a01b03811661202f57600080fd5b6120398282611c20565b61204257600080fd5b6001600160a01b0316600090815260209190915260409020805460ff19169055565b828054612070906124c3565b90600052602060002090601f01602090048101928261209257600085556120d8565b82601f106120ab57805160ff19168380011785556120d8565b828001600101855582156120d8579182015b828111156120d85782518255916020019190600101906120bd565b506120e492915061227a565b5090565b60405180610560016040528060006001600160a01b0316815260200160008152602001600081526020016000815260200160006001600160a01b0316815260200160608152602001606081526020016060815260200160608152602001600081526020016000815260200160006001600160a01b0316815260200160608152602001606081526020016060815260200160608152602001600081526020016000815260200160006001600160a01b031681526020016060815260200160608152602001600081526020016000815260200160006001600160a01b031681526020016060815260200160608152602001606081526020016060815260200160608152602001600081526020016000815260200160006001600160a01b031681526020016060815260200160608152602001600081526020016000815260200160006001600160a01b03168152602001606081526020016000815260200160006001600160a01b031681526020016060815260200160008152602001600060198111156122755761227561252f565b905290565b5b808211156120e4576000815560010161227b565b600082601f8301126122a057600080fd5b813567ffffffffffffffff808211156122bb576122bb612545565b604051601f8301601f19908116603f011681019082821181831017156122e3576122e3612545565b816040528381528660208588010111156122fc57600080fd5b836020870160208301376000602085830101528094505050505092915050565b60006020828403121561232e57600080fd5b81356001600160a01b038116811461234557600080fd5b9392505050565b60006020828403121561235e57600080fd5b5035919050565b6000806040838503121561237857600080fd5b82359150602083013567ffffffffffffffff81111561239657600080fd5b6123a28582860161228f565b9150509250929050565b6000806000606084860312156123c157600080fd5b83359250602084013567ffffffffffffffff808211156123e057600080fd5b6123ec8783880161228f565b9350604086013591508082111561240257600080fd5b5061240f8682870161228f565b9150509250925092565b6000806000806080858703121561242f57600080fd5b84359350602085013567ffffffffffffffff8082111561244e57600080fd5b61245a8883890161228f565b9450604087013591508082111561247057600080fd5b61247c8883890161228f565b9350606087013591508082111561249257600080fd5b5061249f8782880161228f565b91505092959194509250565b600082198211156124be576124be612519565b500190565b600181811c908216806124d757607f821691505b602082108114156124f857634e487b7160e01b600052602260045260246000fd5b50919050565b600060001982141561251257612512612519565b5060010190565b634e487b7160e01b600052601160045260246000fd5b634e487b7160e01b600052602160045260246000fd5b634e487b7160e01b600052604160045260246000fdfea26469706673582212205d3d7fe67e0a20d1bd62101cd2a48272bb71f76028208eda6151d012f611d98e64736f6c63430008070033",
    "sourcePath": "c:/Users/ayoub/prog/WheatBc/contracts/WheatBase/WheatSupplyChain copy.sol",
    "compiler": {
        "name": "solc",
        "version": "0.8.7+commit.e28d00a7"
    },
    "functionHashes": {
        "addConsumer(address)": "112940f9",
        "addDistributor(address)": "7250e224",
        "addFarmer(address)": "80c3f96d",
        "addMill(address)": "18b50d07",
        "addRetailer(address)": "8ec4f505",
        "addSilo(address)": "7e4704f3",
        "addTransporter(address)": "b7022049",
        "buyGrainByMill(uint256)": "2a861005",
        "buyPackagedWheatByDistributor(uint256)": "1e5766e5",
        "buyWheatBySilo(uint256)": "8a74853f",
        "exportGrainByTrans(uint256,string,string)": "a57a8f89",
        "farmWheatByFarmer(uint256,string,string)": "c927b792",
        "harvestWheatByFarmer(uint256,string)": "fdc1fdea",
        "inspectWheatBySilo(uint256,string,string,string)": "8f15c630",
        "isConsumer(address)": "834ff739",
        "isDistributor(address)": "8f0c86fa",
        "isFarmer(address)": "b9429069",
        "isMill(address)": "150e3465",
        "isOwner()": "8f32d59b",
        "isRetailer(address)": "5da09b88",
        "isSilo(address)": "12f0dcd8",
        "isTransporter(address)": "2b8109d5",
        "ownerLookup()": "e02e64ea",
        "packagingGrainByMill(uint256,string,string,string)": "02ee9e4d",
        "processGrainByMill(uint256,string)": "37341533",
        "recieveGrainByMill(uint256,string)": "c8ec7707",
        "recievePackagedGrainByDistributor(uint256,string)": "f916bf63",
        "renounceConsumer()": "61e6982d",
        "renounceDistributor()": "644241db",
        "renounceFarmer()": "80fc0ce4",
        "renounceMill()": "e77f6d05",
        "renounceOwnership()": "715018a6",
        "renounceRetailer()": "db0e6a2f",
        "renounceSilo()": "2e4a437b",
        "renounceTransporter()": "2ea17b27",
        "sellGrainBySilo(uint256)": "5de010c9",
        "sellPackagedGrain(uint256)": "03c0c015",
        "sellWheatByFarmer(uint256)": "e26a6d69",
        "shipGrainToTransporter(uint256)": "1b4531ef",
        "shipPackagedWheatByMill(uint256)": "8b278e45",
        "storeGrainBySilo(uint256,string)": "1b84ba42",
        "storeWheatByFarmer(uint256,string)": "453536ac",
        "transferOwnership(address)": "f2fde38b"
    },
    "gasEstimates": {
        "creation": {
            "codeDepositCost": "1923400",
            "executionCost": "infinite",
            "totalCost": "infinite"
        },
        "external": {
            "addConsumer(address)": "infinite",
            "addDistributor(address)": "infinite",
            "addFarmer(address)": "infinite",
            "addMill(address)": "infinite",
            "addRetailer(address)": "infinite",
            "addSilo(address)": "infinite",
            "addTransporter(address)": "infinite",
            "buyGrainByMill(uint256)": "78759",
            "buyPackagedWheatByDistributor(uint256)": "78726",
            "buyWheatBySilo(uint256)": "100933",
            "exportGrainByTrans(uint256,string,string)": "infinite",
            "farmWheatByFarmer(uint256,string,string)": "infinite",
            "harvestWheatByFarmer(uint256,string)": "infinite",
            "inspectWheatBySilo(uint256,string,string,string)": "infinite",
            "isConsumer(address)": "2716",
            "isDistributor(address)": "2693",
            "isFarmer(address)": "2671",
            "isMill(address)": "2739",
            "isOwner()": "2443",
            "isRetailer(address)": "2649",
            "isSilo(address)": "2717",
            "isTransporter(address)": "2650",
            "ownerLookup()": "2345",
            "packagingGrainByMill(uint256,string,string,string)": "infinite",
            "processGrainByMill(uint256,string)": "infinite",
            "recieveGrainByMill(uint256,string)": "infinite",
            "recievePackagedGrainByDistributor(uint256,string)": "infinite",
            "renounceConsumer()": "28087",
            "renounceDistributor()": "28109",
            "renounceFarmer()": "28088",
            "renounceMill()": "28086",
            "renounceOwnership()": "30298",
            "renounceRetailer()": "28131",
            "renounceSilo()": "28066",
            "renounceTransporter()": "28088",
            "sellGrainBySilo(uint256)": "32432",
            "sellPackagedGrain(uint256)": "32423",
            "sellWheatByFarmer(uint256)": "32431",
            "shipGrainToTransporter(uint256)": "76751",
            "shipPackagedWheatByMill(uint256)": "54533",
            "storeGrainBySilo(uint256,string)": "infinite",
            "storeWheatByFarmer(uint256,string)": "infinite",
            "transferOwnership(address)": "30504"
        }
    }
}