{
    "contractName": "SupplyChain",
    "abi": [
        {
            "inputs": [],
            "stateMutability": "nonpayable",
            "type": "constructor"
        },
        {
            "anonymous": false,
            "inputs": [
                {
                    "indexed": false,
                    "internalType": "uint256",
                    "name": "upc",
                    "type": "uint256"
                }
            ],
            "name": "BoughtByConsumer",
            "type": "event"
        },
        {
            "anonymous": false,
            "inputs": [
                {
                    "indexed": false,
                    "internalType": "uint256",
                    "name": "upc",
                    "type": "uint256"
                }
            ],
            "name": "BoughtByDistributor",
            "type": "event"
        },
        {
            "anonymous": false,
            "inputs": [
                {
                    "indexed": false,
                    "internalType": "uint256",
                    "name": "upc",
                    "type": "uint256"
                }
            ],
            "name": "BoughtByMill",
            "type": "event"
        },
        {
            "anonymous": false,
            "inputs": [
                {
                    "indexed": false,
                    "internalType": "uint256",
                    "name": "upc",
                    "type": "uint256"
                }
            ],
            "name": "BoughtByRetailer",
            "type": "event"
        },
        {
            "anonymous": false,
            "inputs": [
                {
                    "indexed": false,
                    "internalType": "uint256",
                    "name": "upc",
                    "type": "uint256"
                }
            ],
            "name": "BoughtBySilo",
            "type": "event"
        },
        {
            "anonymous": false,
            "inputs": [
                {
                    "indexed": true,
                    "internalType": "address",
                    "name": "account",
                    "type": "address"
                }
            ],
            "name": "ConsumerAdded",
            "type": "event"
        },
        {
            "anonymous": false,
            "inputs": [
                {
                    "indexed": true,
                    "internalType": "address",
                    "name": "account",
                    "type": "address"
                }
            ],
            "name": "ConsumerRemoved",
            "type": "event"
        },
        {
            "anonymous": false,
            "inputs": [
                {
                    "indexed": true,
                    "internalType": "address",
                    "name": "account",
                    "type": "address"
                }
            ],
            "name": "DistributorAdded",
            "type": "event"
        },
        {
            "anonymous": false,
            "inputs": [
                {
                    "indexed": true,
                    "internalType": "address",
                    "name": "account",
                    "type": "address"
                }
            ],
            "name": "DistributorRemoved",
            "type": "event"
        },
        {
            "anonymous": false,
            "inputs": [
                {
                    "indexed": false,
                    "internalType": "uint256",
                    "name": "upc",
                    "type": "uint256"
                }
            ],
            "name": "ExportByTransporter",
            "type": "event"
        },
        {
            "anonymous": false,
            "inputs": [
                {
                    "indexed": false,
                    "internalType": "uint256",
                    "name": "upc",
                    "type": "uint256"
                }
            ],
            "name": "FarmedByFarmer",
            "type": "event"
        },
        {
            "anonymous": false,
            "inputs": [
                {
                    "indexed": true,
                    "internalType": "address",
                    "name": "account",
                    "type": "address"
                }
            ],
            "name": "FarmerAdded",
            "type": "event"
        },
        {
            "anonymous": false,
            "inputs": [
                {
                    "indexed": true,
                    "internalType": "address",
                    "name": "account",
                    "type": "address"
                }
            ],
            "name": "FarmerRemoved",
            "type": "event"
        },
        {
            "anonymous": false,
            "inputs": [
                {
                    "indexed": false,
                    "internalType": "uint256",
                    "name": "upc",
                    "type": "uint256"
                }
            ],
            "name": "ForSaleByDistributor",
            "type": "event"
        },
        {
            "anonymous": false,
            "inputs": [
                {
                    "indexed": false,
                    "internalType": "uint256",
                    "name": "upc",
                    "type": "uint256"
                }
            ],
            "name": "ForSaleByFarmer",
            "type": "event"
        },
        {
            "anonymous": false,
            "inputs": [
                {
                    "indexed": false,
                    "internalType": "uint256",
                    "name": "upc",
                    "type": "uint256"
                }
            ],
            "name": "ForSaleByMill",
            "type": "event"
        },
        {
            "anonymous": false,
            "inputs": [
                {
                    "indexed": false,
                    "internalType": "uint256",
                    "name": "upc",
                    "type": "uint256"
                }
            ],
            "name": "ForSaleByRetailer",
            "type": "event"
        },
        {
            "anonymous": false,
            "inputs": [
                {
                    "indexed": false,
                    "internalType": "uint256",
                    "name": "upc",
                    "type": "uint256"
                }
            ],
            "name": "ForSaleBySilo",
            "type": "event"
        },
        {
            "anonymous": false,
            "inputs": [
                {
                    "indexed": false,
                    "internalType": "uint256",
                    "name": "upc",
                    "type": "uint256"
                }
            ],
            "name": "HarvestedByFarmer",
            "type": "event"
        },
        {
            "anonymous": false,
            "inputs": [
                {
                    "indexed": false,
                    "internalType": "uint256",
                    "name": "upc",
                    "type": "uint256"
                }
            ],
            "name": "InspectedBySilo",
            "type": "event"
        },
        {
            "anonymous": false,
            "inputs": [
                {
                    "indexed": true,
                    "internalType": "address",
                    "name": "account",
                    "type": "address"
                }
            ],
            "name": "MillAdded",
            "type": "event"
        },
        {
            "anonymous": false,
            "inputs": [
                {
                    "indexed": true,
                    "internalType": "address",
                    "name": "account",
                    "type": "address"
                }
            ],
            "name": "MillRemoved",
            "type": "event"
        },
        {
            "anonymous": false,
            "inputs": [
                {
                    "indexed": false,
                    "internalType": "uint256",
                    "name": "upc",
                    "type": "uint256"
                }
            ],
            "name": "PackageByMill",
            "type": "event"
        },
        {
            "anonymous": false,
            "inputs": [
                {
                    "indexed": false,
                    "internalType": "uint256",
                    "name": "upc",
                    "type": "uint256"
                }
            ],
            "name": "ProcessByMill",
            "type": "event"
        },
        {
            "anonymous": false,
            "inputs": [
                {
                    "indexed": false,
                    "internalType": "uint256",
                    "name": "upc",
                    "type": "uint256"
                }
            ],
            "name": "RecieveByDistributor",
            "type": "event"
        },
        {
            "anonymous": false,
            "inputs": [
                {
                    "indexed": false,
                    "internalType": "uint256",
                    "name": "upc",
                    "type": "uint256"
                }
            ],
            "name": "RecieveByMill",
            "type": "event"
        },
        {
            "anonymous": false,
            "inputs": [
                {
                    "indexed": false,
                    "internalType": "uint256",
                    "name": "upc",
                    "type": "uint256"
                }
            ],
            "name": "RecieveByRetailer",
            "type": "event"
        },
        {
            "anonymous": false,
            "inputs": [
                {
                    "indexed": true,
                    "internalType": "address",
                    "name": "account",
                    "type": "address"
                }
            ],
            "name": "RetailerAdded",
            "type": "event"
        },
        {
            "anonymous": false,
            "inputs": [
                {
                    "indexed": true,
                    "internalType": "address",
                    "name": "account",
                    "type": "address"
                }
            ],
            "name": "RetailerRemoved",
            "type": "event"
        },
        {
            "anonymous": false,
            "inputs": [
                {
                    "indexed": false,
                    "internalType": "uint256",
                    "name": "upc",
                    "type": "uint256"
                }
            ],
            "name": "ShipByDistributor",
            "type": "event"
        },
        {
            "anonymous": false,
            "inputs": [
                {
                    "indexed": false,
                    "internalType": "uint256",
                    "name": "upc",
                    "type": "uint256"
                }
            ],
            "name": "ShipByMill",
            "type": "event"
        },
        {
            "anonymous": false,
            "inputs": [
                {
                    "indexed": false,
                    "internalType": "uint256",
                    "name": "upc",
                    "type": "uint256"
                }
            ],
            "name": "ShipBySilo",
            "type": "event"
        },
        {
            "anonymous": false,
            "inputs": [
                {
                    "indexed": true,
                    "internalType": "address",
                    "name": "account",
                    "type": "address"
                }
            ],
            "name": "SiloAdded",
            "type": "event"
        },
        {
            "anonymous": false,
            "inputs": [
                {
                    "indexed": true,
                    "internalType": "address",
                    "name": "account",
                    "type": "address"
                }
            ],
            "name": "SiloRemoved",
            "type": "event"
        },
        {
            "anonymous": false,
            "inputs": [
                {
                    "indexed": false,
                    "internalType": "uint256",
                    "name": "upc",
                    "type": "uint256"
                }
            ],
            "name": "StackByRetailer",
            "type": "event"
        },
        {
            "anonymous": false,
            "inputs": [
                {
                    "indexed": false,
                    "internalType": "uint256",
                    "name": "upc",
                    "type": "uint256"
                }
            ],
            "name": "StoreByDistributor",
            "type": "event"
        },
        {
            "anonymous": false,
            "inputs": [
                {
                    "indexed": false,
                    "internalType": "uint256",
                    "name": "upc",
                    "type": "uint256"
                }
            ],
            "name": "StoredByFarmer",
            "type": "event"
        },
        {
            "anonymous": false,
            "inputs": [
                {
                    "indexed": false,
                    "internalType": "uint256",
                    "name": "upc",
                    "type": "uint256"
                }
            ],
            "name": "StoredBySilo",
            "type": "event"
        },
        {
            "anonymous": false,
            "inputs": [
                {
                    "indexed": true,
                    "internalType": "address",
                    "name": "oldOwner",
                    "type": "address"
                },
                {
                    "indexed": true,
                    "internalType": "address",
                    "name": "newOwner",
                    "type": "address"
                }
            ],
            "name": "TransferOwnership",
            "type": "event"
        },
        {
            "anonymous": false,
            "inputs": [
                {
                    "indexed": true,
                    "internalType": "address",
                    "name": "account",
                    "type": "address"
                }
            ],
            "name": "TransporterAdded",
            "type": "event"
        },
        {
            "anonymous": false,
            "inputs": [
                {
                    "indexed": true,
                    "internalType": "address",
                    "name": "account",
                    "type": "address"
                }
            ],
            "name": "TransporterRemoved",
            "type": "event"
        },
        {
            "inputs": [
                {
                    "internalType": "address",
                    "name": "account",
                    "type": "address"
                }
            ],
            "name": "addConsumer",
            "outputs": [],
            "stateMutability": "nonpayable",
            "type": "function"
        },
        {
            "inputs": [
                {
                    "internalType": "address",
                    "name": "account",
                    "type": "address"
                }
            ],
            "name": "addDistributor",
            "outputs": [],
            "stateMutability": "nonpayable",
            "type": "function"
        },
        {
            "inputs": [
                {
                    "internalType": "address",
                    "name": "account",
                    "type": "address"
                }
            ],
            "name": "addFarmer",
            "outputs": [],
            "stateMutability": "nonpayable",
            "type": "function"
        },
        {
            "inputs": [
                {
                    "internalType": "address",
                    "name": "account",
                    "type": "address"
                }
            ],
            "name": "addMill",
            "outputs": [],
            "stateMutability": "nonpayable",
            "type": "function"
        },
        {
            "inputs": [
                {
                    "internalType": "address",
                    "name": "account",
                    "type": "address"
                }
            ],
            "name": "addRetailer",
            "outputs": [],
            "stateMutability": "nonpayable",
            "type": "function"
        },
        {
            "inputs": [
                {
                    "internalType": "address",
                    "name": "account",
                    "type": "address"
                }
            ],
            "name": "addSilo",
            "outputs": [],
            "stateMutability": "nonpayable",
            "type": "function"
        },
        {
            "inputs": [
                {
                    "internalType": "address",
                    "name": "account",
                    "type": "address"
                }
            ],
            "name": "addTransporter",
            "outputs": [],
            "stateMutability": "nonpayable",
            "type": "function"
        },
        {
            "inputs": [
                {
                    "internalType": "address",
                    "name": "account",
                    "type": "address"
                }
            ],
            "name": "isConsumer",
            "outputs": [
                {
                    "internalType": "bool",
                    "name": "",
                    "type": "bool"
                }
            ],
            "stateMutability": "view",
            "type": "function"
        },
        {
            "inputs": [
                {
                    "internalType": "address",
                    "name": "account",
                    "type": "address"
                }
            ],
            "name": "isDistributor",
            "outputs": [
                {
                    "internalType": "bool",
                    "name": "",
                    "type": "bool"
                }
            ],
            "stateMutability": "view",
            "type": "function"
        },
        {
            "inputs": [
                {
                    "internalType": "address",
                    "name": "account",
                    "type": "address"
                }
            ],
            "name": "isFarmer",
            "outputs": [
                {
                    "internalType": "bool",
                    "name": "",
                    "type": "bool"
                }
            ],
            "stateMutability": "view",
            "type": "function"
        },
        {
            "inputs": [
                {
                    "internalType": "address",
                    "name": "account",
                    "type": "address"
                }
            ],
            "name": "isMill",
            "outputs": [
                {
                    "internalType": "bool",
                    "name": "",
                    "type": "bool"
                }
            ],
            "stateMutability": "view",
            "type": "function"
        },
        {
            "inputs": [],
            "name": "isOwner",
            "outputs": [
                {
                    "internalType": "bool",
                    "name": "",
                    "type": "bool"
                }
            ],
            "stateMutability": "view",
            "type": "function"
        },
        {
            "inputs": [
                {
                    "internalType": "address",
                    "name": "account",
                    "type": "address"
                }
            ],
            "name": "isRetailer",
            "outputs": [
                {
                    "internalType": "bool",
                    "name": "",
                    "type": "bool"
                }
            ],
            "stateMutability": "view",
            "type": "function"
        },
        {
            "inputs": [
                {
                    "internalType": "address",
                    "name": "account",
                    "type": "address"
                }
            ],
            "name": "isSilo",
            "outputs": [
                {
                    "internalType": "bool",
                    "name": "",
                    "type": "bool"
                }
            ],
            "stateMutability": "view",
            "type": "function"
        },
        {
            "inputs": [
                {
                    "internalType": "address",
                    "name": "account",
                    "type": "address"
                }
            ],
            "name": "isTransporter",
            "outputs": [
                {
                    "internalType": "bool",
                    "name": "",
                    "type": "bool"
                }
            ],
            "stateMutability": "view",
            "type": "function"
        },
        {
            "inputs": [],
            "name": "ownerLookup",
            "outputs": [
                {
                    "internalType": "address",
                    "name": "",
                    "type": "address"
                }
            ],
            "stateMutability": "view",
            "type": "function"
        },
        {
            "inputs": [],
            "name": "renounceConsumer",
            "outputs": [],
            "stateMutability": "nonpayable",
            "type": "function"
        },
        {
            "inputs": [],
            "name": "renounceDistributor",
            "outputs": [],
            "stateMutability": "nonpayable",
            "type": "function"
        },
        {
            "inputs": [],
            "name": "renounceFarmer",
            "outputs": [],
            "stateMutability": "nonpayable",
            "type": "function"
        },
        {
            "inputs": [],
            "name": "renounceMill",
            "outputs": [],
            "stateMutability": "nonpayable",
            "type": "function"
        },
        {
            "inputs": [],
            "name": "renounceOwnership",
            "outputs": [],
            "stateMutability": "nonpayable",
            "type": "function"
        },
        {
            "inputs": [],
            "name": "renounceRetailer",
            "outputs": [],
            "stateMutability": "nonpayable",
            "type": "function"
        },
        {
            "inputs": [],
            "name": "renounceSilo",
            "outputs": [],
            "stateMutability": "nonpayable",
            "type": "function"
        },
        {
            "inputs": [],
            "name": "renounceTransporter",
            "outputs": [],
            "stateMutability": "nonpayable",
            "type": "function"
        },
        {
            "inputs": [
                {
                    "internalType": "address",
                    "name": "newOwner",
                    "type": "address"
                }
            ],
            "name": "transferOwnership",
            "outputs": [],
            "stateMutability": "nonpayable",
            "type": "function"
        }
    ],
    "bytecode": "60806040523480156200001157600080fd5b50600080546001600160a01b0319163390811782556040519091907f5c486528ec3e3f0ea91181cff8116f02bfa350e03b8b6f12e00765adbb5af85c908290a36200005c33620000c0565b620000673362000112565b620000723362000164565b6200007d33620001b6565b620000883362000207565b620000933362000259565b6200009e33620002ab565b600880546001600160a01b031916331790556001600a81905560095562000383565b620000db816001620002fd60201b620004fd1790919060201c565b6040516001600160a01b038216907f2e0ded4123377a3c2bc9a26f1717655a129e2f20752924d42e730ec89c83dbd090600090a250565b6200012d816002620002fd60201b620004fd1790919060201c565b6040516001600160a01b038216907f4c8efb2f42d55d7d831e421921a3b89a7806bb65fdc7c5ccc226f2706660318990600090a250565b6200017f816003620002fd60201b620004fd1790919060201c565b6040516001600160a01b038216907f4d9645f2965973330140385c3b546ad4c04b7ee2ae3abb69562f5929d6b8320b90600090a250565b620001d1816004620002fd60201b620004fd1790919060201c565b6040516001600160a01b038216907ea0477dded24b6f3ca0efb56770e84d7af0117bde8073e93a34e2f0b67f629290600090a250565b62000222816005620002fd60201b620004fd1790919060201c565b6040516001600160a01b038216907fddbf200aa634dc3fb81cfd68583dd1040d1c751d335e1d86b631bde3e977fea890600090a250565b62000274816006620002fd60201b620004fd1790919060201c565b6040516001600160a01b038216907f71ae26cad02663e3d92efd6ec56031a80d74a20c0ab4183faa8bf262261c9baa90600090a250565b620002c6816007620002fd60201b620004fd1790919060201c565b6040516001600160a01b038216907f28b26e7a3d20aedbc5f8f2ebf7da671c0491723a2b78f47a097b0e46dee0714290600090a250565b6001600160a01b0381166200031157600080fd5b6200031d82826200034d565b156200032857600080fd5b6001600160a01b0316600090815260209190915260409020805460ff19166001179055565b60006001600160a01b0382166200036357600080fd5b506001600160a01b03166000908152602091909152604090205460ff1690565b610a3580620003936000396000f3fe608060405234801561001057600080fd5b50600436106101735760003560e01c80637e4704f3116100de5780638f32d59b11610097578063db0e6a2f11610071578063db0e6a2f146102dc578063e02e64ea146102e4578063e77f6d05146102ff578063f2fde38b1461030757600080fd5b80638f32d59b146102a3578063b7022049146102b6578063b9429069146102c957600080fd5b80637e4704f31461023c57806380c3f96d1461024f57806380fc0ce414610262578063834ff7391461026a5780638ec4f5051461027d5780638f0c86fa1461029057600080fd5b80632ea17b27116101305780632ea17b27146101f65780635da09b88146101fe57806361e6982d14610211578063644241db14610219578063715018a6146102215780637250e2241461022957600080fd5b8063112940f91461017857806312f0dcd81461018d578063150e3465146101b557806318b50d07146101c85780632b8109d5146101db5780632e4a437b146101ee575b600080fd5b61018b6101863660046109cf565b61031a565b005b6101a061019b3660046109cf565b610338565b60405190151581526020015b60405180910390f35b6101a06101c33660046109cf565b61034b565b61018b6101d63660046109cf565b610358565b6101a06101e93660046109cf565b610373565b61018b610380565b61018b61038b565b6101a061020c3660046109cf565b610394565b61018b6103a1565b61018b6103aa565b61018b6103b3565b61018b6102373660046109cf565b610414565b61018b61024a3660046109cf565b61042f565b61018b61025d3660046109cf565b61044a565b61018b610465565b6101a06102783660046109cf565b61046e565b61018b61028b3660046109cf565b61047b565b6101a061029e3660046109cf565b610496565b6000546001600160a01b031633146101a0565b61018b6102c43660046109cf565b6104a3565b6101a06102d73660046109cf565b6104be565b61018b6104cb565b6000546040516001600160a01b0390911681526020016101ac565b61018b6104d4565b61018b6103153660046109cf565b6104dd565b6103233361046e565b61032c57600080fd5b61033581610549565b50565b600061034560028361058b565b92915050565b600061034560048361058b565b6103613361034b565b61036a57600080fd5b610335816105c0565b600061034560038361058b565b61038933610601565b565b61038933610643565b600061034560068361058b565b61038933610685565b610389336106c7565b6008546001600160a01b031633146103ca57600080fd5b600080546040516001600160a01b03909116907f5c486528ec3e3f0ea91181cff8116f02bfa350e03b8b6f12e00765adbb5af85c908390a3600080546001600160a01b0319169055565b61041d33610496565b61042657600080fd5b61033581610709565b61043833610338565b61044157600080fd5b6103358161074b565b610453336104be565b61045c57600080fd5b6103358161078d565b610389336107cf565b600061034560078361058b565b61048433610394565b61048d57600080fd5b61033581610811565b600061034560058361058b565b6104ac33610373565b6104b557600080fd5b61033581610853565b600061034560018361058b565b61038933610895565b610389336108d7565b6008546001600160a01b031633146104f457600080fd5b61033581610919565b6001600160a01b03811661051057600080fd5b61051a828261058b565b1561052457600080fd5b6001600160a01b0316600090815260209190915260409020805460ff19166001179055565b6105546007826104fd565b6040516001600160a01b038216907f28b26e7a3d20aedbc5f8f2ebf7da671c0491723a2b78f47a097b0e46dee0714290600090a250565b60006001600160a01b0382166105a057600080fd5b506001600160a01b03166000908152602091909152604090205460ff1690565b6105cb6004826104fd565b6040516001600160a01b038216907ea0477dded24b6f3ca0efb56770e84d7af0117bde8073e93a34e2f0b67f629290600090a250565b61060c600282610987565b6040516001600160a01b038216907f667f5da192ef185267b681a3ea60c6a496a92711141d3e9cd25b4be0048f30ff90600090a250565b61064e600382610987565b6040516001600160a01b038216907f71c0ec84b3f18f4b5ab128b9b8ffdebbe0ccf91b486a336a5ce99bf62842ddda90600090a250565b610690600782610987565b6040516001600160a01b038216907fe3f5ed5f263f1f01764a96edfc7d025f511ec5f7d180e8816908b78bcf74f09890600090a250565b6106d2600582610987565b6040516001600160a01b038216907f126174f6cf49c81cdb4a9214c6b8f037bef55b4ec31e4fc776cea2a1c8a88d5990600090a250565b6107146005826104fd565b6040516001600160a01b038216907fddbf200aa634dc3fb81cfd68583dd1040d1c751d335e1d86b631bde3e977fea890600090a250565b6107566002826104fd565b6040516001600160a01b038216907f4c8efb2f42d55d7d831e421921a3b89a7806bb65fdc7c5ccc226f2706660318990600090a250565b6107986001826104fd565b6040516001600160a01b038216907f2e0ded4123377a3c2bc9a26f1717655a129e2f20752924d42e730ec89c83dbd090600090a250565b6107da600182610987565b6040516001600160a01b038216907fa5e0f060af304ab17dd418c7927e3da3ae7868189bf387aee09ab179ccc572f290600090a250565b61081c6006826104fd565b6040516001600160a01b038216907f71ae26cad02663e3d92efd6ec56031a80d74a20c0ab4183faa8bf262261c9baa90600090a250565b61085e6003826104fd565b6040516001600160a01b038216907f4d9645f2965973330140385c3b546ad4c04b7ee2ae3abb69562f5929d6b8320b90600090a250565b6108a0600682610987565b6040516001600160a01b038216907fdb7176e79cffef81cb01767dd0447a0b24bb72ca9778d4b245581086b2a7e6db90600090a250565b6108e2600482610987565b6040516001600160a01b038216907f83d8cce936a4bacce731675cb6d6de235957309cc48eb6a36aa7ae1811eb9fab90600090a250565b6001600160a01b03811661092c57600080fd5b600080546040516001600160a01b03808516939216917f5c486528ec3e3f0ea91181cff8116f02bfa350e03b8b6f12e00765adbb5af85c91a3600080546001600160a01b0319166001600160a01b0392909216919091179055565b6001600160a01b03811661099a57600080fd5b6109a4828261058b565b6109ad57600080fd5b6001600160a01b0316600090815260209190915260409020805460ff19169055565b6000602082840312156109e157600080fd5b81356001600160a01b03811681146109f857600080fd5b939250505056fea2646970667358221220c15187b08a9a91e34efca469bc9b906b5f7e2c8767f3eada02384dcf7ed04a2464736f6c63430008070033",
    "sourcePath": "c:/Users/ayoub/prog/WheatBc/contracts/WheatBase/WheatSupplyChain copy.sol",
    "compiler": {
        "name": "solc",
        "version": "0.8.7+commit.e28d00a7"
    },
    "functionHashes": {
        "addConsumer(address)": "112940f9",
        "addDistributor(address)": "7250e224",
        "addFarmer(address)": "80c3f96d",
        "addMill(address)": "18b50d07",
        "addRetailer(address)": "8ec4f505",
        "addSilo(address)": "7e4704f3",
        "addTransporter(address)": "b7022049",
        "isConsumer(address)": "834ff739",
        "isDistributor(address)": "8f0c86fa",
        "isFarmer(address)": "b9429069",
        "isMill(address)": "150e3465",
        "isOwner()": "8f32d59b",
        "isRetailer(address)": "5da09b88",
        "isSilo(address)": "12f0dcd8",
        "isTransporter(address)": "2b8109d5",
        "ownerLookup()": "e02e64ea",
        "renounceConsumer()": "61e6982d",
        "renounceDistributor()": "644241db",
        "renounceFarmer()": "80fc0ce4",
        "renounceMill()": "e77f6d05",
        "renounceOwnership()": "715018a6",
        "renounceRetailer()": "db0e6a2f",
        "renounceSilo()": "2e4a437b",
        "renounceTransporter()": "2ea17b27",
        "transferOwnership(address)": "f2fde38b"
    },
    "gasEstimates": {
        "creation": {
            "codeDepositCost": "522600",
            "executionCost": "infinite",
            "totalCost": "infinite"
        },
        "external": {
            "addConsumer(address)": "infinite",
            "addDistributor(address)": "infinite",
            "addFarmer(address)": "infinite",
            "addMill(address)": "infinite",
            "addRetailer(address)": "infinite",
            "addSilo(address)": "infinite",
            "addTransporter(address)": "infinite",
            "isConsumer(address)": "2693",
            "isDistributor(address)": "2737",
            "isFarmer(address)": "2693",
            "isMill(address)": "2672",
            "isOwner()": "2355",
            "isRetailer(address)": "2649",
            "isSilo(address)": "2650",
            "isTransporter(address)": "2716",
            "ownerLookup()": "2367",
            "renounceConsumer()": "28065",
            "renounceDistributor()": "28087",
            "renounceFarmer()": "28065",
            "renounceMill()": "28086",
            "renounceOwnership()": "30276",
            "renounceRetailer()": "28042",
            "renounceSilo()": "28132",
            "renounceTransporter()": "28021",
            "transferOwnership(address)": "30504"
        }
    }
}